:100000002AC1000044C1000042C1000040C10000FC
:100010003EC100003CC100003AC1000038C10000F0
:1000200036C1000034C100000C94830D0C94BD0D4A
:100030002EC100002CC100002AC1000028C1000010
:1000400026C1000024C1000022C1000020C1000020
:100050001EC100001CC100001AC100000C94EE0B70
:1000600016C1000014C1000012C1000010C1000040
:100070000EC100000CC100000AC1000008C1000050
:1000800006C1000004C1000002C1000000C1000060
:10009000FEC00000FCC00000FAC00000F8C0000074
:1000A000F6C00000F4C00000F2C000002D2D2D2D80
:1000B0002D2D2D2D2D2D2D2D2D2D2D2D2D2D2D2D70
:1000C0002D0D0A000D0A000D0A0047616D652041E3
:1000D00076672054696D653A20000D0A00536F75EC
:1000E0006E64204176672054696D653A20000D0AE0
:1000F00000446973706C6179204176672054696DA2
:10010000653A20000D0A00496E70757420417667CB
:100110002054696D653A20000D0A00436F6E736FBD
:100120006C65204176672054696D653A20002D2D5D
:100130002D2D50726F66696C657220446174612D5B
:100140002D2D2D0D0A000D0A544D4F4F532054658F
:10015000726D696E616C0D0A466F726D6174206913
:10016000733A20636F6D6D616E6420617267312038
:100170006172673220617267330D0A3E000D0A3EDC
:100180000000010405060725242322212000010088
:1001900000C1011200020000D30143000300001659
:1001A0000204010309041A021402030904300216AE
:1001B0000303090448020C0001C1120180360181C9
:1001C000361201000202000010C0167A040001017C
:1001D00002030109024300020100C03209040000C9
:1001E000010202010005240010010524010101049F
:1001F00024020605240600010705820310004009B9
:10020000040100020A000000070503024000000785
:1002100005840240000004030904140359006F0020
:100220007500720020004E0061006D006500000046
:100230001603550053004200200053006500720071
:10024000690061006C0000000C03310032003300D3
:1002500034003500000011241FBECFEFDAE0DEBF0E
:10026000CDBF11E0A0E0B1E0E8EFF4E202C00590FC
:100270000D92A239B107D9F712E0A2E9B1E001C0AD
:100280001D92A13AB107E1F7B0D10C947A12B8CE21
:10029000AF92BF92CF92DF92EF92FF920F931F9394
:1002A000182FA5D75B016C01112349F46093A601B7
:1002B0007093A7018093A8019093A9012DC01130DC
:1002C00059F595D79B01AC016093AA017093AB01DE
:1002D0008093AC019093AD018091AE019091AF01FC
:1002E000A091B001B091B101E090A601F090A701FA
:1002F0000091A8011091A9018E199F09A00BB10BC3
:10030000820F931FA41FB51F8093AE019093AF017E
:10031000A093B001B093B1018091B2019091B3016B
:10032000A091B401B091B501A816B906CA06DB06C2
:1003300008F45AC0D601C501805C9D4BA04FBF4F49
:100340008093B2019093B301A093B401B093B5012F
:100350006091AE017091AF018091B0019091B101B7
:1003600024E630E040E050E00E94DA1120E432E47C
:100370004FE050E00E94051284E6982F921B909364
:10038000B601953610F08093B6011092AE0110922E
:10039000AF011092B0011092B1018091250280FF4F
:1003A00023C08091B601823430F08091000188230F
:1003B000D9F080E016C0982F9C52963130F480918D
:1003C0000001813089F081E00CC0895190910001D9
:1003D000833120F4923041F082E003C0943021F068
:1003E00084E093D7809300011F910F91FF90EF90CD
:1003F000DF90CF90BF90AF900895EF92FF920F9350
:100400001F933CD760931F027093200280932102B8
:100410009093220280E03CDF85E492E00E94210F6D
:100420000E94A10AE0909201F09093010091940142
:100430001091950185E492E00E94380F6E0D7F1DAA
:10044000801F911F60939201709393018093940198
:10045000909395018091250283FF1DC086E292E072
:100460000E94210F9BD7E0909601F0909701009198
:1004700098011091990186E292E00E94380F6E0D6A
:100480007F1D801F911F6093960170939701809349
:100490009801909399018091250282FF21C083E108
:1004A00092E00E94210FE0916302F09164020995AD
:1004B000E0909A01F0909B0100919C0110919D01A8
:1004C00083E192E00E94380F6E0D7F1D801F911F07
:1004D00060939A0170939B0180939C0190939D017E
:1004E0008091250281FF1DC085E692E00E94210FC8
:1004F0008FD5E0909E01F0909F010091A001109196
:10050000A10185E692E00E94380F6E0D7F1D801FCD
:10051000911F60939E0170939F018093A00190931F
:10052000A10181E0B5DE1F910F91FF90EF9008953A
:10053000823071F1833030F4882371F0813009F01A
:1005400052C018C0883009F447C0893009F447C048
:10055000833009F048C032C0809125029091260274
:10056000A0912702B0912802662311F081601DC07E
:100570008E7F1BC08091250290912602A0912702B8
:10058000B0912802662311F082600FC08D7F0DC0EC
:100590008091250290912602A0912702B091280215
:1005A000662311F0846001C08B7F809325029093B5
:1005B0002602A0932702B093280213C0809125023F
:1005C00090912602A0912702B0912802662311F093
:1005D0008860EBCF877FE9CF6093250202C06093EC
:1005E000340281E0089580E008952F923F924F9267
:1005F0005F926F927F928F929F92AF92BF92CF92B3
:10060000DF92EF92FF920F931F93DF93CF93CDB7BB
:10061000DEB727970FB6F894DEBF0FBECDBF80E8D8
:100620008093610010926100A8D58823A1F074D74F
:10063000009789F08CD4009771F08AD6882359F0FE
:10064000C7D4882341F00E94C00C882321F00E9467
:100650004F10882321F48BE061E0FED7FFCF10928A
:100660002502109234021092B2011092B30110923E
:10067000B4011092B5011092B6011092A601109229
:10068000A7011092A8011092A9011092AA0110923C
:10069000AB011092AC011092AD011092AE0110921C
:1006A000AF011092B0011092B10180E060E040DF34
:1006B00081E060E03DDF82E061E03ADF83E061E01D
:1006C00037DF83E060E09BD388E06CE398D385E775
:1006D00092E00E94210F91DE87E592E00E94210FB7
:1006E0000E940010E090A201F090A3010091A401EB
:1006F0001091A50187E592E00E94380F6E0D7F1DD5
:10070000801F911F6093A2017093A3018093A401A5
:100710009093A50180914302909144020196909399
:1007200044028093430285E792E00E94380F6034D0
:1007300022E472072FE0820720E0920760F285E74B
:1007400092E00E94210FE0904302F090440200E00A
:1007500010E06091920170919301809194019091C9
:100760009501A80197010E940512D22EC32EB42E26
:10077000A52E6091960170919701809198019091BA
:100780009901A80197010E940512922E39834A838C
:100790005B8360919A0170919B0180919C01909183
:1007A0009D01A80197010E940512422E332E242E8E
:1007B0005C8360919E0170919F018091A001909156
:1007C000A101A80197010E940512822E732E642EAA
:1007D000552E6091A2017091A3018091A401909186
:1007E000A501A80197010E940512E42E8EE291E076
:1007F0002D833E835F8398D68BE191E095D66D2D56
:100800007C2D8B2D9A2D4BE00E94570F88E191E0B3
:100810008BD687E091E088D6692D79818A819B818A
:100820004BE00E94570F84E091E07ED681EF90E08C
:100830007BD6642D732D822D9C814BE00E94570F37
:100840008EEE90E071D68DED90E06ED6682D772D0E
:10085000862D952D4BE00E94570F8AED90E064D6CF
:100860008AEC90E061D62D81622F3E81732F8E2D10
:100870005F81952F4BE00E94570F87EC90E054D694
:1008800062EF70EF8FEF9FEF4AE00E94570F84EC0A
:1008900090E04AD68CEA90E047D61092A2011092DE
:1008A000A3011092A4011092A50110929E01109232
:1008B0009F011092A0011092A10110929A01109232
:1008C0009B0110929C0110929D0110929601109232
:1008D0009701109298011092990110929201109232
:1008E000930110929401109295011092440210927B
:1008F0004302F1CE8091BB0182FF1CC02CEB31E0A2
:100900004091C6015091C701C9010496421753078F
:1009100049F49093C7018093C6015093C501409359
:10092000C40108953093C7012093C6019093C50177
:100930008093C40108951F93DF93CF930F92CDB797
:10094000DEB7863008F052C0653008F04FC0162F71
:10095000110F160F110F180F612F6695669566958A
:1009600070E080E090E049830E9421110E945E11B6
:100970000E94F51070E0E091C401F091C50110955E
:1009800049814423B9F0E60FF71F177021E030E0EA
:1009900002C0220F331F1A95E2F7442737FD409516
:1009A000542F80819181A281B381822B932BA42B20
:1009B000B52B18C0E60FF71F177021E030E002C01A
:1009C000220F331F1A95E2F720953095442737FD03
:1009D0004095542F80819181A281B38182239323FA
:1009E000A423B52380839183A283B3830F90CF91F7
:1009F000DF911F9108951F938630A8F5653098F513
:100A0000162F110F160F110F180F612F669566958F
:100A1000669570E080E090E00E9421110E945E11D6
:100A20000E94F510E091C601F091C701E60FF11D9B
:100A30001095177021E030E002C0220F331F1A9585
:100A4000E2F7442737FD4095542F80819181A281A0
:100A5000B381282339234A235B2381E02115310503
:100A60004105510509F480E01F910895BF92CF928E
:100A7000DF92EF92FF920F931F93CF93DF938091BA
:100A8000BB019091BC01A091BD01B091BE0181FD5F
:100A90007FC082608093BB019093BC01A093BD0195
:100AA000B093BE01A4D37B018C01BB24A0D36E15EF
:100AB0007F058007910708F43EC099D37B018C0124
:100AC0008091B7019091B801A091B901B091BA019C
:100AD000E80EF91E0A1F1B1FBB2011F485E007C09A
:100AE000EB2DFF27E7FDF095E050FF4F808160E0A0
:100AF000B3D5C6E0D1E0CC24DD248C2D6B2D7BDF7B
:100B0000882319F0888160E002C0888161E0A4D563
:100B100074DC0894C11CD11C219686E0C816D1044F
:100B200061F7EB2DFF27E7FDF095EF5FFE4F80812A
:100B300061E092D5B39461DC8B2D85300CF4B6CF97
:100B400056D37B018C018091B7019091B801A0919F
:100B5000B901B091BA01E80EF91E0A1F1B1F01C0AE
:100B60004CDC45D3E616F70608071907C8F780914D
:100B7000BB019091BC01A091BD01B091BE018D7FE0
:100B80008093BB019093BC01A093BD01B093BE01C3
:100B9000DF91CF911F910F91FF90EF90DF90CF9059
:100BA000BF9008950F931F93CF93DF9320D39B01A2
:100BB000AC018091C8019091C901A091CA01B09186
:100BC000CB01281739074A075B0708F44EC0E091AC
:100BD000CC01EE2311F485E006C0FF27E7FDF09578
:100BE000E050FF4F808160E037D506E011E0C0E0C3
:100BF000D0E08C2F6091CC01FEDE882321F0F8013B
:100C0000808160E003C0F801808161E025D52196F4
:100C10000F5F1F4FC630D10561F7E091CC01FF2770
:100C2000E7FDF095EF5FFE4F808161E015D5809183
:100C3000CC018F5F8093CC01853014F01092CC01F1
:100C4000D6D22091B7013091B8014091B9015091AD
:100C5000BA01620F731F841F951F6093C8017093C0
:100C6000C9018093CA019093CB01DF91CF911F916D
:100C70000F9108950F93CF93DF93EC01069F002D02
:100C80001124020F602F66956695669570E088279F
:100C900077FD8095982F0E9423110E945E110E947B
:100CA000F510C60FD11D0095077021E030E002C09D
:100CB000220F331F0A95E2F7442737FD4095542F42
:100CC00088819981AA81BB81282339234A235B2308
:100CD00081E0211531054105510509F480E0DF91DE
:100CE000CF910F9108952F923F924F925F926F9202
:100CF0007F928F929F92AF92BF92CF92DF92EF92AC
:100D0000FF920F931F93CF93DF933C01A62EC42E27
:100D1000D22E102F8091BB0180FD07C0EE24FF244E
:100D2000442E5524262E332436C0EE24FF24442E90
:100D30005524262E332412C0C3016A2D4C2D2C2F8E
:100D40000B2D98DF482F8C2F8D0D692DF4DD21960A
:100D5000C215D3058CF30894E11CF11CE414F504CE
:100D60001CF5C0E0D0E0BE2C9E2C910EF1CFC3014B
:100D70006A2D4C2D2C2F0B2D7DDF482F882321F041
:100D80008C2F8D0D692DD7DD2196C215D3057CF3EF
:100D90000894E11CF11CE414F50434F4C0E0D0E044
:100DA000BE2C9E2C910EF1CF81E0DF91CF911F914F
:100DB0000F91FF90EF90DF90CF90BF90AF909F90FA
:100DC0008F907F906F905F904F903F902F900895FD
:100DD0004091C4015091C501FA0120E030E09FEF3D
:100DE000882311F4108204C0DA01A20FB31F9C9370
:100DF0002F5F3F4F31962430310591F708958330AE
:100E000031F1843038F4882309F446C0823009F087
:100E100098C05EC0883021F0893009F092C07DC052
:100E200025E0629F90011124442737FD4095542FFF
:100E300060E472E48FE090E00E9427122093B701F3
:100E40003093B8014093B9015093BA017CC061302E
:100E500081F486E395E0909364028093630280912D
:100E6000BB019091BC01A091BD01B091BE01886011
:100E70005FC0662309F067C082ED95E0909364023D
:100E8000809363028091BB019091BC01A091BD0150
:100E9000B091BE01877F4CC0662369F4E091BB012D
:100EA000F0E080819181A281B3818E7F80839183E4
:100EB000A283B38348C0613009F045C08091BB0173
:100EC0009091BC01A091BD01B091BE01816030C084
:100ED0006623B9F4E091BB01F0E080819181A281A9
:100EE000B3818B7F80839183A283B3838CEB91E06A
:100EF0009093C5018093C4019093C7018093C6016C
:100F000022C0613011F58091BB019091BC01A0918C
:100F1000BD01B091BE0184600BC06093BB018091A4
:100F2000BB019091BC01A091BD01B091BE018C7F2D
:100F30008093BB019093BC01A093BD01B093BE010F
:100F400002C080E0089581E0089581E008958CEB6F
:100F500091E01092BC011092BD011092BE0110925E
:100F6000BF019C012C5F3F4F1092C0011092C10144
:100F70001092C2011092C3011092C4019093C70154
:100F80008093C6013093C5012093C4011092CC0117
:100F90001092C8011092C9011092CA011092CB019F
:100FA00080EA9FE0A0E0B0E08093B7019093B801A1
:100FB000A093B901B093BA0183E060E020DF80E044
:100FC00061E01DDF82E061E01ADF81E090E00895DA
:100FD00010928C0210928B0210928702109288025B
:100FE0001092890210928A021092910210928D0240
:100FF00010928E0210928F02109290021092830231
:1010000010928402109285021092860281E0089567
:10101000AF92BF92CF92DF92EF92FF920F931F9306
:101020008091830290918402A0918502B091860202
:101030000097A105B10509F453C0D9D07B018C01FB
:101040008091870290918802A0918902B0918A02D2
:10105000E816F9060A071B0758F157016801A81A94
:10106000B90ACA0ADB0A80919102882331F481E02F
:10107000809391028AE061E004C0109291028AE0BC
:1010800060E0EAD280918B0290918C02A0E0B0E007
:101090008E0D9F1DA01FB11F8A199B09AC09BD09A8
:1010A0008093870290938802A0938902B0938A026A
:1010B000E5D09B01AC0180918D0290918E02A091B0
:1010C0008F02B0919002281739074A075B0740F05A
:1010D000109283021092840210928502109286026E
:1010E0001F910F91FF90EF90DF90CF90BF90AF9046
:1010F0000895EF92FF920F931F937A018B019C0149
:1011000040E050E060E472E48FE090E00E9427123B
:1011100030938C0220938B02B1D06E0D7F1D801F07
:10112000911F60938D0270938E0280938F02909333
:1011300090025DD020918B0230918C0240E050E013
:10114000620F731F841F951F60938702709388023C
:101150008093890290938A0281E090E0A0E0B0E061
:101160008093830290938402A0938502B0938602B9
:101170001F910F91FF90EF9008955ED281E08093D0
:10118000D501E0913902F0913A0209956093DA01B4
:101190007093DB018093DC019093DD01E0912302E9
:1011A000F091240209956093D1017093D20180934C
:1011B000D3019093D401E0913902F0913A0209955C
:1011C0006093D6017093D7018093D8019093D90191
:1011D000E0912302F091240209956093CD01709370
:1011E000CE018093CF019093D00181E00895EF92DA
:1011F000FF920F931F93E0913902F0913A02099503
:101200007B018C018091DA019091DB01A091DC01DE
:10121000B091DD01A8019701281B390B4A0B5B0B2C
:10122000CA01B9012091D50130E040E050E00E94B0
:10123000DA119B01AC018091D6019091D701A09168
:10124000D801B091D901280F391F4A1F5B1F209385
:10125000D6013093D7014093D8015093D901E09241
:10126000DA01F092DB010093DC011093DD01B9019A
:10127000CA011F910F91FF90EF900895EF92FF9296
:101280000F931F93E0912302F091240209957B01B3
:101290008C018091D1019091D201A091D301B091A4
:1012A000D401A8019701281B390B4A0B5B0BCA011B
:1012B000B9012091D50130E040E050E00E94DA1100
:1012C0009B01AC018091CD019091CE01A091CF0105
:1012D000B091D001280F391F4A1F5B1F2093CD0109
:1012E0003093CE014093CF015093D001E092D101D1
:1012F000F092D2010093D3011093D401B901CA0135
:101300001F910F91FF90EF9008951F93182F88233E
:1013100011F481E00FC0813011F482E00BC0823003
:1013200011F484E007C0833011F488E003C08430F6
:1013300019F480E18093D5015ADFA0DFF89480E8AA
:1013400080936100109361007894812F1F9108951C
:1013500088E28093920210929C0210929D02109259
:101360009E0210929F0210929B021092980282E0BD
:1013700080939702E5E9F2E082E180838CE081834B
:1013800086E990E0909394028093930282E593E043
:1013900090939A028093990281E00895CF92DF9210
:1013A000EF92FF920F931F93CF93DF9367DF20910C
:1013B0009C0230919D0240919E0250919F026217C3
:1013C00073078407950708F477C020919202620F93
:1013D000711D811D911D60939C0270939D028093ED
:1013E0009E0290939F0280919702CED17C0100E0F3
:1013F00010E0C0909902D0909A02B60180E090E08F
:101400006E157F058007910778F020919302309147
:10141000940240E050E0C801B701621773078407E7
:10142000950710F4CA01B901C0919302D0919402BA
:101430009E0140E050E0621B730B840B950B2FEF75
:1014400030E040E050E0B6D7CC1ADD0A960140E02B
:1014500050E0DBD720939802809195025DD12091D6
:101460009B0230919C0240919D0250919E028823E4
:1014700011F4216001C02E7F20939B0230939C02C7
:1014800040939D0250939E028091960245D12091F7
:101490009B0230919C0240919D0250919E028823B4
:1014A00011F4226001C02D7F20939B0230939C0297
:1014B00040939D0250939E02DF91CF911F910F9117
:1014C000FF90EF90DF90CF9008958130B9F0813098
:1014D00040F08230D9F42091980230E040E050E0B2
:1014E00018C020919B0230919C0240919D02509126
:1014F0009E0221703070407050700BC080919B0232
:1015000021E030E040E050E081FD03C020E030E029
:10151000A901B901CA0108951092DE011092FF01DC
:101520005AD281E090E00895CF93DF93EC01FE0161
:1015300021968491882311F0A1D2F9CFDF91CF9128
:1015400008951F938091DE0180FD1DC05DD2882328
:1015500009F45EC0D5D280FF5BC07DD28091DE01F0
:101560009091DF01A091E001B091E1018160809351
:10157000DE019093DF01A093E001B093E10186E4E6
:1015800091E0D2DF45C043D2182F8091FF01803215
:101590008CF4912F90529F3568F4E82FFF27E7FDD8
:1015A000F095E152FE4F10838F5F8093FF01812FF2
:1015B00065D210C01D3011F01A3061F4E091FF01C6
:1015C000FF27E7FDF095E152FE4F10828DE791E095
:1015D000ABDF1CC019D2882329F092D280FF02C051
:1015E000112391F48091DE019091DF01A091E0013F
:1015F000B091E1018E7F8093DE019093DF01A09393
:10160000E001B093E10104C0143011F41092FF0125
:101610001F9108951F93CF93DF93EC0110E0FE011B
:10162000E10FF11D8081882319F028D21F5FF7CFC9
:10163000DF91CF911F9108954DD184E49CE0909368
:101640003A028093390286E39CE0909324028093CF
:10165000230281E090E00895A82FB0E0662379F599
:10166000AA0FBB1FA45FBE4FEC91F0E021E030E079
:1016700011960C9002C0220F331F0A94E2F7A901C1
:10168000662757FD6095762F84A195A1A6A1B7A1E5
:10169000842B952BA62BB72B84A395A3A6A3B7A326
:1016A00020953095442737FD4095542F85A196A16C
:1016B000A7A1B0A582239323A423B52327C0AA0FF3
:1016C000BB1FA45FBE4FEC91F0E021E030E011962B
:1016D0000C9002C0220F331F0A94E2F7442737FD13
:1016E0004095542F84A195A1A6A1B7A1822B932B3D
:1016F000A42BB52B84A395A3A6A3B7A385A196A1DC
:10170000A7A1B0A5822B932BA42BB52B85A396A3C1
:10171000A7A3B0A781E00895A82FB0E0AA0FBB1F30
:10172000A45FBE4FEC91F0E021E030E011960C9008
:1017300002C0220F331F0A94E2F7A9014095509589
:10174000662757FD6095762F85A196A1A7A1B0A524
:1017500084239523A623B72385A396A3A7A3B0A785
:10176000442737FD4095542F83A194A1A5A1B6A18C
:10177000282339234A235B2381E0211531054105C4
:10178000510509F480E008958C3020F5E82FF0E051
:10179000EF57FE4FE49186E880937A008E2F807297
:1017A000806880937B00EF7180913E01E82BE0938D
:1017B0007C0086EC80937A0080917A0086FDFCCFD5
:1017C0002091780030917900932F80E030E0282B31
:1017D000392B02C020E030E0C90108951F920F921A
:1017E0000FB60F9211242F933F938F939F93AF9334
:1017F000BF938091040290910502A0910602B091DE
:101800000702309108020196A11DB11D232F2D5F03
:101810002D3720F02D570196A11DB11D20930802F0
:101820008093040290930502A0930602B0930702EE
:101830008091000290910102A0910202B0910302F6
:101840000196A11DB11D8093000290930102A09307
:101850000202B0930302BF91AF919F918F913F918C
:101860002F910F900FBE0F901F9018958FB7F8947F
:101870002091040230910502409106025091070226
:101880008FBFB901CA0108959FB7F8942091000253
:1018900030910102409102025091030286B5A89B4B
:1018A00006C08F3F21F02F5F3F4F4F4F5F4F9FBFCD
:1018B000542F432F322F2227280F311D411D511D38
:1018C00082E0220F331F441F551F8A95D1F7B901BB
:1018D000CA010895789484B5826084BD84B581601E
:1018E00084BD85B5826085BD85B5816085BDEEE628
:1018F000F0E0808181608083E1E8F0E01082808107
:1019000082608083808181608083E0E8F0E0808174
:1019100081608083E1E9F0E0808182608083808162
:1019200081608083E0E9F0E0808181608083E1EC88
:10193000F0E0808184608083808182608083808108
:1019400081608083E3ECF0E0808181608083E0EC63
:10195000F0E0808182608083E2ECF0E08081816051
:101960008083EAE7F0E08081846080838081826008
:1019700080838081816080838081806880830895F6
:1019800082E492E19093400280933F028FE492E1DF
:1019900090933802809337028AE492E19093560242
:1019A0008093550284E592E1909354028093530210
:1019B00087E692E190933C0280933B0282E692E1BB
:1019C000909342028093410281E008958091E80063
:1019D00080FFFCCF089581E08093D70080EA809358
:1019E000D80082E189BD09B400FEFDCF80E9809373
:1019F000D8001092E0001092090210920A028CE0C6
:101A00008093E200789408958091090208958FB739
:101A1000F89490910902992369F093E09093E9007A
:101A20002BE69091E80095FD09C092FF03C020933A
:101A3000E800F7CF8FBF2FEF3FEF0BC02091F100F1
:101A40009091E80095FD03C09BE69093E8008FBF5E
:101A500030E0C901089580910902882371F08FB7A1
:101A6000F89493E09093E9009BE602C09093E8001D
:101A70002091E80025FDFACF8FBF089590910902CB
:101A80009923D1F19FB7F89424E02093E9002091A5
:101A90000C02222341F02091E80025FD02C09FBFE7
:101AA0002BC010920C022091E400275E34E040919C
:101AB000E80045FD12C09FBF9091E400921721F409
:101AC00081E080930C0218C0909109029923B1F033
:101AD0009FB7F8943093E900EACF8093F1008091AA
:101AE000E80085FD03C08AE38093E80085E08093E9
:101AF0000B029FBF80E008958FEF08958FEF089548
:101B000080910A0208951F920F920FB60F9211242E
:101B10008F939F938091E1001092E10083FF11C0A9
:101B20001092E90091E09093EB001092EC0092E1AA
:101B30009093ED0098E09093F000109209021092BB
:101B40000A0282FF13C080910902882379F08091F4
:101B50000B02882359F0815080930B02882331F4C3
:101B600084E08093E9008AE38093E8009F918F915D
:101B70000F900FBE0F901F9018951F920F920FB6E7
:101B80000F921124EF92FF920F931F932F933F9385
:101B90004F935F936F937F938F939F93AF93BF9375
:101BA000EF93FF93DF93CF930F92CDB7DEB71092F1
:101BB000E9008091E80083FF29C12091F100309174
:101BC000F1008091F100E82EFF244091F100942F64
:101BD00080E0E82AF92A0091F10010E04091F1003C
:101BE000942F80E0082B192B6091F100A091F10057
:101BF00082EF8093E800363009F059C084E991E023
:101C00009C0125503040FC013797459154914E1569
:101C10005F05F9F4F9014591549140175107C9F452
:101C20002E5F3F4FF901859194912E5F3F4FF9014F
:101C30002491462F50E07A2F60E0462B572B4F3FE0
:101C4000510519F010F04FEF50E0421750F4242FD7
:101C500008C00796295F3F4FF1E08E3B9F0799F63A
:101C6000D5C0AEEF4091E80050E0BA0165707070E9
:101C700061157105B9F342FDCCC0322F213108F056
:101C800030E1AC01632F07C0FA014F5F5F4FE49171
:101C9000E093F10061506623B9F7830F911D231B78
:101CA000A093E8002223F1F63031E1F2B2C03530E2
:101CB00049F48EEF8093E80089DE8E2D8068809352
:101CC000E300A7C0393051F5222309F09FC0E0920C
:101CD000090210920A0210920B028EEF8093E80024
:101CE00041E087EB91E04093E900FC010196E4912B
:101CF000E093EB00EE2369F09C012F5F3F4FFC0166
:101D000084918093EC00C9010196F90124912093FC
:101D1000ED004F5F453039F78EE173C0383049F43C
:101D2000203809F073C052DE809109028093F100DF
:101D300045C0313271F4213A09F068C047DEEFE363
:101D4000F1E081918093F10021E0E634F207C9F7D8
:101D500035C03032A1F4213209F058C08091E8003A
:101D600082FFFCCFEFE3F1E08091F100819331E05D
:101D7000E634F307C9F78BEF8093E8001FC03232D7
:101D800039F4213209F042C0E0920A021FDE16C087
:101D90003323C1F429831ADE2981223851F40093B8
:101DA000E9009091EB0081E095FF80E01092E9005E
:101DB00001C080E08093F1001092F1008EEF8093DB
:101DC000E80027C0313011F0333001F52230F1F452
:101DD000E114F104D9F40F77802F81508430B0F4EE
:101DE0008EEF8093E8000093E900333079F089E1C9
:101DF0008093EB0081E090E002C0880F991F0A9564
:101E0000E2F78093EA001092EA0003C081E2809337
:101E1000EB000F90CF91DF91FF91EF91BF91AF91C8
:101E20009F918F917F916F915F914F913F912F91F2
:101E30001F910F91FF90EF900F900FBE0F901F908A
:101E40001895CF93DF93EC011C821D821E821F82A6
:101E5000188619861A861B86E0913902F0913A029B
:101E60000995688379838A839B83DF91CF91089555
:101E7000CF93DF93EC01E0913902F0913A0209959A
:101E80009B01AC016C837D838E839F8388819981C4
:101E9000AA81BB81281B390B4A0B5B0B288739872A
:101EA0004A875B87B901CA01DF91CF9108954F92AC
:101EB0005F926F927F928F929F92AF92BF92CF92DA
:101EC000DF92EF92FF920F931F93DF93CF93CDB7E3
:101ED000DEB728970FB6F894DEBF0FBECDBF5B010B
:101EE0006C01E42E19821A821B821C821D821E82C2
:101EF0001F821886D7FE07C066277727CB016A198D
:101F00007B098C099D09FF248E010F5F1F4F2AE07A
:101F1000622E712C812C912C28014F0C511CA40194
:101F2000930195D2605DF2016083F394B901CA0117
:101F300016161706180619067CF32F2D30E0F0FE52
:101F40000AC0D801A90141505040F801E40FF51F23
:101F500080E090E026C0D801A90141505040F8012E
:101F6000E40FF51F80E090E00CC00C910196BA01DF
:101F700060806D92008331974150504086179707DB
:101F8000A1F0821793078CF310C06C90BA014080C7
:101F90004D926082019631974150504006171707C5
:101FA00021F08C018217930784F3CE010196FC0186
:101FB000EF0DF11D1082FE2DFB3051F02E2D2A3039
:101FC00041F4D7FE03C08FE891E024DBCE010196F7
:101FD00021DB28960FB6F894DEBF0FBECDBFCF91A0
:101FE000DF911F910F91FF90EF90DF90CF90BF9006
:101FF000AF909F908F907F906F905F904F900895DB
:102000000F931F9380E05AD0182F81E057D0082FEC
:1020100082E054D0E0913D02F0913E0280E00995CB
:10202000812F6AE0E6D1182F80911202811749F0C2
:102030008EEA96E049E150E060E070E05AD81093F3
:102040001202002399F080E060E046E025E008E01D
:1020500067D081E061E044E023E00AE061D082E003
:1020600062E042E021E008E05BD011C0812F9927B7
:1020700087FD9095880F991FE0913502F091360207
:102080008A5B9E4F63E045E020E000E00995E09127
:102090007302F091740209951F910F9108951FD05A
:1020A0008DEF91E0909372028093710289E798E03E
:1020B000909382028093810281E00895813039F00B
:1020C000813018F0823041F404C082E003C080E027
:1020D00001C081E0FAD901C060E0862F0895109216
:1020E000A0028BE994E090935202809351028BEF0F
:1020F00094E0909333028093320283E796E09093CA
:1021000036028093350288EE96E090933E028093EB
:102110003D028AE794E090937402809373020895DD
:10212000CF92DF92EF92FF920F931F93DF93CF93A3
:102130000F92CDB7DEB7182FF62E86300CF04BC0BD
:1021400065300CF048C0D42ED80EE22EEF0C0830CB
:1021500011F00A30C1F4F7FCFF2417FD10E091E004
:10216000083069F090E00BC0802F6F2D492F9983C4
:102170000E949B040F5F99810D15B4F3F394FE1434
:1021800054F5012FF9CF093031F5F7FE02C0FF24D5
:10219000FA9417FD1FEF0F2DCD2CCA940BC0812F81
:1021A000602F41E00E949B048C2D602F41E00E9433
:1021B0009B040F5F0E159CF3EA940BC0812F6F2DCB
:1021C00041E00E949B04812F6E2D41E00E949B0400
:1021D0001F5F1D159CF30F90CF91DF911F910F9101
:1021E000FF90EF90DF90CF900895ACD088F09F578C
:1021F00090F0B92F9927B751A0F0D1F0660F771F53
:10220000881F991F1AF0BA95C9F712C0B13081F032
:10221000CAD0B1E00895C7C0672F782F8827B85F6C
:1022200039F0B93FCCF3869577956795B395D9F793
:102230003EF490958095709561957F4F8F4F9F4F9D
:102240000895E89409C097FB3EF4909580957095A9
:1022500061957F4F8F4F9F4F9923A9F0F92F96E9F2
:10226000BB279395F695879577956795B795F11167
:10227000F8CFFAF4BB0F11F460FF1BC06F5F7F4F04
:102280008F4F9F4F16C0882311F096E911C0772316
:1022900021F09EE8872F762F05C0662371F096E81F
:1022A000862F70E060E02AF09A95660F771F881FEE
:1022B000DAF7880F9695879597F908955DD080F0A5
:1022C0009F3740F491110EF06FC060E070E080E83D
:1022D0009FEB089526F41B16611D711D811D01C021
:1022E0001BC0882371F4772321F09850872B762F19
:1022F00007C0662311F499270DC09051862B70E01A
:1023000060E02AF09A95660F771F881FDAF7880F2A
:102310009695879597F908959F3F31F0915020F455
:10232000879577956795B795880F911D96958795B1
:1023300097F9089557FD9058440F551F59F05F3F86
:1023400071F04795880F97FB991F61F09F3F79F0D7
:1023500087950895121613061406551FF2CF469559
:10236000F1DF08C0161617061806991FF1CF8695DB
:102370007105610508940895E5DFA0F0BEE7B9177F
:1023800088F4BB279F3860F41616B11D672F782F8D
:102390008827985FF7CF869577956795B11D9395B8
:1023A0009639C8F30895E894BB2766277727CB01B1
:1023B00097F90895629FD001739FF001829FE00D0D
:1023C000F11D649FE00DF11D929FF00D839FF00DB4
:1023D000749FF00D659FF00D9927729FB00DE11D60
:1023E000F91F639FB00DE11DF91FBD01CF0111243D
:1023F0000895991B79E004C0991F961708F0961B61
:10240000881F7A95C9F780950895A1E21A2EAA1B14
:10241000BB1BFD010DC0AA1FBB1FEE1FFF1FA21794
:10242000B307E407F50720F0A21BB30BE40BF50B91
:10243000661F771F881F991F1A9469F7609570951A
:10244000809590959B01AC01BD01CF01089597FB4C
:10245000092E05260ED057FD04D0D7DF0AD0001C68
:1024600038F450954095309521953F4F4F4F5F4F31
:102470000895F6F790958095709561957F4F8F4FF1
:102480009F4F0895F999FECF92BD81BDF89A992783
:1024900080B50895A6E1B0E044E050E01DC0A8E199
:1024A000B0E042E050E018C0262FF999FECF1FBAE5
:1024B00092BD81BD20BD0FB6F894FA9AF99A0FBE6D
:1024C00001960895242FF1DF252FEFDF00C0ECDF08
:1024D000272FEBCFDC01CB01FC01F999FECF06C021
:1024E000F2BDE1BDF89A319600B40D9241505040D2
:0824F000B8F70895F894FFCF3E
:1024F800FF09080706050403020100150000000192
:102508000002000300070600060106020603030690
:102518000307060606070004000500060C070C065C
:102528000C050C040C010C00060406050906400005
:10253800E1000000000857DAD75C7246D6DCF34E9B
:10254800F34872D6B7DAE92E24D4B75A924EBEDAD7
:10255800D6DA56D4D74856E6D75A711CE924B6DEDF
:10256800B6D4B6FAB55AB524E54EF6DE592EC54EA0
:10257800C51CB792F31CF3DEE524F7DEF792D42DE1
:02258800000051
:00000001FF
