:100000002FC1000049C1000047C1000045C10000E8
:1000100043C1000041C100003FC100003DC10000DC
:100020003BC1000039C100000C94E70C0C94210D79
:1000300033C1000031C100002FC100002DC10000FC
:100040002BC1000029C1000027C1000025C100000C
:1000500023C1000021C100001FC100000C94D90A77
:100060001BC1000019C1000017C1000015C100002C
:1000700013C1000011C100000FC100000DC100003C
:100080000BC1000009C1000007C1000005C100004C
:1000900003C1000001C10000FFC00000FDC000005E
:1000A000FBC00000F9C00000F7C000000D0A0042CC
:1000B000617474206C6576656C3A20002D2D2D2DB1
:1000C0002D2D2D2D2D2D2D2D2D2D2D2D2D2D2D2D60
:1000D0002D0D0A000D0A004379636C65732F53657B
:1000E000633A20000D0A0047616D65204176672064
:1000F00054696D653A20000D0A00536F756E6420D7
:100100004176672054696D653A20000D0A00496EFA
:10011000707574204176672054696D653A20000D32
:100120000A00436F6E736F6C6520417667205469D7
:100130006D653A20002D2D2D2D50726F66696C650E
:100140007220446174612D2D2D2D0D0A000D0A546D
:100150004D4F4F53205465726D696E616C0D0A46A8
:100160006F726D61742069733A20636F6D6D616E9B
:100170006420617267312061726732206172673377
:100180000D0A3E000D0A3E00000104050607252465
:100190002322212000010000C8011200020000DA21
:1001A0000143000300001D0204010309042102149D
:1001B00002030904370216030309044F020C00016D
:1001C000C1120180360181361201000202000010C6
:1001D000C0167A0400010102030109024300020172
:1001E00000C03209040000010202010005240010D1
:1001F000010524010101042402060524060001076B
:1002000005820310004009040100020A00000007F3
:1002100005030240000007058402400000040309B2
:1002200004140359006F007500720020004E006135
:10023000006D0065000000160355005300420020C9
:1002400000530065007200690061006C0000000C42
:10025000033100320033003400350000002D00006F
:1002600011241FBECFEFDAE0DEBFCDBF11E0A0E06A
:10027000B1E0E6E3FBE202C005900D92A639B107BA
:10028000D9F713E0A6E9B1E001C01D92AD31B10785
:10029000E1F7ABD10C949915B3CEAF92BF92CF9248
:1002A000DF92EF92FF920F931F93182F31D75B01CC
:1002B0006C01112349F46093AA017093AB01809300
:1002C000AC019093AD012DC0113059F521D79B01A0
:1002D000AC016093AE017093AF018093B001909335
:1002E000B1018091B2019091B301A091B401B0919C
:1002F000B501E090AA01F090AB010091AC01109122
:10030000AD018E199F09A00BB10B820F931FA41F83
:10031000B51F8093B2019093B301A093B401B09341
:10032000B5018091B6019091B701A091B801B0914B
:10033000B901A816B906CA06DB0608F45AC0D601E8
:10034000C501805C9D4BA04FBF4F8093B601909339
:10035000B701A093B801B093B9016091B201709157
:10036000B3018091B4019091B50124E630E040E002
:1003700050E00E94CB1420E432E44FE050E00E94B1
:10038000091584E6982F921B9093BA01953610F0C8
:100390008093BA011092B2011092B3011092B4018D
:1003A0001092B5018091700280FF23C08091BA0144
:1003B000823430F0809100018823D9F080E016C0AB
:1003C000982F9C52963130F480910001813089F051
:1003D00081E00CC0895190910001833120F492306A
:1003E00041F082E003C0943021F084E017D780937D
:1003F00000011F910F91FF90EF90DF90CF90BF9081
:10040000AF900895EF92FF920F931F93C4D660931D
:100410006A0270936B0280936C0290936D0280E08D
:100420003CDF8EE892E00E948E0F0E945E0AE09010
:100430009601F090970100919801109199018EE832
:1004400092E00E94A10F6E0D7F1D801F911F60938F
:1004500096017093970180939801909399018091F0
:10046000700283FF1DC081E792E00E948E0F20D7AB
:10047000E0909A01F0909B0100919C0110919D01E8
:1004800081E792E00E94A10F6E0D7F1D801F911FDA
:1004900060939A0170939B0180939C0190939D01BE
:1004A0008091700282FF1CC08EE592E00E948E0F48
:1004B000E0909E01F0909F010091A0011091A10198
:1004C0008EE592E00E94A10F6E0D7F1D801F911F8F
:1004D00060939E0170939F018093A0019093A1016E
:1004E0008091700281FF1DC080EB92E00E948E0F10
:1004F00030D5E090A201F090A3010091A4011091E9
:10050000A50180EB92E00E94A10F6E0D7F1D801F60
:10051000911F6093A2017093A3018093A401909313
:10052000A50181E0BADE1F910F91FF90EF90089531
:10053000823071F1833030F4882371F0813009F01A
:1005400052C018C0883009F447C0893009F447C048
:10055000833009F048C032C08091700290917102DE
:10056000A0917202B0917302662311F081601DC0E8
:100570008E7F1BC08091700290917102A0917202D7
:10058000B0917302662311F082600FC08D7F0DC0A1
:100590008091700290917102A0917202B0917302E9
:1005A000662311F0846001C08B7F8093700290936A
:1005B0007102A0937202B093730213C08091700213
:1005C00090917102A0917202B0917302662311F0B2
:1005D0008860EBCF877FE9CF6093700202C06093A1
:1005E0007F0281E0089580E008952F923F924F921C
:1005F0005F926F927F928F929F92AF92BF92CF92B3
:10060000DF92EF92FF920F931F93DF93CF9300D06F
:100610000F92CDB7DEB780E8809361001092610041
:100620004DD58823A1F035D7009789F01FD40097C6
:1006300071F017D6882359F06CD4882341F00E94BA
:10064000240C882321F00E949011882371F400E08B
:1006500010E017FD03C08BE061E002C08BE060E0BA
:100660000E94670B0F5F1F4FF4CF10927002109221
:100670007F021092B6011092B7011092B801109249
:10068000B9011092BA011092AA011092AB01109216
:10069000AC011092AD011092AE011092AF01109218
:1006A000B0011092B1011092B2011092B3011092F8
:1006B000B4011092B50180E060E03ADF81E060E0D3
:1006C00037DF82E061E034DF83E060E031DF83E048
:1006D00060E021D388E06CE31ED30E947E0F0E946D
:1006E000850E80EC92E00E948E0F8CDE82EA92E012
:1006F0000E948E0F0E94960EE090A601F090A70136
:100700000091A8011091A90182EA92E00E94A10F34
:100710006E0D7F1D801F911F6093A6017093A7012E
:100720008093A8019093A90180918C0290918D02F1
:10073000019690938D0280938C0280EC92E00E944F
:10074000A10F603422E472072FE0820720E09207B5
:1007500008F4C2C080EC92E00E948E0FE0908C0200
:10076000F0908D0200E010E0609196017091970189
:100770008091980190919901A80197010E94091513
:10078000D22EC32EB42EA52E60919A0170919B019A
:1007900080919C0190919D01A80197010E940915EB
:1007A000922E432E342E252E6091A2017091A3012A
:1007B0008091A4019091A501A80197010E940915BB
:1007C000822E732E642E552E6091A6017091A70182
:1007D0008091A8019091A901A80197010E94091593
:1007E000E42E85E391E029833A835B835AD682E243
:1007F00091E057D66D2D7C2D8B2D9A2D4BE00E94CC
:10080000BC0F8FE191E04DD68EE091E04AD6692D84
:10081000742D832D922D4BE00E94BC0F8BE091E054
:1008200040D68AEF90E03DD6682D772D862D952D08
:100830004BE00E94BC0F87EF90E033D687EE90E04C
:1008400030D62981622F3A81732F8E2D5B81952FAF
:100850004BE00E94BC0F84EE90E023D687ED90E041
:1008600020D660918C0270918D0280E090E04BE088
:100870000E94BC0F84ED90E014D68CEB90E011D672
:100880001092A6011092A7011092A8011092A9013E
:100890001092A2011092A3011092A4011092A5013E
:1008A00010929E0110929F011092A0011092A1013E
:1008B00010929A0110929B0110929C0110929D013E
:1008C000109296011092970110929801109299013E
:1008D00010928D0210928C028FE39CE90197F1F740
:1008E00000C000008FEA90E0DCD50E948C0FFC0174
:1008F000BF01882777FD8095982F4BE00E94BC0FA1
:100900008CEA90E0CED5F1CE0895813009F58BE0E8
:1009100061E0DDD68091BF019091C001A091C1013D
:10092000B091C20180688D7F8093BF019093C00118
:10093000A093C101B093C201109206021092070267
:10094000109208021092090210920A0281E00895A2
:100950008823B1F48BE060E0BAD68091BF0190911A
:10096000C001A091C101B091C2018D778093BF01F8
:100970009093C001A093C101B093C20180E008959B
:100980008FEF08958091BF0182FF1CC020EC31E001
:100990004091040250910502C90181964217530704
:1009A00049F490930502809304025093030240930C
:1009B00002020895309305022093040290930302EB
:1009C0008093020208951F93DF93CF930F92CDB7C8
:1009D000DEB7803108F051C0603108F04EC0162FEC
:1009E0001295107F180F612F66956695669570E0D9
:1009F00080E090E049830E9487130E94C4130E9404
:100A00005B1370E0E0910202F091030210954981BE
:100A10004423B9F0E60FF71F177021E030E002C061
:100A2000220F331F1A95E2F7442737FD4095542FC4
:100A300080819181A281B381822B932BA42BB52B32
:100A400018C0E60FF71F177021E030E002C0220F38
:100A5000331F1A95E2F720953095442737FD4095CE
:100A6000542F80819181A281B38182239323A42377
:100A7000B52380839183A283B3830F90CF91DF91BD
:100A80001F9108951F938031A0F5603190F5162FC6
:100A90001295107F180F612F66956695669570E028
:100AA00080E090E00E9487130E94C4130E945B13B1
:100AB000E0910402F0910502E60FF11D1095177008
:100AC00021E030E002C0220F331F1A95E2F74427DD
:100AD00037FD4095542F80819181A281B3812823D5
:100AE00039234A235B2381E0211531054105510556
:100AF00009F480E01F9108951F938DE061E0E7D530
:100B000080910602882359F48CE061E0E0D58FE003
:100B100034D68EE032D68CE060E0D9D504C08FE0C8
:100B20002CD68EE02AD617E0812F60910602AADF2C
:100B3000882319F081E160E002C081E161E0C7D55E
:100B400084E11BD6115080F71FE0812F60910602CF
:100B500099DF882319F081E160E002C081E161E062
:100B6000B6D584E10AD61150173079F783E105D65E
:100B70008DE060E0ACD5809106028F5F8093060225
:100B8000803114F0109206021F9108950F93CF93B5
:100B9000DF93EC01069F002D1124020F602F669554
:100BA0006695669570E0882777FD8095982F0E945E
:100BB00089130E94C4130E945B13C60FD11D0095B8
:100BC000077021E030E002C0220F331F0A95E2F7E0
:100BD000442737FD4095542F88819981AA81BB8194
:100BE000282339234A235B2381E021153105410560
:100BF000510509F480E0DF91CF910F9108952F9274
:100C00003F924F925F926F927F928F929F92AF929C
:100C1000BF92CF92DF92EF92FF920F931F93CF93E9
:100C2000DF933C01A62EC42ED22E102F8091BF013F
:100C300080FD07C0EE24FF24442E5524262E3324A5
:100C400036C0EE24FF24442E5524262E332412C011
:100C5000C3016A2D4C2D2C2F0B2D98DF482F8C2F84
:100C60008D0D692DB0DE2196C215D3058CF3089445
:100C7000E11CF11CE414F5041CF5C0E0D0E0BE2C2E
:100C80009E2C910EF1CFC3016A2D4C2D2C2F0B2DD4
:100C90007DDF482F882321F08C2F8D0D692D93DE69
:100CA0002196C215D3057CF30894E11CF11CE414D1
:100CB000F50434F4C0E0D0E0BE2C9E2C910EF1CFB0
:100CC00081E0DF91CF911F910F91FF90EF90DF9026
:100CD000CF90BF90AF909F908F907F906F905F90DC
:100CE0004F903F902F90089540910202509103023F
:100CF000FA0120E030E09FEF882311F4108204C055
:100D0000DA01A20FB31F9C932F5F3F4F3196213220
:100D1000310591F70895833049F1843038F4882300
:100D200009F449C0823009F09BC061C0883021F0CD
:100D3000893009F095C080C0262F30E084E0220F72
:100D4000331F8A95E1F7442737FD4095542F60E41F
:100D500072E48FE090E00E942B152093BB0130934A
:100D6000BC014093BD015093BE017CC0613081F451
:100D700084E894E09093AF028093AE028091BF012B
:100D80009091C001A091C101B091C20188605FC083
:100D9000662309F067C08CE795E09093AF028093DB
:100DA000AE028091BF019091C001A091C101B091AC
:100DB000C201877F4CC0662369F4E091BF01F0E077
:100DC00080819181A281B3818E7F80839183A28370
:100DD000B38348C0613009F045C08091BF01909154
:100DE000C001A091C101B091C201816030C06623F1
:100DF000B9F4E091BF01F0E080819181A281B381DB
:100E00008B7F80839183A283B38380EC91E0909366
:100E1000030280930202909305028093040222C091
:100E2000613011F58091BF019091C001A091C10185
:100E3000B091C20184600BC06093BF018091BF017B
:100E40009091C001A091C101B091C2018C7F8093AB
:100E5000BF019093C001A093C101B093C20102C031
:100E600080E0089581E0089581E0089529EC31E063
:100E700080E090E00BC01192E217F307E1F70196D2
:100E80009F012F5D3F4F8230910559F0FC0145E0F5
:100E9000EE0FFF1F4A95E1F7E80FF91FE054FE4FF0
:100EA000EACF80EC91E09093050280930402819652
:100EB000909303028093020210920602109207029E
:100EC000109208021092090210920A0281E194E045
:100ED000A0E0B0E08093BB019093BC01A093BD0162
:100EE000B093BE0183E060E016DF80E061E013DFD5
:100EF00082E061E010DF81E008DD80E161E0E7D3BE
:100F000085E161E0E4D382E160E0E1D381E090E05B
:100F100008951092D7021092D6021092D202109227
:100F2000D3021092D4021092D5021092DC021092D9
:100F3000D8021092D9021092DA021092DB021092BB
:100F4000CE021092CF021092D0021092D10281E014
:100F50000895AF92BF92CF92DF92EF92FF920F93DC
:100F60001F938091CE029091CF02A091D002B091B8
:100F7000D1020097A105B10509F453C0C9D07B0186
:100F80008C018091D2029091D302A091D402B091B1
:100F9000D502E816F9060A071B0758F15701680140
:100FA000A81AB90ACA0ADB0A8091DC02882331F444
:100FB00081E08093DC0287E061E004C01092DC02F3
:100FC00087E060E084D38091D6029091D702A0E0C0
:100FD000B0E08E0D9F1DA01FB11F8A199B09AC099F
:100FE000BD098093D2029093D302A093D402B09310
:100FF000D502D1D09B01AC018091D8029091D90249
:10100000A091DA02B091DB02281739074A075B0783
:1010100040F01092CE021092CF021092D0021092A5
:10102000D1021F910F91FF90EF90DF90CF90BF9072
:10103000AF900895EF92FF920F931F937A018B0167
:101040009C0140E050E060E472E48FE090E00E9498
:101050002B153093D7022093D6029DD06E0D7F1DA5
:10106000801F911F6093D8027093D9028093DA0297
:101070009093DB024DD02091D6023091D70240E010
:1010800050E0620F731F841F951F6093D20270930C
:10109000D3028093D4029093D50281E090E0A0E047
:1010A000B0E08093CE029093CF02A093D002B09391
:1010B000D1021F910F91FF90EF900895DED281E051
:1010C000809313029BD3609318027093190280934C
:1010D0001A0290931B0284D360930F027093100244
:1010E000809311029093120289D36093140270933B
:1010F0001502809316029093170272D360930B022D
:1011000070930C0280930D0290930E0281E008957B
:10111000EF92FF920F931F9371D37B018C0180910B
:10112000180290911902A0911A02B0911B02A80115
:101130009701281B390B4A0B5B0BCA01B90120919F
:10114000130230E040E050E00E94CB149B01AC0160
:101150008091140290911502A0911602B09117028D
:10116000280F391F4A1F5B1F20931402309315026A
:101170004093160250931702E0921802F09219025F
:1011800000931A0210931B02B901CA011F910F911B
:10119000FF90EF900895EF92FF920F931F9320D34B
:1011A0007B018C0180910F0290911002A09111029D
:1011B000B0911202A8019701281B390B4A0B5B0B57
:1011C000CA01B9012091130230E040E050E00E94D2
:1011D000CB149B01AC0180910B0290910C02A09169
:1011E0000D02B0910E02280F391F4A1F5B1F20937A
:1011F0000B0230930C0240930D0250930E02E092CA
:101200000F02F09210020093110210931202B90122
:10121000CA011F910F91FF90EF9008951F93182F0F
:10122000882311F481E00FC0813011F482E00BC0FB
:10123000823011F484E007C0833011F488E003C0E9
:10124000843019F480E18093130262DFA4DFF89404
:1012500080E880936100109361007894812F1F9142
:1012600008958CE3809320021092270210922802A6
:101270001092290210922A02109226021092250240
:1012800010922402E1E2F2E08AE0808389E0818327
:1012900088E0828384E690E090931D0280931C0294
:1012A00084E893E090931F0280931E0281E00895EA
:1012B000CF92DF92EF92FF920F931F93CF93DF9322
:1012C0006ADF209127023091280240912902509133
:1012D0002A02621773078407950708F491C02091CA
:1012E0002002620F711D811D911D60932702709372
:1012F00028028093290290932A028091240246D2E8
:101300007C0100E010E0C0901E02D0901F02B601E8
:1013100080E090E06E157F058007910778F02091BE
:101320001C0230911D0240E050E0C801B701621775
:1013300073078407950710F4CA01B901C0911C0214
:10134000D0911D029E0140E050E0621B730B840BA4
:10135000950B2FEF30E040E050E00E94CB14CC1A08
:10136000DD0A960140E050E00E9409152093250215
:1013700080912102DCD120912602309127024091F8
:10138000280250912902882311F4216001C02E7F88
:10139000209326023093270240932802509329027B
:1013A00080912202C4D120912602309127024091DF
:1013B000280250912902882311F4226001C02D7F58
:1013C000209326023093270240932802509329024B
:1013D00080912302ACD120912602309127024091C6
:1013E000280250912902882311F4246001C02B7F28
:1013F000209326023093270240932802509329021B
:10140000DF91CF911F910F91FF90EF90DF90CF90E0
:101410000895813069F0813038F0823079F083307E
:10142000A1F480912502089580912602817008958B
:101430009091260281E091FD09C005C0909126029D
:1014400081E092FD03C080E0089580E008951F933D
:10145000182F83E0DEDF482F8F3FB9F0612F8FEF29
:1014600090E070E00E94F614842F0E94EA14682F26
:1014700070E0882777FD8095982F0E9489130E943D
:10148000C4130E945B13862F02C0812F81501F91CD
:10149000089510922B0210924C0201D281E090E04C
:1014A0000895CF93DF93EC01FE0121968491882368
:1014B00011F048D2F9CFDF91CF9108951F93809119
:1014C0002B0280FD1DC004D2882309F45EC07CD2AB
:1014D00080FF5BC024D280912B0290912C02A091BE
:1014E0002D02B0912E02816080932B0290932C02EA
:1014F000A0932D02B0932E028DE491E0D2DF45C07F
:10150000EAD1182F80914C0280328CF4912F9052A6
:101510009F3568F4E82FFF27E7FDF095E45DFD4F68
:1015200010838F5F80934C02812F0CD210C01D302E
:1015300011F01A3061F4E0914C02FF27E7FDF095BD
:10154000E45DFD4F108284E891E0ABDF1CC0C0D1A8
:10155000882329F039D280FF02C0112391F48091B1
:101560002B0290912C02A0912D02B0912E028E7F21
:1015700080932B0290932C02A0932D02B0932E0205
:1015800004C0143011F410924C021F9108951F935F
:10159000CF93DF93EC0110E0FE01E10FF11D80819C
:1015A000882319F0CFD11F5FF7CFDF91CF911F9123
:1015B00008951F920F920FB60F9211242F933F930D
:1015C0004F935F936F937F938F939F93AF93BF934B
:1015D000EF93FF938091DE029091DF02A091E002F1
:1015E000B091E10230914D020196A11DB11D232F52
:1015F0002D5F2D3720F02D570196A11DB11D209391
:101600004D028093DE029093DF02A093E002B0933C
:10161000E1028091E2029091E302A091E402B09194
:10162000E5020196A11DB11D8093E2029093E302B1
:10163000A093E402B093E5028091DD028F5F809376
:10164000DD028091DD02823038F0E091AE02F0914F
:10165000AF0209951092DD02FF91EF91BF91AF911A
:101660009F918F917F916F915F914F913F912F91BA
:101670000F900FBE0F901F901895F89484B582605C
:1016800084BD84B5816084BD85B5826085BD85B526
:10169000816085BDEEE6F0E0808181608083789492
:1016A0001092E2021092E3021092E4021092E5021C
:1016B0001092DE021092DF021092E0021092E1021C
:1016C00010924D021092DD0281E090E00895893180
:1016D00060F5E82FF0E0EE0FFF1FEF5FFE4F808117
:1016E00021818154E82FEE0FE80FF0E0662371F4BA
:1016F00081E090E002C0880F991F2A95E2F721A1AE
:10170000282B21A3809592A198230CC081E090E022
:1017100002C0880F991F2A95E2F791A1982B91A3F7
:1017200092A1982B92A381E0089580E008958931D9
:1017300010F5E82FF0E0EE0FFF1FEF5FFE4F808106
:101740008154A3E08A9FD001112421E030E0018080
:1017500002C0220F331F0A94E2F7922F90959196C0
:101760008C919197892391968C93919790968C91D7
:1017700090978223089580E008951F93182F61E0C9
:10178000A6DF812F60E0A3DF1F9108958C3020F544
:10179000E82FF0E0E857FE4FE49186E880937A0066
:1017A0008E2F8072806880937B00EF71809133016F
:1017B000E82BE0937C0086EC80937A0080917A009D
:1017C00086FDFCCF2091780030917900932F80E046
:1017D00030E0282B392B02C020E030E0C901089509
:1017E0008FB7F8942091DE023091DF024091E00241
:1017F0005091E1028FBFB901CA0108959FB7F894D3
:101800002091E2023091E3024091E4025091E5021E
:1018100086B5A89B06C08F3F21F02F5F3F4F4F4FEB
:101820005F4F9FBF542F432F322F2227280F311D88
:10183000411D511D62E0220F331F441F551F6A9541
:10184000D1F7B901CA01089581E695E19093890223
:10185000809388028EE695E19093830280938202C2
:1018600089E695E19093A1028093A00283E795E138
:1018700090939D0280939C0286E895E19093850267
:101880008093840281E895E190938B0280938A0291
:1018900081E008958091E80080FFFCCF089581E009
:1018A0008093D70080EA8093D80082E189BD09B493
:1018B00000FEFDCF80E98093D8001092E0001092E6
:1018C0004E0210924F028CE08093E20078940895CB
:1018D00080914E0208958FB7F89490914E0299230B
:1018E00069F093E09093E9002BE69091E80095FD74
:1018F00009C092FF03C02093E800F7CF8FBF2FEFFE
:101900003FEF0BC02091F1009091E80095FD03C0DE
:101910009BE69093E8008FBF30E0C9010895809165
:101920004E02882371F08FB7F89493E09093E9000A
:101930009BE602C09093E8002091E80025FDFACFD5
:101940008FBF089590914E029923D1F19FB7F894DB
:1019500024E02093E90020915102222341F02091BC
:10196000E80025FD02C09FBF2BC0109251022091BC
:10197000E400275E34E04091E80045FD12C09FBFBF
:101980009091E400921721F481E08093510218C0F5
:1019900090914E029923B1F09FB7F8943093E900EB
:1019A000EACF8093F1008091E80085FD03C08AE3CF
:1019B0008093E80085E0809350029FBF80E0089507
:1019C0008FEF08958FEF089580914F0208951F9231
:1019D0000F920FB60F9211248F939F938091E10085
:1019E0001092E10083FF11C01092E90091E0909302
:1019F000EB001092EC0092E19093ED0098E0909350
:101A0000F00010924E0210924F0282FF13C080919C
:101A10004E02882379F080915002882359F081503A
:101A200080935002882331F484E08093E9008AE3B4
:101A30008093E8009F918F910F900FBE0F901F90A1
:101A400018951F920F920FB60F921124EF92FF92EA
:101A50000F931F932F933F934F935F936F937F93B6
:101A60008F939F93AF93BF93EF93FF93DF93CF93A6
:101A70000F92CDB7DEB71092E9008091E80083FFA6
:101A800029C12091F1003091F1008091F100E82E00
:101A9000FF244091F100942F80E0E82AF92A009178
:101AA000F10010E04091F100942F80E0082B192BF9
:101AB0006091F100A091F10082EF8093E800363050
:101AC00009F059C08BE991E09C0125503040FC01A0
:101AD0003797459154914E155F05F9F4F9014591F9
:101AE000549140175107C9F42E5F3F4FF90185917A
:101AF00094912E5F3F4FF9012491462F50E07A2FA9
:101B000060E0462B572B4F3F510519F010F04FEF77
:101B100050E0421750F4242F08C00796295F3F4F2A
:101B2000F1E0853C9F0799F6D5C0AEEF4091E80003
:101B300050E0BA016570707061157105B9F342FD2E
:101B4000CCC0322F213108F030E1AC01632F07C047
:101B5000FA014F5F5F4FE491E093F100615066231B
:101B6000B9F7830F911D231BA093E8002223F1F600
:101B70003031E1F2B2C0353049F48EEF8093E800A5
:101B800089DE8E2D80688093E300A7C0393051F53F
:101B9000222309F09FC0E0924E0210924F02109251
:101BA00050028EEF8093E80041E08EEB91E040938D
:101BB000E900FC010196E491E093EB00EE2369F06B
:101BC0009C012F5F3F4FFC0184918093EC00C90181
:101BD0000196F90124912093ED004F5F453039F7CC
:101BE0008EE173C0383049F4203809F073C052DEFA
:101BF00080914E028093F10045C0313271F4213A58
:101C000009F068C047DEE4E3F1E081918093F100E0
:101C100021E0EB33F207C9F735C03032A1F42132AD
:101C200009F058C08091E80082FFFCCFE4E3F1E0C6
:101C30008091F100819331E0EB33F307C9F78BEF2B
:101C40008093E8001FC0323239F4213209F042C0DB
:101C5000E0924F021FDE16C03323C1F429831ADE3F
:101C60002981223851F40093E9009091EB0081E042
:101C700095FF80E01092E90001C080E08093F100C0
:101C80001092F1008EEF8093E80027C0313011F000
:101C9000333001F52230F1F4E114F104D9F40F7777
:101CA000802F81508430B0F48EEF8093E800009351
:101CB000E900333079F089E18093EB0081E090E036
:101CC00002C0880F991F0A95E2F78093EA001092EC
:101CD000EA0003C081E28093EB000F90CF91DF9187
:101CE000FF91EF91BF91AF919F918F917F916F91F4
:101CF0005F914F913F912F911F910F91FF90EF9026
:101D00000F900FBE0F901F901895109254021092D2
:101D100055021092560210925702109258021092D9
:101D200052028FEF8093530281E008951F93CF9367
:101D3000DF9380E053D3EC0180E090E058D39091A2
:101D40005202992309F04DC0E0919E02F0919F024A
:101D50000995182FE0916E02F0916F0280E00995CD
:101D60008823E1F5E0918602F091870209958CE0E5
:101D7000189FC00111248C0F9D1F60E040E0DCD350
:101D8000E0919A02F0919B028AE063E041E00995BC
:101D9000E0919A02F0919B0287E068E041E00995AA
:101DA000E0919A02F0919B0288E068E041E0099599
:101DB000E0919A02F0919B028FE06FE041E009957B
:101DC000E0919A02F0919B0287E06FE041E0099573
:101DD000E091BE02F091BF0209951FEF10935302EC
:101DE0001BC080915302992787FD9095FC01EE0F4F
:101DF000FF1FE80FF91FEE0FFF1FEE0FFF1FEC0F85
:101E0000FD1F0284F385E02D0995882329F41092A3
:101E100052028FEF80935302809153028F3FC9F09B
:101E2000909152029923A9F491E09093520299273C
:101E300087FD9095FC01EE0FFF1FE80FF91FEE0FD5
:101E4000FF1FEE0FFF1FEC0FFD1F0084F185E02D3B
:101E50000995E0916E02F0916F0281E00995882367
:101E600009F43DC0E0916E02F0916F0282E00995A5
:101E70008823A9F180915402813021F5C1D29B01C0
:101E8000AC018091550290915602A0915702B091F9
:101E9000580284529A4FAF4FBF4F281739074A074D
:101EA0005B0740F1109254021092550210925602B4
:101EB0001092570210925802109252028FEF8093A4
:101EC000530218C081E0809354029AD26093550265
:101ED0007093560280935702909358020BC090D291
:101EE0006093550270935602809357029093580264
:101EF00010925402DF91CF911F91089583E391E0F6
:101F000090935A02809359028CEC90E090935C027B
:101F100080935B0281E0089581E038CCCF93DF931A
:101F2000EC011C821D821E821F82188619861A8669
:101F30001B8664DC688379838A839B83DF91CF91DE
:101F40000895CF93DF93EC0159DC9B01AC016C83C6
:101F50007D838E839F8388819981AA81BB81281B81
:101F6000390B4A0B5B0B288739874A875B87B90196
:101F7000CA01DF91CF9108954F925F926F927F9245
:101F80008F929F92AF92BF92CF92DF92EF92FF9289
:101F90000F931F93DF93CF93CDB7DEB728970FB67C
:101FA000F894DEBF0FBECDBF5B016C01E42E198239
:101FB0001A821B821C821D821E821F821886D7FEF7
:101FC00007C066277727CB016A197B098C099D0911
:101FD000FF248E010F5F1F4F2AE0622E712C812C8F
:101FE000912C28014F0C511CA401930134D5605D44
:101FF000F2016083F394B901CA0116161706180698
:1020000019067CF32F2D30E0F0FE0AC0D801A9019B
:1020100041505040F801E40FF51F80E090E026C0E9
:10202000D801A90141505040F801E40FF51F80E0AC
:1020300090E00CC00C910196BA0160806D92008313
:1020400031974150504086179707A1F082179307A8
:102050008CF310C06C90BA0140804D926082019662
:102060003197415050400617170721F08C01821715
:10207000930784F3CE010196FC01EF0DF11D108250
:10208000FE2DFB3051F02E2D2A3041F4D7FE03C037
:102090008DE592E006DACE01019679DA28960FB640
:1020A000F894DEBF0FBECDBFCF91DF911F910F918E
:1020B000FF90EF90DF90CF90BF90AF909F908F9068
:1020C0007F906F905F904F900895E0918602F0911D
:1020D000870280E00995E0919A02F0919B0282E0EC
:1020E00062E041E00995E0919A02F0919B0285E05F
:1020F00062E041E0099582E065E045E025E0AAD193
:10210000E0919A02F0919B0281E064E041E0099540
:10211000E0919A02F0919B0286E064E041E009952B
:10212000E091BE02F091BF02099581E00895EF921F
:10213000FF920F931F93E0916E02F0916F0283E084
:102140000995182FE0916E02F0916F0280E00995D9
:10215000E82EE0916E02F0916F0281E00995F82E71
:10216000E0916E02F0916F0282E00995082FE091F4
:102170008602F091870280E00995812F6AE02AD4D7
:10218000182F80915D02811751F08EEA96E049E1A7
:1021900050E060E070E00E941A0810935D02EE20AB
:1021A00041F0E0919A02F0919B0283E060E041E00F
:1021B0000995FF2041F0E0919A02F0919B0284E0A2
:1021C00060E041E00995002341F0E0919A02F0912E
:1021D0009B0285E060E041E00995812F992787FD0A
:1021E0009095880F991FE0918002F0918102855CA3
:1021F0009E4F63E045E020E000E00995E091BE02DB
:10220000F091BF02099581E01F910F91FF90EF902F
:10221000089588E08093EB021092E6021092E702A4
:102220001092E8021092E902E0916E02F0916F02C2
:1022300083E009958093EA020895E0918602F09187
:10224000870280E0099584E891E06091EB0240E02C
:1022500073D180E067E043E025E0FCD087E067E0F1
:1022600044E025E0F7D0E091BE02F091BF0209956D
:10227000C7D09B01AC018091E6029091E702A0914A
:10228000E802B091E90282179307A407B50708F5A1
:102290008091EB0281508093EB028C3E19F488E030
:1022A0008093EB02E0916E02F0916F0283E009955A
:1022B0008093EA02A5D02091EA02620F711D811D70
:1022C000911D6093E6027093E7028093E802909379
:1022D000E90281E00895E0918602F091870280E0B2
:1022E00009951ADE9C01B901882777FD8095982F02
:1022F00010D220E030EC4FE754E470D120E030E021
:1023000040E051E4E5D2D2D1462F80E060E020E009
:10231000A1D0E091BE02F091BF02099581E008953D
:10232000CF93DF9376D082E092E09093BD028093CA
:10233000BC028AE198E09093CD028093CC0289E0C0
:102340009AE090936F0280936E0287E29AE09093F6
:102350009F0280939E02CCEED2E0CE016AE871E04B
:10236000A9D387E990E19093F5028093F4029093CA
:10237000F7028093F602CE010C966DE871E09AD3D5
:1023800085E690E19093010380930003909303030B
:1023900080930203CE01489660E971E08BD389E017
:1023A00091E190930D0380930C038DE191E1909363
:1023B0000F0380930E03CE01849663E971E07AD314
:1023C0008BE691E1909319038093180390931B037C
:1023D00080931A0381E0DF91CF910895882319F447
:1023E0002CEE32E002C020E030E0C90108958823DD
:1023F00019F424E030E002C020E030E0C901089583
:1024000060916A0270916B0280916C0290916D02F2
:10241000089510921C0383EE94E090939B028093A6
:102420009A0282E495E090937E0280937D028FEF82
:1024300095E0909381028093800284E796E09093E8
:1024400087028093860282EC94E09093BF0280938F
:10245000BE020895AF92BF92CF92DF92EF92FF92A9
:102460000F931F93DF93CF9300D00F92CDB7DEB7BA
:10247000142FE42FFF27E7FDF095482F552747FD40
:102480005095E41BF50BF7FF03C0F095E195FF4F66
:10249000DE2EE22FFF27E7FDF095A62FBB27A7FD35
:1024A000B095EA1BFB0BF7FF03C0F095E195FF4FDA
:1024B0004E2FCE2E0D2D0E1B811714F491E001C06E
:1024C0009FEF621714F431E001C03FEFE62EF82EC3
:1024D000552747FD5095AA24BB24A41AB50A8F2D71
:1024E0006E2D41E02B833A8399830E94E3042B8174
:1024F0003A819981F11611F4E21681F0802F880F4C
:10250000482F552747FD5095A416B50614F40C190D
:10251000F90E8D1524F70D0DE30EE1CF0F900F90FE
:102520000F90CF91DF911F910F91FF90EF90DF906F
:10253000CF90BF90AF900895AF92BF92DF92EF928D
:10254000FF920F931F93CF93DF93182FF42EE82F52
:10255000F92FDF010D900020E9F7DA2ED81A4EEF9F
:10256000A42EDA0CE62E412FEA015E01B92EE50118
:1025700027C08991982F91549A3140F4992787FD6B
:102580009095880F991F87549F4F0BC0982F905399
:102590009A3050F4992787FD9095880F991F815F95
:1025A0009E4F63E045E004C083E891E062E043E0D1
:1025B0002E2D0F2D0E94FF050E94020234E0E30E33
:1025C000AE01411BD416ACF6DF91CF911F910F9154
:1025D000FF90EF90DF90BF90AF9008950CD027C18F
:1025E0001FD140F016D130F021F45F3F19F0DFC069
:1025F000511168C10BC12CD198F39923C9F355230C
:10260000B1F3951B550BBB27AA27621773078407E5
:1026100038F09F5F5F4F220F331F441FAA1FA9F39B
:1026200033D00E2E3AF0E0E830D091505040E6958D
:10263000001CCAF729D0FE2F27D0660F771F881FEE
:10264000BB1F261737074807AB07B0E809F0BB0BDD
:10265000802DBF01FF2793585F4F2AF09E3F510501
:1026600068F0A5C02FC15F3FECF3983EDCF3869580
:1026700077956795B795F7959F5FC9F7880F911D77
:102680009695879597F90895E1E0660F771F881F63
:10269000BB1F621773078407BA0720F0621B730B16
:1026A000840BBA0BEE1F88F7E095089504D0689468
:1026B000B11108C10895D4D088F09F5790F0B92F78
:1026C0009927B751A0F0D1F0660F771F881F991F87
:1026D0001AF0BA95C9F712C0B13081F0F2D0B1E06A
:1026E0000895EFC0672F782F8827B85F39F0B93F7A
:1026F000CCF3869577956795B395D9F73EF4909589
:102700008095709561957F4F8F4F9F4F0895E89406
:1027100009C097FB3EF490958095709561957F4F29
:102720008F4F9F4F9923A9F0F92F96E9BB279395D7
:10273000F695879577956795B795F111F8CFFAF4E7
:10274000BB0F11F460FF1BC06F5F7F4F8F4F9F4F18
:1027500016C0882311F096E911C0772321F09EE876
:10276000872F762F05C0662371F096E8862F70E0DC
:1027700060E02AF09A95660F771F881FDAF7880FB6
:102780009695879597F9089585D080F09F3740F406
:1027900091110EF097C060E070E080E89FEB089523
:1027A00026F41B16611D711D811D07C021C097F9FC
:1027B0009F6780E870E060E00895882371F47723D4
:1027C00021F09850872B762F07C0662311F49927A4
:1027D0000DC09051862B70E060E02AF09A95660F4C
:1027E000771F881FDAF7880F9695879597F90895D0
:1027F0009F3F31F0915020F4879577956795B79575
:10280000880F911D9695879597F908959FEF80EC15
:10281000089500240A941616170618060906089546
:1028200000240A9412161306140605060895092EAC
:102830000394000C11F4882352F0BB0F40F4BF2B1B
:1028400011F460FF04C06F5F7F4F8F4F9F4F08955B
:1028500057FD9058440F551F59F05F3F71F0479551
:10286000880F97FB991F61F09F3F79F08795089536
:10287000121613061406551FF2CF4695F1DF08C055
:10288000161617061806991FF1CF86957105610572
:1028900008940895E5DFA0F0BEE7B91788F4BB27D8
:1028A0009F3860F41616B11D672F782F8827985F20
:1028B000F7CF869577956795B11D93959639C8F3AF
:1028C0000895E894BB2766277727CB0197F90895E9
:1028D0000BD0ADCF9EDF28F0A3DF18F0952309F0D1
:1028E00066CF94CF1124EECFB3DFA0F3959FD1F341
:1028F000950F50E0551F629FF001729FBB27F00DAE
:10290000B11D639FAA27F00DB11DAA1F649F662702
:10291000B00DA11D661F829F2227B00DA11D621F51
:10292000739FB00DA11D621F839FA00D611D221F0B
:10293000749F3327A00D611D231F849F600D211DEF
:10294000822F762F6A2F11249F5750408AF0E1F092
:1029500088234AF0EE0FFF1FBB1F661F771F881FDB
:1029600091505040A9F79E3F510570F020CFAACF5B
:102970005F3FECF3983EDCF3869577956795B795C6
:10298000F795E7959F5FC1F7FE2B880F911D9695F0
:10299000879597F90895629FD001739FF001829FF8
:1029A000E00DF11D649FE00DF11D929FF00D839FDE
:1029B000F00D749FF00D659FF00D9927729FB00D7B
:1029C000E11DF91F639FB00DE11DF91FBD01CF018E
:1029D00011240895991B79E004C0991F961708F0F7
:1029E000961B881F7A95C9F78095089597FB092E45
:1029F00007260AD077FD04D049D006D000201AF46B
:102A0000709561957F4F0895F6F7909581959F4F4A
:102A10000895A1E21A2EAA1BBB1BFD010DC0AA1F1F
:102A2000BB1FEE1FFF1FA217B307E407F50720F037
:102A3000A21BB30BE40BF50B661F771F881F991FB2
:102A40001A9469F760957095809590959B01AC01FB
:102A5000BD01CF01089597FB092E05260ED057FD25
:102A600004D0D7DF0AD0001C38F45095409530953B
:102A700021953F4F4F4F5F4F0895F6F79095809502
:102A8000709561957F4F8F4F9F4F0895AA1BBB1B79
:102A900051E107C0AA1FBB1FA617B70710F0A61B5E
:102AA000B70B881F991F5A95A9F780959095BC017F
:102AB000CD010895FB01DC0101900D920020E1F7AA
:102AC0000895F999FECF92BD81BDF89A992780B5F6
:102AD0000895A6E1B0E044E050E01DC0A8E1B0E0F8
:102AE00042E050E018C0262FF999FECF1FBA92BDE0
:102AF00081BD20BD0FB6F894FA9AF99A0FBE0196DF
:102B00000895242FF1DF252FEFDF00C0ECDF272F02
:102B1000EBCFDC01CB01FC01F999FECF06C0F2BD81
:102B2000E1BDF89A319600B40D9241505040B8F78B
:062B30000895F894FFCFA8
:102B3600FF4200420142024203420744004401446C
:102B4600024403430643074406440742044205423F
:102B56000646074606460546044601460044044422
:102B66000545064000E1000000000857DAD75C7210
:102B760046D6DCF34EF34872D6B7DAE92E24D4B73C
:102B86005A924EBEDAD6DA56D4D74856E6D75A7196
:102B96001CE924B6DEB6D4B6FAB55AB524E54EF627
:102BA600DE592EC54EC51CB792F31CF3DEE524F79D
:102BB600DEF792D448454C4C4F00494E00534D0029
:062BC600535400424100DF
:00000001FF
