:1000000027C1000041C100003FC100003DC1000008
:100010003BC1000039C1000037C1000035C10000FC
:1000200033C1000031C100000C94C70C0C94010DC9
:100030002BC1000029C1000027C1000025C100001C
:1000400023C1000021C100001FC100001DC100002C
:100050001BC1000019C1000017C100000C94B90AAF
:1000600013C1000011C100000FC100000DC100004C
:100070000BC1000009C1000007C1000005C100005C
:1000800003C1000001C10000FFC00000FDC000006E
:10009000FBC00000F9C00000F7C00000F5C0000080
:1000A000F3C00000F1C00000EFC000002D2D2D2D89
:1000B0002D2D2D2D2D2D2D2D2D2D2D2D2D2D2D2D70
:1000C0002D0D0A000D0A004379636C65732F53658B
:1000D000633A20000D0A0047616D65204176672074
:1000E00054696D653A20000D0A00536F756E6420E7
:1000F0004176672054696D653A20000D0A00496E0B
:10010000707574204176672054696D653A20000D42
:100110000A00436F6E736F6C6520417667205469E7
:100120006D653A20002D2D2D2D50726F66696C651E
:100130007220446174612D2D2D2D0D0A000D0A547D
:100140004D4F4F53205465726D696E616C0D0A46B8
:100150006F726D61742069733A20636F6D6D616EAB
:100160006420617267312061726732206172673387
:100170000D0A3E000D0A3E00000104050607252475
:100180002322212000010000B8011200020000CA51
:100190000143000300000D020401030904110214CD
:1001A00002030904270216030309043F020C00019D
:1001B000C1120180360181361201000202000010D6
:1001C000C0167A0400010102030109024300020182
:1001D00000C03209040000010202010005240010E1
:1001E000010524010101042402060524060001077B
:1001F00005820310004009040100020A0000000704
:1002000005030240000007058402400000040309C2
:1002100004140359006F007500720020004E006145
:10022000006D0065000000160355005300420020D9
:1002300000530065007200690061006C0000000C52
:10024000033100320033003400350000002D00007F
:1002500011241FBECFEFDAE0DEBFCDBF11E0A0E07A
:10026000B1E0EAE8F5E302C005900D92AC3AB107BF
:10027000D9F713E0ACEAB1E001C01D92A436B10792
:10028000E1F7ABD10C94C31ABBCEAF92BF92CF9221
:10029000DF92EF92FF920F931F93182F18D75B01F5
:1002A0006C01112349F46093C0017093C1018093E4
:1002B000C2019093C3012DC0113059F508D79B019D
:1002C000AC016093C4017093C5018093C601909303
:1002D000C7018091C8019091C901A091CA01B09154
:1002E000CB01E090C001F090C1010091C2011091DA
:1002F000C3018E199F09A00BB10B820F931FA41F7E
:10030000B51F8093C8019093C901A093CA01B0930F
:10031000CB018091CC019091CD01A091CE01B09103
:10032000CF01A816B906CA06DB0608F45AC0D601E2
:10033000C501805C9D4BA04FBF4F8093CC01909333
:10034000CD01A093CE01B093CF016091C80170910F
:10035000C9018091CA019091CB0124E630E040E0D0
:1003600050E00E94731920E432E44FE050E00E9414
:10037000B11984E6982F921B9093D001953610F016
:100380008093D0011092C8011092C9011092CA0145
:100390001092CB018091860280FF23C08091D00112
:1003A000823430F0809100018823D9F080E016C0BB
:1003B000982F9C52963130F480910001813089F061
:1003C00081E00CC0895190910001833120F492307A
:1003D00041F082E003C0943021F084E0FED68093A7
:1003E00000011F910F91FF90EF90DF90CF90BF9091
:1003F000AF900895EF92FF920F931F93ABD6609347
:10040000800270938102809382029093830280E045
:100410003CDF84EA92E00E94460F0E943E0AE09090
:10042000AC01F090AD010091AE011091AF0184EAF2
:1004300092E00E94590F6E0D7F1D801F911F6093E7
:10044000AC017093AD018093AE019093AF018091A8
:10045000860283FF1DC087E892E00E94460F08D7FE
:10046000E090B001F090B1010091B2011091B301A0
:1004700087E892E00E94590F6E0D7F1D801F911F2B
:100480006093B0017093B1018093B2019093B30176
:100490008091860282FF1CC084E792E00E94460F92
:1004A000E090B401F090B5010091B6011091B70150
:1004B00084E792E00E94590F6E0D7F1D801F911FEF
:1004C0006093B4017093B5018093B6019093B70126
:1004D0008091860281FF1DC086EC92E00E94460F4B
:1004E00017D5E090B801F090B9010091BA011091D0
:1004F000BB0186EC92E00E94590F6E0D7F1D801F9C
:10050000911F6093B8017093B9018093BA019093E1
:10051000BB0181E0BADE1F910F91FF90EF9008952B
:10052000823071F1833030F4882371F0813009F02A
:1005300052C018C0883009F447C0893009F447C058
:10054000833009F048C032C08091860290918702C2
:10055000A0918802B0918902662311F081601DC0CC
:100560008E7F1BC08091860290918702A0918802A5
:10057000B0918902662311F082600FC08D7F0DC09B
:100580008091860290918702A0918802B0918902A1
:10059000662311F0846001C08B7F80938602909364
:1005A0008702A0938802B093890213C080918602CB
:1005B00090918702A0918802B0918902662311F080
:1005C0008860EBCF877FE9CF6093860202C060939B
:1005D000950281E0089580E008952F923F924F9216
:1005E0005F926F927F928F929F92AF92BF92CF92C3
:1005F000DF92EF92FF920F931F93DF93CF9300D080
:100600000F92CDB7DEB780E8809361001092610051
:1006100034D58823A1F01DD7009789F006D4009720
:1006200071F0FED5882359F053D4882341F00E94FD
:10063000040C882321F00E946B11882371F400E0E0
:1006400010E017FD03C08BE061E002C08BE060E0CA
:100650000E94470B0F5F1F4FF4CF1092860210923B
:1006600095021092CC011092CD011092CE01109201
:10067000CF011092D0011092C0011092C1011092CE
:10068000C2011092C3011092C4011092C5011092D0
:10069000C6011092C7011092C8011092C9011092B0
:1006A000CA011092CB0180E060E03ADF81E060E0B7
:1006B00037DF82E061E034DF83E061E031DF83E057
:1006C00060E008D388E06CE305D30E94360F0E94F7
:1006D000650E86ED92E00E94460F8CDE88EB92E07C
:1006E0000E94460F0E94760EE090BC01F090BD0182
:1006F0000091BE011091BF0188EB92E00E94590F5A
:100700006E0D7F1D801F911F6093BC017093BD0112
:100710008093BE019093BF018091A2029091A302A9
:1007200001969093A3028093A20286ED92E00E942C
:10073000590F603422E472072FE0820720E092070D
:1007400060F286ED92E00E94460FE090A202F090E7
:10075000A30200E010E06091AC017091AD018091C6
:10076000AE019091AF01A80197010E94B119D22E5C
:10077000C32EB42EA52E6091B0017091B10180916D
:10078000B2019091B301A80197010E94B119922E74
:10079000432E342E252E6091B8017091B9018091BD
:1007A000BA019091BB01A80197010E94B119822E54
:1007B000732E642E552E6091BC017091BD01809105
:1007C000BE019091BF01A80197010E94B119E42ECA
:1007D00085E291E029833A835B8343D682E191E00D
:1007E00040D66D2D7C2D8B2D9A2D4BE00E94740FE1
:1007F0008FE091E036D68EEF90E033D6692D742DE0
:10080000832D922D4BE00E94740F8BEF90E029D640
:100810008AEE90E026D6682D772D862D952D4BE01B
:100820000E94740F87EE90E01CD687ED90E019D6F9
:100830002981622F3A81732F8E2D5B81952F4BE09A
:100840000E94740F84ED90E00CD687EC90E009D6FE
:100850006091A2027091A30280E090E04BE00E94C0
:10086000740F84EC90E0FDD58CEA90E0FAD51092FC
:10087000BC011092BD011092BE011092BF011092F6
:10088000B8011092B9011092BA011092BB011092F6
:10089000B4011092B5011092B6011092B7011092F6
:1008A000B0011092B1011092B2011092B3011092F6
:1008B000AC011092AD011092AE011092AF011092F6
:1008C000A3021092A20209CF0895813009F580E0B9
:1008D00061E0DDD68091D5019091D601A091D7013C
:1008E000B091D80180688D7F8093D5019093D60117
:1008F000A093D701B093D80110921C0210921D0250
:1009000010921E0210921F021092200281E00895A0
:100910008823A9F460E0BBD68091D5019091D601DF
:10092000A091D701B091D8018D778093D501909394
:10093000D601A093D701B093D80180E008958FEF3E
:1009400008958091D50182FF1CC026ED31E04091D1
:100950001A0250911B02C90181964217530749F4AC
:1009600090931B0280931A0250931902409318022D
:10097000089530931B0220931A02909319028093DA
:10098000180208951F93DF93CF930F92CDB7DEB770
:10099000803108F051C0603108F04EC0162F12951A
:1009A000107F180F612F66956695669570E080E060
:1009B00090E049830E9407180E9444180E94DB17A8
:1009C00070E0E0911802F0911902109549814423DA
:1009D000B9F0E60FF71F177021E030E002C0220FD8
:1009E000331F1A95E2F7442737FD4095542F808135
:1009F0009181A281B381822B932BA42BB52B18C09C
:100A0000E60FF71F177021E030E002C0220F331FFE
:100A10001A95E2F720953095442737FD4095542FDD
:100A200080819181A281B38182239323A423B52362
:100A300080839183A283B3830F90CF91DF911F9125
:100A400008951F938031A0F5603190F5162F12950F
:100A5000107F180F612F66956695669570E080E0AF
:100A600090E00E9407180E9444180E94DB17E09152
:100A70001A02F0911B02E60FF11D1095177021E08C
:100A800030E002C0220F331F1A95E2F7442737FDEA
:100A90004095542F80819181A281B38128233923ED
:100AA0004A235B2381E0211531054105510509F4F5
:100AB00080E01F9108951F9382E061E0E8D5809166
:100AC0001C02882359F481E061E0E1D584E035D649
:100AD00083E033D681E060E0DAD504C084E02DD62F
:100AE00083E02BD617E0812F60911C02AADF8823B8
:100AF00019F086E060E002C086E061E0C8D589E0D8
:100B00001CD6115080F71FE0812F60911C0299DFE5
:100B1000882319F086E060E002C086E061E0B7D586
:100B200089E00BD61150173079F788E006D682E0BD
:100B300060E0ADD580911C028F5F80931C028031F4
:100B400014F010921C021F9108950F93CF93DF931E
:100B5000EC01069F002D1124020F602F669566950B
:100B6000669570E0882777FD8095982F0E94091878
:100B70000E9444180E94DB17C60FD11D0095077014
:100B800021E030E002C0220F331F0A95E2F744272C
:100B900037FD4095542F88819981AA81BB812823F4
:100BA00039234A235B2381E0211531054105510595
:100BB00009F480E0DF91CF910F9108952F923F9239
:100BC0004F925F926F927F928F929F92AF92BF925D
:100BD000CF92DF92EF92FF920F931F93CF93DF9309
:100BE0003C01A62EC42ED22E102F8091D50180FD5F
:100BF00007C0EE24FF24442E5524262E332436C06D
:100C0000EE24FF24442E5524262E332412C0C30183
:100C10006A2D4C2D2C2F0B2D98DF482F8C2F8D0DEE
:100C2000692DB0DE2196C215D3058CF30894E11C22
:100C3000F11CE414F5041CF5C0E0D0E0BE2C9E2CA1
:100C4000910EF1CFC3016A2D4C2D2C2F0B2D7DDF82
:100C5000482F882321F08C2F8D0D692D93DE21964E
:100C6000C215D3057CF30894E11CF11CE414F504CF
:100C700034F4C0E0D0E0BE2C9E2C910EF1CF81E088
:100C8000DF91CF911F910F91FF90EF90DF90CF9068
:100C9000BF90AF909F908F907F906F905F904F909C
:100CA0003F902F9008954091180250911902FA0137
:100CB00020E030E09FEF882311F4108204C0DA01B5
:100CC000A20FB31F9C932F5F3F4F31962132310506
:100CD00091F70895833049F1843038F4882309F47A
:100CE00049C0823009F09BC061C0883021F0893052
:100CF00009F095C080C0262F30E084E0220F331F1A
:100D00008A95E1F7442737FD4095542F60E472E45B
:100D10008FE090E00E94D3192093D1013093D2014B
:100D20004093D3015093D4017CC0613081F484E6B8
:100D300094E09093C5028093C4028091D501909174
:100D4000D601A091D701B091D80188605FC0662319
:100D500009F067C08BE595E09093C5028093C402CB
:100D60008091D5019091D601A091D701B091D80181
:100D7000877F4CC0662369F4E091D501F0E0808163
:100D80009181A281B3818E7F80839183A283B3837B
:100D900048C0613009F045C08091D5019091D601DD
:100DA000A091D701B091D801816030C06623B9F419
:100DB000E091D501F0E080819181A281B3818B7FA8
:100DC00080839183A283B38386ED91E0909319028F
:100DD0008093180290931B0280931A0222C0613004
:100DE00011F58091D5019091D601A091D701B091D4
:100DF000D80184600BC06093D5018091D50190919A
:100E0000D601A091D701B091D8018C7F8093D501F4
:100E10009093D601A093D701B093D80102C080E08F
:100E2000089581E0089581E008952FED31E080E09C
:100E300090E00BC01192E217F307E1F701969F01D2
:100E40002F5D3F4F8230910559F0FC0145E0EE0FD8
:100E5000FF1F4A95E1F7E80FF91FEA52FE4FEACF6C
:100E600086ED91E090931B0280931A0281969093F5
:100E700019028093180210921C0210921D02109207
:100E80001E0210921F021092200281E194E0A0E065
:100E9000B0E08093D1019093D201A093D301B0939D
:100EA000D40183E060E016DF80E061E013DF82E0E0
:100EB00061E010DF81E009DD85E061E0E8D38AE0F0
:100EC00061E0E5D387E060E0E2D381E090E008955F
:100ED0001092ED021092EC021092E8021092E902D8
:100EE0001092EA021092EB021092F2021092EE02BD
:100EF0001092EF021092F0021092F1021092E402AE
:100F00001092E5021092E6021092E70281E0089545
:100F1000AF92BF92CF92DF92EF92FF920F931F9307
:100F20008091E4029091E502A091E602B091E7027F
:100F30000097A105B10509F453C0C9D07B018C010C
:100F40008091E8029091E902A091EA02B091EB024F
:100F5000E816F9060A071B0758F157016801A81A95
:100F6000B90ACA0ADB0A8091F202882331F481E0CF
:100F70008093F20280E161E004C01092F20280E10D
:100F800060E085D38091EC029091ED02A0E0B0E0AA
:100F90008E0D9F1DA01FB11F8A199B09AC09BD09A9
:100FA0008093E8029093E902A093EA02B093EB02E7
:100FB000D1D09B01AC018091EE029091EF02A09103
:100FC000F002B091F102281739074A075B0740F099
:100FD0001092E4021092E5021092E6021092E702EB
:100FE0001F910F91FF90EF90DF90CF90BF90AF9047
:100FF0000895EF92FF920F931F937A018B019C014A
:1010000040E050E060E472E48FE090E00E94D31989
:101010003093ED022093EC029DD06E0D7F1D801F5A
:10102000911F6093EE027093EF028093F002909311
:10103000F1024DD02091EC023091ED0240E050E001
:10104000620F731F841F951F6093E8027093E9027B
:101050008093EA029093EB0281E090E0A0E0B0E0A0
:101060008093E4029093E502A093E602B093E70236
:101070001F910F91FF90EF900895DFD281E0809350
:1010800029029CD360932E0270932F02809330022A
:101090009093310285D3609325027093260280934A
:1010A0002702909328028AD360932A0270932B021E
:1010B00080932C0290932D0273D36093210270933E
:1010C0002202809323029093240281E00895EF92FC
:1010D000FF920F931F9372D37B018C0180912E029C
:1010E00090912F02A0913002B0913102A801970196
:1010F000281B390B4A0B5B0BCA01B901209129024D
:1011000030E040E050E00E9473199B01AC018091F7
:101110002A0290912B02A0912C02B0912D02280F4F
:10112000391F4A1F5B1F20932A0230932B024093E2
:101130002C0250932D02E0922E02F0922F02009387
:10114000300210933102B901CA011F910F91FF9033
:10115000EF900895EF92FF920F931F9321D37B019D
:101160008C018091250290912602A0912702B091D6
:101170002802A8019701281B390B4A0B5B0BCA01F7
:10118000B9012091290230E040E050E00E9473193B
:101190009B01AC018091210290912202A091230237
:1011A000B0912402280F391F4A1F5B1F2093210290
:1011B000309322024093230250932402E0922502AE
:1011C000F09226020093270210932802B901CA0167
:1011D0001F910F91FF90EF9008951F93182F882370
:1011E00011F481E00FC0813011F482E00BC0823035
:1011F00011F484E007C0833011F488E003C0843028
:1012000019F480E18093290262DFA4DFF89480E87A
:1012100080936100109361007894812F1F9108954D
:101220008CE38093360210923D0210923E0210929F
:101230003F021092400210923C0210923B0284E066
:1012400080933A02E7E3F2E084E1808383E18183E3
:1012500082E1828384E690E09093330280933202AD
:1012600084E893E0909335028093340281E00895FE
:10127000CF92DF92EF92FF920F931F93CF93DF9362
:1012800069DF20913D0230913E0240913F02509132
:101290004002621773078407950708F491C02091F4
:1012A0003602620F711D811D911D60933D02709386
:1012B0003E0280933F029093400280913A0246D2D0
:1012C0007C0100E010E0C0903402D0903502B601FD
:1012D00080E090E06E157F058007910778F02091FF
:1012E00032023091330240E050E0C801B70162178A
:1012F00073078407950710F4CA01B901C09132023F
:10130000D09133029E0140E050E0621B730B840BCE
:10131000950B2FEF30E040E050E00E947319CC1A9B
:10132000DD0A960140E050E00E94B11920933B0293
:1013300080913702DCD120913C0230913D024091F6
:101340003E0250913F02882311F4216001C02E7F9C
:1013500020933C0230933D0240933E0250933F0263
:1013600080913802C4D120913C0230913D024091DD
:101370003E0250913F02882311F4226001C02D7F6C
:1013800020933C0230933D0240933E0250933F0233
:1013900080913902ACD120913C0230913D024091C4
:1013A0003E0250913F02882311F4246001C02B7F3C
:1013B00020933C0230933D0240933E0250933F0203
:1013C000DF91CF911F910F91FF90EF90DF90CF9021
:1013D0000895813069F0813038F0823079F08330BF
:1013E000A1F480913B02089580913C0281700895A0
:1013F00090913C0281E091FD09C005C090913C02B2
:1014000081E092FD03C080E0089580E008951F937D
:10141000182F83E0DEDF482F8F3FB9F0612F8FEF69
:1014200090E070E00E949E19842F0E949219682F0C
:1014300070E0882777FD8095982F0E9409180E94F8
:1014400044180E94DB17862F02C0812F81501F9104
:101450000895109241021092620201D281E090E060
:101460000895CF93DF93EC01FE01219684918823A8
:1014700011F048D2F9CFDF91CF9108951F93809159
:10148000410280FD1DC004D2882309F45EC07CD2D5
:1014900080FF5BC024D28091410290914202A091D2
:1014A0004302B091440281608093410290934202D2
:1014B000A0934302B09344028DE391E0D2DF45C094
:1014C000EAD1182F8091620280328CF4912F9052D1
:1014D0009F3568F4E82FFF27E7FDF095EE5BFD4FA1
:1014E00010838F5F80936202812F0CD210C01D3059
:1014F00011F01A3061F4E0916202FF27E7FDF095E8
:10150000EE5BFD4F108284E791E0ABDF1CC0C0D1E1
:10151000882329F039D280FF02C0112391F48091F1
:10152000410290914202A0914302B09144028E7F09
:101530008093410290934202A0934302B0934402ED
:1015400004C0143011F4109262021F9108951F9389
:10155000CF93DF93EC0110E0FE01E10FF11D8081DC
:10156000882319F0CFD11F5FF7CFDF91CF911F9163
:1015700008951F920F920FB60F9211242F933F934D
:101580004F935F936F937F938F939F93AF93BF938B
:10159000EF93FF938091F4029091F502A091F602EF
:1015A000B091F702309163020196A11DB11D232F66
:1015B0002D5F2D3720F02D570196A11DB11D2093D1
:1015C00063028093F4029093F502A093F602B09325
:1015D000F7028091F8029091F902A091FA02B0917D
:1015E000FB020196A11DB11D8093F8029093F902B0
:1015F000A093FA02B093FB028091F3028F5F809375
:10160000F3028091F302823038F0E091C402F0914D
:10161000C50209951092F302FF91EF91BF91AF912E
:101620009F918F917F916F915F914F913F912F91FA
:101630000F900FBE0F901F901895F89484B582609C
:1016400084BD84B5816084BD85B5826085BD85B566
:10165000816085BDEEE6F0E08081816080837894D2
:101660001092F8021092F9021092FA021092FB0204
:101670001092F4021092F5021092F6021092F70204
:10168000109263021092F30281E090E00895893194
:1016900060F5E82FF0E0EE0FFF1FEF5FFE4F808157
:1016A00021818154E82FEE0FE80FF0E0662371F4FA
:1016B00081E090E002C0880F991F2A95E2F721A1EE
:1016C000282B21A3809592A198230CC081E090E063
:1016D00002C0880F991F2A95E2F791A1982B91A338
:1016E00092A1982B92A381E0089580E0089589311A
:1016F00010F5E82FF0E0EE0FFF1FEF5FFE4F808147
:101700008154A3E08A9FD001112421E030E00180C0
:1017100002C0220F331F0A94E2F7922F9095919600
:101720008C919197892391968C93919790968C9117
:1017300090978223089580E008951F93182F61E009
:10174000A6DF812F60E0A3DF1F9108958C3020F584
:10175000E82FF0E0E858FE4FE49186E880937A00A5
:101760008E2F8072806880937B00EF7180913301AF
:10177000E82BE0937C0086EC80937A0080917A00DD
:1017800086FDFCCF2091780030917900932F80E086
:1017900030E0282B392B02C020E030E0C901089549
:1017A0008FB7F8942091F4023091F5024091F6023F
:1017B0005091F7028FBFB901CA0108959FB7F894FD
:1017C0002091F8023091F9024091FA025091FB0207
:1017D00086B5A89B06C08F3F21F02F5F3F4F4F4F2C
:1017E0005F4F9FBF542F432F322F2227280F311DC9
:1017F000411D511D62E0220F331F441F551F6A9582
:10180000D1F7B901CA01089584E59AE190939F0246
:1018100080939E0281E69AE19093990280939802C8
:101820008CE59AE19093B7028093B60286E69AE13E
:101830009093B3028093B20289E79AE190939B025E
:1018400080939A0284E79AE19093A1028093A00288
:1018500081E008958091E80080FFFCCF089581E049
:101860008093D70080EA8093D80082E189BD09B4D3
:1018700000FEFDCF80E98093D8001092E000109226
:101880006402109265028CE08093E20078940895DF
:101890008091640208958FB7F8949091640299231F
:1018A00069F093E09093E9002BE69091E80095FDB4
:1018B00009C092FF03C02093E800F7CF8FBF2FEF3E
:1018C0003FEF0BC02091F1009091E80095FD03C01F
:1018D0009BE69093E8008FBF30E0C90108958091A6
:1018E0006402882371F08FB7F89493E09093E90035
:1018F0009BE602C09093E8002091E80025FDFACF16
:101900008FBF0895909164029923D1F19FB7F89405
:1019100024E02093E90020916702222341F02091E6
:10192000E80025FD02C09FBF2BC0109267022091E6
:10193000E400275E34E04091E80045FD12C09FBFFF
:101940009091E400921721F481E08093670218C01F
:10195000909164029923B1F09FB7F8943093E90015
:10196000EACF8093F1008091E80085FD03C08AE30F
:101970008093E80085E0809366029FBF80E0089531
:101980008FEF08958FEF08958091650208951F925B
:101990000F920FB60F9211248F939F938091E100C5
:1019A0001092E10083FF11C01092E90091E0909342
:1019B000EB001092EC0092E19093ED0098E0909390
:1019C000F000109264021092650282FF13C08091B1
:1019D0006402882379F080916602882359F081504F
:1019E00080936602882331F484E08093E9008AE3DF
:1019F0008093E8009F918F910F900FBE0F901F90E2
:101A000018951F920F920FB60F921124EF92FF922A
:101A10000F931F932F933F934F935F936F937F93F6
:101A20008F939F93AF93BF93EF93FF93DF93CF93E6
:101A30000F92CDB7DEB71092E9008091E80083FFE6
:101A400029C12091F1003091F1008091F100E82E40
:101A5000FF244091F100942F80E0E82AF92A0091B8
:101A6000F10010E04091F100942F80E0082B192B39
:101A70006091F100A091F10082EF8093E800363090
:101A800009F059C08BE891E09C0125503040FC01E1
:101A90003797459154914E155F05F9F4F901459139
:101AA000549140175107C9F42E5F3F4FF9018591BA
:101AB00094912E5F3F4FF9012491462F50E07A2FE9
:101AC00060E0462B572B4F3F510519F010F04FEFB8
:101AD00050E0421750F4242F08C00796295F3F4F6B
:101AE000F1E0853B9F0799F6D5C0AEEF4091E80045
:101AF00050E0BA016570707061157105B9F342FD6F
:101B0000CCC0322F213108F030E1AC01632F07C087
:101B1000FA014F5F5F4FE491E093F100615066235B
:101B2000B9F7830F911D231BA093E8002223F1F640
:101B30003031E1F2B2C0353049F48EEF8093E800E5
:101B400089DE8E2D80688093E300A7C0393051F57F
:101B5000222309F09FC0E092640210926502109265
:101B600066028EEF8093E80041E08EEA91E04093B8
:101B7000E900FC010196E491E093EB00EE2369F0AB
:101B80009C012F5F3F4FFC0184918093EC00C901C1
:101B90000196F90124912093ED004F5F453039F70C
:101BA0008EE173C0383049F4203809F073C052DE3A
:101BB000809164028093F10045C0313271F4213A82
:101BC00009F068C047DEE4E3F1E081918093F10021
:101BD00021E0EB33F207C9F735C03032A1F42132EE
:101BE00009F058C08091E80082FFFCCFE4E3F1E007
:101BF0008091F100819331E0EB33F307C9F78BEF6C
:101C00008093E8001FC0323239F4213209F042C01B
:101C1000E09265021FDE16C03323C1F429831ADE69
:101C20002981223851F40093E9009091EB0081E082
:101C300095FF80E01092E90001C080E08093F10000
:101C40001092F1008EEF8093E80027C0313011F040
:101C5000333001F52230F1F4E114F104D9F40F77B7
:101C6000802F81508430B0F48EEF8093E800009391
:101C7000E900333079F089E18093EB0081E090E076
:101C800002C0880F991F0A95E2F78093EA0010922C
:101C9000EA0003C081E28093EB000F90CF91DF91C7
:101CA000FF91EF91BF91AF919F918F917F916F9134
:101CB0005F914F913F912F911F910F91FF90EF9066
:101CC0000F900FBE0F901F90189510926A021092FD
:101CD0006B0210926C0210926D0210926E021092C2
:101CE00068028FEF8093690281E008951F93CF937C
:101CF000DF9380E074D3EC0180E090E079D39091A1
:101D00006802992331F5E091B402F091B50209958A
:101D1000182FE0918402F091850280E009958823D4
:101D2000A9F4E0919C02F0919D0209958CE0189F26
:101D3000C00111248C0F9D1F60E040E00E94B3168B
:101D4000E091D402F091D50209951FEF109369023A
:101D50001BC080916902992787FD9095FC01EE0FC9
:101D6000FF1FE80FF91FEE0FFF1FEE0FFF1FEC0F15
:101D7000FD1F0284F385E02D0995882329F4109234
:101D800068028FEF80936902809169028F3FC9F0EA
:101D9000909168029923A9F491E0909368029927A1
:101DA00087FD9095FC01EE0FFF1FE80FF91FEE0F66
:101DB000FF1FEE0FFF1FEC0FFD1F0084F185E02DCC
:101DC0000995E0918402F091850281E009958823CC
:101DD00009F43DC0E0918402F091850282E009950A
:101DE0008823A9F180916A02813021F50AD39B01F1
:101DF000AC0180916B0290916C02A0916D02B09148
:101E00006E0284529A4FAF4FBF4F281739074A07C7
:101E10005B0740F110926A0210926B0210926C0202
:101E200010926D0210926E02109268028FEF8093F2
:101E3000690218C081E080936A02E3D260936B026A
:101E400070936C0280936D0290936E020BC0D9D296
:101E500060936B0270936C0280936D0290936E029C
:101E600010926A02DF91CF911F91089583E391E070
:101E70009093700280936F028CEC90E090937202CA
:101E80008093710281E0089580E060CCCF93DF936E
:101E9000EC011C821D821E821F82188619861A86FA
:101EA0001B868CDC688379838A839B83DF91CF9147
:101EB0000895CF93DF93EC0181DC9B01AC016C832F
:101EC0007D838E839F8388819981AA81BB81281B12
:101ED000390B4A0B5B0B288739874A875B87B90127
:101EE000CA01DF91CF9108954F925F926F927F92D6
:101EF0008F929F92AF92BF92CF92DF92EF92FF921A
:101F00000F931F93DF93CF93CDB7DEB728970FB60C
:101F1000F894DEBF0FBECDBF5B016C01E42E1982C9
:101F20001A821B821C821D821E821F821886D7FE87
:101F300007C066277727CB016A197B098C099D09A1
:101F4000FF248E010F5F1F4F2AE0622E712C812C1F
:101F5000912C28014F0C511CA40193010E94D3190C
:101F6000605DF2016083F394B901CA011616170689
:101F70001806190674F32F2D30E0F0FE0AC0D801C0
:101F8000A90141505040F801E40FF51F80E090E0B6
:101F900026C0D801A90141505040F801E40FF51FB7
:101FA00080E090E00CC00C910196BA0160806D92C7
:101FB000008331974150504086179707A1F0821750
:101FC00093078CF310C06C90BA0140804D926082F0
:101FD00001963197415050400617170721F08C01A8
:101FE0008217930784F3CE010196FC01EF0DF11DDA
:101FF0001082FE2DFB3051F02E2D2A3041F4D7FEF9
:1020000003C08DE492E02DDACE010196A0DA289685
:102010000FB6F894DEBF0FBECDBFCF91DF911F91F9
:102020000F91FF90EF90DF90CF90BF90AF909F9077
:102030008F907F906F905F904F9008950F93E091F5
:102040009C02F0919D0280E0099582E062E044E00C
:1020500024E009E0B1D58AE062E044E024E0ACD5B8
:1020600087E067E042E022E0A7D582E06CE04DE047
:102070002CE007D681E06AE041E02BE002D68EE05A
:102080006AE04EE02BE0FDD5E091D402F091D5025C
:10209000099581E00F910895EF92FF920F931F939E
:1020A000E0918402F091850283E00995182FE09178
:1020B0008402F091850280E00995E82EE091840287
:1020C000F091850281E00995F82EE0918402F0916B
:1020D000850282E00995082FE0919C02F0919D0213
:1020E00080E00995812F6AE00E949219182F809153
:1020F0007302811751F08EEA96E049E150E060E00A
:1021000070E00E94F90710937302EE2041F0E09115
:10211000B002F091B10283E060E041E00995FF2058
:1021200041F0E091B002F091B10284E060E041E062
:102130000995002341F0E091B002F091B10285E0F1
:1021400060E041E00995812F992787FD9095880FE0
:10215000991FE0919602F0919702855C9E4F63E093
:1021600045E020E000E00995E091D402F091D5022D
:10217000099581E01F910F91FF90EF90089580E104
:10218000809301031092FC021092FD021092FE0255
:102190001092FF02E0918402F091850283E009959C
:1021A000809300030895E0919C02F0919D0280E0ED
:1021B000099584E891E06091010340E0D4D587E07F
:1021C00067E040E02FE05DD588E067E04FE02FE07A
:1021D00058D5E091D402F091D502099512D19B0116
:1021E000AC018091FC029091FD02A091FE02B091A1
:1021F000FF0282179307A407B50708F58091010332
:102200008150809301038C3E19F480E18093010397
:10221000E0918402F091850283E0099580930003A8
:10222000F0D020910003620F711D811D911D6093FC
:10223000FC027093FD028093FE029093FF0281E006
:1022400008950F93E0919C02F0919D0280E0099522
:10225000E091B402F091B50289E00995992787FDD4
:102260009095880F991FE0919602F09197028159FD
:102270009E4F63E045E020E000E00995E091D40244
:10228000F091D502099581E00F910895E0919C02AB
:10229000F0919D0280E00995F7DD9C01B901882746
:1022A00077FD8095982FB5D620E030EC4FE754E4C9
:1022B00015D620E030E040E851E4B2D777D6462F7B
:1022C00080E060E020E0DDD4E091D402F091D5021E
:1022D000099581E00895CF93DF934DD48AEF91E083
:1022E0009093D3028093D20289EF97E09093E30218
:1022F0008093E20289EE99E09093850280938402B4
:1023000087E09AE09093B5028093B402C2E0D3E0F4
:10231000CE016AE871E00E944D1A8CE490E190933E
:102320000B0380930A0390930D0380930C03CE015B
:102330000C966EE871E00E944D1A8EE190E1909348
:102340001703809316039093190380931803CE010B
:10235000489663E971E00E944D1A8FEB90E19093EB
:1023600023038093220383ED90E1909325038093D0
:102370002403CE01849668E971E00E944D1A86E438
:1023800091E190932F0380932E03909331038093D8
:102390003003CE01C0966DE971E00E944D1A81E2D2
:1023A00091E190933B0380933A0390933D03809394
:1023B0003C03CE01CC9662EA71E00E944D1A8DE595
:1023C00095E1909347038093460384E395E19093CE
:1023D00049038093480381E0DF91CF9108958823DA
:1023E00019F422E033E002C020E030E0C901089592
:1023F000882319F426E030E002C020E030E0C90173
:102400000895609180027091810280918202909182
:1024100083020895AF92BF92CF92DF92EF92FF9224
:102420000F931F93E0919C02F0919D0280E009952B
:1024300060914E0370914F0380915003909151032E
:1024400023D67B018C0160915203709153038091DC
:1024500054039091550318D65B016C01C801B70174
:10246000A5D5E62EC601B501A1D5E091B002F09147
:10247000B1028E2D41E0099580914A03482F4D5FAE
:102480006FE02FE0FED380914C03482F4D5F60E05A
:1024900020E0F7D3E091D402F091D50209951F9185
:1024A0000F91FF90EF90DF90CF90BF90AF90089585
:1024B000DF92EF92FF920F931F9360914E03709102
:1024C0004F03809150039091510320E030E040E8A9
:1024D00051E4A2D687FD1DC080E090E0A0E8B1E401
:1024E00080934E0390934F03A0935003B0935103F6
:1024F0008091560390915703A0915803B0915903CE
:10250000B0588093560390935703A0935803B09309
:10251000590360914E0370914F0380915003909145
:10252000510320E030E0A901D5D41816E4F080E092
:1025300090E0DC0180934E0390934F03A0935003EF
:10254000B09351038091560390915703A091580383
:10255000B0915903B0588093560390935703A093BA
:102560005803B093590360915203709153038091C3
:1025700054039091550320E030E040E851E44CD6FC
:1025800087FD1DC080E090E0A0E8B1E48093520395
:1025900090935303A0935403B093550380915A032F
:1025A00090915B03A0915C03B0915D03B058809360
:1025B0005A0390935B03A0935C03B0935D03609117
:1025C000520370915303809154039091550320E07E
:1025D00030E0A9017FD41816E4F080E090E0DC013F
:1025E0008093520390935303A0935403B0935503E5
:1025F00080915A0390915B03A0915C03B0915D03BD
:10260000B05880935A0390935B03A0935C03B093FC
:102610005D03E0905203F090530300915403109136
:102620005503C801B70120E030E040E751E4F4D59C
:1026300087FD7DC0C801B70120E030E040E851E4EB
:1026400049D418160CF473C0E0904E03F0904F0379
:102650000091500310915103D0904A036D2D7727BC
:1026600067FD7095872F972FD4D49B01AC01C801CB
:10267000B701D2D587FD22C06D2D772767FD7095F4
:102680006D5F7F4F882777FD8095982FC2D49B017F
:10269000AC01C801B7011ED4181684F080915A030A
:1026A00090915B03A0915C03B0915D03B058EEE4A0
:1026B000F3E084879587A687B78734C0D0904C0312
:1026C0006D2D772767FD7095872F972FA2D49B01DB
:1026D000AC01C801B701A0D587FDA4C06D2D772737
:1026E00067FD70956D5F7F4F882777FD8095982FE8
:1026F00090D49B01AC01C801B701ECD318160CF4BF
:1027000091C080915A0390915B03A0915C03B091BA
:102710005D03B05880935A0390935B03A0935C03CE
:10272000B0935D0380E090E0A0E7B1E473C0C8011E
:10273000B70120E030E040E85FE3CCD318160CF49A
:1027400071C0C801B70120E030E0A90165D587FD5F
:1027500069C0E0904E03F0904F0300915003109138
:102760005103D0904A036D2D772767FD7095872F11
:10277000972F4FD49B01AC01C801B7014DD587FD00
:1027800012C06D2D772767FD70956D5F7F4F88278D
:1027900077FD8095982F3DD49B01AC01C801B7010E
:1027A00099D3181614F5D0904C036D2D772767FD3B
:1027B0007095872F972F2DD49B01AC01C801B701CD
:1027C0002BD587FD2FC06D2D772767FD70956D5F29
:1027D0007F4F882777FD8095982F1BD49B01AC01F4
:1027E000C801B70177D31816ECF080915A03909185
:1027F0005B03A0915C03B0915D03B05880935A03D2
:1028000090935B03A0935C03B0935D0380E090E042
:10281000A0E8BFE38093520390935303A093540323
:10282000B09355031F910F91FF90EF90DF900895A3
:10283000EF92FF920F931F932091620320FF7BC0C2
:1028400023FF3EC0E4D37B018C01209156033091DD
:1028500057034091580350915903E2D49B01AC01B6
:1028600060914E0370914F038091500390915103FA
:10287000CDD260934E0370934F0380935003909397
:102880005103C801B70120915A0330915B03409175
:102890005C0350915D03C4D49B01AC016091520371
:1028A000709153038091540390915503AFD260937C
:1028B00052037093530380935403909355033BC08A
:1028C00021FF19C060914C03772767FD70956F5FFA
:1028D0007F4F882777FD8095982F9BD360934E0379
:1028E00070934F03809350039093510380E090E0E6
:1028F000A0E0B0E418C060914A03772767FD7095A7
:102900006F5F7F4F882777FD8095982F82D36093E4
:102910004E0370934F03809350039093510380E0D4
:1029200090E0A0E5B1E48093520390935303A09309
:102930005403B09355031F910F91FF90EF900895AA
:10294000E091B402F091B5028DE0099580934A03BD
:1029500008956F927F928F929F92AF92BF92CF9283
:10296000DF92EF92FF920F931F933B014C0179018D
:102970008A0185D59C01B901882777FD8095982F1C
:1029800048D35B016C0160E07EEF8FEF96E4A80115
:102990009701A4D29B01AC01C601B5019FD29B0156
:1029A000AC01C401B30132D21F910F91FF90EF909F
:1029B000DF90CF90BF90AF909F908F907F906F905F
:1029C00008951F938091620383FD4CC081FD4AC02E
:1029D000E0918402F091850282E00995882309F450
:1029E00041C08091620390916303A0916403B09110
:1029F000650388608093620390936303A0936403EC
:102A0000B0936503FEDC162F66EA7BE984E49BE362
:102A100026EA3BE944E45CE39CDF60935603709351
:102A20005703809358039093590310FD09C09058A1
:102A30006093560370935703809358039093590300
:102A400066EA7BE984E49BE326EA3BE944E45CE351
:102A500080DF905860935A0370935B0380935C030C
:102A600090935D031F910895EF92FF920F931F9330
:102A7000C8DC20915E0330915F0340916003509168
:102A800061037B018C01E21AF30A040B150B6093BE
:102A90005E0370935F038093600390936103C801AA
:102AA000B701C6DEC801B7014BDF8BDF01DDB2DC49
:102AB0001F910F91FF90EF90089580E090E0A0EEBD
:102AC000B0E480934E0390934F03A0935003B093D0
:102AD00051038093520390935303A0935403B093F4
:102AE000550366EA7BE984E49BE326EA3BE944E498
:102AF0005CE32FDF60935603709357038093580372
:102B00009093590366EA7BE984E49BE326EA3BE978
:102B100044E45CE31EDF60935A0370935B0380938D
:102B20005C0390935D0386E080934A0310924B030D
:102B300080934C0310924D031092620380916203C4
:102B400090916303A0916403B091650381608093C9
:102B5000620390936303A0936403B093650351DC15
:102B6000DC01CB0180935E0390935F03A09360032D
:102B7000B093610387C41092630382EC94E0909356
:102B8000B1028093B00281E295E090939402809329
:102B900093028EED95E0909397028093960283E5E1
:102BA00096E090939D0280939C0281EA94E090933A
:102BB000D5028093D4020895CF92DF92EF92FF92D4
:102BC0000F931F93DF93CF930F92CDB7DEB7182FDC
:102BD000F62E80310CF04BC060310CF048C0D42E82
:102BE000D80EE22EEF0C083011F00A30C1F4F7FCD9
:102BF000FF2417FD10E091E0083069F090E00BC071
:102C0000802F6F2D492F99830E94C2040F5F9981F5
:102C10000D15B4F3F394FE1454F5012FF9CF0930D8
:102C200031F5F7FE02C0FF24FA9417FD1FEF0F2DB8
:102C3000CD2CCA940BC0812F602F41E00E94C204AA
:102C40008C2D602F41E00E94C2040F5F0E159CF393
:102C5000EA940BC0812F6F2D41E00E94C204812FA6
:102C60006E2D41E00E94C2041F5F1D159CF30F9062
:102C7000CF91DF911F910F91FF90EF90DF90CF9058
:102C80000895AF92BF92CF92DF92EF92FF920F938F
:102C90001F93DF93CF9300D00F92CDB7DEB7142FE1
:102CA000E42FFF27E7FDF095482F552747FD509566
:102CB000E41BF50BF7FF03C0F095E195FF4FDE2E07
:102CC000E22FFF27E7FDF095A62FBB27A7FDB095C4
:102CD000EA1BFB0BF7FF03C0F095E195FF4F4E2F6A
:102CE000CE2E0D2D0E1B811714F491E001C09FEF25
:102CF000621714F431E001C03FEFE62EF82E55279D
:102D000047FD5095AA24BB24A41AB50A8F2D6E2D19
:102D100041E02B833A8399830E94C2042B813A813C
:102D20009981F11611F4E21681F0802F880F482F57
:102D3000552747FD5095A416B50614F40C19F90E45
:102D40008D1524F70D0DE30EE1CF0F900F900F902E
:102D5000CF91DF911F910F91FF90EF90DF90CF9077
:102D6000BF90AF900895AF92BF92DF92EF92FF9223
:102D70000F931F93CF93DF93182FF42EE82FF92F83
:102D8000DF010D900020E9F7DA2ED81A4EEFA42EBD
:102D9000DA0CE62E412FEA015E01B92EE50127C0CB
:102DA0008991982F91549A3140F4992787FD9095F5
:102DB000880F991F87549F4F0BC0982F90539A30BC
:102DC00050F4992787FD9095880F991F815F9E4F3A
:102DD00063E045E004C083E891E062E043E02E2D2B
:102DE0000F2D0E94DE050E94FA0134E0E30EAE01D1
:102DF000411BD416ACF6DF91CF911F910F91FF903C
:102E0000EF90DF90BF90AF9008955058BB27AA274E
:102E10000ED0B1C1A2D130F0A7D120F031F49F3F44
:102E200011F41EF497C10EF4E095E7FB64C1E92F9D
:102E3000B3D180F3BA17620773078407950718F0B8
:102E400071F49EF5E2C10EF4E0950B2EBA2FA02D81
:102E50000B01B90190010C01CA01A0011124FF2747
:102E6000591B99F0593F50F4503E68F11A16F04042
:102E7000A22F232F342F4427585FF3CF4695379541
:102E80002795A795F0405395C9F77EF41F16BA0B06
:102E9000620B730B840BBAF09150A1F0FF0FBB1FB4
:102EA000661F771F881FC2F70EC0BA0F621F731FFD
:102EB000841F48F4879577956795B795F7959E3F5A
:102EC00008F0B3CF9395880F08F09927EE0F9795E8
:102ED00087950895ECD008F481E008950CD04BC19B
:102EE00043D140F03AD130F021F45F3F19F003C1F3
:102EF00051118CC12FC150D198F39923C9F3552397
:102F0000B1F3951B550BBB27AA27621773078407DC
:102F100038F09F5F5F4F220F331F441FAA1FA9F392
:102F200033D00E2E3AF0E0E830D091505040E69584
:102F3000001CCAF729D0FE2F27D0660F771F881FE5
:102F4000BB1F261737074807AB07B0E809F0BB0BD4
:102F5000802DBF01FF2793585F4F2AF09E3F5105F8
:102F600068F0C9C053C15F3FECF3983EDCF386952F
:102F700077956795B795F7959F5FC9F7880F911D6E
:102F80009695879597F90895E1E0660F771F881F5A
:102F9000BB1F621773078407BA0720F0621B730B0D
:102FA000840BBA0BEE1F88F7E095089504D068945F
:102FB000B1112CC10895F8D088F09F5790F0B92F27
:102FC0009927B751A0F0D1F0660F771F881F991F7E
:102FD0001AF0BA95C9F712C0B13081F016D1B1E03C
:102FE000089513C1672F782F8827B85F39F0B93F4C
:102FF000CCF3869577956795B395D9F73EF4909580
:103000008095709561957F4F8F4F9F4F0895E894FD
:1030100009C097FB3EF490958095709561957F4F20
:103020008F4F9F4F9923A9F0F92F96E9BB279395CE
:10303000F695879577956795B795F111F8CFFAF4DE
:10304000BB0F11F460FF1BC06F5F7F4F8F4F9F4F0F
:1030500016C0882311F096E911C0772321F09EE86D
:10306000872F762F05C0662371F096E8862F70E0D3
:1030700060E02AF09A95660F771F881FDAF7880FAD
:103080009695879597F90895A9D080F09F3740F4D9
:1030900091110EF0BBC060E070E080E89FEB0895F6
:1030A00026F41B16611D711D811D2BC045C0990F93
:1030B0000008550FAA0BE0E8FEEF16161706E80702
:1030C000F907C0F012161306E407F50798F0621B23
:1030D000730B840B950B39F40A2661F0232B242BF8
:1030E000252B21F408950A2609F4A140A6958FEF17
:1030F000811D811D089597F99F6780E870E060E069
:103100000895882371F4772321F09850872B762F28
:1031100007C0662311F499270DC09051862B70E0EB
:1031200060E02AF09A95660F771F881FDAF7880FFC
:103130009695879597F908959F3F31F0915020F427
:10314000879577956795B795880F911D9695879583
:1031500097F908959FEF80EC089500240A941616BD
:10316000170618060906089500240A941216130675
:10317000140605060895092E0394000C11F4882303
:1031800052F0BB0F40F4BF2B11F460FF04C06F5F1F
:103190007F4F8F4F9F4F089557FD9058440F551FF5
:1031A00059F05F3F71F04795880F97FB991F61F0C9
:1031B0009F3F79F087950895121613061406551F40
:1031C000F2CF4695F1DF08C0161617061806991FAC
:1031D000F1CF86957105610508940895E5DFA0F0AB
:1031E000BEE7B91788F4BB279F3860F41616B11DE7
:1031F000672F782F8827985FF7CF86957795679503
:10320000B11D93959639C8F30895E894BB276627B6
:103210007727CB0197F908954ADF08F48FEF0895D7
:103220000BD0A9CF9ADF28F09FDF18F0952309F083
:1032300062CF90CF1124EACFAFDFA0F3959FD1F3F7
:10324000950F50E0551F629FF001729FBB27F00D54
:10325000B11D639FAA27F00DB11DAA1F649F6627A9
:10326000B00DA11D661F829F2227B00DA11D621FF8
:10327000739FB00DA11D621F839FA00D611D221FB2
:10328000749F3327A00D611D231F849F600D211D96
:10329000822F762F6A2F11249F5750408AF0E1F039
:1032A00088234AF0EE0FFF1FBB1F661F771F881F82
:1032B00091505040A9F79E3F510570F01CCFA6CF0A
:1032C0005F3FECF3983EDCF3869577956795B7956D
:1032D000F795E7959F5FC1F7FE2B880F911D969597
:1032E000879597F90895629FD001739FF001829F9F
:1032F000E00DF11D649FE00DF11D929FF00D839F85
:10330000F00D749FF00D659FF00D9927729FB00D21
:10331000E11DF91F639FB00DE11DF91FBD01CF0134
:1033200011240895991B79E004C0991F961708F09D
:10333000961B881F7A95C9F78095089597FB092EEB
:1033400007260AD077FD04D049D006D000201AF411
:10335000709561957F4F0895F6F7909581959F4FF1
:103360000895A1E21A2EAA1BBB1BFD010DC0AA1FC6
:10337000BB1FEE1FFF1FA217B307E407F50720F0DE
:10338000A21BB30BE40BF50B661F771F881F991F59
:103390001A9469F760957095809590959B01AC01A2
:1033A000BD01CF01089597FB092E05260ED057FDCC
:1033B00004D0D7DF0AD0001C38F4509540953095E2
:1033C00021953F4F4F4F5F4F0895F6F790958095A9
:1033D000709561957F4F8F4F9F4F0895AA1BBB1B20
:1033E00051E107C0AA1FBB1FA617B70710F0A61B05
:1033F000B70B881F991F5A95A9F780959095BC0126
:10340000CD010895A0E0B0E0E7E0FAE18DC0EC0165
:10341000688179818A819B8161157105810591059A
:1034200021F464E279ED8BE597E02DE133EF41E0A3
:1034300050E0B9DF79018A0127EA31E440E050E049
:1034400052DF5B016C01C801B7012CEE34EF4FEF86
:103450005FEF49DF6A0D7B1D8C1D9D1D97FF04C02A
:103460006150704080409048688379838A839B8351
:103470007F77CB01CDB7DEB7EAE072C0C3CF87EA72
:1034800091E0C0CFA0E0B0E08093A7019093A801A5
:10349000A093A901B093AA010895FB01DC0101905A
:1034A0000D920020E1F70895F999FECF92BD81BDFC
:1034B000F89A992780B50895A6E1B0E044E050E07D
:1034C0001DC0A8E1B0E042E050E018C0262FF999F5
:1034D000FECF1FBA92BD81BD20BD0FB6F894FA9AF7
:1034E000F99A0FBE01960895242FF1DF252FEFDF03
:1034F00000C0ECDF272FEBCFDC01CB01FC01F999F9
:10350000FECF06C0F2BDE1BDF89A319600B40D922F
:1035100041505040B8F708952F923F924F925F92DA
:103520006F927F928F929F92AF92BF92CF92DF92D3
:10353000EF92FF920F931F93CF93DF93CDB7DEB738
:10354000CA1BDB0B0FB6F894DEBF0FBECDBF0994CC
:103550002A88398848885F846E847D848C849B8423
:10356000AA84B984C884DF80EE80FD800C811B8131
:10357000AA81B981CE0FD11D0FB6F894DEBF0FBE60
:0A358000CDBFED010895F894FFCFD0
:10358A00FF4200420142024203420744004401440E
:10359A0002440343064307440644074204420542E1
:1035AA0006460746064605460446014600440444C4
:1035BA000545064000E1000000000857DAD75C72B2
:1035CA0046D6DCF34EF34872D6B7DAE92E24D4B7DE
:1035DA005A924EBEDAD6DA56D4D74856E6D75A7138
:1035EA001CE924B6DEB6D4B6FAB55AB524E54EF6C9
:1035FA00DE592EC54EC51CB792F31CF3DEE524F73F
:10360A00DEF792D448454C4C4F00494E5000534D7A
:10361A004C5900535458540042415454005745459C
:0C362A004C00504F4E4700010000000013
:00000001FF
