:1000000027C1000041C100003FC100003DC1000008
:100010003BC1000039C1000037C1000035C10000FC
:1000200033C1000031C100000C94C70C0C94010DC9
:100030002BC1000029C1000027C1000025C100001C
:1000400023C1000021C100001FC100001DC100002C
:100050001BC1000019C1000017C100000C94B90AAF
:1000600013C1000011C100000FC100000DC100004C
:100070000BC1000009C1000007C1000005C100005C
:1000800003C1000001C10000FFC00000FDC000006E
:10009000FBC00000F9C00000F7C00000F5C0000080
:1000A000F3C00000F1C00000EFC000002D2D2D2D89
:1000B0002D2D2D2D2D2D2D2D2D2D2D2D2D2D2D2D70
:1000C0002D0D0A000D0A004379636C65732F53658B
:1000D000633A20000D0A0047616D65204176672074
:1000E00054696D653A20000D0A00536F756E6420E7
:1000F0004176672054696D653A20000D0A00496E0B
:10010000707574204176672054696D653A20000D42
:100110000A00436F6E736F6C6520417667205469E7
:100120006D653A20002D2D2D2D50726F66696C651E
:100130007220446174612D2D2D2D0D0A000D0A547D
:100140004D4F4F53205465726D696E616C0D0A46B8
:100150006F726D61742069733A20636F6D6D616EAB
:100160006420617267312061726732206172673387
:100170000D0A3E000D0A3E00000104050607252475
:100180002322212000010000B8011200020000CA51
:100190000143000300000D020401030904110214CD
:1001A00002030904270216030309043F020C00019D
:1001B000C1120180360181361201000202000010D6
:1001C000C0167A0400010102030109024300020182
:1001D00000C03209040000010202010005240010E1
:1001E000010524010101042402060524060001077B
:1001F00005820310004009040100020A0000000704
:1002000005030240000007058402400000040309C2
:1002100004140359006F007500720020004E006145
:10022000006D0065000000160355005300420020D9
:1002300000530065007200690061006C0000000C52
:10024000033100320033003400350000002D00007F
:1002500011241FBECFEFDAE0DEBFCDBF11E0A0E07A
:10026000B1E0E6E4F9E302C005900D92A23CB107CB
:10027000D9F713E0A2ECB1E001C01D92AC37B10791
:10028000E1F7ABD10C94A11CBBCEAF92BF92CF9241
:10029000DF92EF92FF920F931F93182F18D75B01F5
:1002A0006C01112349F46093D6017093D7018093B8
:1002B000D8019093D9012DC0113059F508D79B0171
:1002C000AC016093DA017093DB018093DC019093C1
:1002D000DD018091DE019091DF01A091E001B091FC
:1002E000E101E090D601F090D7010091D801109182
:1002F000D9018E199F09A00BB10B820F931FA41F68
:10030000B51F8093DE019093DF01A093E001B093CD
:10031000E1018091E2019091E301A091E401B091AB
:10032000E501A816B906CA06DB0608F45AC0D601CC
:10033000C501805C9D4BA04FBF4F8093E20190931D
:10034000E301A093E401B093E5016091DE017091B7
:10035000DF018091E0019091E10124E630E040E08E
:1003600050E00E94511B20E432E44FE050E00E9434
:100370008F1B84E6982F921B9093E601953610F020
:100380008093E6011092DE011092DF011092E001ED
:100390001092E10180919E0280FF23C08091E601CE
:1003A000823430F0809100018823D9F080E016C0BB
:1003B000982F9C52963130F480910001813089F061
:1003C00081E00CC0895190910001833120F492307A
:1003D00041F082E003C0943021F084E0FED68093A7
:1003E00000011F910F91FF90EF90DF90CF90BF9091
:1003F000AF900895EF92FF920F931F93ABD6609347
:1004000098027093990280939A0290939B0280E0E5
:100410003CDF8CEB92E00E94460F0E943E0AE09087
:10042000C201F090C3010091C4011091C5018CEB91
:1004300092E00E94590F6E0D7F1D801F911F6093E7
:10044000C2017093C3018093C4019093C501809150
:100450009E0283FF1DC08FE992E00E94460F08D7DD
:10046000E090C601F090C7010091C8011091C90148
:100470008FE992E00E94590F6E0D7F1D801F911F22
:100480006093C6017093C7018093C8019093C9011E
:1004900080919E0282FF1CC08CE892E00E94460F71
:1004A000E090CA01F090CB010091CC011091CD01F8
:1004B0008CE892E00E94590F6E0D7F1D801F911FE6
:1004C0006093CA017093CB018093CC019093CD01CE
:1004D00080919E0281FF1DC08EED92E00E94460F2A
:1004E00017D5E090CE01F090CF010091D00110918E
:1004F000D1018EED92E00E94590F6E0D7F1D801F7D
:10050000911F6093CE017093CF018093D00190939F
:10051000D10181E0BADE1F910F91FF90EF90089515
:10052000823071F1833030F4882371F0813009F02A
:1005300052C018C0883009F447C0893009F447C058
:10054000833009F048C032C080919E0290919F0292
:10055000A091A002B091A102662311F081601DC09C
:100560008E7F1BC080919E0290919F02A091A0025D
:10057000B091A102662311F082600FC08D7F0DC083
:1005800080919E0290919F02A091A002B091A10241
:10059000662311F0846001C08B7F80939E0290934C
:1005A0009F02A093A002B093A10213C080919E026B
:1005B00090919F02A091A002B091A102662311F038
:1005C0008860EBCF877FE9CF60939E0202C0609383
:1005D000AD0281E0089580E008952F923F924F92FE
:1005E0005F926F927F928F929F92AF92BF92CF92C3
:1005F000DF92EF92FF920F931F93DF93CF9300D080
:100600000F92CDB7DEB780E8809361001092610051
:1006100034D58823A1F01DD7009789F006D4009720
:1006200071F0FED5882359F053D4882341F00E94FD
:10063000040C882321F00E946E11882371F400E0DD
:1006400010E017FD03C08BE061E002C08BE060E0CA
:100650000E94470B0F5F1F4FF4CF10929E02109223
:10066000AD021092E2011092E3011092E4011092A7
:10067000E5011092E6011092D6011092D701109276
:10068000D8011092D9011092DA011092DB01109278
:10069000DC011092DD011092DE011092DF01109258
:1006A000E0011092E10180E060E03ADF81E060E08B
:1006B00037DF82E061E034DF83E061E031DF83E057
:1006C00060E008D388E06CE305D30E94360F0E94F7
:1006D000650E8EEE92E00E94460F8CDE80ED92E079
:1006E0000E94460F0E94760EE090D201F090D30156
:1006F0000091D4011091D50180ED92E00E94590F34
:100700006E0D7F1D801F911F6093D2017093D301E6
:100710008093D4019093D5018091BA029091BB024D
:1007200001969093BB028093BA028EEE92E00E94F3
:10073000590F603422E472072FE0820720E092070D
:1007400060F28EEE92E00E94460FE090BA02F090C6
:10075000BB0200E010E06091C2017091C301809182
:10076000C4019091C501A80197010E948F1BD22E50
:10077000C32EB42EA52E6091C6017091C701809141
:10078000C8019091C901A80197010E948F1B922E68
:10079000432E342E252E6091CE017091CF01809191
:1007A000D0019091D101A80197010E948F1B822E48
:1007B000732E642E552E6091D2017091D3018091D9
:1007C000D4019091D501A80197010E948F1BE42EBE
:1007D00085E291E029833A835B8343D682E191E00D
:1007E00040D66D2D7C2D8B2D9A2D4BE00E94740FE1
:1007F0008FE091E036D68EEF90E033D6692D742DE0
:10080000832D922D4BE00E94740F8BEF90E029D640
:100810008AEE90E026D6682D772D862D952D4BE01B
:100820000E94740F87EE90E01CD687ED90E019D6F9
:100830002981622F3A81732F8E2D5B81952F4BE09A
:100840000E94740F84ED90E00CD687EC90E009D6FE
:100850006091BA027091BB0280E090E04BE00E9490
:10086000740F84EC90E0FDD58CEA90E0FAD51092FC
:10087000D2011092D3011092D4011092D50110929E
:10088000CE011092CF011092D0011092D10110929E
:10089000CA011092CB011092CC011092CD0110929E
:1008A000C6011092C7011092C8011092C90110929E
:1008B000C2011092C3011092C4011092C50110929E
:1008C000BB021092BA0209CF0895813009F580E089
:1008D00061E0DDD68091EB019091EC01A091ED01FA
:1008E000B091EE0180688D7F8093EB019093EC01D5
:1008F000A093ED01B093EE011092320210923302F8
:1009000010923402109235021092360281E008955E
:100910008823A9F460E0BBD68091EB019091EC01B3
:10092000A091ED01B091EE018D778093EB01909352
:10093000EC01A093ED01B093EE0180E008958FEFFC
:1009400008958091EB0182FF1CC02CEE31E04091B4
:10095000300250913102C90181964217530749F480
:10096000909331028093300250932F0240932E02D5
:100970000895309331022093300290932F02809398
:100980002E0208951F93DF93CF930F92CDB7DEB75A
:10099000803108F051C0603108F04EC0162F12951A
:1009A000107F180F612F66956695669570E080E060
:1009B00090E049830E94C5190E94021A0E94991969
:1009C00070E0E0912E02F0912F02109549814423AE
:1009D000B9F0E60FF71F177021E030E002C0220FD8
:1009E000331F1A95E2F7442737FD4095542F808135
:1009F0009181A281B381822B932BA42BB52B18C09C
:100A0000E60FF71F177021E030E002C0220F331FFE
:100A10001A95E2F720953095442737FD4095542FDD
:100A200080819181A281B38182239323A423B52362
:100A300080839183A283B3830F90CF91DF911F9125
:100A400008951F938031A0F5603190F5162F12950F
:100A5000107F180F612F66956695669570E080E0AF
:100A600090E00E94C5190E94021A0E949919E09113
:100A70003002F0913102E60FF11D1095177021E060
:100A800030E002C0220F331F1A95E2F7442737FDEA
:100A90004095542F80819181A281B38128233923ED
:100AA0004A235B2381E0211531054105510509F4F5
:100AB00080E01F9108951F9382E061E0E8D5809166
:100AC0003202882359F481E061E0E1D584E035D633
:100AD00083E033D681E060E0DAD504C084E02DD62F
:100AE00083E02BD617E0812F60913202AADF8823A2
:100AF00019F086E060E002C086E061E0C8D589E0D8
:100B00001CD6115080F71FE0812F6091320299DFCF
:100B1000882319F086E060E002C086E061E0B7D586
:100B200089E00BD61150173079F788E006D682E0BD
:100B300060E0ADD5809132028F5F809332028031C8
:100B400014F0109232021F9108950F93CF93DF9308
:100B5000EC01069F002D1124020F602F669566950B
:100B6000669570E0882777FD8095982F0E94C719B9
:100B70000E94021A0E949919C60FD11D0095077094
:100B800021E030E002C0220F331F0A95E2F744272C
:100B900037FD4095542F88819981AA81BB812823F4
:100BA00039234A235B2381E0211531054105510595
:100BB00009F480E0DF91CF910F9108952F923F9239
:100BC0004F925F926F927F928F929F92AF92BF925D
:100BD000CF92DF92EF92FF920F931F93CF93DF9309
:100BE0003C01A62EC42ED22E102F8091EB0180FD49
:100BF00007C0EE24FF24442E5524262E332436C06D
:100C0000EE24FF24442E5524262E332412C0C30183
:100C10006A2D4C2D2C2F0B2D98DF482F8C2F8D0DEE
:100C2000692DB0DE2196C215D3058CF30894E11C22
:100C3000F11CE414F5041CF5C0E0D0E0BE2C9E2CA1
:100C4000910EF1CFC3016A2D4C2D2C2F0B2D7DDF82
:100C5000482F882321F08C2F8D0D692D93DE21964E
:100C6000C215D3057CF30894E11CF11CE414F504CF
:100C700034F4C0E0D0E0BE2C9E2C910EF1CF81E088
:100C8000DF91CF911F910F91FF90EF90DF90CF9068
:100C9000BF90AF909F908F907F906F905F904F909C
:100CA0003F902F90089540912E0250912F02FA010B
:100CB00020E030E09FEF882311F4108204C0DA01B5
:100CC000A20FB31F9C932F5F3F4F31962132310506
:100CD00091F70895833049F1843038F4882309F47A
:100CE00049C0823009F09BC061C0883021F0893052
:100CF00009F095C080C0262F30E084E0220F331F1A
:100D00008A95E1F7442737FD4095542F60E472E45B
:100D10008FE090E00E94B11B2093E7013093E8013F
:100D20004093E9015093EA017CC0613081F484E68C
:100D300094E09093DD028093DC028091EB0190912E
:100D4000EC01A091ED01B091EE0188605FC06623D7
:100D500009F067C08BE595E09093DD028093DC029B
:100D60008091EB019091EC01A091ED01B091EE0129
:100D7000877F4CC0662369F4E091EB01F0E080814D
:100D80009181A281B3818E7F80839183A283B3837B
:100D900048C0613009F045C08091EB019091EC01B1
:100DA000A091ED01B091EE01816030C06623B9F4ED
:100DB000E091EB01F0E080819181A281B3818B7F92
:100DC00080839183A283B3838CEE91E090932F0272
:100DD00080932E02909331028093300222C06130C2
:100DE00011F58091EB019091EC01A091ED01B09192
:100DF000EE0184600BC06093EB018091EB01909158
:100E0000EC01A091ED01B091EE018C7F8093EB019C
:100E10009093EC01A093ED01B093EE0102C080E04D
:100E2000089581E0089581E0089525EF31E080E0A4
:100E300090E00BC01192E217F307E1F701969F01D2
:100E40002F5D3F4F8230910559F0FC0145E0EE0FD8
:100E5000FF1F4A95E1F7E80FF91FE451FE4FEACF73
:100E60008CEE91E0909331028093300281969093C2
:100E70002F0280932E0210923202109233021092AF
:100E80003402109235021092360281E194E0A0E023
:100E9000B0E08093E7019093E801A093E901B0935B
:100EA000EA0183E060E016DF80E061E013DF82E0CA
:100EB00061E010DF81E009DD85E061E0E8D38AE0F0
:100EC00061E0E5D387E060E0E2D381E090E008955F
:100ED0001092050310920403109200031092010374
:100EE000109202031092030310920A031092060359
:100EF0001092070310920803109209031092FC024B
:100F00001092FD021092FE021092FF0281E00895FD
:100F1000AF92BF92CF92DF92EF92FF920F931F9307
:100F20008091FC029091FD02A091FE02B091FF021F
:100F30000097A105B10509F453C0C9D07B018C010C
:100F40008091000390910103A0910203B0910303EB
:100F5000E816F9060A071B0758F157016801A81A95
:100F6000B90ACA0ADB0A80910A03882331F481E0B6
:100F700080930A0380E161E004C010920A0380E1DB
:100F800060E085D38091040390910503A0E0B0E078
:100F90008E0D9F1DA01FB11F8A199B09AC09BD09A9
:100FA0008093000390930103A0930203B093030383
:100FB000D1D09B01AC018091060390910703A091D1
:100FC0000803B0910903281739074A075B0740F067
:100FD0001092FC021092FD021092FE021092FF028B
:100FE0001F910F91FF90EF90DF90CF90BF90AF9047
:100FF0000895EF92FF920F931F937A018B019C014A
:1010000040E050E060E472E48FE090E00E94B11BA9
:1010100030930503209304039DD06E0D7F1D801F28
:10102000911F6093060370930703809308039093C6
:1010300009034DD0209104033091050340E050E0B6
:10104000620F731F841F951F609300037093010349
:10105000809302039093030381E090E0A0E0B0E06E
:101060008093FC029093FD02A093FE02B093FF02D6
:101070001F910F91FF90EF900895DFD281E0809350
:101080003F029CD3609344027093450280934602D2
:101090009093470285D360933B0270933C02809308
:1010A0003D0290933E028AD36093400270934102C6
:1010B000809342029093430273D3609337027093FC
:1010C00038028093390290933A0281E00895EF92BA
:1010D000FF920F931F9372D37B018C018091440286
:1010E00090914502A0914602B0914702A801970154
:1010F000281B390B4A0B5B0BCA01B90120913F0237
:1011000030E040E050E00E94511B9B01AC01809117
:10111000400290914102A0914202B0914302280FF7
:10112000391F4A1F5B1F20934002309341024093B6
:10113000420250934302E0924402F092450200932F
:10114000460210934702B901CA011F910F91FF9007
:10115000EF900895EF92FF920F931F9321D37B019D
:101160008C0180913B0290913C02A0913D02B09194
:101170003E02A8019701281B390B4A0B5B0BCA01E1
:10118000B90120913F0230E040E050E00E94511B45
:101190009B01AC018091370290913802A0913902F5
:1011A000B0913A02280F391F4A1F5B1F2093370264
:1011B000309338024093390250933A02E0923B0256
:1011C000F0923C0200933D0210933E02B901CA0125
:1011D0001F910F91FF90EF9008951F93182F882370
:1011E00011F481E00FC0813011F482E00BC0823035
:1011F00011F484E007C0833011F488E003C0843028
:1012000019F480E180933F0262DFA4DFF89480E864
:1012100080936100109361007894812F1F9108954D
:101220008CE380934C02109253021092540210925D
:10123000550210925602109252021092510284E00E
:1012400080935002EDE4F2E084E1808383E18183C6
:1012500082E1828384E690E0909349028093480281
:1012600084E893E090934B0280934A0281E00895D2
:10127000CF92DF92EF92FF920F931F93CF93DF9362
:1012800069DF2091530230915402409155025091F0
:101290005602621773078407950708F491C02091DE
:1012A0004C02620F711D811D911D6093530270935A
:1012B000540280935502909356028091500246D278
:1012C0007C0100E010E0C0904A02D0904B02B601D1
:1012D00080E090E06E157F058007910778F02091FF
:1012E00048023091490240E050E0C801B70162175E
:1012F00073078407950710F4CA01B901C091480229
:10130000D09149029E0140E050E0621B730B840BB8
:10131000950B2FEF30E040E050E00E94511BCC1ABB
:10132000DD0A960140E050E00E948F1B209351029D
:1013300080914D02DCD120915202309153024091B4
:10134000540250915502882311F4216001C02E7F70
:10135000209352023093530240935402509355020B
:1013600080914E02C4D1209152023091530240919B
:10137000540250915502882311F4226001C02D7F40
:1013800020935202309353024093540250935502DB
:1013900080914F02ACD12091520230915302409182
:1013A000540250915502882311F4246001C02B7F10
:1013B00020935202309353024093540250935502AB
:1013C000DF91CF911F910F91FF90EF90DF90CF9021
:1013D0000895813069F0813038F0823079F08330BF
:1013E000A1F4809151020895809152028170089574
:1013F0009091520281E091FD09C005C09091520286
:1014000081E092FD03C080E0089580E008951F937D
:10141000182F83E0DEDF482F8F3FB9F0612F8FEF69
:1014200090E070E00E947C1B842F0E94701B682F4C
:1014300070E0882777FD8095982F0E94C7190E9439
:10144000021A0E949919862F02C0812F81501F9184
:101450000895109257021092780201D281E090E034
:101460000895CF93DF93EC01FE01219684918823A8
:1014700011F048D2F9CFDF91CF9108951F93809159
:10148000570280FD1DC004D2882309F45EC07CD2BF
:1014900080FF5BC024D28091570290915802A091A6
:1014A0005902B0915A02816080935702909358027A
:1014B000A0935902B0935A028DE391E0D2DF45C068
:1014C000EAD1182F8091780280328CF4912F9052BB
:1014D0009F3568F4E82FFF27E7FDF095E85AFD4FA8
:1014E00010838F5F80937802812F0CD210C01D3043
:1014F00011F01A3061F4E0917802FF27E7FDF095D2
:10150000E85AFD4F108284E791E0ABDF1CC0C0D1E8
:10151000882329F039D280FF02C0112391F48091F1
:10152000570290915802A0915902B0915A028E7FB1
:101530008093570290935802A0935902B0935A0295
:1015400004C0143011F4109278021F9108951F9373
:10155000CF93DF93EC0110E0FE01E10FF11D8081DC
:10156000882319F0CFD11F5FF7CFDF91CF911F9163
:1015700008951F920F920FB60F9211242F933F934D
:101580004F935F936F937F938F939F93AF93BF938B
:10159000EF93FF9380910C0390910D03A0910E03A4
:1015A000B0910F03309179020196A11DB11D232F37
:1015B0002D5F2D3720F02D570196A11DB11D2093D1
:1015C000790280930C0390930D03A0930E03B093C4
:1015D0000F038091100390911103A0911203B09119
:1015E00013030196A11DB11D809310039093110365
:1015F000A0931203B093130380910B038F5F80932A
:101600000B0380910B03823038F0E091DC02F09103
:10161000DD02099510920B03FF91EF91BF91AF91FD
:101620009F918F917F916F915F914F913F912F91FA
:101630000F900FBE0F901F901895F89484B582609C
:1016400084BD84B5816084BD85B5826085BD85B566
:10165000816085BDEEE6F0E08081816080837894D2
:1016600010921003109211031092120310921303A0
:1016700010920C0310920D0310920E0310920F03A0
:101680001092790210920B0381E090E00895893165
:1016900060F5E82FF0E0EE0FFF1FEF5FFE4F808157
:1016A00021818154E82FEE0FE80FF0E0662371F4FA
:1016B00081E090E002C0880F991F2A95E2F721A1EE
:1016C000282B21A3809592A198230CC081E090E063
:1016D00002C0880F991F2A95E2F791A1982B91A338
:1016E00092A1982B92A381E0089580E0089589311A
:1016F00010F5E82FF0E0EE0FFF1FEF5FFE4F808147
:101700008154A3E08A9FD001112421E030E00180C0
:1017100002C0220F331F0A94E2F7922F9095919600
:101720008C919197892391968C93919790968C9117
:1017300090978223089580E008951F93182F61E009
:10174000A6DF812F60E0A3DF1F9108958C3020F584
:10175000E82FF0E0E858FE4FE49186E880937A00A5
:101760008E2F8072806880937B00EF7180913301AF
:10177000E82BE0937C0086EC80937A0080917A00DD
:1017800086FDFCCF2091780030917900932F80E086
:1017900030E0282B392B02C020E030E0C901089549
:1017A0008FB7F89420910C0330910D0340910E03F4
:1017B00050910F038FBFB901CA0108959FB7F894E4
:1017C00020911003309111034091120350911303A3
:1017D00086B5A89B06C08F3F21F02F5F3F4F4F4F2C
:1017E0005F4F9FBF542F432F322F2227280F311DC9
:1017F000411D511D62E0220F331F441F551F6A9582
:10180000D1F7B901CA01089582E39CE19093B70230
:101810008093B6028FE39CE19093B1028093B00273
:101820008AE39CE19093CF028093CE0284E49CE112
:101830009093CB028093CA0287E59CE19093B30218
:101840008093B20282E59CE19093B9028093B80242
:1018500081E008958091E80080FFFCCF089581E049
:101860008093D70080EA8093D80082E189BD09B4D3
:1018700000FEFDCF80E98093D8001092E000109226
:101880007A0210927B028CE08093E20078940895B3
:1018900080917A0208958FB7F89490917A029923F3
:1018A00069F093E09093E9002BE69091E80095FDB4
:1018B00009C092FF03C02093E800F7CF8FBF2FEF3E
:1018C0003FEF0BC02091F1009091E80095FD03C01F
:1018D0009BE69093E8008FBF30E0C90108958091A6
:1018E0007A02882371F08FB7F89493E09093E9001F
:1018F0009BE602C09093E8002091E80025FDFACF16
:101900008FBF089590917A029923D1F19FB7F894EF
:1019100024E02093E90020917D02222341F02091D0
:10192000E80025FD02C09FBF2BC010927D022091D0
:10193000E400275E34E04091E80045FD12C09FBFFF
:101940009091E400921721F481E080937D0218C009
:1019500090917A029923B1F09FB7F8943093E900FF
:10196000EACF8093F1008091E80085FD03C08AE30F
:101970008093E80085E080937C029FBF80E008951B
:101980008FEF08958FEF089580917B0208951F9245
:101990000F920FB60F9211248F939F938091E100C5
:1019A0001092E10083FF11C01092E90091E0909342
:1019B000EB001092EC0092E19093ED0098E0909390
:1019C000F00010927A0210927B0282FF13C0809185
:1019D0007A02882379F080917C02882359F0815023
:1019E00080937C02882331F484E08093E9008AE3C9
:1019F0008093E8009F918F910F900FBE0F901F90E2
:101A000018951F920F920FB60F921124EF92FF922A
:101A10000F931F932F933F934F935F936F937F93F6
:101A20008F939F93AF93BF93EF93FF93DF93CF93E6
:101A30000F92CDB7DEB71092E9008091E80083FFE6
:101A400029C12091F1003091F1008091F100E82E40
:101A5000FF244091F100942F80E0E82AF92A0091B8
:101A6000F10010E04091F100942F80E0082B192B39
:101A70006091F100A091F10082EF8093E800363090
:101A800009F059C08BE891E09C0125503040FC01E1
:101A90003797459154914E155F05F9F4F901459139
:101AA000549140175107C9F42E5F3F4FF9018591BA
:101AB00094912E5F3F4FF9012491462F50E07A2FE9
:101AC00060E0462B572B4F3F510519F010F04FEFB8
:101AD00050E0421750F4242F08C00796295F3F4F6B
:101AE000F1E0853B9F0799F6D5C0AEEF4091E80045
:101AF00050E0BA016570707061157105B9F342FD6F
:101B0000CCC0322F213108F030E1AC01632F07C087
:101B1000FA014F5F5F4FE491E093F100615066235B
:101B2000B9F7830F911D231BA093E8002223F1F640
:101B30003031E1F2B2C0353049F48EEF8093E800E5
:101B400089DE8E2D80688093E300A7C0393051F57F
:101B5000222309F09FC0E0927A0210927B02109239
:101B60007C028EEF8093E80041E08EEA91E04093A2
:101B7000E900FC010196E491E093EB00EE2369F0AB
:101B80009C012F5F3F4FFC0184918093EC00C901C1
:101B90000196F90124912093ED004F5F453039F70C
:101BA0008EE173C0383049F4203809F073C052DE3A
:101BB00080917A028093F10045C0313271F4213A6C
:101BC00009F068C047DEE4E3F1E081918093F10021
:101BD00021E0EB33F207C9F735C03032A1F42132EE
:101BE00009F058C08091E80082FFFCCFE4E3F1E007
:101BF0008091F100819331E0EB33F307C9F78BEF6C
:101C00008093E8001FC0323239F4213209F042C01B
:101C1000E0927B021FDE16C03323C1F429831ADE53
:101C20002981223851F40093E9009091EB0081E082
:101C300095FF80E01092E90001C080E08093F10000
:101C40001092F1008EEF8093E80027C0313011F040
:101C5000333001F52230F1F4E114F104D9F40F77B7
:101C6000802F81508430B0F48EEF8093E800009391
:101C7000E900333079F089E18093EB0081E090E076
:101C800002C0880F991F0A95E2F78093EA0010922C
:101C9000EA0003C081E28093EB000F90CF91DF91C7
:101CA000FF91EF91BF91AF919F918F917F916F9134
:101CB0005F914F913F912F911F910F91FF90EF9066
:101CC0000F900FBE0F901F901895109280021092E7
:101CD000810210928202109283021092840210926A
:101CE0007E028FEF80937F0281E008951F93CF9350
:101CF000DF9380E077D3EC0180E090E07CD390919B
:101D00007E02992331F5E091CC02F091CD02099544
:101D1000182FE0919C02F0919D0280E009958823A4
:101D2000A9F4E091B402F091B50209958CE0189FF6
:101D3000C00111248C0F9D1F60E040E00E947118CB
:101D4000E091EC02F091ED0209951FEF10937F02F4
:101D50001BC080917F02992787FD9095FC01EE0FB3
:101D6000FF1FE80FF91FEE0FFF1FEE0FFF1FEC0F15
:101D7000FD1F0284F385E02D0995882329F4109234
:101D80007E028FEF80937F0280917F028F3FC9F0A8
:101D900090917E029923A9F491E090937E02992775
:101DA00087FD9095FC01EE0FFF1FE80FF91FEE0F66
:101DB000FF1FEE0FFF1FEC0FFD1F0084F185E02DCC
:101DC0000995E0919C02F0919D0281E0099588239C
:101DD00009F43DC0E0919C02F0919D0282E00995DA
:101DE0008823A9F180918002813021F50DD39B01D8
:101DF000AC018091810290918202A0918302B09106
:101E0000840284529A4FAF4FBF4F281739074A07B1
:101E10005B0740F1109280021092810210928202C0
:101E2000109283021092840210927E028FEF8093B0
:101E30007F0218C081E080938002E6D26093810225
:101E40007093820280938302909384020BC0DCD251
:101E50006093810270938202809383029093840244
:101E600010928002DF91CF911F91089583E391E05A
:101E700090938602809385028CEC90E09093880288
:101E80008093870281E0089580E060CCCF93DF9358
:101E9000EC011C821D821E821F82188619861A86FA
:101EA0001B868CDC688379838A839B83DF91CF9147
:101EB0000895CF93DF93EC0181DC9B01AC016C832F
:101EC0007D838E839F8388819981AA81BB81281B12
:101ED000390B4A0B5B0B288739874A875B87B90127
:101EE000CA01DF91CF9108954F925F926F927F92D6
:101EF0008F929F92AF92BF92CF92DF92EF92FF921A
:101F00000F931F93DF93CF93CDB7DEB728970FB60C
:101F1000F894DEBF0FBECDBF5B016C01E42E1982C9
:101F20001A821B821C821D821E821F821886D7FE87
:101F300007C066277727CB016A197B098C099D09A1
:101F4000FF248E010F5F1F4F2AE0622E712C812C1F
:101F5000912C28014F0C511CA40193010E94B11B2C
:101F6000605DF2016083F394B901CA011616170689
:101F70001806190674F32F2D30E0F0FE0AC0D801C0
:101F8000A90141505040F801E40FF51F80E090E0B6
:101F900026C0D801A90141505040F801E40FF51FB7
:101FA00080E090E00CC00C910196BA0160806D92C7
:101FB000008331974150504086179707A1F0821750
:101FC00093078CF310C06C90BA0140804D926082F0
:101FD00001963197415050400617170721F08C01A8
:101FE0008217930784F3CE010196FC01EF0DF11DDA
:101FF0001082FE2DFB3051F02E2D2A3041F4D7FEF9
:1020000003C08DE492E02DDACE010196A0DA289685
:102010000FB6F894DEBF0FBECDBFCF91DF911F91F9
:102020000F91FF90EF90DF90CF90BF90AF909F9077
:102030008F907F906F905F904F9008950F93E091F5
:10204000B402F091B50280E0099582E062E044E0DC
:1020500024E009E06FD78AE062E044E024E06AD738
:1020600087E067E042E022E065D782E06CE04DE087
:102070002CE0C5D781E06AE041E02BE0C0D78EE0DC
:102080006AE04EE02BE0BBD7E091EC02F091ED026C
:10209000099581E00F910895EF92FF920F931F939E
:1020A000E0919C02F0919D0283E00995182FE09148
:1020B0009C02F0919D0280E00995E82EE0919C023F
:1020C000F0919D0281E00995F82EE0919C02F0913B
:1020D0009D0282E00995082FE091B402F091B502CB
:1020E00080E00995812F6AE00E94701B182F809173
:1020F0008902811751F08EEA96E049E150E060E0F4
:1021000070E00E94F90710938902EE2041F0E091FF
:10211000C802F091C90283E060E041E00995FF2028
:1021200041F0E091C802F091C90284E060E041E032
:102130000995002341F0E091C802F091C90285E0C1
:1021400060E041E00995812F992787FD9095880FE0
:10215000991FE091AE02F091AF02855C9E4F63E063
:1021600045E020E000E00995E091EC02F091ED02FD
:10217000099581E01F910F91FF90EF90089580E104
:1021800080931903109214031092150310921603F2
:1021900010921703E0919C02F0919D0283E0099553
:1021A000809318030895E091B402F091B50280E0A5
:1021B000099584E891E06091190340E092D787E0A7
:1021C00067E040E02FE01BD788E067E04FE02FE0BA
:1021D00016D7E091EC02F091ED02099515D19B0123
:1021E000AC018091140390911503A0911603B09156
:1021F000170382179307A407B50708F58091190301
:102200008150809319038C3E19F480E18093190367
:10221000E0919C02F0919D0283E009958093180360
:10222000F3D020911803620F711D811D911D6093E1
:10223000140370931503809316039093170381E0A2
:1022400008950F93E091B402F091B50280E00995F2
:10225000E091CC02F091CD0289E00995992787FDA4
:102260009095880F991FE091AE02F091AF028159CD
:102270009E4F63E045E020E000E00995E091EC022C
:10228000F091ED02099581E00F910895E091B4027B
:10229000F091B50280E00995F7DD9C01B90188272E
:1022A00077FD8095982F0E94C71920E030EC4FE70A
:1022B00054E4D2D720E030E040E851E40E94CE1A46
:1022C0000E949419462F80E060E020E098D6E091CB
:1022D000EC02F091ED02099581E00895CF93DF9330
:1022E00008D68AEF91E09093EB028093EA0289EF9F
:1022F00097E09093FB028093FA0289EE99E0909325
:102300009D0280939C0287E09AE09093CD02809397
:10231000CC02CAE1D3E0CE016AE871E00E942B1C36
:102320008CE490E190932303809322039093250300
:1023300080932403CE010C966EE871E00E942B1C62
:102340008EE190E190932F0380932E0390933103BD
:1023500080933003CE01489663E971E00E942B1C04
:102360008FEB90E190933B0380933A0383ED90E1F0
:1023700090933D0380933C03CE01849668E971E01D
:102380000E942B1C86E491E19093470380934603BF
:102390009093490380934803CE01C0966DE971E0A4
:1023A0000E942B1C81E291E190935303809352038E
:1023B0009093550380935403CE01CC9662EA71E06A
:1023C0000E942B1C8DE092E190935F0380935E034B
:1023D00081E497E1909361038093600381E0DF9152
:1023E000CF910895882319F42AE133E002C020E058
:1023F00030E0C9010895882319F426E030E002C0D6
:1024000020E030E0C901089560919802709199022E
:1024100080919A0290919B02089586E080936303D5
:1024200010926403809375031092760310926203F6
:102430008091620390916303A0916403B09165035E
:1024400081608093620390936303A0936403B093CD
:102450006503DADFDC01CB01809377039093780387
:10246000A0937903B0937A030C94201CEF92FF920F
:102470000F931F93DF93CF930F92CDB7DEB78C01ED
:102480007B018091620390916303A0916403B091FA
:10249000650382FF11C01092B9011092BA01109227
:1024A000BB011092BC018B7F809362039093630306
:1024B000A0936403B09365038091B9019091BA0130
:1024C000A091BB01B091BC01883B6BE0960760E036
:1024D000A60760E0B60758F0F80181818A302CF435
:1024E000F70181818A300CF496C097DF94C0280FE1
:1024F000391F4A1F5B1F2093B9013093BA014093E3
:10250000BB015093BC01283BFBE03F07F0E04F07C5
:10251000F0E05F0788F08091620390916303A091DF
:102520006403B091650381608093620390936303B9
:10253000A0936403B0936503E091B402F091B502F7
:1025400080E00995F80181818A300CF052C0F701D2
:1025500081818A300CF055C080E067E04FE027E0D1
:102560004ED580E068E04FE028E049D51A8280919E
:10257000620381FF14C08091B9019091BA01A091CA
:10258000BB01B091BC018D3DF5E09F07F0E0AF07C6
:10259000F0E0BF0720F4F8018181815D03C0F801FC
:1025A0008181805D8983CE01019668E041E099D503
:1025B0008091620381FD14C08091B9019091BA01AC
:1025C000A091BB01B091BC018D3DF5E09F07F0E00B
:1025D000AF07F0E0BF0720F4F7018181815D03C000
:1025E000F7018181805D8983CE01019668E04AE030
:1025F00011C087EA91E060E040E073D58CEA91E099
:1026000007C081EB91E060E040E06BD585EB91E0A5
:1026100060E048E066D50F90CF91DF911F910F9158
:10262000FF90EF9008956F927F928F929F92AF925A
:10263000BF92CF92DF92EF92FF920F931F933B01D5
:102640004C01E091B402F091B50280E009956091EF
:1026500065037091660380916703909168030E94FF
:10266000311B7B018C016091690370916A03809139
:102670006B0390916C03F5D75B016C01C801B70146
:1026800053D6E62EC601B5014FD6E091C802F091AF
:10269000C9028E2D41E0099580916303482F4D5F5B
:1026A0006FE02FE0ACD480917503482F4D5F60E060
:1026B00020E0A5D485E793E063E673E0A4019301ED
:1026C000D5DEE091EC02F091ED0209951F910F919A
:1026D000FF90EF90DF90CF90BF90AF909F908F9042
:1026E0007F906F900895FC018181662369F08F5F70
:1026F00081838091620390916303A0916403B09100
:1027000065038260877F0BC08F5F81838091620346
:1027100090916303A0916403B0916503857E8093DB
:10272000620390936303A0936403B0936503809165
:10273000620390916303A0916403B0916503846088
:102740008E7F8093620390936303A0936403B0939E
:1027500065030895EF92FF920F931F93CF93DF933A
:10276000EC01CB01BA012091620323FF26C00DD6F4
:102770007B018C01288539854A855B850FD79B01B4
:10278000AC01688179818A819B81FED468837983D9
:102790008A839B83C801B7012C853D854E855F8563
:1027A000FDD69B01AC016C817D818E819F81ECD433
:1027B0006C837D838E839F832FC021FF15C0609122
:1027C0007503772767FD70956F5F7F4F882777FDCB
:1027D0008095982FDCD5688379838A839B8380E0FA
:1027E00090E0A0E0B0E414C060916303772767FD38
:1027F00070956F5F7F4F882777FD8095982FC7D59D
:10280000688379838A839B8380E090E0A0E5B1E4CC
:102810008C839D83AE83BF83DF91CF911F910F91F6
:10282000FF90EF900895CF93DF93EC01E091CC02FD
:10283000F091CD028DE009958883DF91CF910895C5
:102840006F927F928F929F92AF92BF92CF92DF92C0
:10285000EF92FF920F931F933B014C0179018A0184
:10286000ECD79C01B901882777FD8095982F8FD5EB
:102870005B016C0160E07EEF8FEF96E4A8019701A9
:10288000EBD49B01AC01C601B501E6D49B01AC01C0
:10289000C401B30179D41F910F91FF90EF90DF90A5
:1028A000CF90BF90AF909F908F907F906F90089542
:1028B0001F938091620383FD4CC081FD4AC0E0916B
:1028C0009C02F0919D0282E00995882309F441C0A1
:1028D0008091620390916303A0916403B0916503BA
:1028E00088608093620390936303A0936403B09322
:1028F00065038ADD162F66EA7BE984E49BE326EA1A
:102900003BE944E45CE39CDF60936D0370936E03EA
:1029100080936F039093700310FD09C090586093EB
:102920006D0370936E0380936F039093700366EA58
:102930007BE984E49BE326EA3BE944E45CE380DF53
:102940009058609371037093720380937303909314
:1029500074031F910895CF92DF92EF92FF921F931D
:10296000CF93DF93EC0180918A02840F80938A02D7
:10297000853608F4BCC010928A028091620383FFFE
:1029800031C0C0906503D0906603E0906703F0907B
:1029900068031881612F772767FD7095872F972F20
:1029A000F6D49B01AC01C701B60152D487FF04C025
:1029B0001116C4F4115015C0612F772767FD70956B
:1029C0006D5F7F4F882777FD8095982FE0D49B011E
:1029D000AC01C701B601DED5181624F41C3014F47E
:1029E0001F5F18838091620381FF1FC084FD1DC09B
:1029F00060E070E0CB0120E030E040E451E420DF13
:102A000001D597D460938B02809162039091630308
:102A1000A0916403B09165038061809362039093F9
:102A20006303A0936403B09365038091620384FF02
:102A30005EC083FD5CC081FF5AC04881242F3327CC
:102A400027FD309580918B0290E08217930714F454
:102A5000415004C02817390714F44F5F4883288178
:102A6000332727FD30952817390709F040C080919A
:102A7000620390916303A0916403B0916503886041
:102A80008093620390936303A0936403B093650300
:102A9000BBDC162F66EA7BE984E49BE326EA3BE98C
:102AA00044E45CE3CDDE60936D0370936E0380932A
:102AB0006F039093700310FD09C0905860936D03ED
:102AC00070936E0380936F039093700366EA7BE9C3
:102AD00084E49BE326EA3BE944E45CE3B1DE6093F3
:102AE0007103709372038093730390937403DF9167
:102AF000CF911F91FF90EF90DF90CF900895EF92CC
:102B0000FF920F931F93CF93DF93EC01E884F98436
:102B10000A851B856FE672E183E89AEB2FE632E1C6
:102B200043E85AE38DDE9B01AC01C801B7012CD309
:102B3000688779878A879B87EC84FD840E851F854B
:102B40006FE672E183E89AEB2FE632E143E85AE35D
:102B500077DE9B01AC01C801B70116D36C877D8776
:102B60008E879F87DF91CF911F910F91FF90EF90FC
:102B70000895AF92BF92CF92DF92EF92FF920F93A0
:102B80001F93CF93DF9360916503709166038091EB
:102B900067039091680365D520E030E040E751E499
:102BA000F9D41816ECF480E090E0A0E7B1E480934B
:102BB000650390936603A0936703B09368038091C5
:102BC0006D0390916E03A0916F03B0917003B058A4
:102BD00080936D0390936E03A0936F03B093700383
:102BE000609165037091660380916703909168031B
:102BF00038D520E030E0A9012BD387FF1CC080E04E
:102C000090E0DC018093650390936603A0936703D3
:102C1000B093680380916D0390916E03A0916F0350
:102C2000B0917003B05880936D0390936E03A0939E
:102C30006F03B0937003E0906903F0906A03009112
:102C40006B0310916C03C801B70120E030E040E64F
:102C500051E4A0D418160CF06CC0C801B70120E0F4
:102C600030E040E751E4F4D287FF63C0C5E6D3E02B
:102C7000A0906503B0906603C0906703D09068038E
:102C8000E09063036E2D772767FD7095872F972F50
:102C90007ED39B01AC01C601B5017CD487FDC5C0C4
:102CA0006E2D772767FD70956D5F7F4F882777FDC5
:102CB0008095982F6CD39B01AC01C601B501C8D299
:102CC00018160CF4B2C0E0907103F09072030091FA
:102CD00073031091740317FB109517F9109580E09A
:102CE00090E0A0E6B1E48093690390936A03A09317
:102CF0006B03B0936C0360916D0370916E038091D0
:102D00006F039091700322E630E140E85FE346D420
:102D1000688779878A879B87C801B70122E630E1F7
:102D200040E85FE33BD46C877D878E879F87CE0129
:102D30007BC0C801B70120E030E040E85FE388D203
:102D400087FF73C0C801B70120E030E0A90122D499
:102D500018160CF06AC0A0906503B0906603C0908E
:102D60006703D0906803E09075036E2D772767FDA9
:102D70007095872F972F0BD39B01AC01C601B5012E
:102D800009D487FD52C06E2D772767FD70956D5F62
:102D90007F4F882777FD8095982FF9D29B01AC0152
:102DA000C601B50155D218160CF43FC0E09071036E
:102DB000F0907203009173031091740317FB109548
:102DC00017F9109580E090E0A0E8BFE380936903D5
:102DD00090936A03A0936B03B0936C0360916D03AF
:102DE00070916E0380916F039091700322E630E141
:102DF00040E85FE3D3D360936D0370936E038093D9
:102E00006F0390937003C801B70122E630E140E8F8
:102E10005FE3C4D360937103709372038093730371
:102E20009093740385E693E06ADEE0906903F09086
:102E30006A0300916B0310916C03C801B70120E095
:102E400030E0A90105D287FF04C083E693E060E08B
:102E50000CC0C801B70120E030E040E851E49AD34B
:102E6000181624F485E793E061E03DDCDF91CF9113
:102E70001F910F91FF90EF90DF90CF90BF90AF9098
:102E80000895EF92FF920F931F93BEDA209177037C
:102E9000309178034091790350917A037B018C0142
:102EA000E21AF30A040B150B60937703709378030F
:102EB0008093790390937A038091620380FF11C01D
:102EC00085E693E0B801A70145DC83E693E0B8010D
:102ED000A701A9DC85E793E0B801A7013CDDE8DCA8
:102EE00048DEC801B7019FDB1F910F91FF90EF9063
:102EF000089510927B0382EC94E09093C902809332
:102F0000C80281E295E09093AC028093AB028EED13
:102F100095E09093AF028093AE0283E596E09093A4
:102F2000B5028093B40281EA94E09093ED0280931D
:102F3000EC020895CF92DF92EF92FF920F931F93CE
:102F4000DF93CF930F92CDB7DEB7182FF62E8031D7
:102F50000CF04BC060310CF048C0D42ED80EE22EDD
:102F6000EF0C083011F00A30C1F4F7FCFF2417FD14
:102F700010E091E0083069F090E00BC0802F6F2DD9
:102F8000492F99830E94C2040F5F99810D15B4F3F4
:102F9000F394FE1454F5012FF9CF093031F5F7FE03
:102FA00002C0FF24FA9417FD1FEF0F2DCD2CCA94F9
:102FB0000BC0812F602F41E00E94C2048C2D602F36
:102FC00041E00E94C2040F5F0E159CF3EA940BC00F
:102FD000812F6F2D41E00E94C204812F6E2D41E0B0
:102FE0000E94C2041F5F1D159CF30F90CF91DF91CB
:102FF0001F910F91FF90EF90DF90CF900895AF92C7
:10300000BF92CF92DF92EF92FF920F931F93DF93C5
:10301000CF9300D00F92CDB7DEB7142FE42FFF2748
:10302000E7FDF095482F552747FD5095E41BF50B1C
:10303000F7FF03C0F095E195FF4FDE2EE22FFF274B
:10304000E7FDF095A62FBB27A7FDB095EA1BFB0B6C
:10305000F7FF03C0F095E195FF4F4E2FCE2E0D2DBB
:103060000E1B811714F491E001C09FEF621714F456
:1030700031E001C03FEFE62EF82E552747FD509571
:10308000AA24BB24A41AB50A8F2D6E2D41E02B83F0
:103090003A8399830E94C2042B813A819981F11667
:1030A00011F4E21681F0802F880F482F552747FD35
:1030B0005095A416B50614F40C19F90E8D1524F7C5
:1030C0000D0DE30EE1CF0F900F900F90CF91DF9198
:1030D0001F910F91FF90EF90DF90CF90BF90AF9036
:1030E0000895AF92BF92DF92EF92FF920F931F93DA
:1030F000CF93DF93182FF42EE82FF92FDF010D90D7
:103100000020E9F7DA2ED81A4EEFA42EDA0CE62EBC
:10311000412FEA015E01B92EE50127C08991982F60
:1031200091549A3140F4992787FD9095880F991F03
:1031300087549F4F0BC0982F90539A3050F4992783
:1031400087FD9095880F991F815F9E4F63E045E052
:1031500004C083E891E062E043E02E2D0F2D0E9431
:10316000DE050E94FA0134E0E30EAE01411BD416E5
:10317000ACF6DF91CF911F910F91FF90EF90DF9010
:10318000BF90AF9008955058BB27AA270ED0B1C169
:10319000A2D130F0A7D120F031F49F3F11F41EF4FA
:1031A00097C10EF4E095E7FB64C1E92FB3D180F33A
:1031B000BA17620773078407950718F071F49EF534
:1031C000E2C10EF4E0950B2EBA2FA02D0B01B90130
:1031D00090010C01CA01A0011124FF27591B99F08D
:1031E000593F50F4503E68F11A16F040A22F232F99
:1031F000342F4427585FF3CF469537952795A795E9
:10320000F0405395C9F77EF41F16BA0B620B730B8F
:10321000840BBAF09150A1F0FF0FBB1F661F771F00
:10322000881FC2F70EC0BA0F621F731F841F48F4B5
:10323000879577956795B795F7959E3F08F0B3CF3B
:103240009395880F08F09927EE0F97958795089525
:10325000ECD008F481E008950CD04BC143D140F08C
:103260003AD130F021F45F3F19F003C151118CC104
:103270002FC150D198F39923C9F35523B1F3951B6E
:10328000550BBB27AA2762177307840738F09F5F87
:103290005F4F220F331F441FAA1FA9F333D00E2EF6
:1032A0003AF0E0E830D091505040E695001CCAF763
:1032B00029D0FE2F27D0660F771F881FBB1F261728
:1032C00037074807AB07B0E809F0BB0B802DBF01FB
:1032D000FF2793585F4F2AF09E3F510568F0C9C001
:1032E00053C15F3FECF3983EDCF386957795679585
:1032F000B795F7959F5FC9F7880F911D96958795AC
:1033000097F90895E1E0660F771F881FBB1F6217CA
:1033100073078407BA0720F0621B730B840BBA0B88
:10332000EE1F88F7E095089504D06894B1112CC180
:103330000895F8D088F09F5790F0B92F9927B7518A
:10334000A0F0D1F0660F771F881F991F1AF0BA9569
:10335000C9F712C0B13081F016D1B1E0089513C1A0
:10336000672F782F8827B85F39F0B93FCCF386955F
:1033700077956795B395D9F73EF4909580957095BC
:1033800061957F4F8F4F9F4F0895E89409C097FB39
:103390003EF490958095709561957F4F8F4F9F4F2C
:1033A0009923A9F0F92F96E9BB279395F695879570
:1033B00077956795B795F111F8CFFAF4BB0F11F433
:1033C00060FF1BC06F5F7F4F8F4F9F4F16C08823DA
:1033D00011F096E911C0772321F09EE8872F762F10
:1033E00005C0662371F096E8862F70E060E02AF051
:1033F0009A95660F771F881FDAF7880F969587953D
:1034000097F90895A9D080F09F3740F491110EF0FC
:10341000BBC060E070E080E89FEB089526F41B16C7
:10342000611D711D811D2BC045C0990F0008550FEE
:10343000AA0BE0E8FEEF16161706E807F907C0F03A
:1034400012161306E407F50798F0621B730B840B42
:10345000950B39F40A2661F0232B242B252B21F41C
:1034600008950A2609F4A140A6958FEF811D811DBC
:10347000089597F99F6780E870E060E008958823D9
:1034800071F4772321F09850872B762F07C066239D
:1034900011F499270DC09051862B70E060E02AF05E
:1034A0009A95660F771F881FDAF7880F969587958C
:1034B00097F908959F3F31F0915020F487957795C3
:1034C0006795B795880F911D9695879597F90895FB
:1034D0009FEF80EC089500240A941616170618062C
:1034E0000906089500240A94121613061406050608
:1034F0000895092E0394000C11F4882352F0BB0F99
:1035000040F4BF2B11F460FF04C06F5F7F4F8F4FFB
:103510009F4F089557FD9058440F551F59F05F3F36
:1035200071F04795880F97FB991F61F09F3F79F0E5
:1035300087950895121613061406551FF2CF469567
:10354000F1DF08C0161617061806991FF1CF8695E9
:103550007105610508940895E5DFA0F0BEE7B9178D
:1035600088F4BB279F3860F41616B11D672F782F9B
:103570008827985FF7CF869577956795B11D9395C6
:103580009639C8F30895E894BB2766277727CB01BF
:1035900097F908954ADF08F48FEF08950BD0A9CF6B
:1035A0009ADF28F09FDF18F0952309F062CF90CFC3
:1035B0001124EACFAFDFA0F3959FD1F3950F50E030
:1035C000551F629FF001729FBB27F00DB11D639FD5
:1035D000AA27F00DB11DAA1F649F6627B00DA11D7B
:1035E000661F829F2227B00DA11D621F739FB00D21
:1035F000A11D621F839FA00D611D221F749F332791
:10360000A00D611D231F849F600D211D822F762F29
:103610006A2F11249F5750408AF0E1F088234AF026
:10362000EE0FFF1FBB1F661F771F881F9150504072
:10363000A9F79E3F510570F01CCFA6CF5F3FECF37A
:10364000983EDCF3869577956795B795F795E7955E
:103650009F5FC1F7FE2B880F911D9695879597F96F
:10366000089560DFE0F09E37D8F09639B8F49E38C0
:1036700048F4672F782F8827985FF9CF869577953C
:10368000679593959539D0F3B62FB1706B0F711D77
:10369000811D20F48795779567959395F0CE0ACF95
:1036A00073CF629FD001739FF001829FE00DF11DE7
:1036B000649FE00DF11D929FF00D839FF00D749FAC
:1036C000F00D659FF00D9927729FB00DE11DF91F58
:1036D000639FB00DE11DF91FBD01CF0111240895B5
:1036E000991B79E004C0991F961708F0961B881F54
:1036F0007A95C9F78095089597FB092E07260AD079
:1037000077FD04D049D006D000201AF47095619559
:103710007F4F0895F6F7909581959F4F0895A1E208
:103720001A2EAA1BBB1BFD010DC0AA1FBB1FEE1F3B
:10373000FF1FA217B307E407F50720F0A21BB30B86
:10374000E40BF50B661F771F881F991F1A9469F702
:1037500060957095809590959B01AC01BD01CF015E
:10376000089597FB092E05260ED057FD04D0D7DF0C
:103770000AD0001C38F450954095309521953F4F64
:103780004F4F5F4F0895F6F790958095709561952E
:103790007F4F8F4F9F4F0895AA1BBB1B51E107C05E
:1037A000AA1FBB1FA617B70710F0A61BB70B881FD1
:1037B000991F5A95A9F780959095BC01CD01089560
:1037C000A0E0B0E0E5EEFBE18DC0EC01688179811D
:1037D0008A819B81611571058105910521F464E25F
:1037E00079ED8BE597E02DE133EF41E050E0B9DF73
:1037F00079018A0127EA31E440E050E052DF5B01C1
:103800006C01C801B7012CEE34EF4FEF5FEF49DFD9
:103810006A0D7B1D8C1D9D1D97FF04C0615070407B
:1038200080409048688379838A839B837F77CB012C
:10383000CDB7DEB7EAE072C0C3CF8DEB91E0C0CF69
:10384000A0E0B0E08093BD019093BE01A093BF01C2
:10385000B093C0010895FB01DC0101900D9200209E
:10386000E1F70895F999FECF92BD81BDF89A9927A5
:1038700080B50895A6E1B0E044E050E01DC0A8E1A5
:10388000B0E042E050E018C0262FF999FECF1FBAF1
:1038900092BD81BD20BD0FB6F894FA9AF99A0FBE79
:1038A00001960895242FF1DF252FEFDF00C0ECDF14
:1038B000272FEBCFDC01CB01FC01F999FECF06C02D
:1038C000F2BDE1BDF89A319600B40D9241505040DE
:1038D000B8F708952F923F924F925F926F927F9226
:1038E0008F929F92AF92BF92CF92DF92EF92FF9210
:1038F0000F931F93CF93DF93CDB7DEB7CA1BDB0BBC
:103900000FB6F894DEBF0FBECDBF09942A88398860
:1039100048885F846E847D848C849B84AA84B98467
:10392000C884DF80EE80FD800C811B81AA81B98173
:10393000CE0FD11D0FB6F894DEBF0FBECDBFED0187
:063940000895F894FFCF8A
:10394600FF4200420142024203420744004401444E
:103956000244034306430744064407420442054221
:103966000646074606460546044601460044044404
:103976000545064000E1000000000857DAD75C72F2
:1039860046D6DCF34EF34872D6B7DAE92E24D4B71E
:103996005A924EBEDAD6DA56D4D74856E6D75A7178
:1039A6001CE924B6DEB6D4B6FAB55AB524E54EF609
:1039B600DE592EC54EC51CB792F31CF3DEE524F77F
:1039C600DEF792D448454C4C4F00494E5000534DBB
:1039D6004C590053545854004241545400574545DD
:1039E6004C00504F4E4700434F4D500057494E53E1
:1039F60000594F550057494E00B90B000001000011
:023A06000000BE
:00000001FF
