:1000000027C1000041C100003FC100003DC1000008
:100010003BC1000039C1000037C1000035C10000FC
:1000200033C1000031C100000C94B50C0C94EF0CEE
:100030002BC1000029C1000027C1000025C100001C
:1000400023C1000021C100001FC100001DC100002C
:100050001BC1000019C1000017C100000C94A70AC1
:1000600013C1000011C100000FC100000DC100004C
:100070000BC1000009C1000007C1000005C100005C
:1000800003C1000001C10000FFC00000FDC000006E
:10009000FBC00000F9C00000F7C00000F5C0000080
:1000A000F3C00000F1C00000EFC000002D2D2D2D89
:1000B0002D2D2D2D2D2D2D2D2D2D2D2D2D2D2D2D70
:1000C0002D0D0A000D0A004379636C65732F53658B
:1000D000633A20000D0A0047616D65204176672074
:1000E00054696D653A20000D0A00536F756E6420E7
:1000F0004176672054696D653A20000D0A00496E0B
:10010000707574204176672054696D653A20000D42
:100110000A00436F6E736F6C6520417667205469E7
:100120006D653A20002D2D2D2D50726F66696C651E
:100130007220446174612D2D2D2D0D0A000D0A547D
:100140004D4F4F53205465726D696E616C0D0A46B8
:100150006F726D61742069733A20636F6D6D616EAB
:100160006420617267312061726732206172673387
:100170000D0A3E000D0A3E00000104050607252475
:100180002322212000010000B8011200020000CA51
:100190000143000300000D020401030904110214CD
:1001A00002030904270216030309043F020C00019D
:1001B000C1120180360181361201000202000010D6
:1001C000C0167A0400010102030109024300020182
:1001D00000C03209040000010202010005240010E1
:1001E000010524010101042402060524060001077B
:1001F00005820310004009040100020A0000000704
:1002000005030240000007058402400000040309C2
:1002100004140359006F007500720020004E006145
:10022000006D0065000000160355005300420020D9
:1002300000530065007200690061006C0000000C52
:10024000033100320033003400350000002D00007F
:1002500011241FBECFEFDAE0DEBFCDBF11E0A0E07A
:10026000B1E0E8ECF7E202C005900D92A439B107C5
:10027000D9F712E0A4E9B1E001C01D92A93DB10790
:10028000E1F7ABD10C94E213BBCEAF92BF92CF9209
:10029000DF92EF92FF920F931F93182F07D75B0106
:1002A0006C01112349F46093A8017093A901809314
:1002B000AA019093AB012DC0113059F5F7D69B01DF
:1002C000AC016093AC017093AD018093AE0190934B
:1002D000AF018091B0019091B101A091B201B091B4
:1002E000B301E090A801F090A9010091AA0110913A
:1002F000AB018E199F09A00BB10B820F931FA41F96
:10030000B51F8093B0019093B101A093B201B09357
:10031000B3018091B4019091B501A091B601B09163
:10032000B701A816B906CA06DB0608F45AC0D601FA
:10033000C501805C9D4BA04FBF4F8093B40190934B
:10034000B501A093B601B093B7016091B00170916F
:10035000B1018091B2019091B30124E630E040E018
:1003600050E00E94141320E432E44FE050E00E9479
:10037000521384E6982F921B9093B801953610F093
:100380008093B8011092B0011092B1011092B201A5
:100390001092B30180912F0280FF23C08091B80199
:1003A000823430F0809100018823D9F080E016C0BB
:1003B000982F9C52963130F480910001813089F061
:1003C00081E00CC0895190910001833120F492307A
:1003D00041F082E003C0943021F084E0EDD68093B8
:1003E00000011F910F91FF90EF90DF90CF90BF9091
:1003F000AF900895EF92FF920F931F939AD6609358
:10040000290270932A0280932B0290932C0280E0A1
:100410003CDF8DE492E00E94230F0E942C0AE090C2
:100420009401F090950100919601109197018DE44F
:1004300092E00E94360F6E0D7F1D801F911F60930A
:100440009401709395018093960190939701809108
:100450002F0283FF1DC080E392E00E94230FF6D697
:10046000E0909801F090990100919A0110919B0100
:1004700080E392E00E94360F6E0D7F1D801F911F5A
:10048000609398017093990180939A0190939B01D6
:1004900080912F0282FF1CC08DE192E00E94230F09
:1004A000E0909C01F0909D0100919E0110919F01B0
:1004B0008DE192E00E94360F6E0D7F1D801F911F0F
:1004C00060939C0170939D0180939E0190939F0186
:1004D00080912F0281FF1DC08FE692E00E94230FC2
:1004E00006D5E090A001F090A1010091A201109129
:1004F000A3018FE692E00E94360F6E0D7F1D801FD4
:10050000911F6093A0017093A1018093A201909329
:10051000A30181E0BADE1F910F91FF90EF90089543
:10052000823071F1833030F4882371F0813009F02A
:1005300052C018C0883009F447C0893009F447C058
:10054000833009F048C032C080912F029091300270
:10055000A0913102B0913202662311F081601DC07A
:100560008E7F1BC080912F0290913002A0913102AA
:10057000B0913202662311F082600FC08D7F0DC0F2
:1005800080912F0290913002A0913102B0913202FD
:10059000662311F0846001C08B7F80932F029093BB
:1005A0003002A0933102B093320213C080912F0227
:1005B00090913002A0913102B0913202662311F085
:1005C0008860EBCF877FE9CF60932F0202C06093F2
:1005D0003E0281E0089580E008952F923F924F926D
:1005E0005F926F927F928F929F92AF92BF92CF92C3
:1005F000DF92EF92FF920F931F93DF93CF9300D080
:100600000F92CDB7DEB780E8809361001092610051
:1006100023D58823A1F00BD7009789F0F5D3009755
:1006200071F0EDD5882359F042D4882341F00E941F
:10063000F20B882321F00E94E210882371F400E07D
:1006400010E017FD03C08BE061E002C08BE060E0CA
:100650000E94350B0F5F1F4FF4CF10922F021092A4
:100660003E021092B4011092B5011092B6011092A0
:10067000B7011092B8011092A8011092A90110922E
:10068000AA011092AB011092AC011092AD01109230
:10069000AE011092AF011092B0011092B101109210
:1006A000B2011092B30180E060E03ADF81E060E0E7
:1006B00037DF82E061E034DF83E061E031DF83E057
:1006C00060E0F7D288E06CE3F4D20E94530E8FE72B
:1006D00092E00E94230F8EDE81E692E00E94230FBB
:1006E0000E94640EE090A401F090A5010091A60183
:1006F0001091A70181E692E00E94360F6E0D7F1DDA
:10070000801F911F6093A4017093A5018093A6019F
:100710009093A70180914B0290914C020196909387
:100720004C0280934B028FE792E00E94360F6034B8
:1007300022E472072FE0820720E0920760F28FE741
:1007400092E00E94230FE0904B02F0904C0200E0F8
:1007500010E06091940170919501809196019091C3
:100760009701A80197010E945213D22EC32EB42ED6
:10077000A52E609198017091990180919A019091B4
:100780009B01A80197010E945213922E432E342EF2
:10079000252E6091A0017091A1018091A2019091FC
:1007A000A301A80197010E945213822E732E642E7A
:1007B000552E6091A4017091A5018091A6019091A0
:1007C000A701A80197010E945213E42E85E291E04F
:1007D00029833A835B8333D682E191E030D66D2D55
:1007E0007C2D8B2D9A2D4BE00E94510F8FE091E0D4
:1007F00026D68EEF90E023D6692D742D832D922D71
:100800004BE00E94510F8BEF90E019D68AEE90E0FA
:1008100016D6682D772D862D952D4BE00E94510F11
:1008200087EE90E00CD687ED90E009D62981622F03
:100830003A81732F8E2D5B81952F4BE00E94510FD3
:1008400084ED90E0FCD587EC90E0F9D560914B0207
:1008500070914C0280E090E04BE00E94510F84ECDC
:1008600090E0EDD58CEA90E0EAD51092A4011092C8
:10087000A5011092A6011092A7011092A00110925A
:10088000A1011092A2011092A30110929C0110925A
:100890009D0110929E0110929F011092980110925A
:1008A000990110929A0110929B011092940110925A
:1008B0009501109296011092970110924C0210929D
:1008C0004B0209CF0895813009F58CE061E0CDD667
:1008D0008091BD019091BE01A091BF01B091C00176
:1008E00080688D7F8093BD019093BE01A093BF016E
:1008F000B093C0011092D4011092D5011092D6018C
:100900001092D7011092D80181E008958823B1F4A4
:100910008CE060E0AAD68091BD019091BE01A091CB
:10092000BF01B091C0018D778093BD019093BE014E
:10093000A093BF01B093C00180E008958FEF0895A8
:100940008091BD0182FF1CC02EEB31E04091D201AD
:100950005091D301C90109964217530749F4909366
:10096000D3018093D2015093D1014093D0010895D7
:100970003093D3012093D2019093D1018093D00181
:1009800008951F93DF93CF930F92CDB7DEB78830D2
:1009900008F052C0683008F04FC0162F110F110F29
:1009A000110F180F612F66956695669570E080E0CF
:1009B00090E049830E945B120E9498120E942F12BD
:1009C00070E0E091D001F091D1011095498144236C
:1009D000B9F0E60FF71F177021E030E002C0220FD8
:1009E000331F1A95E2F7442737FD4095542F808135
:1009F0009181A281B381822B932BA42BB52B18C09C
:100A0000E60FF71F177021E030E002C0220F331FFE
:100A10001A95E2F720953095442737FD4095542FDD
:100A200080819181A281B38182239323A423B52362
:100A300080839183A283B3830F90CF91DF911F9125
:100A400008951F938830A8F5683098F5162F110F78
:100A5000110F110F180F612F66956695669570E05E
:100A600080E090E00E945B120E9498120E942F1278
:100A7000E091D201F091D301E60FF11D10951770AE
:100A800021E030E002C0220F331F1A95E2F744271D
:100A900037FD4095542F80819181A281B381282315
:100AA00039234A235B2381E0211531054105510596
:100AB00009F480E01F9108951F9382E061E0D5D58D
:100AC0008091D401882359F481E061E0CED584E09F
:100AD00022D683E020D681E060E0C7D504C084E060
:100AE0001AD683E018D617E0812F6091D401A9DFD0
:100AF000882319F080E160E002C080E161E0B5D5B3
:100B00008EE009D6115080F781E105D682E060E0E1
:100B1000ACD58091D4018F5F8093D401883014F0DC
:100B20001092D4011F9108950F93CF93DF93EC019E
:100B3000069F002D1124020F602F6695669566951D
:100B400070E0882777FD8095982F0E945D120E94A3
:100B500098120E942F12C60FD11D0095077021E038
:100B600030E002C0220F331F0A95E2F7442737FD19
:100B70004095542F88819981AA81BB8128233923EC
:100B80004A235B2381E0211531054105510509F414
:100B900080E0DF91CF910F9108952F923F924F9275
:100BA0005F926F927F928F929F92AF92BF92CF92FD
:100BB000DF92EF92FF920F931F93CF93DF933C014D
:100BC000A62EC42ED22E102F8091BD0180FD07C00D
:100BD000EE24FF24442E5524262E332436C0EE2442
:100BE000FF24442E5524262E332412C0C3016A2D1F
:100BF0004C2D2C2F0B2D98DF482F8C2F8D0D692D10
:100C0000C0DE2196C215D3058CF30894E11CF11CBB
:100C1000E414F5041CF5C0E0D0E0BE2C9E2C910E2F
:100C2000F1CFC3016A2D4C2D2C2F0B2D7DDF482FCA
:100C3000882321F08C2F8D0D692DA3DE2196C215FE
:100C4000D3057CF30894E11CF11CE414F50434F49E
:100C5000C0E0D0E0BE2C9E2C910EF1CF81E0DF9160
:100C6000CF911F910F91FF90EF90DF90CF90BF90A9
:100C7000AF909F908F907F906F905F904F903F903C
:100C80002F9008954091D0015091D101FA0120E0B8
:100C900030E09FEF882311F4108204C0DA01A20F24
:100CA000B31F9C932F5F3F4F31962930310591F749
:100CB0000895833049F1843038F4882309F449C019
:100CC000823009F09BC061C0883021F0893009F082
:100CD00095C080C0262F30E083E0220F331F8A9515
:100CE000E1F7442737FD4095542F60E472E48FE02C
:100CF00090E00E9474132093B9013093BA0140939D
:100D0000BB015093BC017CC0613081F482E694E069
:100D100090936E0280936D028091BD019091BE010F
:100D2000A091BF01B091C00188605FC0662309F047
:100D300067C08CE595E090936E0280936D02809180
:100D4000BD019091BE01A091BF01B091C001877F0C
:100D50004CC0662369F4E091BD01F0E0808191818F
:100D6000A281B3818E7F80839183A283B38348C0A5
:100D7000613009F045C08091BD019091BE01A09104
:100D8000BF01B091C001816030C06623B9F4E09129
:100D9000BD01F0E080819181A281B3818B7F80834E
:100DA0009183A283B3838EEB91E09093D1018093E2
:100DB000D0019093D3018093D20122C0613011F50C
:100DC0008091BD019091BE01A091BF01B091C00181
:100DD00084600BC06093BD018091BD019091BE0104
:100DE000A091BF01B091C0018C7F8093BD01909311
:100DF000BE01A093BF01B093C00102C080E008957E
:100E000081E0089581E0089527EC31E080E090E0F2
:100E10000BC01192E217F307E1F701969F01275FDC
:100E20003F4F8230910559F0FC0143E0EE0FFF1F68
:100E30004A95E1F7E80FF91FE254FE4FEACF8EEB37
:100E400091E09093D3018093D20109969093D101C0
:100E50008093D0011092D4011092D5011092D60146
:100E60001092D7011092D80183E298E0A0E0B0E0A0
:100E70008093B9019093BA01A093BB01B093BC01D8
:100E800083E060E016DF80E061E013DF82E061E094
:100E900010DF81E018DD85E061E0E7D38DE061E0FF
:100EA000E4D38FE060E0E1D381E090E00895109218
:100EB0009602109295021092910210929202109254
:100EC00093021092940210929B0210929702109239
:100ED00098021092990210929A0210928D0210922A
:100EE0008E0210928F021092900281E00895AF92CC
:100EF000BF92CF92DF92EF92FF920F931F93809158
:100F00008D0290918E02A0918F02B0919002009775
:100F1000A105B10509F453C0C9D07B018C018091B2
:100F2000910290919202A0919302B0919402E816DE
:100F3000F9060A071B0758F157016801A81AB90AF0
:100F4000CA0ADB0A80919B02882331F481E08093F6
:100F50009B028AE061E004C010929B028AE060E09C
:100F600084D38091950290919602A0E0B0E08E0D1E
:100F70009F1DA01FB11F8A199B09AC09BD09809351
:100F8000910290939202A0939302B0939402D1D0D5
:100F90009B01AC018091970290919802A0919902D7
:100FA000B0919A02281739074A075B0740F0109260
:100FB0008D0210928E0210928F02109290021F9159
:100FC0000F91FF90EF90DF90CF90BF90AF9008957A
:100FD000EF92FF920F931F937A018B019C0140E0E7
:100FE00050E060E472E48FE090E00E94741330936C
:100FF0009602209395029DD06E0D7F1D801F911F3C
:1010000060939702709398028093990290939A024A
:101010004DD0209195023091960240E050E0620F51
:10102000731F841F951F60939102709392028093A7
:1010300093029093940281E090E0A0E0B0E080936E
:101040008D0290938E02A0938F02B09390021F9115
:101050000F91FF90EF900895DED281E08093E1013F
:101060009BD36093E6017093E7018093E80190932E
:10107000E90184D36093DD017093DE018093DF0189
:101080009093E00189D36093E2017093E301809330
:10109000E4019093E50172D36093D9017093DA0172
:1010A0008093DB019093DC0181E00895EF92FF9241
:1010B0000F931F9371D37B018C018091E601909176
:1010C000E701A091E801B091E901A8019701281B6F
:1010D000390B4A0B5B0BCA01B9012091E10130E0E9
:1010E00040E050E00E9414139B01AC018091E201AA
:1010F0009091E301A091E401B091E501280F391F1F
:101100004A1F5B1F2093E2013093E3014093E40107
:101110005093E501E092E601F092E7010093E801C7
:101120001093E901B901CA011F910F91FF90EF904F
:101130000895EF92FF920F931F9320D37B018C01B0
:101140008091DD019091DE01A091DF01B091E0017D
:10115000A8019701281B390B4A0B5B0BCA01B90187
:101160002091E10130E040E050E00E9414139B0127
:10117000AC018091D9019091DA01A091DB01B0918D
:10118000DC01280F391F4A1F5B1F2093D9013093C0
:10119000DA014093DB015093DC01E092DD01F09233
:1011A000DE010093DF011093E001B901CA011F9134
:1011B0000F91FF90EF9008951F93182F882311F43B
:1011C00081E00FC0813011F482E00BC0823011F455
:1011D00084E007C0833011F488E003C0843019F440
:1011E00080E18093E10162DFA4DFF89480E88093DE
:1011F0006100109361007894812F1F9108958CE312
:1012000080939C021092A7021092A8021092A90249
:101210001092AA021092A6021092A3021092A202A9
:10122000EFE9F2E08AE0808389E0818388E08283CD
:1012300084E690E090939E0280939D0284E893E080
:101240009093A5028093A40281E00895CF92DF924B
:10125000EF92FF920F931F93CF93DF936ADF20915A
:10126000A7023091A8024091A9025091AA026217E8
:1012700073078407950708F491C020919C02620FC0
:10128000711D811D911D6093A7027093A802809328
:10129000A9029093AA028091A20246D27C0100E0AA
:1012A00010E0C090A402D090A502B60180E090E0CA
:1012B0006E157F058007910778F020919D0230918F
:1012C0009E0240E050E0C801B7016217730784072F
:1012D000950710F4CA01B901C0919D02D0919E02F8
:1012E0009E0140E050E0621B730B840B950B2FEFC7
:1012F00030E040E050E00E941413CC1ADD0A960161
:1013000040E050E00E9452132093A30280919F027C
:10131000DCD12091A6023091A7024091A802509101
:10132000A902882311F4216001C02E7F2093A60218
:101330003093A7024093A8025093A9028091A00283
:10134000C4D12091A6023091A7024091A8025091E9
:10135000A902882311F4226001C02D7F2093A602E8
:101360003093A7024093A8025093A9028091A10252
:10137000ACD12091A6023091A7024091A8025091D1
:10138000A902882311F4246001C02B7F2093A602B8
:101390003093A7024093A8025093A902DF91CF9106
:1013A0001F910F91FF90EF90DF90CF9008958130C3
:1013B00069F0813038F0823079F08330A1F4809187
:1013C000A30208958091A602817008959091A602CB
:1013D00081E091FD09C005C09091A60281E092FDD7
:1013E00003C080E0089580E008951F93182F83E0E4
:1013F000DEDF482F8F3FB9F0612F8FEF90E070E074
:101400000E943F13842F0E943313682F70E08827B7
:1014100077FD8095982F0E945D120E9498120E947D
:101420002F12862F02C0812F81501F910895109294
:10143000EA0110920B0201D281E090E00895CF936F
:10144000DF93EC01FE0121968491882311F048D2AC
:10145000F9CFDF91CF9108951F938091EA0180FD2C
:101460001DC004D2882309F45EC07CD280FF5BC01B
:1014700024D28091EA019091EB01A091EC01B0910E
:10148000ED0181608093EA019093EB01A093EC0160
:10149000B093ED018DE391E0D2DF45C0EAD1182F82
:1014A00080910B0280328CF4912F90529F3568F41A
:1014B000E82FFF27E7FDF095E551FE4F10838F5F82
:1014C00080930B02812F0CD210C01D3011F01A3006
:1014D00061F4E0910B02FF27E7FDF095E551FE4F27
:1014E000108284E791E0ABDF1CC0C0D1882329F0D3
:1014F00039D280FF02C0112391F48091EA019091CA
:10150000EB01A091EC01B091ED018E7F8093EA0197
:101510009093EB01A093EC01B093ED0104C0143063
:1015200011F410920B021F9108951F93CF93DF9334
:10153000EC0110E0FE01E10FF11D8081882319F01C
:10154000CFD11F5FF7CFDF91CF911F9108951F92E9
:101550000F920FB60F9211242F933F934F935F93E7
:101560006F937F938F939F93AF93BF93EF93FF936B
:101570008091AC029091AD02A091AE02B091AF0209
:1015800030910C020196A11DB11D232F2D5F2D3727
:1015900020F02D570196A11DB11D20930C028093C0
:1015A000AC029093AD02A093AE02B093AF028091D3
:1015B000B0029091B102A091B202B091B302019633
:1015C000A11DB11D8093B0029093B102A093B2020D
:1015D000B093B3028091AB028F5F8093AB02809196
:1015E000AB02833038F0E0916D02F0916E02099504
:1015F0001092AB02FF91EF91BF91AF919F918F91AC
:101600007F916F915F914F913F912F910F900FBEFE
:101610000F901F901895F89484B5826084BD84B5AE
:10162000816084BD85B5826085BD85B5816085BDDD
:10163000EEE6F0E080818160808378941092B002C1
:101640001092B1021092B2021092B3021092AC0248
:101650001092AD021092AE021092AF0210920C02E4
:101660001092AB0281E090E00895893160F5E82F97
:10167000F0E0EE0FFF1FEF5FFE4F8081218181546C
:10168000E82FEE0FE80FF0E0662371F481E090E0C0
:1016900002C0880F991F2A95E2F721A1282B21A3C8
:1016A000809592A198230CC081E090E002C0880F41
:1016B000991F2A95E2F791A1982B91A392A1982BBB
:1016C00092A381E0089580E00895893110F5E82F14
:1016D000F0E0EE0FFF1FEF5FFE4F80818154A3E02B
:1016E0008A9FD001112421E030E0018002C0220F46
:1016F000331F0A94E2F7922F909591968C919197CF
:10170000892391968C93919790968C9190978223B0
:10171000089580E008951F93182F61E0A6DF812FC0
:1017200060E0A3DF1F9108958C3020F5E82FF0E0F2
:10173000E858FE4FE49186E880937A008E2F8072FD
:10174000806880937B00EF7180913301E82BE093F8
:101750007C0086EC80937A0080917A0086FDFCCF35
:101760002091780030917900932F80E030E0282B91
:10177000392B02C020E030E0C90108958FB7F894FA
:101780002091AC023091AD024091AE025091AF0277
:101790008FBFB901CA0108959FB7F8942091B00294
:1017A0003091B1024091B2025091B30286B5A89B2C
:1017B00006C08F3F21F02F5F3F4F4F4F5F4F9FBFBE
:1017C000542F432F322F2227280F311D411D511D29
:1017D00062E0220F331F441F551F6A95D1F7B901EC
:1017E000CA0108958AEA93E19093480280934702E0
:1017F00087EB93E1909342028093410282EB93E165
:101800009093600280935F028CEB93E190935C0273
:1018100080935B028FEC93E19093440280934302A8
:101820008AEC93E190934A028093490281E0089503
:101830008091E80080FFFCCF089581E08093D7007D
:1018400080EA8093D80082E189BD09B400FEFDCF13
:1018500080E98093D8001092E00010920D0210925F
:101860000E028CE08093E2007894089580910D023E
:1018700008958FB7F89490910D02992369F093E041
:101880009093E9002BE69091E80095FD09C092FF46
:1018900003C02093E800F7CF8FBF2FEF3FEF0BC0BF
:1018A0002091F1009091E80095FD03C09BE6909394
:1018B000E8008FBF30E0C901089580910D028823B0
:1018C00071F08FB7F89493E09093E9009BE602C023
:1018D0009093E8002091E80025FDFACF8FBF08958E
:1018E00090910D029923D1F19FB7F89424E02093B1
:1018F000E90020911002222341F02091E80025FD0B
:1019000002C09FBF2BC0109210022091E400275EFE
:1019100034E04091E80045FD12C09FBF9091E40083
:10192000921721F481E08093100218C090910D026B
:101930009923B1F09FB7F8943093E900EACF8093F0
:10194000F1008091E80085FD03C08AE38093E80000
:1019500085E080930F029FBF80E008958FEF089588
:101960008FEF089580910E0208951F920F920FB687
:101970000F9211248F939F938091E1001092E100C8
:1019800083FF11C01092E90091E09093EB00109258
:10199000EC0092E19093ED0098E09093F0001092AB
:1019A0000D0210920E0282FF13C080910D02882357
:1019B00079F080910F02882359F0815080930F02B3
:1019C000882331F484E08093E9008AE38093E8007F
:1019D0009F918F910F900FBE0F901F9018951F929F
:1019E0000F920FB60F921124EF92FF920F931F9355
:1019F0002F933F934F935F936F937F938F939F9317
:101A0000AF93BF93EF93FF93DF93CF930F92CDB735
:101A1000DEB71092E9008091E80083FF29C1209190
:101A2000F1003091F1008091F100E82EFF24409107
:101A3000F100942F80E0E82AF92A0091F10010E0EB
:101A40004091F100942F80E0082B192B6091F10058
:101A5000A091F10082EF8093E800363009F059C080
:101A60008BE891E09C0125503040FC01379745916F
:101A700054914E155F05F9F4F901459154914017C1
:101A80005107C9F42E5F3F4FF901859194912E5F64
:101A90003F4FF9012491462F50E07A2F60E0462B0A
:101AA000572B4F3F510519F010F04FEF50E0421700
:101AB00050F4242F08C00796295F3F4FF1E0853B83
:101AC0009F0799F6D5C0AEEF4091E80050E0BA010B
:101AD0006570707061157105B9F342FDCCC0322F8D
:101AE000213108F030E1AC01632F07C0FA014F5FEC
:101AF0005F4FE491E093F10061506623B9F7830FE3
:101B0000911D231BA093E8002223F1F63031E1F26E
:101B1000B2C0353049F48EEF8093E80089DE8E2D17
:101B200080688093E300A7C0393051F5222309F083
:101B30009FC0E0920D0210920E0210920F028EEFE3
:101B40008093E80041E08EEA91E04093E900FC01D7
:101B50000196E491E093EB00EE2369F09C012F5F86
:101B60003F4FFC0184918093EC00C9010196F9017B
:101B700024912093ED004F5F453039F78EE173C01B
:101B8000383049F4203809F073C052DE80910D02DC
:101B90008093F10045C0313271F4213A09F068C0F8
:101BA00047DEE4E3F1E081918093F10021E0EB3343
:101BB000F207C9F735C03032A1F4213209F058C01C
:101BC0008091E80082FFFCCFE4E3F1E08091F10036
:101BD000819331E0EB33F307C9F78BEF8093E80093
:101BE0001FC0323239F4213209F042C0E0920E02B5
:101BF0001FDE16C03323C1F429831ADE298122385F
:101C000051F40093E9009091EB0081E095FF80E0B2
:101C10001092E90001C080E08093F1001092F10081
:101C20008EEF8093E80027C0313011F0333001F59A
:101C30002230F1F4E114F104D9F40F77802F8150B0
:101C40008430B0F48EEF8093E8000093E9003330E5
:101C500079F089E18093EB0081E090E002C0880F89
:101C6000991F0A95E2F78093EA001092EA0003C0F8
:101C700081E28093EB000F90CF91DF91FF91EF9184
:101C8000BF91AF919F918F917F916F915F914F9194
:101C90003F912F911F910F91FF90EF900F900FBEEA
:101CA0000F901F9018951092130210921402109228
:101CB00015021092160210921702109211028FEF65
:101CC0008093120281E008951F93CF93DF9380E009
:101CD000C6D2EC0180E090E0CBD290911102992322
:101CE00029F5E0915D02F0915E020995182FE091CF
:101CF0002D02F0912E0280E009958823A1F4E09155
:101D00004502F091460209958CE0189FC00111240C
:101D10008C0F9D1F60E040E050D3E0917D02F09178
:101D20007E0209951FEF109312021BC080911202D0
:101D3000992787FD9095FC01EE0FFF1FE80FF91F13
:101D4000EE0FFF1FEE0FFF1FEC0FFD1F0284F38548
:101D5000E02D0995882329F4109211028FEF8093CA
:101D60001202809112028F3FC9F0909111029923C3
:101D7000A9F491E090931102992787FD9095FC01B9
:101D8000EE0FFF1FE80FF91FEE0FFF1FEE0FFF1FF3
:101D9000EC0FFD1F0084F185E02D0995E0912D02E7
:101DA000F0912E0281E00995882309F43DC0E0916D
:101DB0002D02F0912E0282E009958823A9F18091ED
:101DC0001302813021F55DD29B01AC018091140298
:101DD00090911502A0911602B091170284529A4F69
:101DE000AF4FBF4F281739074A075B0740F11092E2
:101DF0001302109214021092150210921602109201
:101E00001702109211028FEF8093120218C081E026
:101E10008093130236D2609314027093150280935C
:101E20001602909317020BC02CD260931402709389
:101E30001502809316029093170210921302DF91FD
:101E4000CF911F910895CF93DF93EC011C821D82E7
:101E50001E821F82188619861A861B869DDC68835F
:101E600079838A839B83DF91CF910895CF93DF930A
:101E7000EC0192DC9B01AC016C837D838E839F839C
:101E800088819981AA81BB81281B390B4A0B5B0B86
:101E9000288739874A875B87B901CA01DF91CF91CB
:101EA00008954F925F926F927F928F929F92AF921E
:101EB000BF92CF92DF92EF92FF920F931F93DF9327
:101EC000CF93CDB7DEB728970FB6F894DEBF0FBE1D
:101ED000CDBF5B016C01E42E19821A821B821C8229
:101EE0001D821E821F821886D7FE07C066277727AD
:101EF000CB016A197B098C099D09FF248E010F5FB4
:101F00001F4F2AE0622E712C812C912C28014F0C3E
:101F1000511CA4019301E8D3605DF2016083F39446
:101F2000B901CA0116161706180619067CF32F2DDB
:101F300030E0F0FE0AC0D801A90141505040F8013C
:101F4000E40FF51F80E090E026C0D801A9014150C0
:101F50005040F801E40FF51F80E090E00CC00C91B8
:101F60000196BA0160806D920083319741505040D4
:101F700086179707A1F0821793078CF310C06C9017
:101F8000BA0140804D926082019631974150504095
:101F90000617170721F08C018217930784F3CE01EF
:101FA0000196FC01EF0DF11D1082FE2DFB3051F06A
:101FB0002E2D2A3041F4D7FE03C08DE492E03FDAA3
:101FC000CE010196B2DA28960FB6F894DEBF0FBEA6
:101FD000CDBFCF91DF911F910F91FF90EF90DF90D8
:101FE000CF90BF90AF909F908F907F906F905F90B9
:101FF0004F900895E0914502F091460280E00995E6
:10200000E0915902F0915A0282E062E041E00995C4
:10201000E0915902F0915A0285E062E041E00995B1
:1020200082E065E045E025E056D1E0915902F0916B
:102030005A0281E064E041E00995E0915902F09193
:102040005A0286E064E041E00995E0917D02F0915A
:102050007E02099581E00895EF92FF920F931F93FE
:10206000E0912D02F0912E0283E00995182FE09166
:102070002D02F0912E0280E00995E82EE0912D02CC
:10208000F0912E0281E00995F82EE0912D02F09159
:102090002E0282E00995082FE0914502F091460258
:1020A00080E00995812F6AE0DED2182F80911C0212
:1020B000811751F08EEA96E049E150E060E070E06F
:1020C0000E94E80710931C02EE2041F0E0915902B3
:1020D000F0915A0283E060E041E00995FF2041F071
:1020E000E0915902F0915A0284E060E041E00995E4
:1020F000002341F0E0915902F0915A0285E060E03E
:1021000041E00995812F992787FD9095880F991FA8
:10211000E0913F02F0914002855C9E4F63E045E014
:1021200020E000E00995E0917D02F0917E020995A2
:1021300081E01F910F91FF90EF900895E09145028B
:10214000F091460280E0099584E891E060918A016F
:1021500040E033D180E067E043E025E0BCD087E099
:1021600067E044E025E0B7D0E0917D02F0917E0287
:10217000099587D09B01AC018091180290911902BA
:10218000A0911A02B0911B0282179307A407B5070A
:10219000B8F480918A01815080938A018C3E19F4B1
:1021A00088E080938A016DD068537F4F8F4F9F4F97
:1021B000609318027093190280931A0290931B0285
:1021C00081E00895CF93DF9365D08AEF91E09093FB
:1021D0007C0280937B0288EE97E090938C02809340
:1021E0008B0287ED99E090932E0280932D0285EF6C
:1021F00099E090935E0280935D02C4EBD2E0CE0141
:102200006BE871E0A0D28CE290E19093BD028093E4
:10221000BC029093BF028093BE02CE010C966EE882
:1022200071E091D28AEF9FE09093C9028093C80237
:102230009093CB028093CA02CE01489661E971E087
:1022400082D28EE990E19093D5028093D40290934C
:10225000D7028093D60281E0DF91CF910895882341
:1022600019F424EB32E002C020E030E0C901089507
:10227000882319F423E030E002C020E030E0C901F7
:1022800008956091290270912A0280912B02909109
:102290002C0208951092D80281EC94E090935A0297
:1022A0008093590281E295E090933D0280933C0235
:1022B0008DEC95E09093400280933F0282E496E09B
:1022C000909346028093450280EA94E090937E02C8
:1022D00080937D020895AF92BF92CF92DF92EF92EA
:1022E000FF920F931F93DF93CF9300D00F92CDB740
:1022F000DEB7142FE42FFF27E7FDF095482F552771
:1023000047FD5095E41BF50BF7FF03C0F095E195F1
:10231000FF4FDE2EE22FFF27E7FDF095A62FBB270C
:10232000A7FDB095EA1BFB0BF7FF03C0F095E19505
:10233000FF4F4E2FCE2E0D2D0E1B811714F491E062
:1023400001C09FEF621714F431E001C03FEFE62EA9
:10235000F82E552747FD5095AA24BB24A41AB50A88
:102360008F2D6E2D41E02B833A8399830E94C10407
:102370002B813A819981F11611F4E21681F0802FB8
:10238000880F482F552747FD5095A416B50614F41D
:102390000C19F90E8D1524F70D0DE30EE1CF0F90FA
:1023A0000F900F90CF91DF911F910F91FF90EF90C1
:1023B000DF90CF90BF90AF900895AF92BF92DF9221
:1023C000EF92FF920F931F93CF93DF93182FF42E6A
:1023D000E82FF92FDF010D900020E9F7DA2ED81A47
:1023E0004EEFA42EDA0CE62E412FEA015E01B92E43
:1023F000E50127C08991982F91549A3140F499278B
:1024000087FD9095880F991F87549F4F0BC0982F79
:1024100090539A3050F4992787FD9095880F991F13
:10242000815F9E4F63E045E004C083E891E062E095
:1024300043E02E2D0F2D0E94CD050E94FA0134E0BD
:10244000E30EAE01411BD416ACF6DF91CF911F9184
:102450000F91FF90EF90DF90BF90AF900895ACD0B8
:1024600088F09F5790F0B92F9927B751A0F0D1F07D
:10247000660F771F881F991F1AF0BA95C9F712C007
:10248000B13081F0CAD0B1E00895C7C0672F782F6E
:102490008827B85F39F0B93FCCF386957795679573
:1024A000B395D9F73EF490958095709561957F4FDF
:1024B0008F4F9F4F0895E89409C097FB3EF4909585
:1024C0008095709561957F4F8F4F9F4F9923A9F00D
:1024D000F92F96E9BB279395F6958795779567959C
:1024E000B795F111F8CFFAF4BB0F11F460FF1BC0E0
:1024F0006F5F7F4F8F4F9F4F16C0882311F096E973
:1025000011C0772321F09EE8872F762F05C0662320
:1025100071F096E8862F70E060E02AF09A95660FD9
:10252000771F881FDAF7880F9695879597F9089592
:102530005DD080F09F3740F491110EF06FC060E0E5
:1025400070E080E89FEB089526F41B16611D711D55
:10255000811D01C01BC0882371F4772321F098509E
:10256000872B762F07C0662311F499270DC0905151
:10257000862B70E060E02AF09A95660F771F881F1F
:10258000DAF7880F9695879597F908959F3F31F070
:10259000915020F4879577956795B795880F911D91
:1025A0009695879597F9089557FD9058440F551FB4
:1025B00059F05F3F71F04795880F97FB991F61F0C5
:1025C0009F3F79F087950895121613061406551F3C
:1025D000F2CF4695F1DF08C0161617061806991FA8
:1025E000F1CF86957105610508940895E5DFA0F0A7
:1025F000BEE7B91788F4BB279F3860F41616B11DE3
:10260000672F782F8827985FF7CF869577956795FE
:10261000B11D93959639C8F30895E894BB276627B2
:102620007727CB0197F90895629FD001739FF0013E
:10263000829FE00DF11D649FE00DF11D929FF00D52
:10264000839FF00D749FF00D659FF00D9927729F89
:10265000B00DE11DF91F639FB00DE11DF91FBD0114
:10266000CF0111240895991B79E004C0991F961792
:1026700008F0961B881F7A95C9F78095089597FBF7
:10268000092E07260AD077FD04D049D006D00020B5
:102690001AF4709561957F4F0895F6F7909581959E
:1026A0009F4F0895A1E21A2EAA1BBB1BFD010DC06E
:1026B000AA1FBB1FEE1FFF1FA217B307E407F507F2
:1026C00020F0A21BB30BE40BF50B661F771F881FCE
:1026D000991F1A9469F760957095809590959B0164
:1026E000AC01BD01CF01089597FB092E05260ED040
:1026F00057FD04D0D7DF0AD0001C38F45095409520
:10270000309521953F4F4F4F5F4F0895F6F79095C5
:102710008095709561957F4F8F4F9F4F0895AA1BAD
:10272000BB1B51E107C0AA1FBB1FA617B70710F0BC
:10273000A61BB70B881F991F5A95A9F780959095EE
:10274000BC01CD010895FB01DC0101900D92002038
:10275000E1F70895F999FECF92BD81BDF89A9927C6
:1027600080B50895A6E1B0E044E050E01DC0A8E1C6
:10277000B0E042E050E018C0262FF999FECF1FBA12
:1027800092BD81BD20BD0FB6F894FA9AF99A0FBE9A
:1027900001960895242FF1DF252FEFDF00C0ECDF35
:1027A000272FEBCFDC01CB01FC01F999FECF06C04E
:1027B000F2BDE1BDF89A319600B40D9241505040FF
:0827C000B8F70895F894FFCF6B
:1027C800FF420042014202420342074400440144DE
:1027D80002440343064307440644074204420542B1
:1027E8000646074606460546044601460044044494
:1027F8000545064000E1000000000857DAD75C7282
:1028080046D6DCF34EF34872D6B7DAE92E24D4B7AD
:102818005A924EBEDAD6DA56D4D74856E6D75A7107
:102828001CE924B6DEB6D4B6FAB55AB524E54EF698
:10283800DE592EC54EC51CB792F31CF3DEE524F70E
:10284800DEF792D448454C4C4F0008494E00534D92
:0428580000535400D5
:00000001FF
