:1000000029C1000043C1000041C100003FC1000000
:100010003DC100003BC1000039C1000037C10000F4
:1000200035C1000033C100000C94110D0C944B0D30
:100030002DC100002BC1000029C1000027C1000014
:1000400025C1000023C1000021C100001FC1000024
:100050001DC100001BC1000019C100000C947C0BE5
:1000600015C1000013C1000011C100000FC1000044
:100070000DC100000BC1000009C1000007C1000054
:1000800005C1000003C1000001C10000FFC0000065
:10009000FDC00000FBC00000F9C00000F7C0000078
:1000A000F5C00000F3C00000F1C000002D2D2D2D83
:1000B0002D2D2D2D2D2D2D2D2D2D2D2D2D2D2D2D70
:1000C0002D0D0A000D0A0047616D652041766720FD
:1000D00054696D653A20000D0A00536F756E6420F7
:1000E0004176672054696D653A20000D0A00446925
:1000F00073706C6179204176672054696D653A2090
:10010000000D0A00496E70757420417667205469AD
:100110006D653A20000D0A00436F6E736F6C6520A9
:100120004176672054696D653A20002D2D2D2D50A4
:10013000726F66696C657220446174612D2D2D2D7E
:100140000D0A000D0A544D4F4F53205465726D69CE
:100150006E616C0D0A466F726D61742069733A208E
:10016000636F6D6D616E64206172673120617267CB
:100170003220617267330D0A3E000D0A3E00000115
:100180000405060725242322212000010000BE01CA
:100190001200020000D0014300030000130204011A
:1001A000030904170214020309042D0216030309AC
:1001B0000445020C0001C112018036018136120192
:1001C000000202000010C0167A04000101020301BF
:1001D00009024300020100C03209040000010202CA
:1001E0000100052400100105240101010424020678
:1001F00005240600010705820310004009040100E0
:10020000020A0000000705030240000007058402FF
:1002100040000004030904140359006F00750072C4
:100220000020004E0061006D0065000000160355BF
:100230000053004200200053006500720069006115
:10024000006C0000000C0331003200330034003534
:100250000000000011241FBECFEFDAE0DEBFCDBFEB
:1002600011E0A0E0B1E0EAE8F2E202C005900D92F0
:10027000AE34B107D9F712E0AEE4B1E001C01D928F
:10028000A136B107E1F7B0D10C944311B9CEAF92CA
:10029000BF92CF92DF92EF92FF920F931F93182F8E
:1002A00092D75B016C01112349F460936201709352
:1002B000630180936401909365012DC0113059F55D
:1002C00082D79B01AC0160936601709367018093B4
:1002D00068019093690180916A0190916B01A091EE
:1002E0006C01B0916D01E0906201F09063010091AA
:1002F0006401109165018E199F09A00BB10B820F4B
:10030000931FA41FB51F80936A0190936B01A09364
:100310006C01B0936D0180916E0190916F01A0917D
:100320007001B0917101A816B906CA06DB0608F47F
:100330005AC0D601C501805C9D4BA04FBF4F809332
:100340006E0190936F01A0937001B0937101609161
:100350006A0170916B0180916C0190916D0124E6AE
:1003600030E040E050E00E94AF1020E432E44FE083
:1003700050E00E94CE1084E6982F921B9093720159
:10038000953610F08093720110926A0110926B0101
:1003900010926C0110926D018091E50180FF23C0E5
:1003A00080917201823430F0809100018823D9F06D
:1003B00080E016C0982F9C52963130F48091000155
:1003C000813089F081E00CC0895190910001833126
:1003D00020F4923041F082E003C0943021F084E0B8
:1003E0007ED7809300011F910F91FF90EF90DF90D7
:1003F000CF90BF90AF900895EF92FF920F931F930D
:1004000028D76093DF017093E0018093E10190931E
:10041000E20180E03CDF85E092E00E94AF0E0E94A6
:10042000640AE0904E01F0904F010091500110914C
:10043000510185E092E00E94C60E6E0D7F1D801F67
:10044000911F60934E0170934F01809350019093E0
:1004500051018091E50183FF1DC086EE91E00E946D
:10046000AF0E86D7E0905201F090530100915401F5
:100470001091550186EE91E00E94C60E6E0D7F1D13
:10048000801F911F60935201709353018093540118
:10049000909355018091E50182FF21C083ED91E0A9
:1004A0000E94AF0EE0912302F09124020995E090A2
:1004B0005601F0905701009158011091590183EDB8
:1004C00091E00E94C60E6E0D7F1D801F911F6093EC
:1004D0005601709357018093580190935901809170
:1004E000E50181FF1DC085E292E00E94AF0E7CD540
:1004F000E0905A01F0905B0100915C0110915D0168
:1005000085E292E00E94C60E6E0D7F1D801F911F36
:1005100060935A0170935B0180935C0190935D013D
:1005200081E0B5DE1F910F91FF90EF90089582302A
:1005300071F1833030F4882371F0813009F052C0BA
:1005400018C0883009F447C0893009F447C08330A7
:1005500009F048C032C08091E5019091E601A09178
:10056000E701B091E801662311F081601DC08E7F24
:100570001BC08091E5019091E601A091E701B09147
:10058000E801662311F082600FC08D7F0DC080915D
:10059000E5019091E601A091E701B091E8016623A1
:1005A00011F0846001C08B7F8093E5019093E60198
:1005B000A093E701B093E80113C08091E501909109
:1005C000E601A091E701B091E801662311F088608F
:1005D000EBCF877FE9CF6093E50102C06093F40120
:1005E00081E0089580E008952F923F924F925F92AC
:1005F0006F927F928F929F92AF92BF92CF92DF9233
:10060000EF92FF920F931F93DF93CF93CDB7DEB797
:1006100027970FB6F894DEBF0FBECDBF80E880935A
:1006200061001092610095D58823A9F038D7009712
:1006300091F072D4009779F075D6882361F0B4D424
:10064000882349F00E944E0C882329F00E949A0FBB
:10065000882309F006C1FFCFCFDE87E192E00E9438
:10066000AF0E0E948E0FE0905E01F0905F0100914E
:1006700060011091610187E192E00E94C60E6E0D4B
:100680007F1D801F911F60935E0170935F018093B7
:1006900060019093610180910302909104020196A0
:1006A000909304028093030285E392E00E94C60EB9
:1006B000603422E472072FE0820720E0920760F2A4
:1006C00085E392E00E94AF0EE0900302F0900402F6
:1006D00000E010E060914E0170914F018091500157
:1006E00090915101A80197010E94CE10D22EC32EE5
:1006F000B42EA52E60915201709153018091540146
:1007000090915501A80197010E94CE10922E398335
:100710004A835B8360915601709157018091580123
:1007200090915901A80197010E94CE10422E332EBC
:10073000242E5C8360915A0170915B0180915C0171
:1007400090915D01A80197010E94CE10822E732E18
:10075000642E552E60915E0170915F018091600161
:1007600090916101A80197010E94CE10E42E8BE2C6
:1007700091E02D833E835F839AD688E191E097D6FE
:100780006D2D7C2D8B2D9A2D4BE00E94E50E85E181
:1007900091E08DD684E091E08AD6692D79818A81B5
:1007A0009B814BE00E94E50E81E091E080D68EEEC9
:1007B00090E07DD6642D732D822D9C814BE00E94AC
:1007C000E50E8BEE90E073D68AED90E070D6682D42
:1007D000772D862D952D4BE00E94E50E87ED90E05C
:1007E00066D687EC90E063D62D81622F3E81732F11
:1007F0008E2D5F81952F4BE00E94E50E84EC90E0FA
:1008000056D68CEA90E053D610925E0110925F01AA
:10081000109260011092610110925A0110925B01D6
:1008200010925C0110925D011092560110925701D6
:1008300010925801109259011092520110925301D6
:10084000109254011092550110924E0110924F01D6
:100850001092500110925101109204021092030262
:10086000FBCE1092E5011092F40110926E011092ED
:100870006F0110927001109271011092720110922A
:10088000620110926301109264011092650110924E
:10089000660110926701109268011092690110922E
:1008A0006A0110926B0110926C0110926D0180E050
:1008B00060E03DDE81E060E03ADE82E061E037DE6C
:1008C00083E060E034DE83E060E07BD288E065E5D1
:1008D00078D285E392E00E94AF0EBECE809179017E
:1008E00082FF1CC02AE731E04091730150917401EE
:1008F000C90109964217530749F4909374018093F4
:10090000730150938D0140938C01089530937401CD
:100910002093730190938D0180938C0108951F9310
:10092000DF93CF930F92CDB7DEB7883008F052C077
:10093000683008F04FC0162F110F110F110F180F4C
:10094000612F66956695669570E080E090E049833A
:100950000E94F60F0E9433100E94CA0F70E0E091CF
:100960008C01F0918D01109549814423B9F0E60F77
:10097000F71F177021E030E002C0220F331F1A95D5
:10098000E2F7442737FD4095542F80819181A28161
:10099000B381822B932BA42BB52B18C0E60FF71F26
:1009A000177021E030E002C0220F331F1A95E2F7E2
:1009B00020953095442737FD4095542F80819181B3
:1009C000A281B38182239323A423B52380839183BF
:1009D000A283B3830F90CF91DF911F9108951F934E
:1009E0008830A8F5683098F5162F110F110F110FE8
:1009F000180F612F66956695669570E080E090E02F
:100A00000E94F60F0E9433100E94CA0FE0917301FA
:100A1000F0917401E60FF11D1095177021E030E0A0
:100A200002C0220F331F1A95E2F7442737FD409585
:100A3000542F80819181A281B381282339234A23B5
:100A40005B2381E0211531054105510509F480E062
:100A50001F910895AF92BF92CF92DF92EF92FF92D3
:100A60000F931F93CF93DF938091790190917A0137
:100A7000A0917B01B0917C0181FD72C08260809366
:100A8000790190937A01A0937B01B0937C019BD371
:100A90007B018C0181E0C82E81E0D82EBB2493D34A
:100AA0006E157F0580079107D0F38DD37B018C01F4
:100AB0008091750190917601A0917701B0917801B4
:100AC000E80EF91E0A1F1B1FBB2011F489E003C0AA
:100AD000F6013197808160E072D5C9E0D1E0AA24A7
:100AE0008A2D6B2D7CDF882319F0888160E002C09D
:100AF000888161E064D5A39421968A2D883081F79E
:100B0000F60181916F0161E05AD5B394FB2DF83065
:100B100009F0C5CF58D37B018C018091750190916C
:100B20007601A0917701B0917801E80EF91E0A1FB5
:100B30001B1F49D3E616F70608071907D0F780915F
:100B4000790190917A01A0917B01B0917C018D7F18
:100B50008093790190937A01A0937B01B0937C01FB
:100B6000DF91CF911F910F91FF90EF90DF90CF9089
:100B7000BF90AF9008951F93CF93DF9324D39B0131
:100B8000AC0180918E0190918F01A0919001B09164
:100B90009101281739074A075B0708F449C0E0911B
:100BA0009201EE2311F489E006C0FF27E7FDF095DE
:100BB000E050FF4F808160E002D5C9E0D1E010E055
:100BC000812F609192010BDF882319F0888160E00A
:100BD00002C0888161E0F3D41F5F2196183081F74D
:100BE000E0919201FF27E7FDF095EF5FFE4F8081D6
:100BF00061E0E5D4809192018F5F8093920188300B
:100C000014F010929201DFD220917501309176019B
:100C10004091770150917801620F731F841F951FD7
:100C200060938E0170938F01809390019093910156
:100C3000DF91CF911F9108950F93CF93DF93EC0134
:100C4000069F002D1124020F602F6695669566950C
:100C500070E0882777FD8095982F0E94F80F0E94FA
:100C600033100E94CA0FC60FD11D0095077021E0F6
:100C700030E002C0220F331F0A95E2F7442737FD08
:100C80004095542F88819981AA81BB8128233923DB
:100C90004A235B2381E0211531054105510509F403
:100CA00080E0DF91CF910F9108952F923F924F9264
:100CB0005F926F927F928F929F92AF92BF92CF92EC
:100CC000DF92EF92FF920F931F93CF93DF933C013C
:100CD000A62EC42ED22E102F8091790180FD07C040
:100CE000EE24FF24442E5524262E332436C0EE2431
:100CF000FF24442E5524262E332412C0C3016A2D0E
:100D00004C2D2C2F0B2D98DF482F8C2F8D0D692DFE
:100D100006DE2196C215D3058CF30894E11CF11C64
:100D2000E414F5041CF5C0E0D0E0BE2C9E2C910E1E
:100D3000F1CFC3016A2D4C2D2C2F0B2D7DDF482FB9
:100D4000882321F08C2F8D0D692DE9DD2196C215A8
:100D5000D3057CF30894E11CF11CE414F50434F48D
:100D6000C0E0D0E0BE2C9E2C910EF1CF81E0DF914F
:100D7000CF911F910F91FF90EF90DF90CF90BF9098
:100D8000AF909F908F907F906F905F904F903F902B
:100D90002F90089540918C0150918D01FA0120E02F
:100DA00030E09FEF882311F4108204C0DA01A20F13
:100DB000B31F9C932F5F3F4F31962930310591F738
:100DC0000895833049F1843038F4882309F449C008
:100DD000823009F09BC061C0883021F0893009F071
:100DE00095C080C0262F30E093E0220F331F9A95E4
:100DF000E1F7442737FD4095542F60E472E48FE01B
:100E000090E00E94F010209375013093760140939A
:100E10007701509378017CC0613081F48AE295E0DB
:100E200090932402809323028091790190917A011A
:100E3000A0917B01B0917C0188605FC0662309F0BE
:100E400067C08BEB95E090932402809323028091FE
:100E5000790190917A01A0917B01B0917C01877F0B
:100E60004CC0662369F4E0917901F0E080819181C2
:100E7000A281B3818E7F80839183A283B38348C094
:100E8000613009F045C08091790190917A01A0917B
:100E90007B01B0917C01816030C06623B9F4E091A0
:100EA0007901F0E080819181A281B3818B7F808381
:100EB0009183A283B3838AE791E090938D0180931D
:100EC0008C01909374018093730122C0613011F5FD
:100ED0008091790190917A01A0917B01B0917C0180
:100EE00084600BC0609379018091790190917A01BF
:100EF000A0917B01B0917C018C7F809379019093CC
:100F00007A01A0937B01B0937C0102C080E0089538
:100F100081E0089581E0089523E831E080E090E0E9
:100F20000BC01192E217F307E1F701969F01275FCB
:100F30003F4F8230910559F0FC0143E0EE0FFF1F57
:100F40004A95E1F7E80FF91FE658FE4FEACF8AE726
:100F500091E09093740180937301099690938D01B1
:100F600080938C011092920110928E0110928F0149
:100F7000109290011092910183E298E0A0E0B0E01D
:100F80008093750190937601A0937701B0937801D7
:100F900083E060E016DF80E061E013DF82E061E083
:100FA00010DF81E090E0089510924C0210924B0205
:100FB00010924702109248021092490210924A027F
:100FC0001092510210924D0210924E0210924F0256
:100FD0001092500210924302109244021092450265
:100FE0001092460281E00895AF92BF92CF92DF92B5
:100FF000EF92FF920F931F938091430290914402CE
:10100000A0914502B09146020097A105B10509F4EF
:1010100053C0D9D07B018C01809147029091480246
:10102000A0914902B0914A02E816F9060A071B0787
:1010300058F157016801A81AB90ACA0ADB0A809157
:101040005102882331F481E0809351028AE061E00B
:1010500004C0109251028AE060E0B1D280914B024C
:1010600090914C02A0E0B0E08E0D9F1DA01FB11F1B
:101070008A199B09AC09BD098093470290934802E5
:10108000A0934902B0934A02E4D09B01AC01809145
:101090004D0290914E02A0914F02B091500228173C
:1010A00039074A075B0740F010924302109244024E
:1010B00010924502109246021F910F91FF90EF90FF
:1010C000DF90CF90BF90AF900895EF92FF920F9373
:1010D0001F937A018B019C0140E050E060E472E4D0
:1010E0008FE090E00E94F01030934C0220934B026E
:1010F000B0D06E0D7F1D801F911F60934D027093C5
:101100004E0280934F02909350025DD020914B028B
:1011100030914C0240E050E0620F731F841F951F16
:1011200060934702709348028093490290934A0269
:1011300081E090E0A0E0B0E080934302909344020D
:10114000A0934502B09346021F910F91FF90EF903C
:10115000089569D281E080939B01E091F901F091BB
:10116000FA0109956093A0017093A1018093A201F7
:101170009093A301E091E301F091E401099560935C
:101180009701709398018093990190939A01E0914F
:10119000F901F091FA01099560939C0170939D010A
:1011A00080939E0190939F01E091E301F091E4010F
:1011B00009956093930170939401809395019093A6
:1011C000960181E00895EF92FF920F931F93E091B3
:1011D000F901F091FA0109957B018C018091A00140
:1011E0009091A101A091A201B091A301A801970142
:1011F000281B390B4A0B5B0BCA01B90120919B01DB
:1012000030E040E050E0ABD79B01AC0180919C0105
:1012100090919D01A0919E01B0919F01280F391FCF
:101220004A1F5B1F20939C0130939D0140939E01B8
:1012300050939F01E092A001F092A1010093A201BE
:101240001093A301B901CA011F910F91FF90EF9074
:101250000895EF92FF920F931F93E091E301F091B5
:10126000E40109957B018C0180919701909198018F
:10127000A0919901B0919A01A8019701281B390BFF
:101280004A0B5B0BCA01B90120919B0130E040E0A1
:1012900050E065D79B01AC0180919301909194013E
:1012A000A0919501B0919601280F391F4A1F5B1F2D
:1012B00020939301309394014093950150939601AC
:1012C000E0929701F09298010093990110939A018E
:1012D000B901CA011F910F91FF90EF9008951F93DC
:1012E000182F882311F481E00FC0813011F482E0BF
:1012F0000BC0823011F484E007C0833011F488E021
:1013000003C0843019F480E180939B015CDFA1DF8E
:10131000F89480E880936100109361007894812FA5
:101320001F91089588E28093520210925C021092FD
:101330005D0210925E0210925F0210925B021092A8
:10134000580282E080935702E5E5F2E082E1808373
:101350008CE0818386E990E090935402809353025D
:1013600082E593E090935A028093590281E00895B8
:10137000CF92DF92EF92FF920F931F93CF93DF9361
:1013800068DF20915C0230915D0240915E025091D5
:101390005F02621773078407950708F477C02091EE
:1013A0005202620F711D811D911D60935C0270934A
:1013B0005D0280935E0290935F028091570272D12A
:1013C0007C0100E010E0C0905902D0905A02B601B2
:1013D00080E090E06E157F058007910778F02091FE
:1013E00053023091540240E050E0C801B701621747
:1013F00073078407950710F4CA01B901C09153021D
:10140000D09154029E0140E050E0621B730B840BAC
:10141000950B2FEF30E040E050E0A1D6CC1ADD0A6A
:10142000960140E050E0BAD62093580280915502D0
:1014300013D120915B0230915C0240915D0250918A
:101440005E02882311F4216001C02E7F20935B028D
:1014500030935C0240935D0250935E02809156028D
:10146000FBD020915B0230915C0240915D02509173
:101470005E02882311F4226001C02D7F20935B025D
:1014800030935C0240935D0250935E02DF91CF91F6
:101490001F910F91FF90EF90DF90CF9008951092E1
:1014A000A4011092C50125D281E090E00895CF9368
:1014B000DF93EC01FE0121968491882311F06CD218
:1014C000F9CFDF91CF9108951F938091A40180FD02
:1014D0001DC028D2882309F45EC0A0D280FF5BC063
:1014E00048D28091A4019091A501A091A601B0914C
:1014F000A70181608093A4019093A501A093A60108
:10150000B093A70183E491E0D2DF45C00ED2182F3B
:101510008091C50180328CF4912F90529F3568F4F0
:10152000E82FFF27E7FDF095EB55FE4F10838F5F07
:101530008093C501812F30D210C01D3011F01A30B8
:1015400061F4E091C501FF27E7FDF095EB55FE4FF3
:1015500010828AE791E0ABDF1CC0E4D1882329F038
:101560005DD280FF02C0112391F48091A40190917B
:10157000A501A091A601B091A7018E7F8093A4013F
:101580009093A501A093A601B093A70104C01430C5
:1015900011F41092C5011F9108951F93CF93DF930B
:1015A000EC0110E0FE01E10FF11D8081882319F0AC
:1015B000F3D11F5FF7CFDF91CF911F91089589314C
:1015C00080F5E82FF0E0EE0FFF1FEF5EFE4F808109
:1015D00081542181662391F4E3E08E9FF001112470
:1015E00081E090E002C0880F991F2A95E2F721A1BF
:1015F000282B21A3809592A1982310C0E3E08E9F11
:10160000F001112481E090E002C0880F991F2A9513
:10161000E2F791A1982B91A392A1982B92A381E03C
:10162000089580E008951F93E3D082ED9BE09093AE
:10163000FA018093F90184EC9BE09093E40180939C
:10164000E30110E0812F60E0BADF1F5F1931D1F7AD
:1016500081E090E01F910895893110F5E82FF0E0C6
:10166000EE0FFF1FEF5EFE4F80818154A3E08A9F43
:10167000D001112421E030E0018002C0220F331F8D
:101680000A94E2F7922F909591968C9191978923E5
:1016900091968C93919790968C9190978223089530
:1016A00080E008958C3020F5E82FF0E0E258FE4FFE
:1016B000E49186E880937A008E2F80728068809310
:1016C0007B00EF7180914301E82BE0937C0086EC76
:1016D00080937A0080917A0086FDFCCF209178007B
:1016E00030917900932F80E030E0282B392B02C015
:1016F00020E030E0C90108951F920F920FB60F92BB
:1017000011242F933F938F939F93AF93BF93809117
:10171000CA019091CB01A091CC01B091CD01309143
:10172000CE010196A11DB11D232F2D5F2D3720F075
:101730002D570196A11DB11D2093CE018093CA01A2
:101740009093CB01A093CC01B093CD018091C601C1
:101750009091C701A091C801B091C9010196A11D46
:10176000B11D8093C6019093C701A093C801B093A7
:10177000C901BF91AF919F918F913F912F910F9090
:101780000FBE0F901F9018958FB7F8942091CA0143
:101790003091CB014091CC015091CD018FBFB90167
:1017A000CA0108959FB7F8942091C6013091C701EE
:1017B0004091C8015091C90186B5A89B06C08F3FD2
:1017C00021F02F5F3F4F4F4F5F4F9FBF542F432F4D
:1017D000322F2227280F311D411D511D82E0220F7B
:1017E000331F441F551F8A95D1F7B901CA010895C7
:1017F000789484B5826084BD84B5816084BD85B5EC
:10180000826085BD85B5816085BDEEE6F0E08081B2
:1018100081608083E1E8F0E01082808182608083D3
:10182000808181608083E0E8F0E080818160808356
:10183000E1E9F0E080818260808380818160808343
:10184000E0E9F0E0808181608083E1ECF0E080817C
:1018500084608083808182608083808181608083D6
:10186000E3ECF0E0808181608083E0ECF0E0808157
:1018700082608083E2ECF0E0808181608083EAE72F
:10188000F0E08081846080838081826080838081B9
:101890008160808380818068808308958BE091E1FE
:1018A000909300028093FF0188E191E19093F80109
:1018B0008093F70183E191E19093160280931502E2
:1018C0008DE191E1909314028093130280E391E102
:1018D0009093FC018093FB018BE291E190930202D3
:1018E0008093010281E008958091E80080FFFCCFA1
:1018F000089581E08093D70080EA8093D80082E148
:1019000089BD09B400FEFDCF80E98093D800109214
:10191000E0001092CF011092D0018CE08093E200A1
:10192000789408958091CF0108958FB7F89490919D
:10193000CF01992369F093E09093E9002BE6909111
:10194000E80095FD09C092FF03C02093E800F7CF9F
:101950008FBF2FEF3FEF0BC02091F1009091E80077
:1019600095FD03C09BE69093E8008FBF30E0C9016E
:1019700008958091CF01882371F08FB7F89493E098
:101980009093E9009BE602C09093E8002091E80064
:1019900025FDFACF8FBF08959091CF019923D1F102
:1019A0009FB7F89424E02093E9002091D2012223EC
:1019B00041F02091E80025FD02C09FBF2BC010928E
:1019C000D2012091E400275E34E04091E80045FD1B
:1019D00012C09FBF9091E400921721F481E08093A0
:1019E000D20118C09091CF019923B1F09FB7F8941C
:1019F0003093E900EACF8093F1008091E80085FD03
:101A000003C08AE38093E80085E08093D1019FBF03
:101A100080E008958FEF08958FEF08958091D001B1
:101A200008951F920F920FB60F9211248F939F93D8
:101A30008091E1001092E10083FF11C01092E90053
:101A400091E09093EB001092EC0092E19093ED0006
:101A500098E09093F0001092CF011092D00182FF95
:101A600013C08091CF01882379F08091D101882320
:101A700059F081508093D101882331F484E0809320
:101A8000E9008AE38093E8009F918F910F900FBE49
:101A90000F901F9018951F920F920FB60F9211245E
:101AA000EF92FF920F931F932F933F934F935F9368
:101AB0006F937F938F939F93AF93BF93EF93FF9316
:101AC000DF93CF930F92CDB7DEB71092E9008091EC
:101AD000E80083FF29C12091F1003091F10080914D
:101AE000F100E82EFF244091F100942F80E0E82AD5
:101AF000F92A0091F10010E04091F100942F80E06C
:101B0000082B192B6091F100A091F10082EF8093D6
:101B1000E800363009F059C081E991E09C01255078
:101B20003040FC013797459154914E155F05F9F40B
:101B3000F9014591549140175107C9F42E5F3F4F69
:101B4000F901859194912E5F3F4FF9012491462F21
:101B500050E07A2F60E0462B572B4F3F510519F08C
:101B600010F04FEF50E0421750F4242F08C00796B2
:101B7000295F3F4FF1E08B3B9F0799F6D5C0AEEF51
:101B80004091E80050E0BA01657070706115710510
:101B9000B9F342FDCCC0322F213108F030E1AC0165
:101BA000632F07C0FA014F5F5F4FE491E093F100AC
:101BB00061506623B9F7830F911D231BA093E800A2
:101BC0002223F1F63031E1F2B2C0353049F48EEF24
:101BD0008093E80089DE8E2D80688093E300A7C0A3
:101BE000393051F5222309F09FC0E092CF011092C5
:101BF000D0011092D1018EEF8093E80041E084EB98
:101C000091E04093E900FC010196E491E093EB0040
:101C1000EE2369F09C012F5F3F4FFC01849180937C
:101C2000EC00C9010196F90124912093ED004F5F6A
:101C3000453039F78EE173C0383049F4203809F067
:101C400073C052DE8091CF018093F10045C03132E4
:101C500071F4213A09F068C047DEE4E4F1E08191D3
:101C60008093F10021E0EB34F207C9F735C0303240
:101C7000A1F4213209F058C08091E80082FFFCCF26
:101C8000E4E4F1E08091F100819331E0EB34F3077B
:101C9000C9F78BEF8093E8001FC0323239F421324C
:101CA00009F042C0E092D0011FDE16C03323C1F418
:101CB00029831ADE2981223851F40093E90090919A
:101CC000EB0081E095FF80E01092E90001C080E028
:101CD0008093F1001092F1008EEF8093E80027C00E
:101CE000313011F0333001F52230F1F4E114F10418
:101CF000D9F40F77802F81508430B0F48EEF809329
:101D0000E8000093E900333079F089E18093EB003B
:101D100081E090E002C0880F991F0A95E2F7809356
:101D2000EA001092EA0003C081E28093EB000F907A
:101D3000CF91DF91FF91EF91BF91AF919F918F91E3
:101D40007F916F915F914F913F912F911F910F91D3
:101D5000FF90EF900F900FBE0F901F901895CF93AC
:101D6000DF93EC011C821D821E821F821886198659
:101D70001A861B86E091F901F091FA0109956883B2
:101D800079838A839B83DF91CF910895CF93DF93EB
:101D9000EC01E091F901F091FA0109959B01AC0188
:101DA0006C837D838E839F8388819981AA81BB8187
:101DB000281B390B4A0B5B0B288739874A875B87BF
:101DC000B901CA01DF91CF9108954F925F926F924E
:101DD0007F928F929F92AF92BF92CF92DF92EF92BB
:101DE000FF920F931F93DF93CF93CDB7DEB7289762
:101DF0000FB6F894DEBF0FBECDBF5B016C01E42EC1
:101E000019821A821B821C821D821E821F821886E2
:101E1000D7FE07C066277727CB016A197B098C0993
:101E20009D09FF248E010F5F1F4F2AE0622E712C47
:101E3000812C912C28014F0C511CA4019301D0D16D
:101E4000605DF2016083F394B901CA0116161706AA
:101E5000180619067CF32F2D30E0F0FE0AC0D801D9
:101E6000A90141505040F801E40FF51F80E090E0D7
:101E700026C0D801A90141505040F801E40FF51FD8
:101E800080E090E00CC00C910196BA0160806D92E8
:101E9000008331974150504086179707A1F0821771
:101EA00093078CF310C06C90BA0140804D92608211
:101EB00001963197415050400617170721F08C01C9
:101EC0008217930784F3CE010196FC01EF0DF11DFB
:101ED0001082FE2DFB3051F02E2D2A3041F4D7FE1A
:101EE00003C08BE491E059DBCE01019656DB2896C6
:101EF0000FB6F894DEBF0FBECDBFCF91DF911F911B
:101F00000F91FF90EF90DF90CF90BF90AF909F9098
:101F10008F907F906F905F904F900895E091FD01BA
:101F2000F091FE0180E00995E0913302F0913402D6
:101F3000099508950ED08CEF91E090933202809332
:101F4000310285E698E0909342028093410281E05D
:101F50000895109260028FE894E0909312028093AB
:101F600011028FEE94E09093F3018093F20185E5E6
:101F700096E09093F6018093F5018AEC96E09093B9
:101F8000FE018093FD018EE694E0909334028093ED
:101F900033020895ACD088F09F5790F0B92F99275D
:101FA000B751A0F0D1F0660F771F881F991F1AF064
:101FB000BA95C9F712C0B13081F0CAD0B1E0089526
:101FC000C7C0672F782F8827B85F39F0B93FCCF3A7
:101FD000869577956795B395D9F73EF4909580955A
:101FE000709561957F4F8F4F9F4F0895E89409C07A
:101FF00097FB3EF490958095709561957F4F8F4F3C
:102000009F4F9923A9F0F92F96E9BB279395F69551
:10201000879577956795B795F111F8CFFAF4BB0FCF
:1020200011F460FF1BC06F5F7F4F8F4F9F4F16C033
:10203000882311F096E911C0772321F09EE8872FBD
:10204000762F05C0662371F096E8862F70E060E079
:102050002AF09A95660F771F881FDAF7880F9695F2
:10206000879597F908955DD080F09F3740F49111DE
:102070000EF06FC060E070E080E89FEB089526F4FA
:102080001B16611D711D811D01C01BC0882371F4C9
:10209000772321F09850872B762F07C0662311F401
:1020A00099270DC09051862B70E060E02AF09A9538
:1020B000660F771F881FDAF7880F9695879597F92F
:1020C00008959F3F31F0915020F48795779567955B
:1020D000B795880F911D9695879597F9089557FDA7
:1020E0009058440F551F59F05F3F71F04795880F86
:1020F00097FB991F61F09F3F79F08795089512161D
:1021000013061406551FF2CF4695F1DF08C01616C8
:1021100017061806991FF1CF869571056105089479
:102120000895E5DFA0F0BEE7B91788F4BB279F3814
:1021300060F41616B11D672F782F8827985FF7CFA8
:10214000869577956795B11D93959639C8F308954F
:10215000E894BB2766277727CB0197F90895629FFC
:10216000D001739FF001829FE00DF11D649FE00D8F
:10217000F11D929FF00D839FF00D749FF00D659FF0
:10218000F00D9927729FB00DE11DF91F639FB00DEF
:10219000E11DF91FBD01CF0111240895A1E21A2EFE
:1021A000AA1BBB1BFD010DC0AA1FBB1FEE1FFF1FFB
:1021B000A217B307E407F50720F0A21BB30BE40B4B
:1021C000F50B661F771F881F991F1A9469F7609592
:1021D0007095809590959B01AC01BD01CF0108954C
:1021E00097FB092E05260ED057FD04D0D7DF0AD065
:1021F000001C38F450954095309521953F4F4F4F36
:102200005F4F0895F6F790958095709561957F4F93
:102210008F4F9F4F0895F999FECF92BD81BDF89AD7
:10222000992780B50895A6E1B0E044E050E01DC0D4
:10223000A8E1B0E042E050E018C0262FF999FECFA7
:102240001FBA92BD81BD20BD0FB6F894FA9AF99AD3
:102250000FBE01960895242FF1DF252FEFDF00C078
:10226000ECDF272FEBCFDC01CB01FC01F999FECF8E
:1022700006C0F2BDE1BDF89A319600B40D9241500E
:0A2280005040B8F70895F894FFCF1E
:10228A00FF1014081102070409030E0F150D180197
:10229A000042004201420242034207440044014410
:1022AA0002440343064307440644074204420542E4
:1022BA0006460746064605460446014600440444C7
:0E22CA000545064000E100000000082D000060
:00000001FF
