:1000000027C1000041C100003FC100003DC1000008
:100010003BC1000039C1000037C1000035C10000FC
:1000200033C1000031C100000C94C70C0C94010DC9
:100030002BC1000029C1000027C1000025C100001C
:1000400023C1000021C100001FC100001DC100002C
:100050001BC1000019C1000017C100000C94B90AAF
:1000600013C1000011C100000FC100000DC100004C
:100070000BC1000009C1000007C1000005C100005C
:1000800003C1000001C10000FFC00000FDC000006E
:10009000FBC00000F9C00000F7C00000F5C0000080
:1000A000F3C00000F1C00000EFC000002D2D2D2D89
:1000B0002D2D2D2D2D2D2D2D2D2D2D2D2D2D2D2D70
:1000C0002D0D0A000D0A004379636C65732F53658B
:1000D000633A20000D0A0047616D65204176672074
:1000E00054696D653A20000D0A00536F756E6420E7
:1000F0004176672054696D653A20000D0A00496E0B
:10010000707574204176672054696D653A20000D42
:100110000A00436F6E736F6C6520417667205469E7
:100120006D653A20002D2D2D2D50726F66696C651E
:100130007220446174612D2D2D2D0D0A000D0A547D
:100140004D4F4F53205465726D696E616C0D0A46B8
:100150006F726D61742069733A20636F6D6D616EAB
:100160006420617267312061726732206172673387
:100170000D0A3E000D0A3E00000104050607252475
:100180002322212000010000B8011200020000CA51
:100190000143000300000D020401030904110214CD
:1001A00002030904270216030309043F020C00019D
:1001B000C1120180360181361201000202000010D6
:1001C000C0167A0400010102030109024300020182
:1001D00000C03209040000010202010005240010E1
:1001E000010524010101042402060524060001077B
:1001F00005820310004009040100020A0000000704
:1002000005030240000007058402400000040309C2
:1002100004140359006F007500720020004E006145
:10022000006D0065000000160355005300420020D9
:1002300000530065007200690061006C0000000C52
:10024000033100320033003400350000002D00007F
:1002500011241FBECFEFDAE0DEBFCDBF11E0A0E07A
:10026000B1E0EAEBF9E302C005900D92A63CB107BC
:10027000D9F713E0A6ECB1E001C01D92AC38B1078C
:10028000E1F7ABD10C94DB1CBBCEAF92BF92CF9207
:10029000DF92EF92FF920F931F93182F18D75B01F5
:1002A0006C01112349F46093DA017093DB018093B0
:1002B000DC019093DD012DC0113059F508D79B0169
:1002C000AC016093DE017093DF018093E0019093B5
:1002D000E1018091E2019091E301A091E401B091EC
:1002E000E501E090DA01F090DB010091DC01109172
:1002F000DD018E199F09A00BB10B820F931FA41F64
:10030000B51F8093E2019093E301A093E401B093C1
:10031000E5018091E6019091E701A091E801B0919B
:10032000E901A816B906CA06DB0608F45AC0D601C8
:10033000C501805C9D4BA04FBF4F8093E601909319
:10034000E701A093E801B093E9016091E2017091A7
:10035000E3018091E4019091E50124E630E040E082
:1003600050E00E948B1B20E432E44FE050E00E94FA
:10037000C91B84E6982F921B9093EA01953610F0E2
:100380008093EA011092E2011092E3011092E401DD
:100390001092E5018091A20280FF23C08091EA01C2
:1003A000823430F0809100018823D9F080E016C0BB
:1003B000982F9C52963130F480910001813089F061
:1003C00081E00CC0895190910001833120F492307A
:1003D00041F082E003C0943021F084E0FED68093A7
:1003E00000011F910F91FF90EF90DF90CF90BF9091
:1003F000AF900895EF92FF920F931F93ABD6609347
:100400009C0270939D0280939E0290939F0280E0D5
:100410003CDF80EC92E00E94460F0E943E0AE09092
:10042000C601F090C7010091C8011091C90180EC8C
:1004300092E00E94590F6E0D7F1D801F911F6093E7
:10044000C6017093C7018093C8019093C901809140
:10045000A20283FF1DC083EA92E00E94460F08D7E4
:10046000E090CA01F090CB010091CC011091CD0138
:1004700083EA92E00E94590F6E0D7F1D801F911F2D
:100480006093CA017093CB018093CC019093CD010E
:100490008091A20282FF1CC080E992E00E94460F78
:1004A000E090CE01F090CF010091D0011091D101E8
:1004B00080E992E00E94590F6E0D7F1D801F911FF1
:1004C0006093CE017093CF018093D0019093D101BE
:1004D0008091A20281FF1DC082EE92E00E94460F31
:1004E00017D5E090D201F090D3010091D401109182
:1004F000D50182EE92E00E94590F6E0D7F1D801F84
:10050000911F6093D2017093D3018093D401909393
:10051000D50181E0BADE1F910F91FF90EF90089511
:10052000823071F1833030F4882371F0813009F02A
:1005300052C018C0883009F447C0893009F447C058
:10054000833009F048C032C08091A2029091A3028A
:10055000A091A402B091A502662311F081601DC094
:100560008E7F1BC08091A2029091A302A091A40251
:10057000B091A502662311F082600FC08D7F0DC07F
:100580008091A2029091A302A091A402B091A50231
:10059000662311F0846001C08B7F8093A202909348
:1005A000A302A093A402B093A50213C08091A2025B
:1005B0009091A302A091A402B091A502662311F02C
:1005C0008860EBCF877FE9CF6093A20202C060937F
:1005D000B10281E0089580E008952F923F924F92FA
:1005E0005F926F927F928F929F92AF92BF92CF92C3
:1005F000DF92EF92FF920F931F93DF93CF9300D080
:100600000F92CDB7DEB780E8809361001092610051
:1006100034D58823A1F01DD7009789F006D4009720
:1006200071F0FED5882359F053D4882341F00E94FD
:10063000040C882321F00E946F11882371F400E0DC
:1006400010E017FD03C08BE061E002C08BE060E0CA
:100650000E94470B0F5F1F4FF4CF1092A20210921F
:10066000B1021092E6011092E7011092E801109297
:10067000E9011092EA011092DA011092DB01109266
:10068000DC011092DD011092DE011092DF01109268
:10069000E0011092E1011092E2011092E301109248
:1006A000E4011092E50180E060E03ADF81E060E083
:1006B00037DF82E061E034DF83E061E031DF83E057
:1006C00060E008D388E06CE305D30E94360F0E94F7
:1006D000650E82EF92E00E94460F8CDE84ED92E080
:1006E0000E94460F0E94760EE090D601F090D7014E
:1006F0000091D8011091D90184ED92E00E94590F28
:100700006E0D7F1D801F911F6093D6017093D701DE
:100710008093D8019093D9018091BE029091BF023D
:1007200001969093BF028093BE0282EF92E00E94F6
:10073000590F603422E472072FE0820720E092070D
:1007400060F282EF92E00E94460FE090BE02F090CD
:10075000BF0200E010E06091C6017091C701809176
:10076000C8019091C901A80197010E94C91BD22E0E
:10077000C32EB42EA52E6091CA017091CB01809139
:10078000CC019091CD01A80197010E94C91B922E26
:10079000432E342E252E6091D2017091D301809189
:1007A000D4019091D501A80197010E94C91B822E06
:1007B000732E642E552E6091D6017091D7018091D1
:1007C000D8019091D901A80197010E94C91BE42E7C
:1007D00085E291E029833A835B8343D682E191E00D
:1007E00040D66D2D7C2D8B2D9A2D4BE00E94740FE1
:1007F0008FE091E036D68EEF90E033D6692D742DE0
:10080000832D922D4BE00E94740F8BEF90E029D640
:100810008AEE90E026D6682D772D862D952D4BE01B
:100820000E94740F87EE90E01CD687ED90E019D6F9
:100830002981622F3A81732F8E2D5B81952F4BE09A
:100840000E94740F84ED90E00CD687EC90E009D6FE
:100850006091BE027091BF0280E090E04BE00E9488
:10086000740F84EC90E0FDD58CEA90E0FAD51092FC
:10087000D6011092D7011092D8011092D90110928E
:10088000D2011092D3011092D4011092D50110928E
:10089000CE011092CF011092D0011092D10110928E
:1008A000CA011092CB011092CC011092CD0110928E
:1008B000C6011092C7011092C8011092C90110928E
:1008C000BF021092BE0209CF0895813009F580E081
:1008D00061E0DDD68091EF019091F001A091F101EE
:1008E000B091F20180688D7F8093EF019093F001C9
:1008F000A093F101B093F2011092360210923702E8
:10090000109238021092390210923A0281E0089552
:100910008823A9F460E0BBD68091EF019091F001AB
:10092000A091F101B091F2018D778093EF01909346
:10093000F001A093F101B093F20180E008958FEFF0
:1009400008958091EF0182FF1CC020EF31E04091BB
:10095000340250913502C90181964217530749F478
:1009600090933502809334025093330240933202C5
:10097000089530933502209334029093330280938C
:10098000320208951F93DF93CF930F92CDB7DEB756
:10099000803108F051C0603108F04EC0162F12951A
:1009A000107F180F612F66956695669570E080E060
:1009B00090E049830E94FF190E943C1A0E94D319BB
:1009C00070E0E0913202F0913302109549814423A6
:1009D000B9F0E60FF71F177021E030E002C0220FD8
:1009E000331F1A95E2F7442737FD4095542F808135
:1009F0009181A281B381822B932BA42BB52B18C09C
:100A0000E60FF71F177021E030E002C0220F331FFE
:100A10001A95E2F720953095442737FD4095542FDD
:100A200080819181A281B38182239323A423B52362
:100A300080839183A283B3830F90CF91DF911F9125
:100A400008951F938031A0F5603190F5162F12950F
:100A5000107F180F612F66956695669570E080E0AF
:100A600090E00E94FF190E943C1A0E94D319E09165
:100A70003402F0913502E60FF11D1095177021E058
:100A800030E002C0220F331F1A95E2F7442737FDEA
:100A90004095542F80819181A281B38128233923ED
:100AA0004A235B2381E0211531054105510509F4F5
:100AB00080E01F9108951F9382E061E0E8D5809166
:100AC0003602882359F481E061E0E1D584E035D62F
:100AD00083E033D681E060E0DAD504C084E02DD62F
:100AE00083E02BD617E0812F60913602AADF88239E
:100AF00019F086E060E002C086E061E0C8D589E0D8
:100B00001CD6115080F71FE0812F6091360299DFCB
:100B1000882319F086E060E002C086E061E0B7D586
:100B200089E00BD61150173079F788E006D682E0BD
:100B300060E0ADD5809136028F5F809336028031C0
:100B400014F0109236021F9108950F93CF93DF9304
:100B5000EC01069F002D1124020F602F669566950B
:100B6000669570E0882777FD8095982F0E94011A7E
:100B70000E943C1A0E94D319C60FD11D0095077020
:100B800021E030E002C0220F331F0A95E2F744272C
:100B900037FD4095542F88819981AA81BB812823F4
:100BA00039234A235B2381E0211531054105510595
:100BB00009F480E0DF91CF910F9108952F923F9239
:100BC0004F925F926F927F928F929F92AF92BF925D
:100BD000CF92DF92EF92FF920F931F93CF93DF9309
:100BE0003C01A62EC42ED22E102F8091EF0180FD45
:100BF00007C0EE24FF24442E5524262E332436C06D
:100C0000EE24FF24442E5524262E332412C0C30183
:100C10006A2D4C2D2C2F0B2D98DF482F8C2F8D0DEE
:100C2000692DB0DE2196C215D3058CF30894E11C22
:100C3000F11CE414F5041CF5C0E0D0E0BE2C9E2CA1
:100C4000910EF1CFC3016A2D4C2D2C2F0B2D7DDF82
:100C5000482F882321F08C2F8D0D692D93DE21964E
:100C6000C215D3057CF30894E11CF11CE414F504CF
:100C700034F4C0E0D0E0BE2C9E2C910EF1CF81E088
:100C8000DF91CF911F910F91FF90EF90DF90CF9068
:100C9000BF90AF909F908F907F906F905F904F909C
:100CA0003F902F9008954091320250913302FA0103
:100CB00020E030E09FEF882311F4108204C0DA01B5
:100CC000A20FB31F9C932F5F3F4F31962132310506
:100CD00091F70895833049F1843038F4882309F47A
:100CE00049C0823009F09BC061C0883021F0893052
:100CF00009F095C080C0262F30E084E0220F331F1A
:100D00008A95E1F7442737FD4095542F60E472E45B
:100D10008FE090E00E94EB1B2093EB013093EC01FD
:100D20004093ED015093EE017CC0613081F484E684
:100D300094E09093E1028093E0028091EF01909122
:100D4000F001A091F101B091F20188605FC06623CB
:100D500009F067C08BE595E09093E1028093E00293
:100D60008091EF019091F001A091F101B091F20119
:100D7000877F4CC0662369F4E091EF01F0E0808149
:100D80009181A281B3818E7F80839183A283B3837B
:100D900048C0613009F045C08091EF019091F001A9
:100DA000A091F101B091F201816030C06623B9F4E5
:100DB000E091EF01F0E080819181A281B3818B7F8E
:100DC00080839183A283B38380EF91E09093330279
:100DD00080933202909335028093340222C06130B6
:100DE00011F58091EF019091F001A091F101B09186
:100DF000F20184600BC06093EF018091EF0190914C
:100E0000F001A091F101B091F2018C7F8093EF018C
:100E10009093F001A093F101B093F20102C080E041
:100E2000089581E0089581E0089529EF31E080E0A0
:100E300090E00BC01192E217F307E1F701969F01D2
:100E40002F5D3F4F8230910559F0FC0145E0EE0FD8
:100E5000FF1F4A95E1F7E80FF91FE051FE4FEACF77
:100E600080EF91E0909335028093340281969093C5
:100E7000330280933202109236021092370210929F
:100E800038021092390210923A0281E194E0A0E017
:100E9000B0E08093EB019093EC01A093ED01B0934F
:100EA000EE0183E060E016DF80E061E013DF82E0C6
:100EB00061E010DF81E009DD85E061E0E8D38AE0F0
:100EC00061E0E5D387E060E0E2D381E090E008955F
:100ED0001092090310920803109204031092050364
:100EE000109206031092070310920E0310920A0349
:100EF00010920B0310920C0310920D03109200033A
:100F000010920103109202031092030381E00895EE
:100F1000AF92BF92CF92DF92EF92FF920F931F9307
:100F20008091000390910103A0910203B09103030B
:100F30000097A105B10509F453C0C9D07B018C010C
:100F40008091040390910503A0910603B0910703DB
:100F5000E816F9060A071B0758F157016801A81A95
:100F6000B90ACA0ADB0A80910E03882331F481E0B2
:100F700080930E0380E161E004C010920E0380E1D3
:100F800060E085D38091080390910903A0E0B0E070
:100F90008E0D9F1DA01FB11F8A199B09AC09BD09A9
:100FA0008093040390930503A0930603B093070373
:100FB000D1D09B01AC0180910A0390910B03A091C9
:100FC0000C03B0910D03281739074A075B0740F05F
:100FD0001092000310920103109202031092030377
:100FE0001F910F91FF90EF90DF90CF90BF90AF9047
:100FF0000895EF92FF920F931F937A018B019C014A
:1010000040E050E060E472E48FE090E00E94EB1B6F
:1010100030930903209308039DD06E0D7F1D801F20
:10102000911F60930A0370930B0380930C039093BA
:101030000D034DD0209108033091090340E050E0AA
:10104000620F731F841F951F609304037093050341
:10105000809306039093070381E090E0A0E0B0E066
:101060008093000390930103A0930203B0930303C2
:101070001F910F91FF90EF900895DFD281E0809350
:1010800043029CD3609348027093490280934A02C2
:1010900090934B0285D360933F02709340028093FC
:1010A0004102909342028AD36093440270934502B6
:1010B000809346029093470273D360933B027093F0
:1010C0003C0280933D0290933E0281E00895EF92AE
:1010D000FF920F931F9372D37B018C018091480282
:1010E00090914902A0914A02B0914B02A801970148
:1010F000281B390B4A0B5B0BCA01B9012091430233
:1011000030E040E050E00E948B1B9B01AC018091DD
:10111000440290914502A0914602B0914702280FE7
:10112000391F4A1F5B1F20934402309345024093AE
:10113000460250934702E0924802F092490200931F
:101140004A0210934B02B901CA011F910F91FF90FF
:10115000EF900895EF92FF920F931F9321D37B019D
:101160008C0180913F0290914002A0914102B09188
:101170004202A8019701281B390B4A0B5B0BCA01DD
:10118000B9012091430230E040E050E00E948B1B07
:101190009B01AC0180913B0290913C02A0913D02E9
:1011A000B0913E02280F391F4A1F5B1F20933B025C
:1011B00030933C0240933D0250933E02E0923F0246
:1011C000F09240020093410210934202B901CA0119
:1011D0001F910F91FF90EF9008951F93182F882370
:1011E00011F481E00FC0813011F482E00BC0823035
:1011F00011F484E007C0833011F488E003C0843028
:1012000019F480E18093430262DFA4DFF89480E860
:1012100080936100109361007894812F1F9108954D
:101220008CE3809350021092570210925802109251
:10123000590210925A02109256021092550284E0FE
:1012400080935402E1E5F2E084E1808383E18183CD
:1012500082E1828384E690E090934D0280934C0279
:1012600084E893E090934F0280934E0281E00895CA
:10127000CF92DF92EF92FF920F931F93CF93DF9362
:1012800069DF2091570230915802409159025091E4
:101290005A02621773078407950708F491C02091DA
:1012A0005002620F711D811D911D60935702709352
:1012B00058028093590290935A028091540246D268
:1012C0007C0100E010E0C0904E02D0904F02B601C9
:1012D00080E090E06E157F058007910778F02091FF
:1012E0004C0230914D0240E050E0C801B701621756
:1012F00073078407950710F4CA01B901C0914C0225
:10130000D0914D029E0140E050E0621B730B840BB4
:10131000950B2FEF30E040E050E00E948B1BCC1A81
:10132000DD0A960140E050E00E94C91B209355025F
:1013300080915102DCD120915602309157024091A8
:10134000580250915902882311F4216001C02E7F68
:1013500020935602309357024093580250935902FB
:1013600080915202C4D1209156023091570240918F
:10137000580250915902882311F4226001C02D7F38
:1013800020935602309357024093580250935902CB
:1013900080915302ACD12091560230915702409176
:1013A000580250915902882311F4246001C02B7F08
:1013B000209356023093570240935802509359029B
:1013C000DF91CF911F910F91FF90EF90DF90CF9021
:1013D0000895813069F0813038F0823079F08330BF
:1013E000A1F480915502089580915602817008956C
:1013F0009091560281E091FD09C005C0909156027E
:1014000081E092FD03C080E0089580E008951F937D
:10141000182F83E0DEDF482F8F3FB9F0612F8FEF69
:1014200090E070E00E94B61B842F0E94AA1B682FD8
:1014300070E0882777FD8095982F0E94011A0E94FE
:101440003C1A0E94D319862F02C0812F81501F9110
:10145000089510925B0210927C0201D281E090E02C
:101460000895CF93DF93EC01FE01219684918823A8
:1014700011F048D2F9CFDF91CF9108951F93809159
:101480005B0280FD1DC004D2882309F45EC07CD2BB
:1014900080FF5BC024D280915B0290915C02A0919E
:1014A0005D02B0915E02816080935B0290935C026A
:1014B000A0935D02B0935E028DE391E0D2DF45C060
:1014C000EAD1182F80917C0280328CF4912F9052B7
:1014D0009F3568F4E82FFF27E7FDF095E45AFD4FAC
:1014E00010838F5F80937C02812F0CD210C01D303F
:1014F00011F01A3061F4E0917C02FF27E7FDF095CE
:10150000E45AFD4F108284E791E0ABDF1CC0C0D1EC
:10151000882329F039D280FF02C0112391F48091F1
:101520005B0290915C02A0915D02B0915E028E7FA1
:1015300080935B0290935C02A0935D02B0935E0285
:1015400004C0143011F410927C021F9108951F936F
:10155000CF93DF93EC0110E0FE01E10FF11D8081DC
:10156000882319F0CFD11F5FF7CFDF91CF911F9163
:1015700008951F920F920FB60F9211242F933F934D
:101580004F935F936F937F938F939F93AF93BF938B
:10159000EF93FF938091100390911103A091120398
:1015A000B091130330917D020196A11DB11D232F2F
:1015B0002D5F2D3720F02D570196A11DB11D2093D1
:1015C0007D028093100390931103A0931203B093B4
:1015D00013038091140390911503A0911603B09109
:1015E00017030196A11DB11D809314039093150359
:1015F000A0931603B093170380910F038F5F80931E
:101600000F0380910F03823038F0E091E002F091F7
:10161000E102099510920F03FF91EF91BF91AF91F5
:101620009F918F917F916F915F914F913F912F91FA
:101630000F900FBE0F901F901895F89484B582609C
:1016400084BD84B5816084BD85B5826085BD85B566
:10165000816085BDEEE6F0E08081816080837894D2
:101660001092140310921503109216031092170390
:101670001092100310921103109212031092130390
:1016800010927D0210920F0381E090E0089589315D
:1016900060F5E82FF0E0EE0FFF1FEF5FFE4F808157
:1016A00021818154E82FEE0FE80FF0E0662371F4FA
:1016B00081E090E002C0880F991F2A95E2F721A1EE
:1016C000282B21A3809592A198230CC081E090E063
:1016D00002C0880F991F2A95E2F791A1982B91A338
:1016E00092A1982B92A381E0089580E0089589311A
:1016F00010F5E82FF0E0EE0FFF1FEF5FFE4F808147
:101700008154A3E08A9FD001112421E030E00180C0
:1017100002C0220F331F0A94E2F7922F9095919600
:101720008C919197892391968C93919790968C9117
:1017300090978223089580E008951F93182F61E009
:10174000A6DF812F60E0A3DF1F9108958C3020F584
:10175000E82FF0E0E858FE4FE49186E880937A00A5
:101760008E2F8072806880937B00EF7180913301AF
:10177000E82BE0937C0086EC80937A0080917A00DD
:1017800086FDFCCF2091780030917900932F80E086
:1017900030E0282B392B02C020E030E0C901089549
:1017A0008FB7F894209110033091110340911203E8
:1017B000509113038FBFB901CA0108959FB7F894E0
:1017C0002091140330911503409116035091170393
:1017D00086B5A89B06C08F3F21F02F5F3F4F4F4F2C
:1017E0005F4F9FBF542F432F322F2227280F311DC9
:1017F000411D511D62E0220F331F441F551F6A9582
:10180000D1F7B901CA0108958CE69CE19093BB021F
:101810008093BA0289E79CE19093B5028093B40269
:1018200084E79CE19093D3028093D2028EE79CE1FF
:101830009093CF028093CE0281E99CE19093B7020E
:101840008093B6028CE89CE19093BD028093BC0229
:1018500081E008958091E80080FFFCCF089581E049
:101860008093D70080EA8093D80082E189BD09B4D3
:1018700000FEFDCF80E98093D8001092E000109226
:101880007E0210927F028CE08093E20078940895AB
:1018900080917E0208958FB7F89490917E029923EB
:1018A00069F093E09093E9002BE69091E80095FDB4
:1018B00009C092FF03C02093E800F7CF8FBF2FEF3E
:1018C0003FEF0BC02091F1009091E80095FD03C01F
:1018D0009BE69093E8008FBF30E0C90108958091A6
:1018E0007E02882371F08FB7F89493E09093E9001B
:1018F0009BE602C09093E8002091E80025FDFACF16
:101900008FBF089590917E029923D1F19FB7F894EB
:1019100024E02093E90020918102222341F02091CC
:10192000E80025FD02C09FBF2BC0109281022091CC
:10193000E400275E34E04091E80045FD12C09FBFFF
:101940009091E400921721F481E08093810218C005
:1019500090917E029923B1F09FB7F8943093E900FB
:10196000EACF8093F1008091E80085FD03C08AE30F
:101970008093E80085E0809380029FBF80E0089517
:101980008FEF08958FEF089580917F0208951F9241
:101990000F920FB60F9211248F939F938091E100C5
:1019A0001092E10083FF11C01092E90091E0909342
:1019B000EB001092EC0092E19093ED0098E0909390
:1019C000F00010927E0210927F0282FF13C080917D
:1019D0007E02882379F080918002882359F081501B
:1019E00080938002882331F484E08093E9008AE3C5
:1019F0008093E8009F918F910F900FBE0F901F90E2
:101A000018951F920F920FB60F921124EF92FF922A
:101A10000F931F932F933F934F935F936F937F93F6
:101A20008F939F93AF93BF93EF93FF93DF93CF93E6
:101A30000F92CDB7DEB71092E9008091E80083FFE6
:101A400029C12091F1003091F1008091F100E82E40
:101A5000FF244091F100942F80E0E82AF92A0091B8
:101A6000F10010E04091F100942F80E0082B192B39
:101A70006091F100A091F10082EF8093E800363090
:101A800009F059C08BE891E09C0125503040FC01E1
:101A90003797459154914E155F05F9F4F901459139
:101AA000549140175107C9F42E5F3F4FF9018591BA
:101AB00094912E5F3F4FF9012491462F50E07A2FE9
:101AC00060E0462B572B4F3F510519F010F04FEFB8
:101AD00050E0421750F4242F08C00796295F3F4F6B
:101AE000F1E0853B9F0799F6D5C0AEEF4091E80045
:101AF00050E0BA016570707061157105B9F342FD6F
:101B0000CCC0322F213108F030E1AC01632F07C087
:101B1000FA014F5F5F4FE491E093F100615066235B
:101B2000B9F7830F911D231BA093E8002223F1F640
:101B30003031E1F2B2C0353049F48EEF8093E800E5
:101B400089DE8E2D80688093E300A7C0393051F57F
:101B5000222309F09FC0E0927E0210927F02109231
:101B600080028EEF8093E80041E08EEA91E040939E
:101B7000E900FC010196E491E093EB00EE2369F0AB
:101B80009C012F5F3F4FFC0184918093EC00C901C1
:101B90000196F90124912093ED004F5F453039F70C
:101BA0008EE173C0383049F4203809F073C052DE3A
:101BB00080917E028093F10045C0313271F4213A68
:101BC00009F068C047DEE4E3F1E081918093F10021
:101BD00021E0EB33F207C9F735C03032A1F42132EE
:101BE00009F058C08091E80082FFFCCFE4E3F1E007
:101BF0008091F100819331E0EB33F307C9F78BEF6C
:101C00008093E8001FC0323239F4213209F042C01B
:101C1000E0927F021FDE16C03323C1F429831ADE4F
:101C20002981223851F40093E9009091EB0081E082
:101C300095FF80E01092E90001C080E08093F10000
:101C40001092F1008EEF8093E80027C0313011F040
:101C5000333001F52230F1F4E114F104D9F40F77B7
:101C6000802F81508430B0F48EEF8093E800009391
:101C7000E900333079F089E18093EB0081E090E076
:101C800002C0880F991F0A95E2F78093EA0010922C
:101C9000EA0003C081E28093EB000F90CF91DF91C7
:101CA000FF91EF91BF91AF919F918F917F916F9134
:101CB0005F914F913F912F911F910F91FF90EF9066
:101CC0000F900FBE0F901F901895109284021092E3
:101CD000850210928602109287021092880210925A
:101CE00082028FEF8093830281E008951F93CF9348
:101CF000DF9380E088D3EC0180E090E08DD3909179
:101D00008202992331F5E091D002F091D102099538
:101D1000182FE091A002F091A10280E0099588239C
:101D2000A9F4E091B802F091B90209958CE0189FEE
:101D3000C00111248C0F9D1F60E040E00E94AB1891
:101D4000E091F002F091F10209951FEF10938302E8
:101D50001BC080918302992787FD9095FC01EE0FAF
:101D6000FF1FE80FF91FEE0FFF1FEE0FFF1FEC0F15
:101D7000FD1F0284F385E02D0995882329F4109234
:101D800082028FEF80938302809183028F3FC9F09C
:101D9000909182029923A9F491E09093820299276D
:101DA00087FD9095FC01EE0FFF1FE80FF91FEE0F66
:101DB000FF1FEE0FFF1FEC0FFD1F0084F185E02DCC
:101DC0000995E091A002F091A10281E00995882394
:101DD00009F43DC0E091A002F091A10282E00995D2
:101DE0008823A9F180918402813021F51ED39B01C3
:101DF000AC018091850290918602A0918702B091FA
:101E0000880284529A4FAF4FBF4F281739074A07AD
:101E10005B0740F1109284021092850210928602B4
:101E20001092870210928802109282028FEF8093A4
:101E3000830218C081E080938402F7D26093850208
:101E40007093860280938702909388020BC0EDD234
:101E50006093850270938602809387029093880234
:101E600010928402DF91CF911F91089583E391E056
:101E700090938A02809389028CEC90E090938C027C
:101E800080938B0281E0089580E060CCCF93DF9354
:101E9000EC011C821D821E821F82188619861A86FA
:101EA0001B868CDC688379838A839B83DF91CF9147
:101EB0000895CF93DF93EC0181DC9B01AC016C832F
:101EC0007D838E839F8388819981AA81BB81281B12
:101ED000390B4A0B5B0B288739874A875B87B90127
:101EE000CA01DF91CF9108954F925F926F927F92D6
:101EF0008F929F92AF92BF92CF92DF92EF92FF921A
:101F00000F931F93DF93CF93CDB7DEB728970FB60C
:101F1000F894DEBF0FBECDBF5B016C01E42E1982C9
:101F20001A821B821C821D821E821F821886D7FE87
:101F300007C066277727CB016A197B098C099D09A1
:101F4000FF248E010F5F1F4F2AE0622E712C812C1F
:101F5000912C28014F0C511CA40193010E94EB1BF2
:101F6000605DF2016083F394B901CA011616170689
:101F70001806190674F32F2D30E0F0FE0AC0D801C0
:101F8000A90141505040F801E40FF51F80E090E0B6
:101F900026C0D801A90141505040F801E40FF51FB7
:101FA00080E090E00CC00C910196BA0160806D92C7
:101FB000008331974150504086179707A1F0821750
:101FC00093078CF310C06C90BA0140804D926082F0
:101FD00001963197415050400617170721F08C01A8
:101FE0008217930784F3CE010196FC01EF0DF11DDA
:101FF0001082FE2DFB3051F02E2D2A3041F4D7FEF9
:1020000003C08DE492E02DDACE010196A0DA289685
:102010000FB6F894DEBF0FBECDBFCF91DF911F91F9
:102020000F91FF90EF90DF90CF90BF90AF909F9077
:102030008F907F906F905F904F9008950F93E091F5
:10204000B802F091B90280E0099582E062E044E0D4
:1020500024E009E0A9D78AE062E044E024E0A4D7C4
:1020600087E067E042E022E09FD782E06CE04DE04D
:102070002CE0FFD781E06AE041E02BE0FAD78EE068
:102080006AE04EE02BE0F5D7E091F002F091F1022A
:10209000099581E00F910895EF92FF920F931F939E
:1020A000E091A002F091A10283E00995182FE09140
:1020B000A002F091A10280E00995E82EE091A00233
:1020C000F091A10281E00995F82EE091A002F09133
:1020D000A10282E00995082FE091B802F091B902BF
:1020E00080E00995812F6AE00E94AA1B182F809139
:1020F0008D02811751F08EEA96E049E150E060E0F0
:1021000070E00E94F90710938D02EE2041F0E091FB
:10211000CC02F091CD0283E060E041E00995FF2020
:1021200041F0E091CC02F091CD0284E060E041E02A
:102130000995002341F0E091CC02F091CD0285E0B9
:1021400060E041E00995812F992787FD9095880FE0
:10215000991FE091B202F091B302855C9E4F63E05B
:1021600045E020E000E00995E091F002F091F102F5
:10217000099581E01F910F91FF90EF90089580E104
:1021800080931D03109218031092190310921A03E2
:1021900010921B03E091A002F091A10283E0099547
:1021A00080931C030895E091B802F091B90280E099
:1021B000099584E891E060911D0340E0CCD787E069
:1021C00067E040E02FE055D788E067E04FE02FE080
:1021D00050D7E091F002F091F102099526D19B01D0
:1021E000AC018091180390911903A0911A03B0914A
:1021F0001B0382179307A407B50708F580911D03F9
:10220000815080931D038C3E19F480E180931D035F
:10221000E091A002F091A10283E0099580931C0354
:1022200004D120911C03620F711D811D911D6093CB
:1022300018037093190380931A0390931B0381E092
:1022400008950F93E091B802F091B90280E00995EA
:10225000E091D002F091D10289E00995992787FD9C
:102260009095880F991FE091B202F091B3028159C5
:102270009E4F63E045E020E000E00995E091F00228
:10228000F091F102099581E00F910895E091B80273
:10229000F091B90280E00995F7DD9C01B90188272A
:1022A00077FD8095982F0E94011A20E030EC4FE7CF
:1022B00054E40E94661920E030E040E851E40E94B6
:1022C000081B0E94CE19462F80E060E020E0D1D6A6
:1022D000E091F002F091F102099581E00895CF9329
:1022E000DF9341D68AEF91E09093EF028093EE0264
:1022F00089EF97E09093FF028093FE0289EE99E0C8
:102300009093A1028093A00287E09AE09093D1027B
:102310008093D002CEE1D3E0CE016AE871E00E9462
:10232000651C8CE490E1909327038093260390939F
:10233000290380932803CE010C966EE871E00E9479
:10234000651C8EE190E19093330380933203909368
:10235000350380933403CE01489663E971E00E940F
:10236000651C8FEB90E190933F0380933E0383EDD8
:1023700090E19093410380934003CE01849668E9F5
:1023800071E00E94651C86E491E190934B03809379
:102390004A0390934D0380934C03CE01C0966DE9A0
:1023A00071E00E94651C81E291E190935703809354
:1023B00056039093590380935803CE01CC9662EA5A
:1023C00071E00E94651C8EE192E19093630380931B
:1023D000620384E597E1909365038093640386E646
:1023E00093E067EA71E00E94651C8CE897E19093A6
:1023F0006F0380936E03909371038093700381E069
:10240000DF91CF910895882319F42EE133E002C0C3
:1024100020E030E0C9010895882319F427E030E076
:1024200002C020E030E0C901089560919C027091E3
:102430009D0280919E0290919F02089586E0809374
:102440007303109274038093850310928603109295
:1024500072038091720390917303A0917403B09101
:10246000750381608093720390937303A093740348
:10247000B0937503DADFDC01CB018093870390937F
:102480008803A0938903B0938A030C945A1CEF929B
:10249000FF920F931F93DF93CF930F92CDB7DEB7C9
:1024A0008C017B018091720390917303A09174035E
:1024B000B091750382FF11C01092BE011092BF014E
:1024C0001092C0011092C1018B7F80937203909390
:1024D0007303A0937403B09375038091BE01909130
:1024E000BF01A091C001B091C101883B6BE096078C
:1024F00060E0A60760E0B60758F0F80181818A30F5
:102500002CF4F70181818A300CF496C097DF94C0D7
:10251000280F391F4A1F5B1F2093BE013093BF0154
:102520004093C0015093C101283BFBE03F07F0E01E
:102530004F07F0E05F0788F080917203909173037A
:10254000A0917403B091750381608093720390939E
:102550007303A0937403B0937503E091B802F091F4
:10256000B90280E00995F80181818A300CF052C0EF
:10257000F70181818A300CF055C080E067E04FE0C0
:1025800027E077D580E068E04FE028E072D51A8236
:102590008091720381FF14C08091BE019091BF01B0
:1025A000A091C001B091C1018D3DF5E09F07F0E021
:1025B000AF07F0E0BF0720F4F8018181815D03C01F
:1025C000F8018181805D8983CE01019668E041E058
:1025D000C2D58091720381FD14C08091BE0190919B
:1025E000BF01A091C001B091C1018D3DF5E09F07F1
:1025F000F0E0AF07F0E0BF0720F4F7018181815DD3
:1026000003C0F7018181805D8983CE01019668E076
:102610004AE011C08CEA91E060E040E09CD581EB9B
:1026200091E007C086EB91E060E040E094D58AEB52
:1026300091E060E048E08FD50F90CF91DF911F913E
:102640000F91FF90EF9008956F927F928F929F92DB
:10265000AF92BF92CF92DF92EF92FF920F931F93B0
:102660003B014C01E091B802F091B90280E009957C
:102670006091750370917603809177039091780350
:102680000E946B1B7B018C016091790370917A032E
:1026900080917B0390917C030E946B1B5B016C011A
:1026A000C801B7017BD6E62EC601B50177D6E09109
:1026B000CC02F091CD028E2D41E0099580917303FB
:1026C000482F4D5F6FE02FE0D4D480918503482FD1
:1026D0004D5F60E020E0CDD485E893E063E773E0F0
:1026E000A4019301D4DEE091F002F091F10209958A
:1026F0001F910F91FF90EF90DF90CF90BF90AF9020
:102700009F908F907F906F900895FC018181662348
:1027100069F08F5F81838091720390917303A09120
:102720007403B09175038260877F0BC08F5F8183D4
:102730008091720390917303A0917403B09175031B
:10274000857E8093720390937303A0937403B09378
:1027500075038091720390917303A0917403B091FB
:10276000750384608E7F8093720390937303A093AC
:102770007403B09375030895EF92FF920F931F9324
:10278000CF93DF93EC01CB01BA012091720323FFB9
:1027900026C035D67B018C01288539854A855B8525
:1027A00037D79B01AC01688179818A819B8126D5CD
:1027B000688379838A839B83C801B7012C853D8513
:1027C0004E855F8525D79B01AC016C817D818E8113
:1027D0009F8114D56C837D838E839F832FC021FFBF
:1027E00015C060918503772767FD70956F5F7F4FF8
:1027F000882777FD8095982F04D6688379838A830C
:102800009B8380E090E0A0E0B0E414C0609173038B
:10281000772767FD70956F5F7F4F882777FD8095DD
:10282000982FEFD5688379838A839B8380E090E03B
:10283000A0E5B1E48C839D83AE83BF83DF91CF910C
:102840001F910F91FF90EF900895CF93DF93EC01CC
:10285000E091D002F091D1028DE009958883DF915B
:10286000CF9108956F927F928F929F92AF92BF9275
:10287000CF92DF92EF92FF920F931F933B014C0197
:1028800079018A010E94571C9C01B901882777FDB4
:102890008095982FB6D55B016C0160E07EEF8FEFDD
:1028A00096E4A801970112D59B01AC01C601B501C0
:1028B0000DD59B01AC01C401B301A0D41F910F91B0
:1028C000FF90EF90DF90CF90BF90AF909F908F9050
:1028D0007F906F9008951F938091720383FD4CC089
:1028E00081FD4AC0E091A002F091A10282E0099529
:1028F000882309F441C08091720390917303A091E1
:102900007403B0917503886080937203909373038E
:10291000A0937403B093750388DD162F66EA7BE9F4
:1029200084E49BE326EA3BE944E45CE39BDF6093B9
:102930007D0370937E0380937F039093800310FD4B
:1029400009C0905860937D0370937E0380937F034A
:102950009093800366EA7BE984E49BE326EA3BE903
:1029600044E45CE37FDF90586093810370938203BB
:1029700080938303909384031F910895CF92DF92F5
:10298000EF92FF921F93CF93DF93EC0180918E0221
:10299000840F80938E02853608F4BCC010928E029C
:1029A0008091720383FF31C0C0907503D09076038D
:1029B000E0907703F09078031881612F772767FD07
:1029C0007095872F972F1DD59B01AC01C701B601CC
:1029D00079D487FF04C01116C4F4115015C0612FBB
:1029E000772767FD70956D5F7F4F882777FD80950E
:1029F000982F07D59B01AC01C701B60105D6181663
:102A000024F41C3014F41F5F18838091720381FF3B
:102A10001FC084FD1DC060E070E0CB0120E030E00D
:102A200040E451E41FDF28D5BED460938F0280912B
:102A3000720390917303A0917403B0917503806148
:102A40008093720390937303A0937403B093750300
:102A50008091720384FF5EC083FD5CC081FF5AC019
:102A60004881242F332727FD309580918F0290E0F5
:102A70008217930714F4415004C02817390714F43F
:102A80004F5F48832881332727FD30952817390762
:102A900009F040C08091720390917303A091740378
:102AA000B091750388608093720390937303A09331
:102AB0007403B0937503B9DC162F66EA7BE984E4EE
:102AC0009BE326EA3BE944E45CE3CCDE60937D03D0
:102AD00070937E0380937F039093800310FD09C061
:102AE000905860937D0370937E0380937F0390934F
:102AF000800366EA7BE984E49BE326EA3BE944E45D
:102B00005CE3B0DE60938103709382038093830360
:102B100090938403DF91CF911F91FF90EF90DF900E
:102B2000CF900895EF92FF920F931F93CF93DF936F
:102B3000EC01E884F9840A851B856FE672E183E87D
:102B40009AEB2FE632E143E85AE38CDE9B01AC01BD
:102B5000C801B70153D3688779878A879B87EC843C
:102B6000FD840E851F856FE672E183E89AEB2FE600
:102B700032E143E85AE376DE9B01AC01C801B701BC
:102B80003DD36C877D878E879F87DF91CF911F9183
:102B90000F91FF90EF900895AF92BF92CF92DF9286
:102BA000EF92FF920F931F93CF93DF936091750382
:102BB0007091760380917703909178038CD520E013
:102BC00030E040E751E420D51816ECF480E090E0C6
:102BD000A0E7B1E48093750390937603A093770305
:102BE000B093780380917D0390917E03A0917F0341
:102BF000B0918003B05880937D0390937E03A0939F
:102C00007F03B09380036091750370917603809188
:102C10007703909178035FD520E030E0A90152D38B
:102C200087FF1CC080E090E0DC01809375039093E7
:102C30007603A0937703B093780380917D039091FE
:102C40007E03A0917F03B0918003B05880937D03F1
:102C500090937E03A0937F03B0938003E090790369
:102C6000F0907A0300917B0310917C03C801B701B7
:102C700020E030E040E651E4C7D418160CF06CC0F8
:102C8000C801B70120E030E040E751E41BD387FFE3
:102C900063C0C5E7D3E0A0907503B0907603C09001
:102CA0007703D0907803E09073036E2D772767FD4C
:102CB0007095872F972FA5D39B01AC01C601B50155
:102CC000A3D487FDC5C06E2D772767FD70956D5F16
:102CD0007F4F882777FD8095982F93D39B01AC0178
:102CE000C601B501EFD218160CF4B2C0E090810312
:102CF000F0908203009183031091840317FB1095D9
:102D000017F9109580E090E0A0E6B1E48093790394
:102D100090937A03A0937B03B0937C0360917D032F
:102D200070917E0380917F039091800322E630E1D1
:102D300040E85FE36DD4688779878A879B87C801FD
:102D4000B70122E630E140E85FE362D46C877D871B
:102D50008E879F87CE017BC0C801B70120E030E09D
:102D600040E85FE3AFD287FF73C0C801B70120E03E
:102D700030E0A90149D418160CF06AC0A090750380
:102D8000B0907603C0907703D0907803E0908503ED
:102D90006E2D772767FD7095872F972F32D39B0174
:102DA000AC01C601B50130D487FD52C06E2D772726
:102DB00067FD70956D5F7F4F882777FD8095982F11
:102DC00020D39B01AC01C601B5017CD218160CF4CE
:102DD0003FC0E0908103F090820300918303109143
:102DE000840317FB109517F9109580E090E0A0E898
:102DF000BFE38093790390937A03A0937B03B0930E
:102E00007C0360917D0370917E0380917F0390919C
:102E1000800322E630E140E85FE3FAD360937D036C
:102E200070937E0380937F0390938003C801B70162
:102E300022E630E140E85FE3EBD3609381037093D7
:102E40008203809383039093840385E793E06ADE93
:102E5000E0907903F0907A0300917B0310917C035A
:102E6000C801B70120E030E0A9012CD287FF04C0DF
:102E700083E793E060E00CC0C801B70120E030E0D8
:102E800040E851E4C1D3181624F485E893E061E0EA
:102E90003CDCDF91CF911F910F91FF90EF90DF907D
:102EA000CF90BF90AF900895EF92FF920F931F9332
:102EB000BCDA2091870330918803409189035091B7
:102EC0008A037B018C01E21AF30A040B150B609351
:102ED0008703709388038093890390938A0380917A
:102EE000720380FF11C085E793E0B801A70144DCBD
:102EF00083E793E0B801A701A8DC85E893E0B80177
:102F0000A7013CDDE8DC48DEC801B7019DDB1F916D
:102F10000F91FF90EF9008950F931F93E091D002CF
:102F2000F091D10280E50995182FE091B802F09157
:102F3000B90280E00995812F90E0E091B202F09112
:102F4000B30225E0880F991F2A95E1F760E140E17F
:102F500020E000E00995E091F002F091F10209957E
:102F60001F910F91089510928B0382EC94E090933F
:102F7000CD028093CC0281E295E09093B0028093E1
:102F8000AF028EED95E09093B3028093B20283E599
:102F900096E09093B9028093B80281EA94E090930E
:102FA000F1028093F0020895CF92DF92EF92FF92A8
:102FB0000F931F93DF93CF930F92CDB7DEB7182FE8
:102FC000F62E80310CF04BC060310CF048C0D42E8E
:102FD000D80EE22EEF0C083011F00A30C1F4F7FCE5
:102FE000FF2417FD10E091E0083069F090E00BC07D
:102FF000802F6F2D492F99830E94C2040F5F998102
:103000000D15B4F3F394FE1454F5012FF9CF0930E4
:1030100031F5F7FE02C0FF24FA9417FD1FEF0F2DC4
:10302000CD2CCA940BC0812F602F41E00E94C204B6
:103030008C2D602F41E00E94C2040F5F0E159CF39F
:10304000EA940BC0812F6F2D41E00E94C204812FB2
:103050006E2D41E00E94C2041F5F1D159CF30F906E
:10306000CF91DF911F910F91FF90EF90DF90CF9064
:103070000895AF92BF92CF92DF92EF92FF920F939B
:103080001F93DF93CF9300D00F92CDB7DEB7142FED
:10309000E42FFF27E7FDF095482F552747FD509572
:1030A000E41BF50BF7FF03C0F095E195FF4FDE2E13
:1030B000E22FFF27E7FDF095A62FBB27A7FDB095D0
:1030C000EA1BFB0BF7FF03C0F095E195FF4F4E2F76
:1030D000CE2E0D2D0E1B811714F491E001C09FEF31
:1030E000621714F431E001C03FEFE62EF82E5527A9
:1030F00047FD5095AA24BB24A41AB50A8F2D6E2D26
:1031000041E02B833A8399830E94C2042B813A8148
:103110009981F11611F4E21681F0802F880F482F63
:10312000552747FD5095A416B50614F40C19F90E51
:103130008D1524F70D0DE30EE1CF0F900F900F903A
:10314000CF91DF911F910F91FF90EF90DF90CF9083
:10315000BF90AF900895AF92BF92DF92EF92FF922F
:103160000F931F93CF93DF93182FF42EE82FF92F8F
:10317000DF010D900020E9F7DA2ED81A4EEFA42EC9
:10318000DA0CE62E412FEA015E01B92EE50127C0D7
:103190008991982F91549A3140F4992787FD909501
:1031A000880F991F87549F4F0BC0982F90539A30C8
:1031B00050F4992787FD9095880F991F815F9E4F46
:1031C00063E045E004C083E891E062E043E02E2D37
:1031D0000F2D0E94DE050E94FA0134E0E30EAE01DD
:1031E000411BD416ACF6DF91CF911F910F91FF9048
:1031F000EF90DF90BF90AF9008955058BB27AA275B
:103200000ED0B1C1A2D130F0A7D120F031F49F3F50
:1032100011F41EF497C10EF4E095E7FB64C1E92FA9
:10322000B3D180F3BA17620773078407950718F0C4
:1032300071F49EF5E2C10EF4E0950B2EBA2FA02D8D
:103240000B01B90190010C01CA01A0011124FF2753
:10325000591B99F0593F50F4503E68F11A16F0404E
:10326000A22F232F342F4427585FF3CF469537954D
:103270002795A795F0405395C9F77EF41F16BA0B12
:10328000620B730B840BBAF09150A1F0FF0FBB1FC0
:10329000661F771F881FC2F70EC0BA0F621F731F09
:1032A000841F48F4879577956795B795F7959E3F66
:1032B00008F0B3CF9395880F08F09927EE0F9795F4
:1032C00087950895ECD008F481E008950CD04BC1A7
:1032D00043D140F03AD130F021F45F3F19F003C1FF
:1032E00051118CC12FC150D198F39923C9F35523A3
:1032F000B1F3951B550BBB27AA27621773078407E9
:1033000038F09F5F5F4F220F331F441FAA1FA9F39E
:1033100033D00E2E3AF0E0E830D091505040E69590
:10332000001CCAF729D0FE2F27D0660F771F881FF1
:10333000BB1F261737074807AB07B0E809F0BB0BE0
:10334000802DBF01FF2793585F4F2AF09E3F510504
:1033500068F0C9C053C15F3FECF3983EDCF386953B
:1033600077956795B795F7959F5FC9F7880F911D7A
:103370009695879597F90895E1E0660F771F881F66
:10338000BB1F621773078407BA0720F0621B730B19
:10339000840BBA0BEE1F88F7E095089504D068946B
:1033A000B1112CC10895F8D088F09F5790F0B92F33
:1033B0009927B751A0F0D1F0660F771F881F991F8A
:1033C0001AF0BA95C9F712C0B13081F016D1B1E048
:1033D000089513C1672F782F8827B85F39F0B93F58
:1033E000CCF3869577956795B395D9F73EF490958C
:1033F0008095709561957F4F8F4F9F4F0895E8940A
:1034000009C097FB3EF490958095709561957F4F2C
:103410008F4F9F4F9923A9F0F92F96E9BB279395DA
:10342000F695879577956795B795F111F8CFFAF4EA
:10343000BB0F11F460FF1BC06F5F7F4F8F4F9F4F1B
:1034400016C0882311F096E911C0772321F09EE879
:10345000872F762F05C0662371F096E8862F70E0DF
:1034600060E02AF09A95660F771F881FDAF7880FB9
:103470009695879597F90895A9D080F09F3740F4E5
:1034800091110EF0BBC060E070E080E89FEB089502
:1034900026F41B16611D711D811D2BC045C0990F9F
:1034A0000008550FAA0BE0E8FEEF16161706E8070E
:1034B000F907C0F012161306E407F50798F0621B2F
:1034C000730B840B950B39F40A2661F0232B242B04
:1034D000252B21F408950A2609F4A140A6958FEF23
:1034E000811D811D089597F99F6780E870E060E075
:1034F0000895882371F4772321F09850872B762F35
:1035000007C0662311F499270DC09051862B70E0F7
:1035100060E02AF09A95660F771F881FDAF7880F08
:103520009695879597F908959F3F31F0915020F433
:10353000879577956795B795880F911D969587958F
:1035400097F908959FEF80EC089500240A941616C9
:10355000170618060906089500240A941216130681
:10356000140605060895092E0394000C11F488230F
:1035700052F0BB0F40F4BF2B11F460FF04C06F5F2B
:103580007F4F8F4F9F4F089557FD9058440F551F01
:1035900059F05F3F71F04795880F97FB991F61F0D5
:1035A0009F3F79F087950895121613061406551F4C
:1035B000F2CF4695F1DF08C0161617061806991FB8
:1035C000F1CF86957105610508940895E5DFA0F0B7
:1035D000BEE7B91788F4BB279F3860F41616B11DF3
:1035E000672F782F8827985FF7CF8695779567950F
:1035F000B11D93959639C8F30895E894BB276627C3
:103600007727CB0197F908954ADF08F48FEF0895E3
:103610000BD0A9CF9ADF28F09FDF18F0952309F08F
:1036200062CF90CF1124EACFAFDFA0F3959FD1F303
:10363000950F50E0551F629FF001729FBB27F00D60
:10364000B11D639FAA27F00DB11DAA1F649F6627B5
:10365000B00DA11D661F829F2227B00DA11D621F04
:10366000739FB00DA11D621F839FA00D611D221FBE
:10367000749F3327A00D611D231F849F600D211DA2
:10368000822F762F6A2F11249F5750408AF0E1F045
:1036900088234AF0EE0FFF1FBB1F661F771F881F8E
:1036A00091505040A9F79E3F510570F01CCFA6CF16
:1036B0005F3FECF3983EDCF3869577956795B79579
:1036C000F795E7959F5FC1F7FE2B880F911D9695A3
:1036D000879597F9089560DFE0F09E37D8F0963926
:1036E000B8F49E3848F4672F782F8827985FF9CF71
:1036F00086957795679593959539D0F3B62FB170E8
:103700006B0F711D811D20F48795779567959395B3
:10371000F0CE0ACF73CF629FD001739FF001829FDA
:10372000E00DF11D649FE00DF11D929FF00D839F50
:10373000F00D749FF00D659FF00D9927729FB00DED
:10374000E11DF91F639FB00DE11DF91FBD01CF0100
:1037500011240895991B79E004C0991F961708F069
:10376000961B881F7A95C9F78095089597FB092EB7
:1037700007260AD077FD04D049D006D000201AF4DD
:10378000709561957F4F0895F6F7909581959F4FBD
:103790000895A1E21A2EAA1BBB1BFD010DC0AA1F92
:1037A000BB1FEE1FFF1FA217B307E407F50720F0AA
:1037B000A21BB30BE40BF50B661F771F881F991F25
:1037C0001A9469F760957095809590959B01AC016E
:1037D000BD01CF01089597FB092E05260ED057FD98
:1037E00004D0D7DF0AD0001C38F4509540953095AE
:1037F00021953F4F4F4F5F4F0895F6F79095809575
:10380000709561957F4F8F4F9F4F0895AA1BBB1BEB
:1038100051E107C0AA1FBB1FA617B70710F0A61BD0
:10382000B70B881F991F5A95A9F780959095BC01F1
:10383000CD010895A0E0B0E0EFE1FCE18DC0EC0126
:10384000688179818A819B81611571058105910566
:1038500021F464E279ED8BE597E02DE133EF41E06F
:1038600050E0B9DF79018A0127EA31E440E050E015
:1038700052DF5B016C01C801B7012CEE34EF4FEF52
:103880005FEF49DF6A0D7B1D8C1D9D1D97FF04C0F6
:103890006150704080409048688379838A839B831D
:1038A0007F77CB01CDB7DEB7EAE072C0C3CF82EC41
:1038B00091E0C0CFA0E0B0E08093C2019093C3013B
:1038C000A093C401B093C5010895FB01DC010190F0
:1038D0000D920020E1F70895F999FECF92BD81BDC8
:1038E000F89A992780B50895A6E1B0E044E050E049
:1038F0001DC0A8E1B0E042E050E018C0262FF999C1
:10390000FECF1FBA92BD81BD20BD0FB6F894FA9AC2
:10391000F99A0FBE01960895242FF1DF252FEFDFCE
:1039200000C0ECDF272FEBCFDC01CB01FC01F999C4
:10393000FECF06C0F2BDE1BDF89A319600B40D92FB
:1039400041505040B8F708952F923F924F925F92A6
:103950006F927F928F929F92AF92BF92CF92DF929F
:10396000EF92FF920F931F93CF93DF93CDB7DEB704
:10397000CA1BDB0B0FB6F894DEBF0FBECDBF099498
:103980002A88398848885F846E847D848C849B84EF
:10399000AA84B984C884DF80EE80FD800C811B81FD
:1039A000AA81B981CE0FD11D0FB6F894DEBF0FBE2C
:0A39B000CDBFED010895F894FFCF9C
:1039BA00FF420042014202420342074400440144DA
:1039CA0002440343064307440644074204420542AD
:1039DA000646074606460546044601460044044490
:1039EA000545064000E1000000000857DAD75C727E
:1039FA0046D6DCF34EF34872D6B7DAE92E24D4B7AA
:103A0A005A924EBEDAD6DA56D4D74856E6D75A7103
:103A1A001CE924B6DEB6D4B6FAB55AB524E54EF694
:103A2A00DE592EC54EC51CB792F31CF3DEE524F70A
:103A3A00DEF792D448454C4C4F00494E5000534D46
:103A4A004C59005354585400424154540057454568
:103A5A004C00504F4E47004D454D5600434F4D5078
:103A6A000057494E5300594F550057494E00B90B5C
:063A7A0000000100000045
:00000001FF
