:1000000029C1000043C1000041C100003FC1000000
:100010003DC100003BC1000039C1000037C10000F4
:1000200035C1000033C100000C94780D0C94B20D62
:100030002DC100002BC1000029C1000027C1000014
:1000400025C1000023C1000021C100001FC1000024
:100050001DC100001BC1000019C100000C94E30B7E
:1000600015C1000013C1000011C100000FC1000044
:100070000DC100000BC1000009C1000007C1000054
:1000800005C1000003C1000001C10000FFC0000065
:10009000FDC00000FBC00000F9C00000F7C0000078
:1000A000F5C00000F3C00000F1C000002D2D2D2D83
:1000B0002D2D2D2D2D2D2D2D2D2D2D2D2D2D2D2D70
:1000C0002D0D0A000D0A0047616D652041766720FD
:1000D00054696D653A20000D0A00536F756E6420F7
:1000E0004176672054696D653A20000D0A00446925
:1000F00073706C6179204176672054696D653A2090
:10010000000D0A00496E70757420417667205469AD
:100110006D653A20000D0A00436F6E736F6C6520A9
:100120004176672054696D653A20002D2D2D2D50A4
:10013000726F66696C657220446174612D2D2D2D7E
:100140000D0A000D0A544D4F4F53205465726D69CE
:100150006E616C0D0A466F726D61742069733A208E
:10016000636F6D6D616E64206172673120617267CB
:100170003220617267330D0A3E000D0A3E00000115
:100180000405060725242322212000010000BE01CA
:100190001200020000D0014300030000130204011A
:1001A000030904170214020309042D0216030309AC
:1001B0000445020C0001C112018036018136120192
:1001C000000202000010C0167A04000101020301BF
:1001D00009024300020100C03209040000010202CA
:1001E0000100052400100105240101010424020678
:1001F00005240600010705820310004009040100E0
:10020000020A0000000705030240000007058402FF
:1002100040000004030904140359006F00750072C4
:100220000020004E0061006D0065000000160355BF
:100230000053004200200053006500720069006115
:10024000006C0000000C0331003200330034003534
:100250000000000011241FBECFEFDAE0DEBFCDBFEB
:1002600011E0A0E0B1E0EAE5F4E202C005900D92F1
:10027000A039B107D9F712E0A0E9B1E001C01D92A1
:10028000AF39B107E1F7B0D10C942B12B9CEAF92D0
:10029000BF92CF92DF92EF92FF920F931F93182F8E
:1002A0009BD75B016C01112349F46093A401709307
:1002B000A5018093A6019093A7012DC0113059F597
:1002C0008BD79B01AC016093A8017093A901809327
:1002D000AA019093AB018091AC019091AD01A091E6
:1002E000AE01B091AF01E090A401F090A5010091A2
:1002F000A6011091A7018E199F09A00BB10B820FC7
:10030000931FA41FB51F8093AC019093AD01A093E0
:10031000AE01B093AF018091B0019091B101A09175
:10032000B201B091B301A816B906CA06DB0608F4FB
:100330005AC0D601C501805C9D4BA04FBF4F809332
:10034000B0019093B101A093B201B093B301609159
:10035000AC017091AD018091AE019091AF0124E6A6
:1003600030E040E050E00E948B1120E432E44FE0A6
:1003700050E00E94B61184E6982F921B9093B4012E
:10038000953610F08093B4011092AC011092AD013B
:100390001092AE011092AF018091230280FF23C022
:1003A0008091B401823430F0809100018823D9F02B
:1003B00080E016C0982F9C52963130F48091000155
:1003C000813089F081E00CC0895190910001833126
:1003D00020F4923041F082E003C0943021F084E0B8
:1003E00089D7809300011F910F91FF90EF90DF90CC
:1003F000CF90BF90AF900895EF92FF920F931F930D
:1004000032D760931D0270931E0280931F02909357
:10041000200280E03CDF83E492E00E94160F0E94FD
:10042000960AE0909001F090910100919201109154
:10043000930183E492E00E942D0F6E0D7F1D801FBB
:10044000911F60939001709391018093920190931A
:1004500093018091230283FF1DC084E292E00E94F9
:10046000160F91D7E0909401F090950100919601BC
:100470001091970184E292E00E942D0F6E0D7F1D76
:10048000801F911F60939401709395018093960152
:10049000909397018091230282FF21C081E192E035
:1004A0000E94160FE0916102F09162020995E090BE
:1004B0009801F090990100919A0110919B0181E1BE
:1004C00092E00E942D0F6E0D7F1D801F911F609383
:1004D00098017093990180939A0190939B01809168
:1004E000230281FF1DC083E692E00E94160F85D58E
:1004F000E0909C01F0909D0100919E0110919F0160
:1005000083E692E00E942D0F6E0D7F1D801F911FCC
:1005100060939C0170939D0180939E0190939F0135
:1005200081E0B5DE1F910F91FF90EF90089582302A
:1005300071F1833030F4882371F0813009F052C0BA
:1005400018C0883009F447C0893009F447C08330A7
:1005500009F048C032C08091230290912402A091FA
:100560002502B0912602662311F081601DC08E7FA6
:100570001BC08091230290912402A0912502B0918A
:100580002602662311F082600FC08D7F0DC080911E
:10059000230290912402A0912502B09126026623A5
:1005A00011F0846001C08B7F80932302909324021A
:1005B000A0932502B093260213C08091230290914C
:1005C0002402A0912502B0912602662311F08860D2
:1005D000EBCF877FE9CF6093230202C060933202A2
:1005E00081E0089580E008952F923F924F925F92AC
:1005F0006F927F928F929F92AF92BF92CF92DF9233
:10060000EF92FF920F931F93DF93CF93CDB7DEB797
:1006100027970FB6F894DEBF0FBECDBF80E880935A
:100620006100109261009ED58823A1F06AD70097DF
:1006300089F082D4009771F080D6882359F0BDD418
:10064000882341F00E94B50C882321F00E940010FD
:10065000882321F48BE061E0F4D7FFCF10922302CE
:10066000109232021092B0011092B1011092B201B8
:100670001092B3011092B4011092A4011092A5013E
:100680001092A6011092A7011092A8011092A90140
:100690001092AA011092AB011092AC011092AD0120
:1006A0001092AE011092AF0180E060E040DF81E087
:1006B00060E03DDF82E061E03ADF83E061E037DF68
:1006C00083E060E091D388E06CE38ED383E792E02F
:1006D0000E94160F91DE85E592E00E94160F0E949F
:1006E000B10FE090A001F090A1010091A201109142
:1006F000A30185E592E00E942D0F6E0D7F1D801FE6
:10070000911F6093A0017093A1018093A201909327
:10071000A30180914102909142020196909342027E
:100720008093410283E792E00E942D0F603422E41F
:1007300072072FE0820720E0920760F283E792E0E1
:100740000E94160FE0904102F090420200E010E09B
:10075000609190017091910180919201909193012B
:10076000A80197010E94B611D22EC32EB42EA52E39
:1007700060919401709195018091960190919701FB
:10078000A80197010E94B611922E39834A835B8398
:10079000609198017091990180919A0190919B01CB
:1007A000A80197010E94B611422E332E242E5C839D
:1007B00060919C0170919D0180919E0190919F019B
:1007C000A80197010E94B611822E732E642E552E19
:1007D0006091A0017091A1018091A2019091A3016B
:1007E000A80197010E94B611E42E8BE291E02D83BF
:1007F0003E835F838ED688E191E08BD66D2D7C2D74
:100800008B2D9A2D4BE00E944C0F85E191E081D613
:1008100084E091E07ED6692D79818A819B814BE0CD
:100820000E944C0F81E091E074D68EEE90E071D67C
:10083000642D732D822D9C814BE00E944C0F8BEE1A
:1008400090E067D68AED90E064D6682D772D862DEE
:10085000952D4BE00E944C0F87ED90E05AD687EC27
:1008600090E057D62D81622F3E81732F8E2D5F81B0
:10087000952F4BE00E944C0F84EC90E04AD68CEA16
:1008800090E047D61092A0011092A1011092A2010F
:100890001092A30110929C0110929D0110929E0152
:1008A00010929F01109298011092990110929A0152
:1008B00010929B0110929401109295011092960152
:1008C0001092970110929001109291011092920152
:1008D000109293011092420210924102FBCE80913D
:1008E000B90182FF1CC02AEB31E04091C401509154
:1008F000C501C90104964217530749F49093C501F5
:100900008093C4015093C3014093C2010895309372
:10091000C5012093C4019093C3018093C20108953F
:100920001F93DF93CF930F92CDB7DEB7863008F0D9
:1009300052C0653008F04FC0162F110F160F110F5F
:10094000180F612F66956695669570E080E090E0DF
:1009500049830E94D2100E940F110E94A61070E0DD
:10096000E091C201F091C301109549814423B9F08F
:10097000E60FF71F177021E030E002C0220F331F8F
:100980001A95E2F7442737FD4095542F80819181D5
:10099000A281B381822B932BA42BB52B18C0E60F19
:1009A000F71F177021E030E002C0220F331F1A95A5
:1009B000E2F720953095442737FD4095542F8081EC
:1009C0009181A281B38182239323A423B5238083C1
:1009D0009183A283B3830F90CF91DF911F910895EC
:1009E0001F938630A8F5653098F5162F110F160F56
:1009F000110F180F612F66956695669570E080E07F
:100A000090E00E94D2100E940F110E94A610E09167
:100A1000C401F091C501E60FF11D1095177021E09A
:100A200030E002C0220F331F1A95E2F7442737FD4A
:100A30004095542F80819181A281B381282339234D
:100A40004A235B2381E0211531054105510509F455
:100A500080E01F910895BF92CF92DF92EF92FF92B4
:100A60000F931F93CF93DF938091B9019091BA01B7
:100A7000A091BB01B091BC0181FD7FC082608093D9
:100A8000B9019093BA01A093BB01B093BC01A4D368
:100A90007B018C01BB24A0D36E157F0580079107D5
:100AA00008F43EC099D37B018C018091B5019091EF
:100AB000B601A091B701B091B801E80EF91E0A1F66
:100AC0001B1FBB2011F485E007C0EB2DFF27E7FDBE
:100AD000F095E050FF4F808160E0B3D5C6E0D1E0F3
:100AE000CC24DD248C2D6B2D7BDF882319F08881AD
:100AF00060E002C0888161E0A4D57EDC0894C11C5E
:100B0000D11C219686E0C816D10461F7EB2DFF2792
:100B1000E7FDF095EF5FFE4F808161E092D5B394E1
:100B20006BDC8B2D85300CF4B6CF56D37B018C015A
:100B30008091B5019091B601A091B701B091B80133
:100B4000E80EF91E0A1F1B1F01C056DC45D3E6162E
:100B5000F70608071907C8F78091B9019091BA0103
:100B6000A091BB01B091BC018D7F8093B90190939E
:100B7000BA01A093BB01B093BC01DF91CF911F914B
:100B80000F91FF90EF90DF90CF90BF9008950F935B
:100B90001F93CF93DF9320D39B01AC018091C601BB
:100BA0009091C701A091C801B091C90128173907D8
:100BB0004A075B0708F44EC0E091CA01EE2311F426
:100BC00085E006C0FF27E7FDF095E050FF4F8081EC
:100BD00060E037D506E011E0C0E0D0E08C2F6091F6
:100BE000CA01FEDE882321F0F801808160E003C0A5
:100BF000F801808161E025D521960F5F1F4FC63037
:100C0000D10561F7E091CA01FF27E7FDF095EF5F9D
:100C1000FE4F808161E015D58091CA018F5F80937E
:100C2000CA01853014F01092CA01D6D22091B501C4
:100C30003091B6014091B7015091B801620F731F16
:100C4000841F951F6093C6017093C7018093C801EC
:100C50009093C901DF91CF911F910F9108950F9348
:100C6000CF93DF93EC01069F002D1124020F602F1C
:100C700066956695669570E0882777FD8095982F34
:100C80000E94D4100E940F110E94A610C60FD11D01
:100C90000095077021E030E002C0220F331F0A9553
:100CA000E2F7442737FD4095542F88819981AA8126
:100CB000BB81282339234A235B2381E02115310599
:100CC0004105510509F480E0DF91CF910F9108951E
:100CD0002F923F924F925F926F927F928F929F924C
:100CE000AF92BF92CF92DF92EF92FF920F931F933A
:100CF000CF93DF933C01A62EC42ED22E102F8091CD
:100D0000B90180FD07C0EE24FF24442E5524262E71
:100D1000332436C0EE24FF24442E5524262E3324BB
:100D200012C0C3016A2D4C2D2C2F0B2D98DF482F9C
:100D30008C2F8D0D692DF4DD2196C215D3058CF312
:100D40000894E11CF11CE414F5041CF5C0E0D0E0AB
:100D5000BE2C9E2C910EF1CFC3016A2D4C2D2C2F51
:100D60000B2D7DDF482F882321F08C2F8D0D692DD1
:100D7000D7DD2196C215D3057CF30894E11CF11C44
:100D8000E414F50434F4C0E0D0E0BE2C9E2C910EA7
:100D9000F1CF81E0DF91CF911F910F91FF90EF9004
:100DA000DF90CF90BF90AF909F908F907F906F908B
:100DB0005F904F903F902F9008954091C2015091C5
:100DC000C301FA0120E030E09FEF882311F4108284
:100DD00004C0DA01A20FB31F9C932F5F3F4F3196DF
:100DE0002430310591F70895833031F1843038F49F
:100DF000882309F446C0823009F098C05EC088306C
:100E000021F0893009F092C07DC025E0629F9001F9
:100E10001124442737FD4095542F60E472E48FE09D
:100E200090E00E94D8112093B5013093B601409311
:100E3000B7015093B8017CC0613081F48BE295E03A
:100E400090936202809361028091B9019091BA01FE
:100E5000A091BB01B091BC0188605FC0662309F01E
:100E600067C087EC95E09093620280936102809165
:100E7000B9019091BA01A091BB01B091BC01877FEB
:100E80004CC0662369F4E091B901F0E08081918162
:100E9000A281B3818E7F80839183A283B38348C074
:100EA000613009F045C08091B9019091BA01A091DB
:100EB000BB01B091BC01816030C06623B9F4E09100
:100EC000B901F0E080819181A281B3818B7F808321
:100ED0009183A283B3838AEB91E09093C3018093C3
:100EE000C2019093C5018093C40122C0613011F505
:100EF0008091B9019091BA01A091BB01B091BC0160
:100F000084600BC06093B9018091B9019091BA01DE
:100F1000A091BB01B091BC018C7F8093B9019093EB
:100F2000BA01A093BB01B093BC0102C080E0089558
:100F300081E0089581E008958AEB91E01092BA0172
:100F40001092BB011092BC011092BD019C012C5F5C
:100F50003F4F1092BE011092BF011092C00110923B
:100F6000C1011092C2019093C5018093C4013093D6
:100F7000C3012093C2011092CA011092C6011092BF
:100F8000C7011092C8011092C90180EA9FE0A0E059
:100F9000B0E08093B5019093B601A093B701B093F0
:100FA000B80183E060E020DF80E061E01DDF82E0E7
:100FB00061E01ADF81E090E0089510928A021092B9
:100FC0008902109285021092860210928702109276
:100FD000880210928F0210928B0210928C02109253
:100FE0008D0210928E021092810210928202109253
:100FF00083021092840281E00895AF92BF92CF9253
:10100000DF92EF92FF920F931F9380918102909154
:101010008202A0918302B09184020097A105B105DC
:1010200009F453C0D9D07B018C0180918502909145
:101030008602A0918702B0918802E816F9060A0795
:101040001B0758F157016801A81AB90ACA0ADB0A36
:1010500080918F02882331F481E080938F028AE0AF
:1010600061E004C010928F028AE060E0EAD28091D1
:10107000890290918A02A0E0B0E08E0D9F1DA01F12
:10108000B11F8A199B09AC09BD0980938502909311
:101090008602A0938702B0938802E5D09B01AC0141
:1010A00080918B0290918C02A0918D02B0918E0262
:1010B000281739074A075B0740F010928102109207
:1010C000820210928302109284021F910F91FF906E
:1010D000EF90DF90CF90BF90AF900895EF92FF9286
:1010E0000F931F937A018B019C0140E050E060E474
:1010F00072E48FE090E00E94D81130938A0220932E
:101100008902B1D06E0D7F1D801F911F60938B02ED
:1011100070938C0280938D0290938E025DD020910B
:10112000890230918A0240E050E0620F731F841FF1
:10113000951F609385027093860280938702909337
:10114000880281E090E0A0E0B0E08093810290937B
:101150008202A0938302B09384021F910F91FF90AB
:10116000EF9008955ED281E08093D301E091370241
:10117000F091380209956093D8017093D90180935A
:10118000DA019093DB01E0912102F09122020995AE
:101190006093CF017093D0018093D1019093D201DD
:1011A000E0913702F091380209956093D401709371
:1011B000D5018093D6019093D701E0912102F0915F
:1011C000220209956093CB017093CC018093CD01ED
:1011D0009093CE0181E00895EF92FF920F931F93B9
:1011E000E0913702F091380209957B018C018091E2
:1011F000D8019091D901A091DA01B091DB01A80149
:101200009701281B390B4A0B5B0BCA01B9012091CE
:10121000D30130E040E050E00E948B119B01AC0113
:101220008091D4019091D501A091D601B091D701C0
:10123000280F391F4A1F5B1F2093D4013093D5011B
:101240004093D6015093D701E092D801F092D90192
:101250000093DA011093DB01B901CA011F910F91CC
:10126000FF90EF900895EF92FF920F931F93E091FC
:101270002102F091220209957B018C018091CF011E
:101280009091D001A091D101B091D201A801970114
:10129000281B390B4A0B5B0BCA01B9012091D30102
:1012A00030E040E050E00E948B119B01AC01809146
:1012B000CB019091CC01A091CD01B091CE01280F2E
:1012C000391F4A1F5B1F2093CB013093CC01409301
:1012D000CD015093CE01E092CF01F092D001009366
:1012E000D1011093D201B901CA011F910F91FF9052
:1012F000EF9008951F93182F882311F481E00FC0F9
:10130000813011F482E00BC0823011F484E007C018
:10131000833011F488E003C0843019F480E18093B5
:10132000D3015ADFA0DFF89480E880936100109326
:1013300061007894812F1F91089588E28093900234
:1013400010929A0210929B0210929C0210929D029F
:10135000109299021092960282E080939502E3E93E
:10136000F2E082E180838CE0818386E990E09093D3
:1013700092028093910282E593E090939802809389
:10138000970281E00895CF92DF92EF92FF920F9340
:101390001F93CF93DF9367DF20919A0230919B02D6
:1013A00040919C0250919D02621773078407950734
:1013B00008F477C020919002620F711D811D911D6C
:1013C00060939A0270939B0280939C0290939D027B
:1013D00080919502CED17C0100E010E0C090970290
:1013E000D0909802B60180E090E06E157F058007EE
:1013F000910778F0209191023091920240E050E004
:10140000C801B701621773078407950710F4CA0172
:10141000B901C0919102D09192029E0140E050E04A
:10142000621B730B840B950B2FEF30E040E050E014
:1014300072D7CC1ADD0A960140E050E097D720938E
:101440009602809193025DD12091990230919A0287
:1014500040919B0250919C02882311F4216001C0AD
:101460002E7F2093990230939A0240939B025093CF
:101470009C028091940245D12091990230919A0268
:1014800040919B0250919C02882311F4226001C07C
:101490002D7F2093990230939A0240939B025093A0
:1014A0009C02DF91CF911F910F91FF90EF90DF9001
:1014B000CF9008958130B9F0813040F08230D9F476
:1014C0002091960230E040E050E018C0209199024F
:1014D00030919A0240919B0250919C022170307091
:1014E000407050700BC08091990221E030E040E0E4
:1014F00050E081FD03C020E030E0A901B901CA013C
:1015000008951092DC011092FD015AD281E090E022
:101510000895CF93DF93EC01FE01219684918823F7
:1015200011F0A1D2F9CFDF91CF9108951F9380914F
:10153000DC0180FD1DC05DD2882309F45EC0D5D2D8
:1015400080FF5BC07DD28091DC019091DD01A09194
:10155000DE01B091DF0181608093DC019093DD01B9
:10156000A093DE01B093DF0183E491E0D2DF45C0B8
:1015700043D2182F8091FD0180328CF4912F90522C
:101580009F3568F4E82FFF27E7FDF095E352FE4F03
:1015900010838F5F8093FD01812F65D210C01D30B5
:1015A00011F01A3061F4E091FD01FF27E7FDF0959D
:1015B000E352FE4F10828AE791E0ABDF1CC019D2E4
:1015C000882329F092D280FF02C0112391F48091E8
:1015D000DC019091DD01A091DE01B091DF018E7FF1
:1015E0008093DC019093DD01A093DE01B093DF01D5
:1015F00004C0143011F41092FD011F9108951F933F
:10160000CF93DF93EC0110E0FE01E10FF11D80812B
:10161000882319F028D21F5FF7CFDF91CF911F9158
:1016200008954DD189E39CE090933802809337026E
:101630008BE29CE0909322028093210281E090E073
:101640000895A82FB0E0662379F5AA0FBB1FA45F09
:10165000BE4FEC91F0E021E030E011960C9002C01A
:10166000220F331F0A94E2F7A901662757FD609500
:10167000762F84A195A1A6A1B7A1842B952BA62B8B
:10168000B72B84A395A3A6A3B7A320953095442791
:1016900037FD4095542F85A196A1A7A1B0A582231F
:1016A0009323A423B52327C0AA0FBB1FA45FBE4F5B
:1016B000EC91F0E021E030E011960C9002C0220F96
:1016C000331F0A94E2F7442737FD4095542F84A135
:1016D00095A1A6A1B7A1822B932BA42BB52B84A3F4
:1016E00095A3A6A3B7A385A196A1A7A1B0A5822B78
:1016F000932BA42BB52B85A396A3A7A3B0A781E01A
:101700000895A82FB0E0AA0FBB1FA45FBE4FEC91B5
:10171000F0E021E030E011960C9002C0220F331F60
:101720000A94E2F7A90140955095662757FD609508
:10173000762F85A196A1A7A1B0A584239523A623E2
:10174000B72385A396A3A7A3B0A7442737FD409549
:10175000542F83A194A1A5A1B6A1282339234A23FC
:101760005B2381E0211531054105510509F480E035
:1017700008958C3020F5E82FF0E0E258FE4FE49118
:1017800086E880937A008E2F8072806880937B0039
:10179000EF7180913E01E82BE0937C0086EC809312
:1017A0007A0080917A0086FDFCCF209178003091FC
:1017B0007900932F80E030E0282B392B02C020E005
:1017C00030E0C90108951F920F920FB60F921124B5
:1017D0002F933F938F939F93AF93BF938091020278
:1017E00090910302A0910402B0910502309106028B
:1017F0000196A11DB11D232F2D5F2D3720F02D57F0
:101800000196A11DB11D20930602809302029093C0
:101810000302A0930402B09305028091FE0190910F
:10182000FF01A0910002B09101020196A11DB11D1E
:101830008093FE019093FF01A0930002B0930102F8
:10184000BF91AF919F918F913F912F910F900FBEBC
:101850000F901F9018958FB7F89420910202309145
:10186000030240910402509105028FBFB901CA01E1
:1018700008959FB7F8942091FE013091FF014091A7
:1018800000025091010286B5A89B06C08F3F21F04F
:101890002F5F3F4F4F4F5F4F9FBF542F432F322F2C
:1018A0002227280F311D411D511D82E0220F331FB9
:1018B000441F551F8A95D1F7B901CA01089578943C
:1018C00084B5826084BD84B5816084BD85B5826045
:1018D00085BD85B5816085BDEEE6F0E080818160E3
:1018E0008083E1E8F0E010828081826080838081E3
:1018F00081608083E0E8F0E0808181608083E1E9BD
:10190000F0E0808182608083808181608083E0E973
:10191000F0E0808181608083E1ECF0E08081846090
:101920008083808182608083808181608083E3EC1A
:10193000F0E0808181608083E0ECF0E08081826073
:101940008083E2ECF0E0808181608083EAE7F0E070
:1019500080818460808380818260808380818160D7
:101960008083808180688083089583EF91E19093E4
:101970003E0280933D0280E092E190933602809394
:1019800035028BEF91E1909354028093530285E0EE
:1019900092E1909352028093510288E192E19093F8
:1019A0003A028093390283E192E19093400280935E
:1019B0003F0281E008958091E80080FFFCCF089508
:1019C00081E08093D70080EA8093D80082E189BDCE
:1019D00009B400FEFDCF80E98093D8001092E000AA
:1019E00010920702109208028CE08093E200789433
:1019F00008958091070208958FB7F8949091070297
:101A0000992369F093E09093E9002BE69091E80028
:101A100095FD09C092FF03C02093E800F7CF8FBF68
:101A20002FEF3FEF0BC02091F1009091E80095FD62
:101A300003C09BE69093E8008FBF30E0C901089592
:101A400080910702882371F08FB7F89493E0909308
:101A5000E9009BE602C09093E8002091E80025FD94
:101A6000FACF8FBF0895909107029923D1F19FB7C4
:101A7000F89424E02093E90020910A02222341F007
:101A80002091E80025FD02C09FBF2BC010920A02E2
:101A90002091E400275E34E04091E80045FD12C04B
:101AA0009FBF9091E400921721F481E080930A0295
:101AB00018C0909107029923B1F09FB7F894309322
:101AC000E900EACF8093F1008091E80085FD03C032
:101AD0008AE38093E80085E0809309029FBF80E05D
:101AE00008958FEF08958FEF08958091080208956B
:101AF0001F920F920FB60F9211248F939F93809194
:101B0000E1001092E10083FF11C01092E90091E022
:101B10009093EB001092EC0092E19093ED0098E02E
:101B20009093F000109207021092080282FF13C0F7
:101B300080910702882379F080910902882359F067
:101B4000815080930902882331F484E08093E90076
:101B50008AE38093E8009F918F910F900FBE0F90C2
:101B60001F9018951F920F920FB60F921124EF92AB
:101B7000FF920F931F932F933F934F935F936F9316
:101B80007F938F939F93AF93BF93EF93FF93DF93D5
:101B9000CF930F92CDB7DEB71092E9008091E800A5
:101BA00083FF29C12091F1003091F1008091F10073
:101BB000E82EFF244091F100942F80E0E82AF92AD2
:101BC0000091F10010E04091F100942F80E0082B8B
:101BD000192B6091F100A091F10082EF8093E80051
:101BE000363009F059C081E991E09C012550304020
:101BF000FC013797459154914E155F05F9F4F901B1
:101C00004591549140175107C9F42E5F3F4FF90198
:101C1000859194912E5F3F4FF9012491462F50E01A
:101C20007A2F60E0462B572B4F3F510519F010F0EB
:101C30004FEF50E0421750F4242F08C00796295F59
:101C40003F4FF1E08B3B9F0799F6D5C0AEEF409137
:101C5000E80050E0BA016570707061157105B9F364
:101C600042FDCCC0322F213108F030E1AC01632FAE
:101C700007C0FA014F5F5F4FE491E093F1006150BC
:101C80006623B9F7830F911D231BA093E80022233D
:101C9000F1F63031E1F2B2C0353049F48EEF809385
:101CA000E80089DE8E2D80688093E300A7C039307C
:101CB00051F5222309F09FC0E0920702109208021A
:101CC000109209028EEF8093E80041E084EB91E0EE
:101CD0004093E900FC010196E491E093EB00EE23D0
:101CE00069F09C012F5F3F4FFC0184918093EC00D1
:101CF000C9010196F90124912093ED004F5F453011
:101D000039F78EE173C0383049F4203809F073C0D8
:101D100052DE809107028093F10045C0313271F4A8
:101D2000213A09F068C047DEEFE3F1E0819180934A
:101D3000F10021E0E634F207C9F735C03032A1F4F2
:101D4000213209F058C08091E80082FFFCCFEFE318
:101D5000F1E08091F100819331E0E634F307C9F7B7
:101D60008BEF8093E8001FC0323239F4213209F042
:101D700042C0E09208021FDE16C03323C1F429835B
:101D80001ADE2981223851F40093E9009091EB008A
:101D900081E095FF80E01092E90001C080E080932F
:101DA000F1001092F1008EEF8093E80027C03130EF
:101DB00011F0333001F52230F1F4E114F104D9F4DB
:101DC0000F77802F81508430B0F48EEF8093E8003D
:101DD0000093E900333079F089E18093EB0081E0F2
:101DE00090E002C0880F991F0A95E2F78093EA00FD
:101DF0001092EA0003C081E28093EB000F90CF9134
:101E0000DF91FF91EF91BF91AF919F918F917F9162
:101E10006F915F914F913F912F911F910F91FF9083
:101E2000EF900F900FBE0F901F901895CF93DF93F8
:101E3000EC011C821D821E821F82188619861A865A
:101E40001B86E0913702F091380209956883798307
:101E50008A839B83DF91CF910895CF93DF93EC0129
:101E6000E0913702F091380209959B01AC016C8337
:101E70007D838E839F8388819981AA81BB81281B62
:101E8000390B4A0B5B0B288739874A875B87B90177
:101E9000CA01DF91CF9108958F929F92AF92BF9226
:101EA000CF92DF92FF920F931F93DF93CF93CDB723
:101EB000DEB760970FB6F894DEBF0FBECDBF1982B4
:101EC0001A821B821C821D821E821F82188619861E
:101ED0001A861B861C861D861E861F86188A4B3016
:101EE00071F5FF248E01075F1F4F2AE0A22EB12C4F
:101EF000C12CD12C48018F0C911CA601950158D200
:101F0000605DF4016083F394B901CA0116161706E7
:101F1000180619067CF3EF2DF0E0E00FF11FDE014B
:101F2000119603C0319780818D93E017F107D1F7A7
:101F3000CE010196FC01EF0DF11D108260DB609671
:101F40000FB6F894DEBF0FBECDBFCF91DF911F91CA
:101F50000F91FF90DF90CF90BF90AF909F908F90A8
:101F600008950F931F9380E05AD0182F81E057D027
:101F7000082F82E054D0E0913B02F0913C0280E0D7
:101F80000995812F6AE0E6D1182F80911002811700
:101F900049F08EEA96E049E150E060E070E09ED8BA
:101FA00010931002002399F080E060E046E025E005
:101FB00008E067D081E061E044E023E00AE061D01E
:101FC00082E062E042E021E008E05BD011C0812FB6
:101FD000992787FD9095880F991FE0913302F09122
:101FE00034028A5B9E4F63E045E020E000E0099503
:101FF000E0917102F091720209951F910F9108957D
:102000001FD08CEF91E09093700280936F028EE668
:1020100098E09093800280937F0281E00895813060
:1020200039F0813018F0823041F404C082E003C0FE
:1020300080E001C081E03EDA01C060E0862F0895B3
:1020400010929E0280E994E09093500280934F0298
:1020500080EF94E0909331028093300288E696E01E
:1020600090933402809333028DED96E090933C027E
:1020700080933B028FE694E090937202809371020A
:102080000895CF92DF92EF92FF920F931F93DF9309
:10209000CF930F92CDB7DEB7182FF62E86300CF007
:1020A0004BC065300CF048C0D42ED80EE22EEF0C99
:1020B000083011F00A30C1F4F7FCFF2417FD10E0DE
:1020C00091E0083069F090E00BC0802F6F2D492F10
:1020D00099830E9490040F5F99810D15B4F3F394D6
:1020E000FE1454F5012FF9CF093031F5F7FE02C087
:1020F000FF24FA9417FD1FEF0F2DCD2CCA940BC0AF
:10210000812F602F41E00E9490048C2D602F41E0D0
:102110000E9490040F5F0E159CF3EA940BC0812F70
:102120006F2D41E00E949004812F6E2D41E00E94AE
:1021300090041F5F1D159CF30F90CF91DF911F91AD
:102140000F91FF90EF90DF90CF900895ACD088F082
:102150009F5790F0B92F9927B751A0F0D1F0660F93
:10216000771F881F991F1AF0BA95C9F712C0B130AE
:1021700081F0CAD0B1E00895C7C0672F782F8827B3
:10218000B85F39F0B93FCCF3869577956795B395ED
:10219000D9F73EF490958095709561957F4F8F4F5C
:1021A0009F4F0895E89409C097FB3EF49095809561
:1021B000709561957F4F8F4F9F4F9923A9F0F92F0D
:1021C00096E9BB279395F695879577956795B7958B
:1021D000F111F8CFFAF4BB0F11F460FF1BC06F5F71
:1021E0007F4F8F4F9F4F16C0882311F096E911C083
:1021F000772321F09EE8872F762F05C0662371F0A4
:1022000096E8862F70E060E02AF09A95660F771FB7
:10221000881FDAF7880F9695879597F908955DD00E
:1022200080F09F3740F491110EF06FC060E070E0D5
:1022300080E89FEB089526F41B16611D711D811D1A
:1022400001C01BC0882371F4772321F09850872B9D
:10225000762F07C0662311F499270DC09051862B65
:1022600070E060E02AF09A95660F771F881FDAF712
:10227000880F9695879597F908959F3F31F0915073
:1022800020F4879577956795B795880F911D96955A
:10229000879597F9089557FD9058440F551F59F0A9
:1022A0005F3F71F04795880F97FB991F61F09F3F43
:1022B00079F087950895121613061406551FF2CF6C
:1022C0004695F1DF08C0161617061806991FF1CFBC
:1022D00086957105610508940895E5DFA0F0BEE7D5
:1022E000B91788F4BB279F3860F41616B11D672F05
:1022F000782F8827985FF7CF869577956795B11DDA
:1023000093959639C8F30895E894BB2766277727F5
:10231000CB0197F90895629FD001739FF001829FCE
:10232000E00DF11D649FE00DF11D929FF00D839F64
:10233000F00D749FF00D659FF00D9927729FB00D01
:10234000E11DF91F639FB00DE11DF91FBD01CF0114
:1023500011240895991B79E004C0991F961708F07D
:10236000961B881F7A95C9F780950895A1E21A2EC9
:10237000AA1BBB1BFD010DC0AA1FBB1FEE1FFF1F29
:10238000A217B307E407F50720F0A21BB30BE40B79
:10239000F50B661F771F881F991F1A9469F76095C0
:1023A0007095809590959B01AC01BD01CF0108957A
:1023B00097FB092E05260ED057FD04D0D7DF0AD093
:1023C000001C38F450954095309521953F4F4F4F64
:1023D0005F4F0895F6F790958095709561957F4FC2
:1023E0008F4F9F4F0895F999FECF92BD81BDF89A06
:1023F000992780B50895A6E1B0E044E050E01DC003
:10240000A8E1B0E042E050E018C0262FF999FECFD5
:102410001FBA92BD81BD20BD0FB6F894FA9AF99A01
:102420000FBE01960895242FF1DF252FEFDF00C0A6
:10243000ECDF272FEBCFDC01CB01FC01F999FECFBC
:1024400006C0F2BDE1BDF89A319600B40D9241503C
:0A2450005040B8F70895F894FFCF4C
:10245A00FF09080706050403020100150000000130
:10246A00000200030007060006010602060303062F
:10247A000307060606070004000500060C070C06FB
:10248A000C050C040C010C000604060509064000A4
:10249A00E1000000000857DAD75C7246D6DCF34E3A
:1024AA00F34872D6B7DAE92E24D4B75A924EBEDA76
:1024BA00D6DA56D4D74856E6D75A711CE924B6DE7E
:1024CA00B6D4B6FAB55AB524E54EF6DE592EC54E3F
:1024DA00C51CB792F31CF3DEE524F7DEF792D400AD
:00000001FF
