:1000000010C100002AC1000028C1000026C1000064
:1000100024C1000022C1000020C100001EC1000058
:100020001CC100001AC100000C94DC0B0C941B0CCA
:1000300014C1000012C1000010C100000EC1000078
:100040000CC100000AC1000008C1000006C1000088
:1000500004C1000002C1000000C100000C94820A2B
:10006000FCC00000FAC00000F8C00000F6C00000AC
:10007000F4C00000F2C00000F0C00000EEC00000BC
:10008000ECC00000EAC00000E8C00000E6C00000CC
:10009000E4C00000E2C00000E0C00000DEC00000DC
:1000A000DCC00000DAC00000D8C00000204D687A33
:1000B0000A00204020307800437075206C6F616426
:1000C0003A20307800204D687A0A00202020204312
:1000D0007075207363616C656420746F3A203078AA
:1000E0000057656C6C20736869742C20736F6D65A4
:1000F0007468696E672077656E742077726F6E67BB
:1001000020647572696E67204F535F496E69742869
:10011000290A000A000A004672616D65627566660A
:10012000657220747970652073697A652028424968
:100130005453293A20000A004672616D6562756663
:100140006665722073697A65202842495453293ABA
:100150002000000104050607252423222120000198
:10016000000095011200020000A7012200220000F9
:10017000C9011500210000B9010900030000DE01DA
:100180000401030904E2011C02030904000218002F
:100190000001C126001201000200000020C01679F3
:1001A0000400010102000109022200010100C03225
:1001B00009040000010300000009211101000122CF
:1001C0001500070583032000010631FF0974A153C0
:1001D0007508150026FF00952009758102C00403EB
:1001E00009041C034200720061006E0064006F008D
:1001F0006E00200046006F006C0074007A00000062
:10020000180342004D004F005F00500072006F0065
:100210006A0065006300740000000A004650533A0B
:10022000200011241FBECFEFDAE0DEBFCDBF11E00A
:10023000A0E0B1E0E2E1F1E202C005900D92A83841
:10024000B107D9F712E0A8E8B1E001C01D92A831CA
:10025000B107E1F765D10C948710D2CEAF92BF926F
:10026000CF92DF92EF92FF920F931F93182FB3D686
:100270005B016C01112349F460938801709389013B
:1002800080938A0190938B012DC0113059F5A3D62C
:100290009B01AC0160938C0170938D0180938E0162
:1002A00090938F018091900190919101A091920182
:1002B000B0919301E0908801F090890100918A014A
:1002C00010918B018E199F09A00BB10B820F931F08
:1002D000A41FB51F8093900190939101A093920168
:1002E000B09393018091940190919501A091960112
:1002F000B0919701A816B906CA06DB0608F482C0B9
:10030000D601C501805C9D4BA04FBF4F80939401E7
:1003100090939501A0939601B093970160919001FD
:1003200070919101809192019091930124E630E0C7
:1003300040E050E00E94C00F20E432E44FE050E083
:100340000E94FE0F84E6982F921B90939801953699
:1003500010F08093980110929001109291011092E8
:1003600092011092930188EB90E00E94720D8091AF
:10037000980190E00E94970D82EB90E00E94720D30
:1003800021D690E00E94970D8CEA90E00E94720DB9
:100390008091DA0180FF36C080919801823430F07C
:1003A00080910001882371F180E016C0982F9C5243
:1003B000963130F480910001813021F181E00CC050
:1003C000895190910001833120F49230D9F082E07C
:1003D00003C09430B9F084E08AD6809300018BEC9E
:1003E00090E00E94720DEED590E00E94970D85EC92
:1003F00090E00E94720D88EB91E044E650E060E0EE
:1004000070E062D51F910F91FF90EF90DF90CF9039
:10041000BF90AF90089581EE90E00E94720D8BE046
:1004200061E0AED7FFCF1DD66093D4017093D501A4
:100430008093D6019093D70180E010DF8091DA019C
:1004400083FF01C0BBD68091DA0182FF05C0E09135
:10045000F201F091F30109958091DA0181FF01C069
:10046000C2D481E0FBCE823071F1833030F4882336
:1004700071F0813009F052C018C0883009F447C0CB
:10048000893009F447C0833009F048C032C08091F8
:10049000DA019091DB01A091DC01B091DD016623CE
:1004A00011F081601DC08E7F1BC08091DA01909198
:1004B000DB01A091DC01B091DD01662311F08260C7
:1004C0000FC08D7F0DC08091DA019091DB01A0916A
:1004D000DC01B091DD01662311F0846001C08B7FE7
:1004E0008093DA019093DB01A093DC01B093DD01EE
:1004F00013C08091DA019091DB01A091DC01B091F1
:10050000DD01662311F08860EBCF877FE9CF609330
:10051000DA0102C06093DD0181E0089580E0089572
:1005200080E880936100109261000E947F0B8FEF42
:1005300091EEA4E081509040A040E1F700C000009F
:1005400007D5882389F0CAD3009771F011D6882384
:1005500059F029D4882341F00E94540B882321F0BC
:100560000E94350E882309F456DF1092DA011092AA
:10057000DD01109294011092950110929601109253
:10058000970110929801109288011092890110929F
:100590008A0110928B0110928C0110928D011092A1
:1005A0008E0110928F011092900110929101109281
:1005B00092011092930180E060E055DF81E060E0FD
:1005C00052DF82E061E04FDF83E061E04CDF83E0F7
:1005D00060E0DCD288E06CE3D9D2E091E801F091F0
:1005E000E90180E090E00995682F88E03CDFE09128
:1005F000E801F091E90181E090E00995682F89E038
:1006000032DFE091E001F091E10182E090E00995B4
:10061000682F80E091D6E091E801F091E90184E053
:1006200090E00995682F81E087D6E091E801F0918C
:10063000E90186E090E00995682F82E07DD6E0919F
:10064000E801F091E90187E090E00995682F89E0E1
:100650009DD2E091E801F091E90188E090E00995F0
:10066000682F88E093D28EEA96E040E253E060E0A3
:1006700070E02AD488EE93E05DD5D5DE0E949F0D10
:10068000FCCF80919F0182FF1CC020EA31E04091A5
:10069000990150919A01C90104964217530749F4F0
:1006A00090939A01809399015093A9014093A801D6
:1006B000089530939A01209399019093A901809312
:1006C000A80108951F93DF93CF930F92CDB7DEB7A4
:1006D000863008F052C0653008F04FC0162F110F59
:1006E000160F110F180F612F66956695669570E0CD
:1006F00080E090E049830E94070F0E94440F0E940F
:10070000DB0E70E0E091A801F091A90110954981FC
:100710004423B9F0E60FF71F177021E030E002C064
:10072000220F331F1A95E2F7442737FD4095542FC7
:1007300080819181A281B381822B932BA42BB52B35
:1007400018C0E60FF71F177021E030E002C0220F3B
:10075000331F1A95E2F720953095442737FD4095D1
:10076000542F80819181A281B38182239323A4237A
:10077000B52380839183A283B3830F90CF91DF91C0
:100780001F9108951F938630A8F5653098F5162FB0
:10079000110F160F110F180F612F6695669566954C
:1007A00070E080E090E00E94070F0E94440F0E94DA
:1007B000DB0EE0919901F0919A01E60FF11D109581
:1007C000177021E030E002C0220F331F1A95E2F7C4
:1007D000442737FD4095542F80819181A281B381B8
:1007E000282339234A235B2381E021153105410564
:1007F000510509F480E01F910895BF92CF92DF92D6
:10080000EF92FF920F931F93CF93DF9380919F01FD
:100810009091A001A091A101B091A20181FD7FC0A2
:10082000826080939F019093A001A093A101B09357
:10083000A201D1D37B018C01BB24CDD36E157F05E2
:100840008007910708F43EC0C6D37B018C018091DC
:100850009B0190919C01A0919D01B0919E01E80E99
:10086000F91E0A1F1B1FBB2011F485E007C0EB2DEA
:10087000FF27E7FDF095E050FF4F808160E080D5D5
:10088000C6E0D1E0CC24DD248C2D6B2D7BDF8823CA
:1008900019F0888160E002C0888161E071D5C3DD14
:1008A0000894C11CD11C219686E0C816D10461F7BA
:1008B000EB2DFF27E7FDF095EF5FFE4F808161E0B4
:1008C0005FD5B394B0DD8B2D85300CF4B6CF83D3D8
:1008D0007B018C0180919B0190919C01A0919D01D5
:1008E000B0919E01E80EF91E0A1F1B1F01C09BDD7F
:1008F00072D3E616F70608071907C8F780919F011B
:100900009091A001A091A101B091A2018D7F80934F
:100910009F019093A001A093A101B093A201DF9148
:10092000CF911F910F91FF90EF90DF90CF90BF90EC
:1009300008950F931F93CF93DF934DD39B01AC0189
:100940008091AA019091AB01A091AC01B091AD0151
:10095000281739074A075B0708F44EC0E091AE013B
:10096000EE2311F485E006C0FF27E7FDF095E05087
:10097000FF4F808160E004D506E011E0C0E0D0E0E8
:100980008C2F6091AE01FEDE882321F0F80180817A
:1009900060E003C0F801808161E0F2D421960F5F2E
:1009A0001F4FC630D10561F7E091AE01FF27E7FD8B
:1009B000F095EF5FFE4F808161E0E2D48091AE015F
:1009C0008F5F8093AE01853014F01092AE0103D397
:1009D00020919B0130919C0140919D0150919E017D
:1009E000620F731F841F951F6093AA017093AB0160
:1009F0008093AC019093AD01DF91CF911F910F9146
:100A000008950F93CF93DF93EC01069F002D1124DF
:100A1000020F602F66956695669570E0882777FDD2
:100A20008095982F0E94090F0E94440F0E94DB0EB0
:100A3000C60FD11D0095077021E030E002C0220FE3
:100A4000331F0A95E2F7442737FD4095542F8881DC
:100A50009981AA81BB81282339234A235B2381E022
:100A6000211531054105510509F480E0DF91CF9151
:100A70000F9108952F923F924F925F926F927F92C3
:100A80008F929F92AF92BF92CF92DF92EF92FF929E
:100A90000F931F93CF93DF933C01A62EC42ED22E2B
:100AA000102F80919F0180FD07C0EE24FF24442E6B
:100AB0005524262E332436C0EE24FF24442E5524FC
:100AC000262E332412C0C3016A2D4C2D2C2F0B2D42
:100AD00098DF482F8C2F8D0D692DF4DD2196C215DE
:100AE000D3058CF30894E11CF11CE414F5041CF507
:100AF000C0E0D0E0BE2C9E2C910EF1CFC3016A2D38
:100B00004C2D2C2F0B2D7DDF482F882321F08C2F8F
:100B10008D0D692DD7DD2196C215D3057CF3089480
:100B2000E11CF11CE414F50434F4C0E0D0E0BE2C68
:100B30009E2C910EF1CF81E0DF91CF911F910F910B
:100B4000FF90EF90DF90CF90BF90AF909F908F90ED
:100B50007F906F905F904F903F902F9008954091BD
:100B6000A8015091A901FA0120E030E09FEF88230D
:100B700011F4108204C0DA01A20FB31F9C932F5FFF
:100B80003F4F31962430310591F70895833031F18C
:100B9000843038F4882309F446C0823009F098C0C4
:100BA0005EC0883021F0893009F092C07DC025E018
:100BB000629F90011124442737FD4095542F60E433
:100BC00072E48FE090E00E94201020939B0130930C
:100BD0009C0140939D0150939E017CC0613081F443
:100BE0008DEF93E09093F3018093F20180919F0148
:100BF0009091A001A091A101B091A20188605FC075
:100C0000662309F067C089E994E09093F30180932B
:100C1000F20180919F019091A001A091A101B0915A
:100C2000A201877F4CC0662369F4E0919F01F0E048
:100C300080819181A281B3818E7F80839183A28301
:100C4000B38348C0613009F045C080919F01909105
:100C5000A001A091A101B091A201816030C06623E2
:100C6000B9F4E0919F01F0E080819181A281B3818C
:100C70008B7F80839183A283B38380EA91E09093FA
:100C8000A9018093A80190939A018093990122C0B1
:100C9000613011F580919F019091A001A091A10177
:100CA000B091A20184600BC060939F0180919F016D
:100CB0009091A001A091A101B091A2018C7F80939D
:100CC0009F019093A001A093A101B093A20102C043
:100CD00080E0089581E0089581E0089580EA91E040
:100CE0001092A0011092A1011092A2011092A301F2
:100CF0009C012C5F3F4F1092A4011092A50110920D
:100D0000A6011092A7011092A80190939A018093D6
:100D100099013093A9012093A8011092AE0110927D
:100D2000AA011092AB011092AC011092AD0180EAC1
:100D30009FE0A0E0B0E080939B0190939C01A09382
:100D40009D01B0939E0183E060E020DF80E061E0E0
:100D50001DDF82E061E01ADF8FE59AEE0197F1F77F
:100D600000C0000088E391E0BDD680E290E0DFD6CD
:100D700086E391E0B7D68FE59AEE0197F1F700C0D0
:100D8000000087E191E0AED688E090E0D0D685E122
:100D900091E0A8D68FE59AEE0197F1F700C0000028
:100DA00081E090E0089510920302109202021092E6
:100DB000FE011092FF0110920002109201021092A7
:100DC000080210920402109205021092060210927C
:100DD00007021092FA011092FB011092FC0110928E
:100DE000FD0181E00895AF92BF92CF92DF92EF9222
:100DF000FF920F931F938091FA019091FB01A091B4
:100E0000FC01B091FD010097A105B10509F453C0A3
:100E1000E2D07B018C018091FE019091FF01A091B5
:100E20000002B0910102E816F9060A071B0758F103
:100E300057016801A81AB90ACA0ADB0A8091080298
:100E4000882331F481E0809308028AE061E004C0E5
:100E5000109208028AE060E093D2809102029091A1
:100E60000302A0E0B0E08E0D9F1DA01FB11F8A19E4
:100E70009B09AC09BD098093FE019093FF01A093EB
:100E80000002B0930102EDD09B01AC0180910402FD
:100E900090910502A0910602B09107022817390728
:100EA0004A075B0740F01092FA011092FB01109282
:100EB000FC011092FD011F910F91FF90EF90DF90C8
:100EC000CF90BF90AF900895EF92FF920F931F9332
:100ED0007A018B019C0140E050E060E472E48FE015
:100EE00090E00E9420103093030220930202B9D0B8
:100EF0006E0D7F1D801F911F609304027093050289
:100F0000809306029093070266D0209102023091EE
:100F1000030240E050E0620F731F841F951F60932F
:100F2000FE017093FF01809300029093010281E023
:100F300090E0A0E0B0E08093FA019093FB01A093D1
:100F4000FC01B093FD011F910F91FF90EF90089568
:100F500007D281E08093B701E091E201F091E301D3
:100F600009956093BC017093BD018093BE0190937D
:100F7000BF01E091D801F091D90109956093B301C7
:100F80007093B4018093B5019093B601E091E201B2
:100F9000F091E30109956093B8017093B9018093D2
:100FA000BA019093BB01E091D801F091D901099564
:100FB0006093AF017093B0018093B1019093B2013F
:100FC00081E008956091B70180E190E070E00E94B7
:100FD000EB0F862F0895EF92FF920F931F93E091EE
:100FE000E201F091E30109957B018C018091BC0144
:100FF0009091BD01A091BE01B091BF01A8019701E0
:10100000281B390B4A0B5B0BCA01B9012091B701B0
:1010100030E040E050E0B4D79B01AC018091B801D2
:101020009091B901A091BA01B091BB01280F391F6D
:101030004A1F5B1F2093B8013093B9014093BA0156
:101040005093BB01E092BC01F092BD010093BE0140
:101050001093BF01B901CA011F910F91FF90EF904A
:101060000895EF92FF920F931F93E091D801F091B2
:10107000D90109957B018C018091B3019091B40154
:10108000A091B501B091B601A8019701281B390BB9
:101090004A0B5B0BCA01B9012091B70130E040E077
:1010A00050E06ED79B01AC018091AF019091B001EF
:1010B000A091B101B091B201280F391F4A1F5B1FE7
:1010C0002093AF013093B0014093B1015093B2012E
:1010D000E092B301F092B4010093B5011093B60110
:1010E000B901CA011F910F91FF90EF9008951F93CE
:1010F000182F882311F481E00FC0813011F482E0B1
:101100000BC0823011F484E007C0833011F488E012
:1011100003C0843019F480E18093B7015CDFA1DF64
:10112000F89480E880936100109361007894812F97
:101130001F910895EF92FF920F931F93CF93DF9328
:10114000EC018FDF7B018C01CE01A0E0B0E0E80E66
:10115000F91E0A1F1B1F85DF6E157F05800791078B
:10116000D0F3DF91CF911F910F91FF90EF900895F1
:1011700088E28093090210921302109214021092D6
:101180001502109216021092120210920F0282E0C3
:1011900080930E02ECE0F2E082E180838CE08183B8
:1011A00086E990E090930B0280930A0282E593E037
:1011B000909311028093100281E00895CF92DF9204
:1011C000EF92FF920F931F93CF93DF934ADF20910B
:1011D00013023091140240911502509116026217C9
:1011E00073078407950708F477C020910902620FFE
:1011F000711D811D911D60931302709314028093E1
:1012000015029093160280910E0252D17C0100E0EB
:1012100010E0C0901002D0901102B60180E090E082
:101220006E157F058007910778F020910A023091B2
:101230000B0240E050E0C801B70162177307840752
:10124000950710F4CA01B901C0910A02D0910B02AE
:101250009E0140E050E0621B730B840B950B2FEF57
:1012600030E040E050E08CD6CC1ADD0A960140E038
:1012700050E0C4D620930F0280910C02E1D020915F
:1012800012023091130240911402509115028823EA
:1012900011F4216001C02E7F2093120230931302BB
:1012A000409314025093150280910D02C9D02091F1
:1012B00012023091130240911402509115028823BA
:1012C00011F4226001C02D7F20931202309313028B
:1012D0004093140250931502DF91CF911F910F910B
:1012E000FF90EF90DF90CF9008958130B9F081307A
:1012F00040F08230D9F420910F0230E040E050E01D
:1013000018C02091120230911302409114025091A2
:10131000150221703070407050700BC08091120225
:1013200021E030E040E050E081FD03C020E030E00B
:10133000A901B901CA010895813051F0813018F036
:10134000823069F40AC060930A0210920B02089579
:10135000609310021092110208956093090208959B
:101360004DD188ED9AE09093E3018093E2018AECFD
:101370009AE09093D9018093D80181E090E008959C
:10138000A82FB0E0662379F5AA0FBB1FA45FBE4F5C
:10139000EC91F0E021E030E011960C9002C0220FB9
:1013A000331F0A94E2F7A901662757FD6095762F4F
:1013B00084A195A1A6A1B7A1842B952BA62BB72B11
:1013C00084A395A3A6A3B7A320953095442737FD02
:1013D0004095542F85A196A1A7A1B0A58223932360
:1013E000A423B52327C0AA0FBB1FA45FBE4FEC9157
:1013F000F0E021E030E011960C9002C0220F331F84
:101400000A94E2F7442737FD4095542F84A195A113
:10141000A6A1B7A1822B932BA42BB52B84A395A3B4
:10142000A6A3B7A385A196A1A7A1B0A5822B932BB4
:10143000A42BB52B85A396A3A7A3B0A781E00895FD
:10144000A82FB0E0AA0FBB1FA45FBE4FEC91F0E045
:1014500021E030E011960C9002C0220F331F0A9455
:10146000E2F7A90140955095662757FD6095762FC4
:1014700085A196A1A7A1B0A584239523A623B72370
:1014800085A396A3A7A3B0A7442737FD4095542F63
:1014900083A194A1A5A1B6A1282339234A235B23C4
:1014A00081E0211531054105510509F480E00895D9
:1014B0008C3020F5E82FF0E0EE5AFE4FE49186E8FC
:1014C00080937A008E2F8072806880937B00EF710A
:1014D00080913E01E82BE0937C0086EC80937A00BB
:1014E00080917A0086FDFCCF2091780030917900C0
:1014F000932F80E030E0282B392B02C020E030E031
:10150000C90108951F920F920FB60F9211242F93C5
:101510003F938F939F93AF93BF938091C40190911A
:10152000C501A091C601B091C7013091C8010196D3
:10153000A11DB11D232F2D5F2D3720F02D570196B2
:10154000A11DB11D2093C8018093C4019093C501D2
:10155000A093C601B093C7018091C0019091C101D1
:10156000A091C201B091C3010196A11DB11D80934C
:10157000C0019093C101A093C201B093C301BF9178
:10158000AF919F918F913F912F910F900FBE0F9030
:101590001F9018958FB7F8942091C4013091C50120
:1015A0004091C6015091C7018FBFB901CA0108958A
:1015B0009FB7F8942091C0013091C1014091C201C0
:1015C0005091C30186B5A89B06C08F3F21F02F5FC5
:1015D0003F4F4F4F5F4F9FBF542F432F322F222734
:1015E000280F311D411D511D82E0220F331F441F62
:1015F000551F8A95D1F7B901CA010895789484B529
:10160000826084BD84B5816084BD85B5826085BDFE
:1016100085B5816085BDEEE6F0E0808181608083E4
:10162000E1E8F0E0108280818260808380818160C7
:101630008083E0E8F0E0808181608083E1E9F0E090
:10164000808182608083808181608083E0E9F0E036
:10165000808181608083E1ECF0E080818460808320
:10166000808182608083808181608083E3ECF0E010
:10167000808181608083E0ECF0E080818260808303
:10168000E2ECF0E0808181608083EAE7F0E0808135
:101690008460808380818260808380818160808398
:1016A00080818068808308958FE490E19093E901C0
:1016B0008093E8018CE590E19093E1018093E00153
:1016C00087E590E19093F1018093F00181E690E14C
:1016D0009093EF018093EE0184E790E19093E50110
:1016E0008093E4018FE690E19093EB018093EA010F
:1016F00081E008958091E80080FFFCCF089581E0AB
:101700008093D70080EA8093D80082E189BD09B434
:1017100000FEFDCF80E98093D8001092E000109287
:10172000C9018CE08093E200789408959091C901FA
:10173000992309F43DC09FB7F89423E02093E90072
:101740002091CB01222341F02091E80025FD02C029
:101750009FBF2EC01092CB012091E4002C5F33E09C
:101760004091E80045FD12C09FBF9091E4009217A0
:1017700021F481E08093CB011BC09091C901992392
:10178000C9F09FB7F8943093E900EACF8093F10055
:101790008091E80085FD06C08AE38093E8001092FE
:1017A000CA0103C082E08093CA019FBF80E0089510
:1017B0008FEF08958FEF08951F920F920FB60F923B
:1017C00011248F939F938091E1001092E10083FF99
:1017D0000FC01092E90091E09093EB001092EC00A2
:1017E00092E29093ED0098E09093F0001092C9017E
:1017F00082FF1AC08091C9018823B1F08091CA018B
:10180000882391F081508093CA01882369F483E092
:101810008093E90002C01092F1008091E80085FDFC
:10182000FACF8AE38093E8009F918F910F900FBECB
:101830000F901F9018951F920F920FB60F921124C0
:10184000EF92FF920F931F932F933F934F935F93CA
:101850006F937F938F939F93AF93BF93EF93FF9378
:10186000DF93CF930F92CDB7DEB71092E90080914E
:10187000E80083FF1CC14091F1005091F1000091FC
:10188000F10010E02091F100922F80E0082B192B3D
:101890008091F100E82EFF242091F100922F80E04A
:1018A000E82AF92A2091F10030E06091F100962FAA
:1018B00080E0282B392B82EF8093E800563009F026
:1018C00053C085E691E0AC0145505040FC0137978C
:1018D0006591749160177107C9F4FA01659174916B
:1018E0006E157F0599F44E5F5F4FFA0185919491D3
:1018F0004E5F5F4FFA0144912F3F310519F010F010
:101900002FEF30E0241750F4422F08C00796495FAC
:101910005F4FF1E086399F07C9F6C9C0AEEF20914D
:10192000E80030E0B9016570707061157105B9F3B8
:1019300022FDC0C0542F413208F050E29C01652FB7
:1019400007C0F9012F5F3F4FE491E093F100615030
:101950006623B9F7850F911D451BA093E80044232A
:10196000F1F65032E1F2A6C0553041F48EEF80938B
:10197000E800C0DE00680093E3009CC0593031F5F8
:10198000442309F094C00093C9018EEF8093E800CE
:1019900041E08FE891E04093E900FC010196E49179
:1019A000E093EB00EE2369F09C012F5F3F4FFC01B9
:1019B00084918093EC00C9010196F9012491209350
:1019C000ED004F5F453039F78EE146C0583049F49D
:1019D000403809F06CC08EDE8091C9018093F1001F
:1019E00016C05523C1F4498385DE4981423851F43C
:1019F000E092E9009091EB0081E095FF80E0109289
:101A0000E90001C080E08093F1001092F1008EEFB8
:101A10008093E8004FC0513019F0533009F047C0AF
:101A20004230F9F401151105E1F46E2D6F77862F20
:101A300081508430B0F48EEF8093E8006093E90029
:101A40005330A9F189E18093EB0081E090E002C07E
:101A5000880F991F6A95E2F78093EA001092EA00D6
:101A600029C0513021F5413A11F5E114F104F9F49E
:101A70003EEF8091E80090E0AC0145705070411558
:101A80005105B9F382FD16C0822F213208F080E2A1
:101A9000982F03C01092F10091509923D9F7281B79
:101AA0003093E800222329F7803219F303C081E242
:101AB0008093EB000F90CF91DF91FF91EF91BF9159
:101AC000AF919F918F917F916F915F914F913F91D6
:101AD0002F911F910F91FF90EF900F900FBE0F90DD
:101AE0001F9018951F93CF93DF93EC01FE01219671
:101AF0001491112339F01A3011F48DE017DE812F83
:101B000015DEF4CFDF91CF911F9108958A3010F444
:101B100090E301C097E3890F09CE1F93182F829598
:101B20008F70F4DF812F8F70F1DF1F9108951F9365
:101B3000182F892FF2DF812FF0DF1F9108950F9367
:101B40001F93CF93DF938091D1019091D2010196A1
:101B50009093D2018093D1018091D4019091D501CD
:101B6000A091D601B091D7012091CC013091CD0147
:101B70004091CE015091CF0182179307A407B5077A
:101B8000D8F088519C4FAF4FBF4F8093CC019093BA
:101B9000CD01A093CE01B093CF018CE192E0A2DF02
:101BA0008091D1019091D201C2DF8AE192E09ADF67
:101BB0001092D2011092D10180E066D0182F81E0FE
:101BC00063D0082F82E060D0E091E601F091E70158
:101BD00080E00995812F6AE0F2D1182F8091D3011E
:101BE000811749F08EEA96E049E150E060E070E04C
:101BF0006BD91093D301002399F080E060E046E0B8
:101C000025E008E073D081E061E044E023E00AE0F1
:101C10006DD082E062E042E021E008E067D01BC0C6
:101C2000C12FDD27C7FDD095CC0FDD1FC15CDE4F76
:101C3000E091DE01F091DF01CE0163E045E020E0BC
:101C400000E00995E091DE01F091DF01CE0163E053
:101C500045E023E00995E091F601F091F70109953F
:101C6000DF91CF911F910F9108951FD083E192E0F2
:101C70009093F5018093F40184E697E09093F90145
:101C80008093F80181E00895813039F0813018F0B7
:101C9000823041F404C082E003C080E001C081E0F2
:101CA00024DB01C060E0862F08951092170282E6BF
:101CB00093E09093ED018093EC0182EC93E090939C
:101CC000DC018093DB018AE395E09093DF01809350
:101CD000DE018FEA95E09093E7018093E60181E4CD
:101CE00093E09093F7018093F6010895CF92DF92ED
:101CF000EF92FF920F931F93DF93CF930F92CDB785
:101D0000DEB7182FF62E86300CF04BC065300CF085
:101D100048C0D42ED80EE22EEF0C083011F00A3055
:101D2000C1F4F7FCFF2417FD10E091E0083069F0E2
:101D300090E00BC0802F6F2D492F99830E94620382
:101D40000F5F99810D15B4F3F394FE1454F5012F30
:101D5000F9CF093031F5F7FE02C0FF24FA9417FDE0
:101D60001FEF0F2DCD2CCA940BC0812F602F41E0A7
:101D70000E9462038C2D602F41E00E9462030F5F7E
:101D80000E159CF3EA940BC0812F6F2D41E00E9449
:101D90006203812F6E2D41E00E9462031F5F1D15BB
:101DA0009CF30F90CF91DF911F910F91FF90EF90D7
:101DB000DF90CF900895ACD088F09F5790F0B92F66
:101DC0009927B751A0F0D1F0660F771F881F991F90
:101DD0001AF0BA95C9F712C0B13081F0CAD0B1E09B
:101DE0000895C7C0672F782F8827B85F39F0B93FAB
:101DF000CCF3869577956795B395D9F73EF4909592
:101E00008095709561957F4F8F4F9F4F0895E8940F
:101E100009C097FB3EF490958095709561957F4F32
:101E20008F4F9F4F9923A9F0F92F96E9BB279395E0
:101E3000F695879577956795B795F111F8CFFAF4F0
:101E4000BB0F11F460FF1BC06F5F7F4F8F4F9F4F21
:101E500016C0882311F096E911C0772321F09EE87F
:101E6000872F762F05C0662371F096E8862F70E0E5
:101E700060E02AF09A95660F771F881FDAF7880FBF
:101E80009695879597F908955DD080F09F3740F437
:101E900091110EF06FC060E070E080E89FEB089554
:101EA00026F41B16611D711D811D01C01BC08823F6
:101EB00071F4772321F09850872B762F07C0662383
:101EC00011F499270DC09051862B70E060E02AF044
:101ED0009A95660F771F881FDAF7880F9695879572
:101EE00097F908959F3F31F0915020F487957795A9
:101EF0006795B795880F911D9695879597F90895E1
:101F000057FD9058440F551F59F05F3F71F04795AA
:101F1000880F97FB991F61F09F3F79F0879508958F
:101F2000121613061406551FF2CF4695F1DF08C0AE
:101F3000161617061806991FF1CF869571056105CB
:101F400008940895E5DFA0F0BEE7B91788F4BB2731
:101F50009F3860F41616B11D672F782F8827985F79
:101F6000F7CF869577956795B11D93959639C8F308
:101F70000895E894BB2766277727CB0197F9089542
:101F8000629FD001739FF001829FE00DF11D649F5D
:101F9000E00DF11D929FF00D839FF00D749FF00DE9
:101FA000659FF00D9927729FB00DE11DF91F639F8A
:101FB000B00DE11DF91FBD01CF0111240895991B3A
:101FC00079E004C0991F961708F0961B881F7A9530
:101FD000C9F78095089597FB092E07260AD077FD4B
:101FE00004D049D006D000201AF4709561957F4F37
:101FF0000895F6F7909581959F4F0895A1E21A2EC6
:10200000AA1BBB1BFD010DC0AA1FBB1FEE1FFF1F9C
:10201000A217B307E407F50720F0A21BB30BE40BEC
:10202000F50B661F771F881F991F1A9469F7609533
:102030007095809590959B01AC01BD01CF010895ED
:1020400097FB092E05260ED057FD04D0D7DF0AD006
:10205000001C38F450954095309521953F4F4F4FD7
:102060005F4F0895F6F790958095709561957F4F35
:102070008F4F9F4F0895AA1BBB1B51E107C0AA1F9A
:10208000BB1FA617B70710F0A61BB70B881F991F19
:102090005A95A9F780959095BC01CD010895F999BD
:1020A000FECF92BD81BDF89A992780B50895A6E12B
:1020B000B0E044E050E01DC0A8E1B0E042E050E0F4
:1020C00018C0262FF999FECF1FBA92BD81BD20BD41
:1020D0000FB6F894FA9AF99A0FBE01960895242F34
:1020E000F1DF252FEFDF00C0ECDF272FEBCFDC0186
:1020F000CB01FC01F999FECF06C0F2BDE1BDF89A13
:10210000319600B40D9241505040B8F70895F894BC
:02211000FFCFFF
:10211200FF0908070605040302010015000000017B
:10212200000200030007060006010602060303067A
:102132000307060606070004000500060C070C0646
:102142000C050C040C010C00060406050906405798
:10215200DAD75C7246D6DCF34EF34872D6B7DAE9C8
:102162002E24D4B75A924EBEDAD6DA56D4D748566F
:10217200E6D75A711CE924B6DEB6D4B6FAB55AB51A
:1021820024E54EF6DE592EC54EC51CB792F31CF35C
:08219200DEE524F7DEF792D42C
:00000001FF
