:1000000031C100004BC1000049C1000047C10000E0
:1000100045C1000043C1000041C100003FC10000D4
:100020003DC100003BC100000C94E80C0C94220D73
:1000300035C1000033C1000031C100002FC10000F4
:100040002DC100002BC1000029C1000027C1000004
:1000500025C1000023C1000021C100000C94530BF6
:100060001DC100001BC1000019C1000017C1000024
:1000700015C1000013C1000011C100000FC1000034
:100080000DC100000BC1000009C1000007C1000044
:1000900005C1000003C1000001C10000FFC0000055
:1000A000FDC00000FBC00000F9C000002D2D2D2D6B
:1000B0002D2D2D2D2D2D2D2D2D2D2D2D2D2D2D2D70
:1000C0002D0D0A000D0A004379636C65732F53658B
:1000D000633A20000D0A0047616D65204176672074
:1000E00054696D653A20000D0A00536F756E6420E7
:1000F0004176672054696D653A20000D0A00446915
:1001000073706C6179204176672054696D653A207F
:10011000000D0A00496E707574204176672054699D
:100120006D653A20000D0A00436F6E736F6C652099
:100130004176672054696D653A20002D2D2D2D5094
:10014000726F66696C657220446174612D2D2D2D6E
:100150000D0A000D0A544D4F4F53205465726D69BE
:100160006E616C0D0A466F726D61742069733A207E
:10017000636F6D6D616E64206172673120617267BB
:100180003220617267330D0A3E000D0A3E00000105
:100190000405060725242322212000010000CE01AA
:1001A0001200020000E001430003000023020401EA
:1001B000030904270214020309043D02160303097C
:1001C0000455020C0001C112018036018136120172
:1001D000000202000010C0167A04000101020301AF
:1001E00009024300020100C03209040000010202BA
:1001F0000100052400100105240101010424020668
:1002000005240600010705820310004009040100CF
:10021000020A0000000705030240000007058402EF
:1002200040000004030904140359006F00750072B4
:100230000020004E0061006D0065000000160355AF
:100240000053004200200053006500720069006105
:10025000006C0000000C0331003200330034003524
:100260000000000011241FBECFEFDAE0DEBFCDBFDB
:1002700011E0A0E0B1E0E2E9F3E202C005900D92E6
:10028000AE33B107D9F712E0AEE3B1E001C01D9281
:10029000A135B107E1F7B0D10C94C711B1CEAF923F
:1002A000BF92CF92DF92EF92FF920F931F93182F7E
:1002B00056D75B016C01112349F46093520170938E
:1002C000530180935401909355012DC0113059F57D
:1002D00046D79B01AC016093560170935701809300
:1002E00058019093590180915A0190915B01A0911E
:1002F0005C01B0915D01E0905201F09053010091DA
:100300005401109155018E199F09A00BB10B820F5A
:10031000931FA41FB51F80935A0190935B01A09374
:100320005C01B0935D0180915E0190915F01A091AD
:100330006001B0916101A816B906CA06DB0608F48F
:100340005AC0D601C501805C9D4BA04FBF4F809322
:100350005E0190935F01A0936001B0936101609191
:100360005A0170915B0180915C0190915D0124E6DE
:1003700030E040E050E00E94331120E432E44FE0EE
:1003800050E00E94521184E6982F921B90936201D4
:10039000953610F08093620110925A0110925B0121
:1003A00010925C0110925D018091D50180FF23C005
:1003B00080916201823430F0809100018823D9F06D
:1003C00080E016C0982F9C52963130F48091000145
:1003D000813089F081E00CC0895190910001833116
:1003E00020F4923041F082E003C0943021F084E0A8
:1003F00044D7809300011F910F91FF90EF90DF9001
:10040000CF90BF90AF900895EF92FF920F931F93FC
:10041000EDD66093CF017093D0018093D10190937A
:10042000D20180E03CDF85EF91E00E94860E0E94C1
:10043000320AE0903E01F0903F010091400110919E
:10044000410185EF91E00E949D0E6E0D7F1D801F82
:10045000911F60933E0170933F0180934001909300
:1004600041018091D50183FF1DC086ED91E00E947E
:10047000860E4CD7E0904201F09043010091440178
:100480001091450186ED91E00E949D0E6E0D7F1D3D
:10049000801F911F60934201709343018093440138
:1004A000909345018091D50182FF21C083EC91E0BA
:1004B0000E94860EE0911302F09114020995E090DB
:1004C0004601F0904701009148011091490183ECE9
:1004D00091E00E949D0E6E0D7F1D801F911F609305
:1004E00046017093470180934801909349018091A0
:1004F000D50181FF1DC085E192E00E94860E40D5A6
:10050000E0904A01F0904B0100914C0110914D0197
:1005100085E192E00E949D0E6E0D7F1D801F911F50
:1005200060934A0170934B0180934C0190934D016D
:1005300081E0B5DE1F910F91FF90EF90089582301A
:1005400071F1833030F4882371F0813009F052C0AA
:1005500018C0883009F447C0893009F447C0833097
:1005600009F048C032C08091D5019091D601A09188
:10057000D701B091D801662311F081601DC08E7F34
:100580001BC08091D5019091D601A091D701B09167
:10059000D801662311F082600FC08D7F0DC080915D
:1005A000D5019091D601A091D701B091D8016623D1
:1005B00011F0846001C08B7F8093D5019093D601A8
:1005C000A093D701B093D80113C08091D501909129
:1005D000D601A091D701B091D801662311F08860AF
:1005E000EBCF877FE9CF6093D50102C06093E40130
:1005F00081E0089580E008952F923F924F925F929C
:100600006F927F928F929F92AF92BF92CF92DF9222
:10061000EF92FF920F931F93DF93CF93CDB7DEB787
:1006200027970FB6F894DEBF0FBECDBF80E880934A
:1006300061001092610059D58823A9F0FED6009779
:1006400091F02BD4009779F03BD6882361F078D4D1
:10065000882349F00E94250C882329F00E94B90FB5
:10066000882309F015C1FFCFCFDE87E092E00E941A
:10067000860E0E94650FE0904E01F0904F010091B0
:1006800050011091510187E092E00E949D0E6E0D85
:100690007F1D801F911F60934E0170934F018093C7
:1006A0005001909351018091F3019091F4010196D2
:1006B0009093F4018093F30185E292E00E949D0EF5
:1006C000603422E472072FE0820720E0920760F294
:1006D00085E292E00E94860EE090F301F090F40132
:1006E00000E010E060913E0170913F018091400177
:1006F00090914101A80197010E945211D22EC32E60
:10070000B42EA52E60914201709143018091440165
:1007100090914501A80197010E945211922E3983B0
:100720004A835B8360914601709147018091480143
:1007300090914901A80197010E945211422E332E37
:10074000242E5C8360914A0170914B0180914C0191
:1007500090914D01A80197010E945211822E732E93
:10076000642E552E60914E0170914F018091500181
:1007700090915101A80197010E945211E42E8BE340
:1007800091E02D833E835F8360D688E291E05DD661
:100790006D2D7C2D8B2D9A2D4BE00E94BC0E85E299
:1007A00091E053D684E191E050D6692D79818A8118
:1007B0009B814BE00E94BC0E81E191E046D68EEF1A
:1007C00090E043D6642D732D822D9C814BE00E94D6
:1007D000BC0E8BEF90E039D68AEE90E036D6682DCD
:1007E000772D862D952D4BE00E94BC0E87EE90E074
:1007F0002CD687ED90E029D62D81622F3E81732F74
:100800008E2D5F81952F4BE00E94BC0E84ED90E011
:100810001CD687EC90E019D66091F3017091F40139
:1008200080E090E04BE00E94BC0E84EC90E00DD69E
:100830008CEA90E00AD610924E0110924F0110926D
:1008400050011092510110924A0110924B011092E6
:100850004C0110924D0110924601109247011092E6
:1008600048011092490110924201109243011092E6
:1008700044011092450110923E0110923F011092E6
:100880004001109241011092F4011092F301ECCE5C
:100890001092D5011092E40110925E0110925F0156
:1008A0001092600110926101109262011092520147
:1008B000109253011092540110925501109256015A
:1008C00010925701109258011092590110925A013A
:1008D00010925B0110925C0110925D0180E060E07B
:1008E0002EDE81E060E02BDE82E061E028DE83E046
:1008F00060E025DE83E060E025D288E068EE22D269
:1009000085E292E00E94860EAFCE0895813009F50F
:100910008CE061E022D68091690190916A01A091FA
:100920006B01B0916C0180688D7F80936901909319
:100930006A01A0936B01B0936C0110928201109236
:100940007E0110927F01109280011092810181E05E
:1009500008958823B1F48CE060E0FFD580916901AF
:1009600090916A01A0916B01B0916C018D77809399
:10097000690190936A01A0936B01B0936C0180E0D0
:1009800008958FEF08958091690182FF1CC02AE6C7
:1009900031E04091630150916401C9010996421709
:1009A000530749F4909364018093630150937D0150
:1009B00040937C01089530936401209363019093E8
:1009C0007D0180937C0108951F93DF93CF930F9255
:1009D000CDB7DEB7883008F052C0683008F04FC09D
:1009E000162F110F110F110F180F612F66956695B5
:1009F000669570E080E090E049830E947A100E9442
:100A0000B7100E944E1070E0E0917C01F0917D01E2
:100A1000109549814423B9F0E60FF71F177021E0C4
:100A200030E002C0220F331F1A95E2F7442737FD4A
:100A30004095542F80819181A281B381822B932B89
:100A4000A42BB52B18C0E60FF71F177021E030E07C
:100A500002C0220F331F1A95E2F7209530954427E4
:100A600037FD4095542F80819181A281B3818223EB
:100A70009323A423B52380839183A283B3830F9010
:100A8000CF91DF911F9108951F938830A8F56830AA
:100A900098F5162F110F110F110F180F612F669572
:100AA0006695669570E080E090E00E947A100E9462
:100AB000B7100E944E10E0916301F0916401E60FBF
:100AC000F11D1095177021E030E002C0220F331F96
:100AD0001A95E2F7442737FD4095542F8081918184
:100AE000A281B381282339234A235B2381E0211586
:100AF00031054105510509F480E01F9108951F93C8
:100B00002ED39B01AC0180917E0190917F01A09139
:100B10008001B0918101281739074A075B0708F463
:100B20004AC082E061E019D580918201882359F49E
:100B300081E061E012D584E083D583E081D581E056
:100B400060E00BD504C084E07BD583E079D517E065
:100B5000812F6091820198DF882319F080E160E0A5
:100B600002C080E161E0F9D48EE06AD5115080F7CF
:100B700081E166D582E060E0F0D4809182018F5FF0
:100B800080938201883014F010928201E8D2209183
:100B90006501309166014091670150916801620FD3
:100BA000731F841F951F60937E0170937F01809354
:100BB0008001909381011F9108950F93CF93DF934C
:100BC000EC01069F002D1124020F602F669566959B
:100BD000669570E0882777FD8095982F0E947C109D
:100BE0000E94B7100E944E10C60FD11D00950770CD
:100BF00021E030E002C0220F331F0A95E2F74427BC
:100C000037FD4095542F88819981AA81BB81282383
:100C100039234A235B2381E0211531054105510524
:100C200009F480E0DF91CF910F9108952F923F92C8
:100C30004F925F926F927F928F929F92AF92BF92EC
:100C4000CF92DF92EF92FF920F931F93CF93DF9398
:100C50003C01A62EC42ED22E102F8091690180FD5A
:100C600007C0EE24FF24442E5524262E332436C0FC
:100C7000EE24FF24442E5524262E332412C0C30113
:100C80006A2D4C2D2C2F0B2D98DF482F8C2F8D0D7E
:100C9000692D9ADE2196C215D3058CF30894E11CC8
:100CA000F11CE414F5041CF5C0E0D0E0BE2C9E2C31
:100CB000910EF1CFC3016A2D4C2D2C2F0B2D7DDF12
:100CC000482F882321F08C2F8D0D692D7DDE2196F4
:100CD000C215D3057CF30894E11CF11CE414F5045F
:100CE00034F4C0E0D0E0BE2C9E2C910EF1CF81E018
:100CF000DF91CF911F910F91FF90EF90DF90CF90F8
:100D0000BF90AF909F908F907F906F905F904F902B
:100D10003F902F90089540917C0150917D01FA0100
:100D200020E030E09FEF882311F4108204C0DA0144
:100D3000A20FB31F9C932F5F3F4F3196293031058F
:100D400091F70895833049F1843038F4882309F409
:100D500049C0823009F09BC061C0883021F08930E1
:100D600009F095C080C0262F30E083E0220F331FAA
:100D70008A95E1F7442737FD4095542F60E472E4EB
:100D80008FE090E00E94741120936501309366011A
:100D900040936701509368017CC0613081F485E81D
:100DA00094E09093140280931302809169019091D2
:100DB0006A01A0916B01B0916C0188605FC06623ED
:100DC00009F067C08FE795E09093140280931302B7
:100DD0008091690190916A01A0916B01B0916C01C1
:100DE000877F4CC0662369F4E0916901F0E080815F
:100DF0009181A281B3818E7F80839183A283B3830B
:100E000048C0613009F045C08091690190916A0144
:100E1000A0916B01B0916C01816030C06623B9F480
:100E2000E0916901F0E080819181A281B3818B7FA3
:100E300080839183A283B3838AE691E090937D01BE
:100E400080937C01909364018093630122C06130A0
:100E500011F58091690190916A01A0916B01B091A7
:100E60006C0184600BC0609369018091690190916D
:100E70006A01A0916B01B0916C018C7F8093690134
:100E800090936A01A0936B01B0936C0102C080E063
:100E9000089581E0089581E0089523E731E080E03E
:100EA00090E00BC01192E217F307E1F701969F0162
:100EB000275F3F4F8230910559F0FC0143E0EE0F70
:100EC000FF1F4A95E1F7E80FF91FE659FE4FEACFF9
:100ED0008AE691E090936401809363010996909370
:100EE0007D0180937C011092820110927E0110920C
:100EF0007F01109280011092810183E298E0A0E0CE
:100F0000B0E08093650190936601A0936701B09370
:100F1000680183E060E016DF80E061E013DF82E0DB
:100F200061E010DF81E0F2DC85E061E016D38DE066
:100F300061E013D38FE060E010D381E090E008958A
:100F400010923C0210923B0210923702109238022B
:100F50001092390210923A021092410210923D0210
:100F600010923E0210923F02109240021092330201
:100F700010923402109235021092360281E00895E8
:100F8000AF92BF92CF92DF92EF92FF920F931F9397
:100F90008091330290913402A0913502B0913602D3
:100FA0000097A105B10509F453C0D9D07B018C018C
:100FB0008091370290913802A0913902B0913A02A3
:100FC000E816F9060A071B0758F157016801A81A25
:100FD000B90ACA0ADB0A80914102882331F481E010
:100FE000809341028AE061E004C0109241028AE0ED
:100FF00060E0B3D280913B0290913C02A0E0B0E06F
:101000008E0D9F1DA01FB11F8A199B09AC09BD0938
:101010008093370290933802A0933902B0933A023A
:10102000E5D09B01AC0180913D0290913E02A091E0
:101030003F02B0914002281739074A075B0740F08A
:10104000109233021092340210923502109236023E
:101050001F910F91FF90EF90DF90CF90BF90AF90D6
:101060000895EF92FF920F931F937A018B019C01D9
:1010700040E050E060E472E48FE090E00E94741180
:1010800030933C0220933B02B1D06E0D7F1D801F38
:10109000911F60933D0270933E0280933F029093B4
:1010A00040025DD020913B0230913C0240E050E094
:1010B000620F731F841F951F60933702709338026D
:1010C0008093390290933A0281E090E0A0E0B0E092
:1010D0008093330290933402A0933502B09336028A
:1010E0001F910F91FF90EF9008956BD281E0809354
:1010F0008B01E091E901F091EA010995609390017B
:10110000709391018093920190939301E091D301A8
:10111000F091D401099560938701709388018093C1
:10112000890190938A01E091E901F091EA01099522
:1011300060938C0170938D0180938E0190938F0149
:10114000E091D301F091D4010995609383017093EC
:101150008401809385019093860181E00895EF9248
:10116000FF920F931F93E091E901F091EA01099535
:101170007B018C018091900190919101A09192014D
:10118000B0919301A8019701281B390B4A0B5B0B07
:10119000CA01B90120918B0130E040E050E00E948B
:1011A00033119B01AC0180918C0190918D01A09134
:1011B0008E01B0918F01280F391F4A1F5B1F2093AA
:1011C0008C0130938D0140938E0150938F01E092FA
:1011D0009001F09291010093920110939301B90153
:1011E000CA011F910F91FF90EF900895EF92FF9227
:1011F0000F931F93E091D301F091D40109957B01E6
:101200008C018091870190918801A0918901B09112
:101210008A01A8019701281B390B4A0B5B0BCA01F5
:10122000B90120918B0130E040E050E00E94331181
:101230009B01AC018091830190918401A091850173
:10124000B0918601280F391F4A1F5B1F209383012D
:10125000309384014093850150938601E092870189
:10126000F09288010093890110938A01B901CA01A3
:101270001F910F91FF90EF9008951F93182F8823CF
:1012800011F481E00FC0813011F482E00BC0823094
:1012900011F484E007C0833011F488E003C0843087
:1012A00019F480E180938B015ADFA0DFF89480E885
:1012B00080936100109361007894812F1F910895AD
:1012C00088E28093420210924C0210924D021092DA
:1012D0004E0210924F0210924B021092480282E08E
:1012E00080934702E5E4F2E082E180838CE0818331
:1012F00086E990E0909344028093430282E593E074
:1013000090934A028093490281E00895CF92DF9240
:10131000EF92FF920F931F93CF93DF9367DF20919C
:101320004C0230914D0240914E0250914F02621793
:1013300073078407950708F477C020914202620F73
:10134000711D811D911D60934C0270934D0280931D
:101350004E0290934F02809147027BD17C0100E0C6
:1013600010E0C0904902D0904A02B60180E090E0BF
:101370006E157F058007910778F020914302309128
:10138000440240E050E0C801B701621773078407C8
:10139000950710F4CA01B901C0914302D0914402EB
:1013A0009E0140E050E0621B730B840B950B2FEF06
:1013B00030E040E050E057D7CC1ADD0A960140E01B
:1013C00050E070D7209348028091450213D12091BC
:1013D0004B0230914C0240914D0250914E028823B5
:1013E00011F4216001C02E7F20934B0230934C02F8
:1013F00040934D0250934E0280914602FBD02091C3
:101400004B0230914C0240914D0250914E02882384
:1014100011F4226001C02D7F20934B0230934C02C7
:1014200040934D0250934E02DF91CF911F910F9147
:10143000FF90EF90DF90CF9008951092940110925A
:10144000B5012ED281E090E00895CF93DF93EC01B7
:10145000FE0121968491882311F075D2F9CFDF9196
:10146000CF9108951F938091940180FD1DC031D2CA
:10147000882309F45EC0A9D280FF5BC051D280915D
:10148000940190919501A0919601B091970181608E
:101490008093940190939501A0939601B093970146
:1014A00083E591E0D2DF45C017D2182F8091B501B6
:1014B00080328CF4912F90529F3568F4E82FFF27EB
:1014C000E7FDF095EB56FE4F10838F5F8093B501DB
:1014D000812F39D210C01D3011F01A3061F4E09123
:1014E000B501FF27E7FDF095EB56FE4F10828AE825
:1014F00091E0ABDF1CC0EDD1882329F066D280FFDC
:1015000002C0112391F48091940190919501A091D2
:101510009601B09197018E7F8093940190939501ED
:10152000A0939601B093970104C0143011F4109267
:10153000B5011F9108951F93CF93DF93EC0110E045
:10154000FE01E10FF11D8081882319F0FCD11F5F9E
:10155000F7CFDF91CF911F910895893180F5E82F62
:10156000F0E0EE0FFF1FEF5FFE4F8081815421817D
:10157000662391F4E3E08E9FF001112481E090E076
:1015800002C0880F991F2A95E2F721A1282B21A3D9
:10159000809592A1982310C0E3E08E9FF001112462
:1015A00081E090E002C0880F991F2A95E2F791A18F
:1015B000982B91A392A1982B92A381E0089580E0AB
:1015C00008951F93ECD089EA9BE09093EA01809301
:1015D000E9018BE99BE09093D4018093D30110E063
:1015E000812F60E0BADF1F5F1931D1F781E090E011
:1015F0001F910895893110F5E82FF0E0EE0FFF1FDD
:10160000EF5FFE4F80818154A3E08A9FD0011124B7
:1016100021E030E0018002C0220F331F0A94E2F77C
:10162000922F909591968C919197892391968C9376
:10163000919790968C9190978223089580E00895D9
:101640001F93182F61E089DF812F60E086DF1F91F3
:1016500008958C3020F5E82FF0E0E257FE4FE4913A
:1016600086E880937A008E2F8072806880937B005A
:10167000EF7180913301E82BE0937C0086EC80933E
:101680007A0080917A0086FDFCCF2091780030911D
:101690007900932F80E030E0282B392B02C020E026
:1016A00030E0C90108951F920F920FB60F921124D6
:1016B0002F933F938F939F93AF93BF938091BA01E2
:1016C0009091BB01A091BC01B091BD013091BE01D0
:1016D0000196A11DB11D232F2D5F2D3720F02D5711
:1016E0000196A11DB11D2093BE018093BA01909374
:1016F000BB01A093BC01B093BD018091B601909154
:10170000B701A091B801B091B9010196A11DB11D19
:101710008093B6019093B701A093B801B093B9013B
:10172000BF91AF919F918F913F912F910F900FBEDD
:101730000F901F9018958FB7F8942091BA013091AF
:10174000BB014091BC015091BD018FBFB901CA01DD
:1017500008959FB7F8942091B6013091B701409158
:10176000B8015091B90186B5A89B06C08F3F21F002
:101770002F5F3F4F4F4F5F4F9FBF542F432F322F4D
:101780002227280F311D411D511D82E0220F331FDA
:10179000441F551F8A95D1F7B901CA01089578945D
:1017A00084B5826084BD84B5816084BD85B5826066
:1017B00085BD85B5816085BDEEE6F0E08081816004
:1017C0008083E1E8F0E01082808182608083808104
:1017D00081608083E0E8F0E0808181608083E1E9DE
:1017E000F0E0808182608083808181608083E0E995
:1017F000F0E0808181608083E1ECF0E080818460B2
:101800008083808182608083808181608083E3EC3B
:10181000F0E0808181608083E0ECF0E08081826094
:101820008083E2ECF0E0808181608083EAE7F0E091
:1018300080818460808380818260808380818160F8
:10184000808380818068808308958FE891E1909300
:10185000F0018093EF018CE991E19093E80180938E
:10186000E70187E991E1909306028093050281EAFE
:1018700091E1909304028093030284EB91E19093B1
:10188000EC018093EB018FEA91E19093F201809358
:10189000F10181E008958091E80080FFFCCF089578
:1018A00081E08093D70080EA8093D80082E189BDEF
:1018B00009B400FEFDCF80E98093D8001092E000CB
:1018C0001092BF011092C0018CE08093E2007894E6
:1018D00008958091BF0108958FB7F8949091BF014A
:1018E000992369F093E09093E9002BE69091E8004A
:1018F00095FD09C092FF03C02093E800F7CF8FBF8A
:101900002FEF3FEF0BC02091F1009091E80095FD83
:1019100003C09BE69093E8008FBF30E0C9010895B3
:101920008091BF01882371F08FB7F89493E0909372
:10193000E9009BE602C09093E8002091E80025FDB5
:10194000FACF8FBF08959091BF019923D1F19FB72E
:10195000F89424E02093E9002091C201222341F071
:101960002091E80025FD02C09FBF2BC01092C2014C
:101970002091E400275E34E04091E80045FD12C06C
:101980009FBF9091E400921721F481E08093C201FF
:1019900018C09091BF019923B1F09FB7F89430938C
:1019A000E900EACF8093F1008091E80085FD03C053
:1019B0008AE38093E80085E08093C1019FBF80E0C7
:1019C00008958FEF08958FEF08958091C0010895D5
:1019D0001F920F920FB60F9211248F939F938091B5
:1019E000E1001092E10083FF11C01092E90091E044
:1019F0009093EB001092EC0092E19093ED0098E050
:101A00009093F0001092BF011092C00182FF13C0AA
:101A10008091BF01882379F08091C101882359F01A
:101A200081508093C101882331F484E08093E900E0
:101A30008AE38093E8009F918F910F900FBE0F90E3
:101A40001F9018951F920F920FB60F921124EF92CC
:101A5000FF920F931F932F933F934F935F936F9337
:101A60007F938F939F93AF93BF93EF93FF93DF93F6
:101A7000CF930F92CDB7DEB71092E9008091E800C6
:101A800083FF29C12091F1003091F1008091F10094
:101A9000E82EFF244091F100942F80E0E82AF92AF3
:101AA0000091F10010E04091F100942F80E0082BAC
:101AB000192B6091F100A091F10082EF8093E80072
:101AC000363009F059C081EA91E09C012550304040
:101AD000FC013797459154914E155F05F9F4F901D2
:101AE0004591549140175107C9F42E5F3F4FF901BA
:101AF000859194912E5F3F4FF9012491462F50E03C
:101B00007A2F60E0462B572B4F3F510519F010F00C
:101B10004FEF50E0421750F4242F08C00796295F7A
:101B20003F4FF1E08B3C9F0799F6D5C0AEEF409157
:101B3000E80050E0BA016570707061157105B9F385
:101B400042FDCCC0322F213108F030E1AC01632FCF
:101B500007C0FA014F5F5F4FE491E093F1006150DD
:101B60006623B9F7830F911D231BA093E80022235E
:101B7000F1F63031E1F2B2C0353049F48EEF8093A6
:101B8000E80089DE8E2D80688093E300A7C039309D
:101B900051F5222309F09FC0E092BF011092C001CD
:101BA0001092C1018EEF8093E80041E084EC91E057
:101BB0004093E900FC010196E491E093EB00EE23F1
:101BC00069F09C012F5F3F4FFC0184918093EC00F2
:101BD000C9010196F90124912093ED004F5F453032
:101BE00039F78EE173C0383049F4203809F073C0FA
:101BF00052DE8091BF018093F10045C0313271F413
:101C0000213A09F068C047DEE4E3F1E08191809376
:101C1000F10021E0EB33F207C9F735C03032A1F40F
:101C2000213209F058C08091E80082FFFCCFE4E344
:101C3000F1E08091F100819331E0EB33F307C9F7D4
:101C40008BEF8093E8001FC0323239F4213209F063
:101C500042C0E092C0011FDE16C03323C1F42983C5
:101C60001ADE2981223851F40093E9009091EB00AB
:101C700081E095FF80E01092E90001C080E0809350
:101C8000F1001092F1008EEF8093E80027C0313010
:101C900011F0333001F52230F1F4E114F104D9F4FC
:101CA0000F77802F81508430B0F48EEF8093E8005E
:101CB0000093E900333079F089E18093EB0081E013
:101CC00090E002C0880F991F0A95E2F78093EA001E
:101CD0001092EA0003C081E28093EB000F90CF9155
:101CE000DF91FF91EF91BF91AF919F918F917F9184
:101CF0006F915F914F913F912F911F910F91FF90A5
:101D0000EF900F900FBE0F901F901895CF93DF9319
:101D1000EC011C821D821E821F82188619861A867B
:101D20001B86E091E901F091EA01099568837983C6
:101D30008A839B83DF91CF910895CF93DF93EC014A
:101D4000E091E901F091EA0109959B01AC016C83F6
:101D50007D838E839F8388819981AA81BB81281B83
:101D6000390B4A0B5B0B288739874A875B87B90198
:101D7000CA01DF91CF9108954F925F926F927F9247
:101D80008F929F92AF92BF92CF92DF92EF92FF928B
:101D90000F931F93DF93CF93CDB7DEB728970FB67E
:101DA000F894DEBF0FBECDBF5B016C01E42E19823B
:101DB0001A821B821C821D821E821F821886D7FEF9
:101DC00007C066277727CB016A197B098C099D0913
:101DD000FF248E010F5F1F4F2AE0622E712C812C91
:101DE000912C28014F0C511CA40193017DD2605D00
:101DF000F2016083F394B901CA011616170618069A
:101E000019067CF32F2D30E0F0FE0AC0D801A9019D
:101E100041505040F801E40FF51F80E090E026C0EB
:101E2000D801A90141505040F801E40FF51F80E0AE
:101E300090E00CC00C910196BA0160806D92008315
:101E400031974150504086179707A1F082179307AA
:101E50008CF310C06C90BA0140804D926082019664
:101E60003197415050400617170721F08C01821717
:101E7000930784F3CE010196FC01EF0DF11D108252
:101E8000FE2DFB3051F02E2D2A3041F4D7FE03C039
:101E90008BE391E050DBCE0101964DDB28960FB627
:101EA000F894DEBF0FBECDBFCF91DF911F910F9190
:101EB000FF90EF90DF90CF90BF90AF909F908F906A
:101EC0007F906F905F904F9008950F93E091ED0198
:101ED000F091EE0180E0099580E060E048E028E0C4
:101EE00009E077D0E0910102F091020282E062E025
:101EF00041E00995E0910102F091020285E062E083
:101F000041E00995E0910102F091020282E065E072
:101F100041E00995E0910102F091020283E065E061
:101F200041E00995E0910102F091020284E065E050
:101F300041E00995E0910102F091020285E065E03F
:101F400041E00995E0910102F091020281E064E034
:101F500041E00995E0910102F091020286E064E01F
:101F600041E00995E0912302F091240209950F9137
:101F700008950ED084E092E0909322028093210293
:101F800081E398E0909332028093310281E00895DA
:101F90001092500284EE94E090930202809301022A
:101FA00084E495E09093E3018093E20186E196E07A
:101FB0009093E6018093E5018BE896E09093EE0123
:101FC0008093ED0183EC94E09093240280932302AC
:101FD0000895CF92DF92EF92FF920F931F93DF93BA
:101FE000CF930F92CDB7DEB7182FF62E88300CF0B6
:101FF0004BC068300CF048C0D42ED80EE22EEF0C47
:10200000083011F00A30C1F4F7FCFF2417FD10E08E
:1020100091E0083069F090E00BC0802F6F2D492FC0
:1020200099830E94E4040F5F99810D15B4F3F39432
:10203000FE1454F5012FF9CF093031F5F7FE02C037
:10204000FF24FA9417FD1FEF0F2DCD2CCA940BC05F
:10205000812F602F41E00E94E4048C2D602F41E02D
:102060000E94E4040F5F0E159CF3EA940BC0812FCD
:102070006F2D41E00E94E404812F6E2D41E00E940B
:10208000E4041F5F1D159CF30F90CF91DF911F910A
:102090000F91FF90EF90DF90CF900895ACD088F033
:1020A0009F5790F0B92F9927B751A0F0D1F0660F44
:1020B000771F881F991F1AF0BA95C9F712C0B1305F
:1020C00081F0CAD0B1E00895C7C0672F782F882764
:1020D000B85F39F0B93FCCF3869577956795B3959E
:1020E000D9F73EF490958095709561957F4F8F4F0D
:1020F0009F4F0895E89409C097FB3EF49095809512
:10210000709561957F4F8F4F9F4F9923A9F0F92FBD
:1021100096E9BB279395F695879577956795B7953B
:10212000F111F8CFFAF4BB0F11F460FF1BC06F5F21
:102130007F4F8F4F9F4F16C0882311F096E911C033
:10214000772321F09EE8872F762F05C0662371F054
:1021500096E8862F70E060E02AF09A95660F771F68
:10216000881FDAF7880F9695879597F908955DD0BF
:1021700080F09F3740F491110EF06FC060E070E086
:1021800080E89FEB089526F41B16611D711D811DCB
:1021900001C01BC0882371F4772321F09850872B4E
:1021A000762F07C0662311F499270DC09051862B16
:1021B00070E060E02AF09A95660F771F881FDAF7C3
:1021C000880F9695879597F908959F3F31F0915024
:1021D00020F4879577956795B795880F911D96950B
:1021E000879597F9089557FD9058440F551F59F05A
:1021F0005F3F71F04795880F97FB991F61F09F3FF4
:1022000079F087950895121613061406551FF2CF1C
:102210004695F1DF08C0161617061806991FF1CF6C
:1022200086957105610508940895E5DFA0F0BEE785
:10223000B91788F4BB279F3860F41616B11D672FB5
:10224000782F8827985FF7CF869577956795B11D8A
:1022500093959639C8F30895E894BB2766277727A6
:10226000CB0197F90895629FD001739FF001829F7F
:10227000E00DF11D649FE00DF11D929FF00D839F15
:10228000F00D749FF00D659FF00D9927729FB00DB2
:10229000E11DF91F639FB00DE11DF91FBD01CF01C5
:1022A00011240895A1E21A2EAA1BBB1BFD010DC02B
:1022B000AA1FBB1FEE1FFF1FA217B307E407F507F6
:1022C00020F0A21BB30BE40BF50B661F771F881FD2
:1022D000991F1A9469F760957095809590959B0168
:1022E000AC01BD01CF01089597FB092E05260ED044
:1022F00057FD04D0D7DF0AD0001C38F45095409524
:10230000309521953F4F4F4F5F4F0895F6F79095C9
:102310008095709561957F4F8F4F9F4F0895F999E4
:10232000FECF92BD81BDF89A992780B50895A6E1A8
:10233000B0E044E050E01DC0A8E1B0E042E050E071
:1023400018C0262FF999FECF1FBA92BD81BD20BDBE
:102350000FB6F894FA9AF99A0FBE01960895242FB1
:10236000F1DF252FEFDF00C0ECDF272FEBCFDC0103
:10237000CB01FC01F999FECF06C0F2BDE1BDF89A90
:10238000319600B40D9241505040B8F70895F8943A
:02239000FFCF7D
:10239200FF42004201420242034207440044014418
:1023A20002440343064307440644074204420542EB
:1023B20006460746064605460446014600440444CE
:0E23C2000545064000E100000000082D000067
:00000001FF
