:1000000027C1000041C100003FC100003DC1000008
:100010003BC1000039C1000037C1000035C10000FC
:1000200033C1000031C100000C94C70C0C94010DC9
:100030002BC1000029C1000027C1000025C100001C
:1000400023C1000021C100001FC100001DC100002C
:100050001BC1000019C1000017C100000C94B90AAF
:1000600013C1000011C100000FC100000DC100004C
:100070000BC1000009C1000007C1000005C100005C
:1000800003C1000001C10000FFC00000FDC000006E
:10009000FBC00000F9C00000F7C00000F5C0000080
:1000A000F3C00000F1C00000EFC000002D2D2D2D89
:1000B0002D2D2D2D2D2D2D2D2D2D2D2D2D2D2D2D70
:1000C0002D0D0A000D0A004379636C65732F53658B
:1000D000633A20000D0A0047616D65204176672074
:1000E00054696D653A20000D0A00536F756E6420E7
:1000F0004176672054696D653A20000D0A00496E0B
:10010000707574204176672054696D653A20000D42
:100110000A00436F6E736F6C6520417667205469E7
:100120006D653A20002D2D2D2D50726F66696C651E
:100130007220446174612D2D2D2D0D0A000D0A547D
:100140004D4F4F53205465726D696E616C0D0A46B8
:100150006F726D61742069733A20636F6D6D616EAB
:100160006420617267312061726732206172673387
:100170000D0A3E000D0A3E00000104050607252475
:100180002322212000010000B8011200020000CA51
:100190000143000300000D020401030904110214CD
:1001A00002030904270216030309043F020C00019D
:1001B000C1120180360181361201000202000010D6
:1001C000C0167A0400010102030109024300020182
:1001D00000C03209040000010202010005240010E1
:1001E000010524010101042402060524060001077B
:1001F00005820310004009040100020A0000000704
:1002000005030240000007058402400000040309C2
:1002100004140359006F007500720020004E006145
:10022000006D0065000000160355005300420020D9
:1002300000530065007200690061006C0000000C52
:10024000033100320033003400350000002D00007F
:1002500011241FBECFEFDAE0DEBFCDBF11E0A0E07A
:10026000B1E0E2EDF5E302C005900D92AC3AB107C2
:10027000D9F713E0ACEAB1E001C01D92A636B10790
:10028000E1F7ABD10C94E71ABBCEAF92BF92CF92FD
:10029000DF92EF92FF920F931F93182F18D75B01F5
:1002A0006C01112349F46093C0017093C1018093E4
:1002B000C2019093C3012DC0113059F508D79B019D
:1002C000AC016093C4017093C5018093C601909303
:1002D000C7018091C8019091C901A091CA01B09154
:1002E000CB01E090C001F090C1010091C2011091DA
:1002F000C3018E199F09A00BB10B820F931FA41F7E
:10030000B51F8093C8019093C901A093CA01B0930F
:10031000CB018091CC019091CD01A091CE01B09103
:10032000CF01A816B906CA06DB0608F45AC0D601E2
:10033000C501805C9D4BA04FBF4F8093CC01909333
:10034000CD01A093CE01B093CF016091C80170910F
:10035000C9018091CA019091CB0124E630E040E0D0
:1003600050E00E94971920E432E44FE050E00E94F0
:10037000D51984E6982F921B9093D001953610F0F2
:100380008093D0011092C8011092C9011092CA0145
:100390001092CB018091880280FF23C08091D00110
:1003A000823430F0809100018823D9F080E016C0BB
:1003B000982F9C52963130F480910001813089F061
:1003C00081E00CC0895190910001833120F492307A
:1003D00041F082E003C0943021F084E0FED68093A7
:1003E00000011F910F91FF90EF90DF90CF90BF9091
:1003F000AF900895EF92FF920F931F93ABD6609347
:10040000820270938302809384029093850280E03D
:100410003CDF86EA92E00E94460F0E943E0AE0908E
:10042000AC01F090AD010091AE011091AF0186EAF0
:1004300092E00E94590F6E0D7F1D801F911F6093E7
:10044000AC017093AD018093AE019093AF018091A8
:10045000880283FF1DC089E892E00E94460F08D7FA
:10046000E090B001F090B1010091B2011091B301A0
:1004700089E892E00E94590F6E0D7F1D801F911F29
:100480006093B0017093B1018093B2019093B30176
:100490008091880282FF1CC086E792E00E94460F8E
:1004A000E090B401F090B5010091B6011091B70150
:1004B00086E792E00E94590F6E0D7F1D801F911FED
:1004C0006093B4017093B5018093B6019093B70126
:1004D0008091880281FF1DC088EC92E00E94460F47
:1004E00017D5E090B801F090B9010091BA011091D0
:1004F000BB0188EC92E00E94590F6E0D7F1D801F9A
:10050000911F6093B8017093B9018093BA019093E1
:10051000BB0181E0BADE1F910F91FF90EF9008952B
:10052000823071F1833030F4882371F0813009F02A
:1005300052C018C0883009F447C0893009F447C058
:10054000833009F048C032C08091880290918902BE
:10055000A0918A02B0918B02662311F081601DC0C8
:100560008E7F1BC08091880290918902A0918A029F
:10057000B0918B02662311F082600FC08D7F0DC099
:100580008091880290918902A0918A02B0918B0299
:10059000662311F0846001C08B7F80938802909362
:1005A0008902A0938A02B0938B0213C080918802C3
:1005B00090918902A0918A02B0918B02662311F07A
:1005C0008860EBCF877FE9CF6093880202C0609399
:1005D000970281E0089580E008952F923F924F9214
:1005E0005F926F927F928F929F92AF92BF92CF92C3
:1005F000DF92EF92FF920F931F93DF93CF9300D080
:100600000F92CDB7DEB780E8809361001092610051
:1006100034D58823A1F01DD7009789F006D4009720
:1006200071F0FED5882359F053D4882341F00E94FD
:10063000040C882321F00E946B11882371F400E0E0
:1006400010E017FD03C08BE061E002C08BE060E0CA
:100650000E94470B0F5F1F4FF4CF10928802109239
:1006600097021092CC011092CD011092CE011092FF
:10067000CF011092D0011092C0011092C1011092CE
:10068000C2011092C3011092C4011092C5011092D0
:10069000C6011092C7011092C8011092C9011092B0
:1006A000CA011092CB0180E060E03ADF81E060E0B7
:1006B00037DF82E061E034DF83E061E031DF83E057
:1006C00060E008D388E06CE305D30E94360F0E94F7
:1006D000650E88ED92E00E94460F8CDE8AEB92E078
:1006E0000E94460F0E94760EE090BC01F090BD0182
:1006F0000091BE011091BF018AEB92E00E94590F58
:100700006E0D7F1D801F911F6093BC017093BD0112
:100710008093BE019093BF018091A4029091A502A5
:1007200001969093A5028093A40288ED92E00E9426
:10073000590F603422E472072FE0820720E092070D
:1007400060F288ED92E00E94460FE090A402F090E3
:10075000A50200E010E06091AC017091AD018091C4
:10076000AE019091AF01A80197010E94D519D22E38
:10077000C32EB42EA52E6091B0017091B10180916D
:10078000B2019091B301A80197010E94D519922E50
:10079000432E342E252E6091B8017091B9018091BD
:1007A000BA019091BB01A80197010E94D519822E30
:1007B000732E642E552E6091BC017091BD01809105
:1007C000BE019091BF01A80197010E94D519E42EA6
:1007D00085E291E029833A835B8343D682E191E00D
:1007E00040D66D2D7C2D8B2D9A2D4BE00E94740FE1
:1007F0008FE091E036D68EEF90E033D6692D742DE0
:10080000832D922D4BE00E94740F8BEF90E029D640
:100810008AEE90E026D6682D772D862D952D4BE01B
:100820000E94740F87EE90E01CD687ED90E019D6F9
:100830002981622F3A81732F8E2D5B81952F4BE09A
:100840000E94740F84ED90E00CD687EC90E009D6FE
:100850006091A4027091A50280E090E04BE00E94BC
:10086000740F84EC90E0FDD58CEA90E0FAD51092FC
:10087000BC011092BD011092BE011092BF011092F6
:10088000B8011092B9011092BA011092BB011092F6
:10089000B4011092B5011092B6011092B7011092F6
:1008A000B0011092B1011092B2011092B3011092F6
:1008B000AC011092AD011092AE011092AF011092F6
:1008C000A5021092A40209CF0895813009F580E0B5
:1008D00061E0DDD68091D5019091D601A091D7013C
:1008E000B091D80180688D7F8093D5019093D60117
:1008F000A093D701B093D80110921C0210921D0250
:1009000010921E0210921F021092200281E00895A0
:100910008823A9F460E0BBD68091D5019091D601DF
:10092000A091D701B091D8018D778093D501909394
:10093000D601A093D701B093D80180E008958FEF3E
:1009400008958091D50182FF1CC026ED31E04091D1
:100950001A0250911B02C90181964217530749F4AC
:1009600090931B0280931A0250931902409318022D
:10097000089530931B0220931A02909319028093DA
:10098000180208951F93DF93CF930F92CDB7DEB770
:10099000803108F051C0603108F04EC0162F12951A
:1009A000107F180F612F66956695669570E080E060
:1009B00090E049830E942B180E9468180E94FF173C
:1009C00070E0E0911802F0911902109549814423DA
:1009D000B9F0E60FF71F177021E030E002C0220FD8
:1009E000331F1A95E2F7442737FD4095542F808135
:1009F0009181A281B381822B932BA42BB52B18C09C
:100A0000E60FF71F177021E030E002C0220F331FFE
:100A10001A95E2F720953095442737FD4095542FDD
:100A200080819181A281B38182239323A423B52362
:100A300080839183A283B3830F90CF91DF911F9125
:100A400008951F938031A0F5603190F5162F12950F
:100A5000107F180F612F66956695669570E080E0AF
:100A600090E00E942B180E9468180E94FF17E091E6
:100A70001A02F0911B02E60FF11D1095177021E08C
:100A800030E002C0220F331F1A95E2F7442737FDEA
:100A90004095542F80819181A281B38128233923ED
:100AA0004A235B2381E0211531054105510509F4F5
:100AB00080E01F9108951F9382E061E0E8D5809166
:100AC0001C02882359F481E061E0E1D584E035D649
:100AD00083E033D681E060E0DAD504C084E02DD62F
:100AE00083E02BD617E0812F60911C02AADF8823B8
:100AF00019F086E060E002C086E061E0C8D589E0D8
:100B00001CD6115080F71FE0812F60911C0299DFE5
:100B1000882319F086E060E002C086E061E0B7D586
:100B200089E00BD61150173079F788E006D682E0BD
:100B300060E0ADD580911C028F5F80931C028031F4
:100B400014F010921C021F9108950F93CF93DF931E
:100B5000EC01069F002D1124020F602F669566950B
:100B6000669570E0882777FD8095982F0E942D1854
:100B70000E9468180E94FF17C60FD11D00950770CC
:100B800021E030E002C0220F331F0A95E2F744272C
:100B900037FD4095542F88819981AA81BB812823F4
:100BA00039234A235B2381E0211531054105510595
:100BB00009F480E0DF91CF910F9108952F923F9239
:100BC0004F925F926F927F928F929F92AF92BF925D
:100BD000CF92DF92EF92FF920F931F93CF93DF9309
:100BE0003C01A62EC42ED22E102F8091D50180FD5F
:100BF00007C0EE24FF24442E5524262E332436C06D
:100C0000EE24FF24442E5524262E332412C0C30183
:100C10006A2D4C2D2C2F0B2D98DF482F8C2F8D0DEE
:100C2000692DB0DE2196C215D3058CF30894E11C22
:100C3000F11CE414F5041CF5C0E0D0E0BE2C9E2CA1
:100C4000910EF1CFC3016A2D4C2D2C2F0B2D7DDF82
:100C5000482F882321F08C2F8D0D692D93DE21964E
:100C6000C215D3057CF30894E11CF11CE414F504CF
:100C700034F4C0E0D0E0BE2C9E2C910EF1CF81E088
:100C8000DF91CF911F910F91FF90EF90DF90CF9068
:100C9000BF90AF909F908F907F906F905F904F909C
:100CA0003F902F9008954091180250911902FA0137
:100CB00020E030E09FEF882311F4108204C0DA01B5
:100CC000A20FB31F9C932F5F3F4F31962132310506
:100CD00091F70895833049F1843038F4882309F47A
:100CE00049C0823009F09BC061C0883021F0893052
:100CF00009F095C080C0262F30E084E0220F331F1A
:100D00008A95E1F7442737FD4095542F60E472E45B
:100D10008FE090E00E94F7192093D1013093D20127
:100D20004093D3015093D4017CC0613081F484E6B8
:100D300094E09093C7028093C6028091D501909170
:100D4000D601A091D701B091D80188605FC0662319
:100D500009F067C08BE595E09093C7028093C602C7
:100D60008091D5019091D601A091D701B091D80181
:100D7000877F4CC0662369F4E091D501F0E0808163
:100D80009181A281B3818E7F80839183A283B3837B
:100D900048C0613009F045C08091D5019091D601DD
:100DA000A091D701B091D801816030C06623B9F419
:100DB000E091D501F0E080819181A281B3818B7FA8
:100DC00080839183A283B38386ED91E0909319028F
:100DD0008093180290931B0280931A0222C0613004
:100DE00011F58091D5019091D601A091D701B091D4
:100DF000D80184600BC06093D5018091D50190919A
:100E0000D601A091D701B091D8018C7F8093D501F4
:100E10009093D601A093D701B093D80102C080E08F
:100E2000089581E0089581E008952FED31E080E09C
:100E300090E00BC01192E217F307E1F701969F01D2
:100E40002F5D3F4F8230910559F0FC0145E0EE0FD8
:100E5000FF1F4A95E1F7E80FF91FEA52FE4FEACF6C
:100E600086ED91E090931B0280931A0281969093F5
:100E700019028093180210921C0210921D02109207
:100E80001E0210921F021092200281E194E0A0E065
:100E9000B0E08093D1019093D201A093D301B0939D
:100EA000D40183E060E016DF80E061E013DF82E0E0
:100EB00061E010DF81E009DD85E061E0E8D38AE0F0
:100EC00061E0E5D387E060E0E2D381E090E008955F
:100ED0001092EF021092EE021092EA021092EB02D0
:100EE0001092EC021092ED021092F4021092F002B5
:100EF0001092F1021092F2021092F3021092E602A6
:100F00001092E7021092E8021092E90281E008953F
:100F1000AF92BF92CF92DF92EF92FF920F931F9307
:100F20008091E6029091E702A091E802B091E90277
:100F30000097A105B10509F453C0C9D07B018C010C
:100F40008091EA029091EB02A091EC02B091ED0247
:100F5000E816F9060A071B0758F157016801A81A95
:100F6000B90ACA0ADB0A8091F402882331F481E0CD
:100F70008093F40280E161E004C01092F40280E109
:100F800060E085D38091EE029091EF02A0E0B0E0A6
:100F90008E0D9F1DA01FB11F8A199B09AC09BD09A9
:100FA0008093EA029093EB02A093EC02B093ED02DF
:100FB000D1D09B01AC018091F0029091F102A091FF
:100FC000F202B091F302281739074A075B0740F095
:100FD0001092E6021092E7021092E8021092E902E3
:100FE0001F910F91FF90EF90DF90CF90BF90AF9047
:100FF0000895EF92FF920F931F937A018B019C014A
:1010000040E050E060E472E48FE090E00E94F71965
:101010003093EF022093EE029DD06E0D7F1D801F56
:10102000911F6093F0027093F1028093F20290930B
:10103000F3024DD02091EE023091EF0240E050E0FB
:10104000620F731F841F951F6093EA027093EB0277
:101050008093EC029093ED0281E090E0A0E0B0E09C
:101060008093E6029093E702A093E802B093E9022E
:101070001F910F91FF90EF900895DFD281E0809350
:1010800029029CD360932E0270932F02809330022A
:101090009093310285D3609325027093260280934A
:1010A0002702909328028AD360932A0270932B021E
:1010B00080932C0290932D0273D36093210270933E
:1010C0002202809323029093240281E00895EF92FC
:1010D000FF920F931F9372D37B018C0180912E029C
:1010E00090912F02A0913002B0913102A801970196
:1010F000281B390B4A0B5B0BCA01B901209129024D
:1011000030E040E050E00E9497199B01AC018091D3
:101110002A0290912B02A0912C02B0912D02280F4F
:10112000391F4A1F5B1F20932A0230932B024093E2
:101130002C0250932D02E0922E02F0922F02009387
:10114000300210933102B901CA011F910F91FF9033
:10115000EF900895EF92FF920F931F9321D37B019D
:101160008C018091250290912602A0912702B091D6
:101170002802A8019701281B390B4A0B5B0BCA01F7
:10118000B9012091290230E040E050E00E94971917
:101190009B01AC018091210290912202A091230237
:1011A000B0912402280F391F4A1F5B1F2093210290
:1011B000309322024093230250932402E0922502AE
:1011C000F09226020093270210932802B901CA0167
:1011D0001F910F91FF90EF9008951F93182F882370
:1011E00011F481E00FC0813011F482E00BC0823035
:1011F00011F484E007C0833011F488E003C0843028
:1012000019F480E18093290262DFA4DFF89480E87A
:1012100080936100109361007894812F1F9108954D
:101220008CE38093360210923D0210923E0210929F
:101230003F021092400210923C0210923B0284E066
:1012400080933A02E7E3F2E084E1808383E18183E3
:1012500082E1828384E690E09093330280933202AD
:1012600084E893E0909335028093340281E00895FE
:10127000CF92DF92EF92FF920F931F93CF93DF9362
:1012800069DF20913D0230913E0240913F02509132
:101290004002621773078407950708F491C02091F4
:1012A0003602620F711D811D911D60933D02709386
:1012B0003E0280933F029093400280913A0246D2D0
:1012C0007C0100E010E0C0903402D0903502B601FD
:1012D00080E090E06E157F058007910778F02091FF
:1012E00032023091330240E050E0C801B70162178A
:1012F00073078407950710F4CA01B901C09132023F
:10130000D09133029E0140E050E0621B730B840BCE
:10131000950B2FEF30E040E050E00E949719CC1A77
:10132000DD0A960140E050E00E94D51920933B026F
:1013300080913702DCD120913C0230913D024091F6
:101340003E0250913F02882311F4216001C02E7F9C
:1013500020933C0230933D0240933E0250933F0263
:1013600080913802C4D120913C0230913D024091DD
:101370003E0250913F02882311F4226001C02D7F6C
:1013800020933C0230933D0240933E0250933F0233
:1013900080913902ACD120913C0230913D024091C4
:1013A0003E0250913F02882311F4246001C02B7F3C
:1013B00020933C0230933D0240933E0250933F0203
:1013C000DF91CF911F910F91FF90EF90DF90CF9021
:1013D0000895813069F0813038F0823079F08330BF
:1013E000A1F480913B02089580913C0281700895A0
:1013F00090913C0281E091FD09C005C090913C02B2
:1014000081E092FD03C080E0089580E008951F937D
:10141000182F83E0DEDF482F8F3FB9F0612F8FEF69
:1014200090E070E00E94C219842F0E94B619682FC4
:1014300070E0882777FD8095982F0E942D180E94D4
:1014400068180E94FF17862F02C0812F81501F91BC
:101450000895109241021092620201D281E090E060
:101460000895CF93DF93EC01FE01219684918823A8
:1014700011F048D2F9CFDF91CF9108951F93809159
:10148000410280FD1DC004D2882309F45EC07CD2D5
:1014900080FF5BC024D28091410290914202A091D2
:1014A0004302B091440281608093410290934202D2
:1014B000A0934302B09344028DE391E0D2DF45C094
:1014C000EAD1182F8091620280328CF4912F9052D1
:1014D0009F3568F4E82FFF27E7FDF095EE5BFD4FA1
:1014E00010838F5F80936202812F0CD210C01D3059
:1014F00011F01A3061F4E0916202FF27E7FDF095E8
:10150000EE5BFD4F108284E791E0ABDF1CC0C0D1E1
:10151000882329F039D280FF02C0112391F48091F1
:10152000410290914202A0914302B09144028E7F09
:101530008093410290934202A0934302B0934402ED
:1015400004C0143011F4109262021F9108951F9389
:10155000CF93DF93EC0110E0FE01E10FF11D8081DC
:10156000882319F0CFD11F5FF7CFDF91CF911F9163
:1015700008951F920F920FB60F9211242F933F934D
:101580004F935F936F937F938F939F93AF93BF938B
:10159000EF93FF938091F6029091F702A091F802E9
:1015A000B091F902309163020196A11DB11D232F64
:1015B0002D5F2D3720F02D570196A11DB11D2093D1
:1015C00063028093F6029093F702A093F802B0931F
:1015D000F9028091FA029091FB02A091FC02B09175
:1015E000FD020196A11DB11D8093FA029093FB02AA
:1015F000A093FC02B093FD028091F5028F5F80936F
:10160000F5028091F502823038F0E091C602F09147
:10161000C70209951092F502FF91EF91BF91AF912A
:101620009F918F917F916F915F914F913F912F91FA
:101630000F900FBE0F901F901895F89484B582609C
:1016400084BD84B5816084BD85B5826085BD85B566
:10165000816085BDEEE6F0E08081816080837894D2
:101660001092FA021092FB021092FC021092FD02FC
:101670001092F6021092F7021092F8021092F902FC
:10168000109263021092F50281E090E00895893192
:1016900060F5E82FF0E0EE0FFF1FEF5FFE4F808157
:1016A00021818154E82FEE0FE80FF0E0662371F4FA
:1016B00081E090E002C0880F991F2A95E2F721A1EE
:1016C000282B21A3809592A198230CC081E090E063
:1016D00002C0880F991F2A95E2F791A1982B91A338
:1016E00092A1982B92A381E0089580E0089589311A
:1016F00010F5E82FF0E0EE0FFF1FEF5FFE4F808147
:101700008154A3E08A9FD001112421E030E00180C0
:1017100002C0220F331F0A94E2F7922F9095919600
:101720008C919197892391968C93919790968C9117
:1017300090978223089580E008951F93182F61E009
:10174000A6DF812F60E0A3DF1F9108958C3020F584
:10175000E82FF0E0E858FE4FE49186E880937A00A5
:101760008E2F8072806880937B00EF7180913301AF
:10177000E82BE0937C0086EC80937A0080917A00DD
:1017800086FDFCCF2091780030917900932F80E086
:1017900030E0282B392B02C020E030E0C901089549
:1017A0008FB7F8942091F6023091F7024091F80239
:1017B0005091F9028FBFB901CA0108959FB7F894FB
:1017C0002091FA023091FB024091FC025091FD02FF
:1017D00086B5A89B06C08F3F21F02F5F3F4F4F4F2C
:1017E0005F4F9FBF542F432F322F2227280F311DC9
:1017F000411D511D62E0220F331F441F551F6A9582
:10180000D1F7B901CA01089588E79AE19093A1023E
:101810008093A00285E89AE190939B0280939A02BC
:1018200080E89AE19093B9028093B8028AE89AE13D
:101830009093B5028093B4028DE99AE190939D0252
:1018400080939C0288E99AE19093A3028093A2027C
:1018500081E008958091E80080FFFCCF089581E049
:101860008093D70080EA8093D80082E189BD09B4D3
:1018700000FEFDCF80E98093D8001092E000109226
:101880006402109265028CE08093E20078940895DF
:101890008091640208958FB7F8949091640299231F
:1018A00069F093E09093E9002BE69091E80095FDB4
:1018B00009C092FF03C02093E800F7CF8FBF2FEF3E
:1018C0003FEF0BC02091F1009091E80095FD03C01F
:1018D0009BE69093E8008FBF30E0C90108958091A6
:1018E0006402882371F08FB7F89493E09093E90035
:1018F0009BE602C09093E8002091E80025FDFACF16
:101900008FBF0895909164029923D1F19FB7F89405
:1019100024E02093E90020916702222341F02091E6
:10192000E80025FD02C09FBF2BC0109267022091E6
:10193000E400275E34E04091E80045FD12C09FBFFF
:101940009091E400921721F481E08093670218C01F
:10195000909164029923B1F09FB7F8943093E90015
:10196000EACF8093F1008091E80085FD03C08AE30F
:101970008093E80085E0809366029FBF80E0089531
:101980008FEF08958FEF08958091650208951F925B
:101990000F920FB60F9211248F939F938091E100C5
:1019A0001092E10083FF11C01092E90091E0909342
:1019B000EB001092EC0092E19093ED0098E0909390
:1019C000F000109264021092650282FF13C08091B1
:1019D0006402882379F080916602882359F081504F
:1019E00080936602882331F484E08093E9008AE3DF
:1019F0008093E8009F918F910F900FBE0F901F90E2
:101A000018951F920F920FB60F921124EF92FF922A
:101A10000F931F932F933F934F935F936F937F93F6
:101A20008F939F93AF93BF93EF93FF93DF93CF93E6
:101A30000F92CDB7DEB71092E9008091E80083FFE6
:101A400029C12091F1003091F1008091F100E82E40
:101A5000FF244091F100942F80E0E82AF92A0091B8
:101A6000F10010E04091F100942F80E0082B192B39
:101A70006091F100A091F10082EF8093E800363090
:101A800009F059C08BE891E09C0125503040FC01E1
:101A90003797459154914E155F05F9F4F901459139
:101AA000549140175107C9F42E5F3F4FF9018591BA
:101AB00094912E5F3F4FF9012491462F50E07A2FE9
:101AC00060E0462B572B4F3F510519F010F04FEFB8
:101AD00050E0421750F4242F08C00796295F3F4F6B
:101AE000F1E0853B9F0799F6D5C0AEEF4091E80045
:101AF00050E0BA016570707061157105B9F342FD6F
:101B0000CCC0322F213108F030E1AC01632F07C087
:101B1000FA014F5F5F4FE491E093F100615066235B
:101B2000B9F7830F911D231BA093E8002223F1F640
:101B30003031E1F2B2C0353049F48EEF8093E800E5
:101B400089DE8E2D80688093E300A7C0393051F57F
:101B5000222309F09FC0E092640210926502109265
:101B600066028EEF8093E80041E08EEA91E04093B8
:101B7000E900FC010196E491E093EB00EE2369F0AB
:101B80009C012F5F3F4FFC0184918093EC00C901C1
:101B90000196F90124912093ED004F5F453039F70C
:101BA0008EE173C0383049F4203809F073C052DE3A
:101BB000809164028093F10045C0313271F4213A82
:101BC00009F068C047DEE4E3F1E081918093F10021
:101BD00021E0EB33F207C9F735C03032A1F42132EE
:101BE00009F058C08091E80082FFFCCFE4E3F1E007
:101BF0008091F100819331E0EB33F307C9F78BEF6C
:101C00008093E8001FC0323239F4213209F042C01B
:101C1000E09265021FDE16C03323C1F429831ADE69
:101C20002981223851F40093E9009091EB0081E082
:101C300095FF80E01092E90001C080E08093F10000
:101C40001092F1008EEF8093E80027C0313011F040
:101C5000333001F52230F1F4E114F104D9F40F77B7
:101C6000802F81508430B0F48EEF8093E800009391
:101C7000E900333079F089E18093EB0081E090E076
:101C800002C0880F991F0A95E2F78093EA0010922C
:101C9000EA0003C081E28093EB000F90CF91DF91C7
:101CA000FF91EF91BF91AF919F918F917F916F9134
:101CB0005F914F913F912F911F910F91FF90EF9066
:101CC0000F900FBE0F901F90189510926A021092FD
:101CD0006B0210926C0210926D0210926E021092C2
:101CE00068028FEF8093690281E008951F93CF937C
:101CF000DF9380E074D3EC0180E090E079D39091A1
:101D00006802992331F5E091B602F091B702099586
:101D1000182FE0918602F091870280E009958823D0
:101D2000A9F4E0919E02F0919F0209958CE0189F22
:101D3000C00111248C0F9D1F60E040E00E94D71667
:101D4000E091D602F091D70209951FEF1093690236
:101D50001BC080916902992787FD9095FC01EE0FC9
:101D6000FF1FE80FF91FEE0FFF1FEE0FFF1FEC0F15
:101D7000FD1F0284F385E02D0995882329F4109234
:101D800068028FEF80936902809169028F3FC9F0EA
:101D9000909168029923A9F491E0909368029927A1
:101DA00087FD9095FC01EE0FFF1FE80FF91FEE0F66
:101DB000FF1FEE0FFF1FEC0FFD1F0084F185E02DCC
:101DC0000995E0918602F091870281E009958823C8
:101DD00009F43DC0E0918602F091870282E0099506
:101DE0008823A9F180916A02813021F50AD39B01F1
:101DF000AC0180916B0290916C02A0916D02B09148
:101E00006E0284529A4FAF4FBF4F281739074A07C7
:101E10005B0740F110926A0210926B0210926C0202
:101E200010926D0210926E02109268028FEF8093F2
:101E3000690218C081E080936A02E3D260936B026A
:101E400070936C0280936D0290936E020BC0D9D296
:101E500060936B0270936C0280936D0290936E029C
:101E600010926A02DF91CF911F91089583E391E070
:101E70009093700280936F028CEC90E090937202CA
:101E80008093710281E0089580E060CCCF93DF936E
:101E9000EC011C821D821E821F82188619861A86FA
:101EA0001B868CDC688379838A839B83DF91CF9147
:101EB0000895CF93DF93EC0181DC9B01AC016C832F
:101EC0007D838E839F8388819981AA81BB81281B12
:101ED000390B4A0B5B0B288739874A875B87B90127
:101EE000CA01DF91CF9108954F925F926F927F92D6
:101EF0008F929F92AF92BF92CF92DF92EF92FF921A
:101F00000F931F93DF93CF93CDB7DEB728970FB60C
:101F1000F894DEBF0FBECDBF5B016C01E42E1982C9
:101F20001A821B821C821D821E821F821886D7FE87
:101F300007C066277727CB016A197B098C099D09A1
:101F4000FF248E010F5F1F4F2AE0622E712C812C1F
:101F5000912C28014F0C511CA40193010E94F719E8
:101F6000605DF2016083F394B901CA011616170689
:101F70001806190674F32F2D30E0F0FE0AC0D801C0
:101F8000A90141505040F801E40FF51F80E090E0B6
:101F900026C0D801A90141505040F801E40FF51FB7
:101FA00080E090E00CC00C910196BA0160806D92C7
:101FB000008331974150504086179707A1F0821750
:101FC00093078CF310C06C90BA0140804D926082F0
:101FD00001963197415050400617170721F08C01A8
:101FE0008217930784F3CE010196FC01EF0DF11DDA
:101FF0001082FE2DFB3051F02E2D2A3041F4D7FEF9
:1020000003C08DE492E02DDACE010196A0DA289685
:102010000FB6F894DEBF0FBECDBFCF91DF911F91F9
:102020000F91FF90EF90DF90CF90BF90AF909F9077
:102030008F907F906F905F904F9008950F93E091F5
:102040009E02F0919F0280E0099582E062E044E008
:1020500024E009E0D5D58AE062E044E024E0D0D570
:1020600087E067E042E022E0CBD582E06CE04DE023
:102070002CE02BD681E06AE041E02BE026D68EE012
:102080006AE04EE02BE021D6E091D602F091D70233
:10209000099581E00F910895EF92FF920F931F939E
:1020A000E0918602F091870283E00995182FE09174
:1020B0008602F091870280E00995E82EE091860281
:1020C000F091870281E00995F82EE0918602F09167
:1020D000870282E00995082FE0919E02F0919F020D
:1020E00080E00995812F6AE00E94B619182F80912F
:1020F0007302811751F08EEA96E049E150E060E00A
:1021000070E00E94F90710937302EE2041F0E09115
:10211000B202F091B30283E060E041E00995FF2054
:1021200041F0E091B202F091B30284E060E041E05E
:102130000995002341F0E091B202F091B30285E0ED
:1021400060E041E00995812F992787FD9095880FE0
:10215000991FE0919802F0919902855C9E4F63E08F
:1021600045E020E000E00995E091D602F091D70229
:10217000099581E01F910F91FF90EF90089580E104
:10218000809303031092FE021092FF02109200034C
:1021900010920103E0918602F091870283E0099595
:1021A000809302030895E0919E02F0919F0280E0E7
:1021B000099584E891E06091030340E0F8D587E059
:1021C00067E040E02FE081D588E067E04FE02FE056
:1021D0007CD5E091D602F091D702099512D19B01EE
:1021E000AC018091FE029091FF02A0910003B0919A
:1021F000010382179307A407B50708F5809103032D
:102200008150809303038C3E19F480E18093030393
:10221000E0918602F091870283E0099580930203A2
:10222000F0D020910203620F711D811D911D6093FA
:10223000FE027093FF02809300039093010381E0FC
:1022400008950F93E0919E02F0919F0280E009951E
:10225000E091B602F091B70289E00995992787FDD0
:102260009095880F991FE0919802F09199028159F9
:102270009E4F63E045E020E000E00995E091D60242
:10228000F091D702099581E00F910895E0919E02A7
:10229000F0919F0280E00995F7DD9C01B901882744
:1022A00077FD8095982FD9D620E030EC4FE754E4A5
:1022B00039D620E030E040E851E4D6D79BD6462F0F
:1022C00080E060E020E001D5E091D602F091D702F5
:1022D000099581E00895CF93DF9371D48AEF91E05F
:1022E0009093D5028093D40289EF97E09093E50212
:1022F0008093E40289EE99E09093870280938602AE
:1023000087E09AE09093B7028093B602C4E0D3E0EE
:10231000CE016AE871E00E94711A8CE490E190931A
:102320000D0380930C0390930F0380930E03CE0153
:102330000C966EE871E00E94711A8EE190E1909324
:1023400019038093180390931B0380931A03CE0103
:10235000489663E971E00E94711A8FEB90E19093C7
:1023600025038093240383ED90E1909327038093CA
:102370002603CE01849668E971E00E94711A86E412
:1023800091E19093310380933003909333038093D2
:102390003203CE01C0966DE971E00E94711A81E2AC
:1023A00091E190933D0380933C0390933F0380938E
:1023B0003E03CE01CC9662EA71E00E94711A8AE077
:1023C00092E190934903809348038FE995E19093BC
:1023D0004B0380934A0381E0DF91CF9108958823D6
:1023E00019F424E033E002C020E030E0C901089590
:1023F000882319F426E030E002C020E030E0C90173
:10240000089560918202709183028091840290917C
:102410008502089586E080934D0310924E038093C9
:102420005F031092600310924C0380914C039091D3
:102430004D03A0914E03B0914F03816080934C03F4
:1024400090934D03A0934E03B0934F03DADFDC016A
:10245000CB018093610390936203A0936303B093D5
:1024600064030C94661AEF92FF920F931F93DF930D
:10247000CF930F92CDB7DEB78C017B01E0919E0226
:10248000F0919F0280E0099580E067E04FE027E04F
:102490001CD480E068E04FE028E017D41A82F801ED
:1024A0008181805D89838E010F5F1F4FC80168E0C5
:1024B00041E07DD4F7018181805D8983C80168E0B6
:1024C0004AE075D4E091D602F091D70209950F90B9
:1024D000CF91DF911F910F91FF90EF900895AF92F0
:1024E000BF92CF92DF92EF92FF920F931F93609172
:1024F0004F0370915003809151039091520320E05B
:1025000030E040E851E4ACD687FD1DC080E090E0AB
:10251000A0E8B1E480934F0390935003A09351033C
:10252000B09352038091570390915803A09159039F
:10253000B0915A03B0588093570390935803A093D7
:102540005903B0935A0360914F03709150038091E7
:1025500051039091520320E030E0A901DFD4181616
:10256000E4F080E090E0DC0180934F03909350030F
:10257000A0935103B0935203809157039091580355
:10258000A0915903B0915A03B05880935703909388
:102590005803A0935903B0935A03E0905303F0906B
:1025A00054030091550310915603C801B70120E070
:1025B00030E040E751E454D687FD49C0C801B70177
:1025C00020E030E040E851E4A9D418160CF43FC0F4
:1025D000A0904F03B0905003C0905103D09052038D
:1025E000E0904D036E2D772767FD7095872F972F0D
:1025F00034D59B01AC01C601B50132D687FD80C040
:102600006E2D772767FD70956D5F7F4F882777FD6B
:102610008095982F22D59B01AC01C601B5017ED4CF
:1026200018160CF46DC080915B0390915C03A0912F
:102630005D03B0915E03B058EFE4F3E084879587C3
:10264000A687B78780E090E0A0E7B1E451C0C80159
:10265000B70120E030E040E85FE360D418160CF4E6
:102660004FC0C801B70120E030E0A901F9D587FDCE
:1026700047C0A0904F03B0905003C0905103D0903A
:102680005203E0905F036E2D772767FD7095872FCB
:10269000972FE3D49B01AC01C601B501E1D587FDBD
:1026A0002FC06E2D772767FD70956D5F7F4F882750
:1026B00077FD8095982FD1D49B01AC01C601B5015F
:1026C0002DD41816ECF080915B0390915C03A091DF
:1026D0005D03B0915E03B05880935B0390935C03FD
:1026E000A0935D03B0935E0380E090E0A0E8BFE3B9
:1026F0008093530390935403A0935503B0935603D0
:10270000E0905303F0905403009155031091560349
:10271000C801B70120E030E0A90100D487FF0FC055
:1027200080914E038F5F80934E0380914C03909174
:102730004D03A0914E03B0914F03857F18C0C8018F
:10274000B70120E030E040E851E48AD51816BCF427
:10275000809160038F5F8093600380914C03909120
:102760004D03A0914E03B0914F038260877E80930A
:102770004C0390934D03A0934E03B0934F031F91CE
:102780000F91FF90EF90DF90CF90BF90AF900895A2
:10279000EF92FF920F931F93CF93DF93EC01CB0146
:1027A000BA0120914C0320FF57C023FF26C053D409
:1027B0007B018C01288539854A855B8555D59B0130
:1027C000AC01688179818A819B8144D36883798354
:1027D0008A839B83C801B7012C853D854E855F8523
:1027E00043D59B01AC016C817D818E819F8132D369
:1027F0006C837D838E839F832FC021FF15C06091E2
:102800005F03772767FD70956F5F7F4F882777FDA0
:102810008095982F22D4688379838A839B8380E074
:1028200090E0A0E0B0E414C060914D03772767FD0D
:1028300070956F5F7F4F882777FD8095982F0DD417
:10284000688379838A839B8380E090E0A0E5B1E48C
:102850008C839D83AE83BF83DF91CF911F910F91B6
:10286000FF90EF900895CF93DF93EC01E091B602D3
:10287000F091B7028DE009958883DF91CF9108959B
:102880006F927F928F929F92AF92BF92CF92DF9280
:10289000EF92FF920F931F933B014C0179018A0144
:1028A00012D69C01B901882777FD8095982FD5D342
:1028B0005B016C0160E07EEF8FEF96E4A801970169
:1028C00031D39B01AC01C601B5012CD39B01AC01F6
:1028D000C401B301BFD21F910F91FF90EF90DF9021
:1028E000CF90BF90AF909F908F907F906F90089502
:1028F0001F9380914C0383FD4CC081FD4AC0E09141
:102900008602F091870282E00995882309F441C08C
:1029100080914C0390914D03A0914E03B0914F03D1
:10292000886080934C0390934D03A0934E03B09323
:102930004F0367DD162F66EA7BE984E49BE326EA12
:102940003BE944E45CE39CDF6093570370935803D6
:102950008093590390935A0310FD09C090586093D7
:102960005703709358038093590390935A0366EA70
:102970007BE984E49BE326EA3BE944E45CE380DF13
:10298000905860935B0370935C0380935D03909316
:102990005E031F910895CF92DF92EF92FF921F93F3
:1029A000CF93DF93EC0180917402840F80937402C3
:1029B000853608F4BCC01092740280914C0383FFEA
:1029C00031C0C0904F03D0905003E0905103F0907D
:1029D00052031881612F772767FD7095872F972FF6
:1029E0003CD39B01AC01C701B60198D287FF04C05C
:1029F0001116C4F4115015C0612F772767FD70952B
:102A00006D5F7F4F882777FD8095982F26D39B0198
:102A1000AC01C701B60124D4181624F41C3014F4F8
:102A20001F5F188380914C0381FF1FC084FD1DC070
:102A300060E070E0CB0120E030E040E451E420DFD2
:102A400047D3DDD26093750280914C0390914D0382
:102A5000A0914E03B0914F03806180934C039093FB
:102A60004D03A0934E03B0934F0380914C0384FF1A
:102A70005EC083FD5CC081FF5AC04881242F33278C
:102A800027FD30958091750290E08217930714F42A
:102A9000415004C02817390714F44F5F4883288138
:102AA000332727FD30952817390709F040C080915A
:102AB0004C0390914D03A0914E03B0914F03886059
:102AC00080934C0390934D03A0934E03B0934F0318
:102AD00098DC162F66EA7BE984E49BE326EA3BE96F
:102AE00044E45CE3CDDE6093570370935803809316
:102AF000590390935A0310FD09C0905860935703EF
:102B0000709358038093590390935A0366EA7BE9C4
:102B100084E49BE326EA3BE944E45CE3B1DE6093B2
:102B20005B0370935C0380935D0390935E03DF917E
:102B3000CF911F91FF90EF90DF90CF900895CF92AB
:102B4000DF92EF92FF920F931F93CF93DF9359DCA5
:102B500020916103309162034091630350916403BB
:102B60007B018C01E21AF30A040B150B60936103DD
:102B70007093620380936303909364038FE493E004
:102B8000B801A70105DE8DE4C82E83E0D82EC6016A
:102B9000B801A70168DECFE5D3E0CE01B801A701F7
:102BA000FADEA6DE9CDCCE01B6015DDCDF91CF91C2
:102BB0001F910F91FF90EF90DF90CF9008951092AA
:102BC000650382EC94E09093B3028093B20281E2B9
:102BD00095E090939602809395028EED95E0909308
:102BE00099028093980283E596E090939F028093E8
:102BF0009E0281EA94E09093D7028093D6020895D2
:102C0000CF92DF92EF92FF920F931F93DF93CF93B8
:102C10000F92CDB7DEB7182FF62E80310CF04BC0D7
:102C200060310CF048C0D42ED80EE22EEF0C0830E4
:102C300011F00A30C1F4F7FCFF2417FD10E091E019
:102C4000083069F090E00BC0802F6F2D492F9983D9
:102C50000E94C2040F5F99810D15B4F3F394FE1422
:102C600054F5012FF9CF093031F5F7FE02C0FF24EA
:102C7000FA9417FD1FEF0F2DCD2CCA940BC0812F96
:102C8000602F41E00E94C2048C2D602F41E00E9421
:102C9000C2040F5F0E159CF3EA940BC0812F6F2DB9
:102CA00041E00E94C204812F6E2D41E00E94C204C7
:102CB0001F5F1D159CF30F90CF91DF911F910F9116
:102CC000FF90EF90DF90CF900895AF92BF92CF9298
:102CD000DF92EF92FF920F931F93DF93CF9300D079
:102CE0000F92CDB7DEB7142FE42FFF27E7FDF09545
:102CF000482F552747FD5095E41BF50BF7FF03C000
:102D0000F095E195FF4FDE2EE22FFF27E7FDF095CE
:102D1000A62FBB27A7FDB095EA1BFB0BF7FF03C04F
:102D2000F095E195FF4F4E2FCE2E0D2D0E1B8117E6
:102D300014F491E001C09FEF621714F431E001C078
:102D40003FEFE62EF82E552747FD5095AA24BB24C9
:102D5000A41AB50A8F2D6E2D41E02B833A839983F7
:102D60000E94C2042B813A819981F11611F4E21676
:102D700081F0802F880F482F552747FD5095A416C6
:102D8000B50614F40C19F90E8D1524F70D0DE30E8C
:102D9000E1CF0F900F900F90CF91DF911F910F9186
:102DA000FF90EF90DF90CF90BF90AF900895AF92DB
:102DB000BF92DF92EF92FF920F931F93CF93DF9317
:102DC000182FF42EE82FF92FDF010D900020E9F7DE
:102DD000DA2ED81A4EEFA42EDA0CE62E412FEA0195
:102DE0005E01B92EE50127C08991982F91549A313F
:102DF00040F4992787FD9095880F991F87549F4F1E
:102E00000BC0982F90539A3050F4992787FD9095D6
:102E1000880F991F815F9E4F63E045E004C083E8FF
:102E200091E062E043E02E2D0F2D0E94DE050E940E
:102E3000FA0134E0E30EAE01411BD416ACF6DF918B
:102E4000CF911F910F91FF90EF90DF90BF90AF90C7
:102E500008955058BB27AA270ED0B1C1A2D130F097
:102E6000A7D120F031F49F3F11F41EF497C10EF466
:102E7000E095E7FB64C1E92FB3D180F3BA1762078D
:102E800073078407950718F071F49EF5E2C10EF4FC
:102E9000E0950B2EBA2FA02D0B01B90190010C016A
:102EA000CA01A0011124FF27591B99F0593F50F482
:102EB000503E68F11A16F040A22F232F342F4427DA
:102EC000585FF3CF469537952795A795F0405395D2
:102ED000C9F77EF41F16BA0B620B730B840BBAF0A2
:102EE0009150A1F0FF0FBB1F661F771F881FC2F70D
:102EF0000EC0BA0F621F731F841F48F48795779521
:102F00006795B795F7959E3F08F0B3CF9395880FD7
:102F100008F09927EE0F979587950895ECD008F45F
:102F200081E008950CD04BC143D140F03AD130F04C
:102F300021F45F3F19F003C151118CC12FC150D151
:102F400098F39923C9F35523B1F3951B550BBB2770
:102F5000AA2762177307840738F09F5F5F4F220F1D
:102F6000331F441FAA1FA9F333D00E2E3AF0E0E816
:102F700030D091505040E695001CCAF729D0FE2F62
:102F800027D0660F771F881FBB1F261737074807F4
:102F9000AB07B0E809F0BB0B802DBF01FF279358AA
:102FA0005F4F2AF09E3F510568F0C9C053C15F3F93
:102FB000ECF3983EDCF3869577956795B795F79592
:102FC0009F5FC9F7880F911D9695879597F908958A
:102FD000E1E0660F771F881FBB1F62177307840726
:102FE000BA0720F0621B730B840BBA0BEE1F88F735
:102FF000E095089504D06894B1112CC10895F8D0DB
:1030000088F09F5790F0B92F9927B751A0F0D1F0D1
:10301000660F771F881F991F1AF0BA95C9F712C05B
:10302000B13081F016D1B1E0089513C1672F782F28
:103030008827B85F39F0B93FCCF3869577956795C7
:10304000B395D9F73EF490958095709561957F4F33
:103050008F4F9F4F0895E89409C097FB3EF49095D9
:103060008095709561957F4F8F4F9F4F9923A9F061
:10307000F92F96E9BB279395F695879577956795F0
:10308000B795F111F8CFFAF4BB0F11F460FF1BC034
:103090006F5F7F4F8F4F9F4F16C0882311F096E9C7
:1030A00011C0772321F09EE8872F762F05C0662375
:1030B00071F096E8862F70E060E02AF09A95660F2E
:1030C000771F881FDAF7880F9695879597F90895E7
:1030D000A9D080F09F3740F491110EF0BBC060E0A2
:1030E00070E080E89FEB089526F41B16611D711DAA
:1030F000811D2BC045C0990F0008550FAA0BE0E8B1
:10310000FEEF16161706E807F907C0F012161306A9
:10311000E407F50798F0621B730B840B950B39F4E9
:103120000A2661F0232B242B252B21F408950A264F
:1031300009F4A140A6958FEF811D811D089597F98F
:103140009F6780E870E060E00895882371F477233A
:1031500021F09850872B762F07C0662311F499270A
:103160000DC09051862B70E060E02AF09A95660FB2
:10317000771F881FDAF7880F9695879597F9089536
:103180009F3F31F0915020F4879577956795B795DB
:10319000880F911D9695879597F908959FEF80EC7C
:1031A000089500240A9416161706180609060895AD
:1031B00000240A9412161306140605060895092E13
:1031C0000394000C11F4882352F0BB0F40F4BF2B82
:1031D00011F460FF04C06F5F7F4F8F4F9F4F0895C2
:1031E00057FD9058440F551F59F05F3F71F04795B8
:1031F000880F97FB991F61F09F3F79F0879508959D
:10320000121613061406551FF2CF4695F1DF08C0BB
:10321000161617061806991FF1CF869571056105D8
:1032200008940895E5DFA0F0BEE7B91788F4BB273E
:103230009F3860F41616B11D672F782F8827985F86
:10324000F7CF869577956795B11D93959639C8F315
:103250000895E894BB2766277727CB0197F908954F
:103260004ADF08F48FEF08950BD0A9CF9ADF28F03A
:103270009FDF18F0952309F062CF90CF1124EACF99
:10328000AFDFA0F3959FD1F3950F50E0551F629FDC
:10329000F001729FBB27F00DB11D639FAA27F00DAF
:1032A000B11DAA1F649F6627B00DA11D661F829FD6
:1032B0002227B00DA11D621F739FB00DA11D621FBB
:1032C000839FA00D611D221F749F3327A00D611DD8
:1032D000231F849F600D211D822F762F6A2F1124BA
:1032E0009F5750408AF0E1F088234AF0EE0FFF1F0D
:1032F000BB1F661F771F881F91505040A9F79E3F44
:10330000510570F01CCFA6CF5F3FECF3983EDCF385
:10331000869577956795B795F795E7959F5FC1F780
:10332000FE2B880F911D9695879597F90895629FBA
:10333000D001739FF001829FE00DF11D649FE00DAD
:10334000F11D929FF00D839FF00D749FF00D659F0E
:10335000F00D9927729FB00DE11DF91F639FB00D0D
:10336000E11DF91FBD01CF0111240895991B79E0DA
:1033700004C0991F961708F0961B881F7A95C9F705
:103380008095089597FB092E07260AD077FD04D073
:1033900049D006D000201AF4709561957F4F0895AA
:1033A000F6F7909581959F4F0895A1E21A2EAA1BDA
:1033B000BB1BFD010DC0AA1FBB1FEE1FFF1FA217E5
:1033C000B307E407F50720F0A21BB30BE40BF50BE2
:1033D000661F771F881F991F1A9469F7609570956B
:1033E000809590959B01AC01BD01CF01089597FB9D
:1033F000092E05260ED057FD04D0D7DF0AD0001CB9
:1034000038F450954095309521953F4F4F4F5F4F81
:103410000895F6F790958095709561957F4F8F4F41
:103420009F4F0895AA1BBB1B51E107C0AA1FBB1FDA
:10343000A617B70710F0A61BB70B881F991F5A9540
:10344000A9F780959095BC01CD010895A0E0B0E06A
:10345000EBE2FAE18DC0EC01688179818A819B8180
:10346000611571058105910521F464E279ED8BE523
:1034700097E02DE133EF41E050E0B9DF79018A01B7
:1034800027EA31E440E050E052DF5B016C01C80103
:10349000B7012CEE34EF4FEF5FEF49DF6A0D7B1D74
:1034A0008C1D9D1D97FF04C0615070408040904866
:1034B000688379838A839B837F77CB01CDB7DEB71F
:1034C000EAE072C0C3CF87EA91E0C0CFA0E0B0E0ED
:1034D0008093A7019093A801A093A901B093AA019A
:1034E0000895FB01DC0101900D920020E1F70895A1
:1034F000F999FECF92BD81BDF89A992780B50895BC
:10350000A6E1B0E044E050E01DC0A8E1B0E042E038
:1035100050E018C0262FF999FECF1FBA92BD81BD89
:1035200020BD0FB6F894FA9AF99A0FBE0196089545
:10353000242FF1DF252FEFDF00C0ECDF272FEBCFAB
:10354000DC01CB01FC01F999FECF06C0F2BDE1BD63
:10355000F89A319600B40D9241505040B8F7089552
:103560002F923F924F925F926F927F928F929F9293
:10357000AF92BF92CF92DF92EF92FF920F931F9381
:10358000CF93DF93CDB7DEB7CA1BDB0B0FB6F89432
:10359000DEBF0FBECDBF09942A88398848885F8472
:1035A0006E847D848C849B84AA84B984C884DF80E3
:1035B000EE80FD800C811B81AA81B981CE0FD11DC7
:1035C0000FB6F894DEBF0FBECDBFED010895F8949D
:0235D000FFCF2B
:1035D200FF420042014202420342074400440144C6
:1035E2000244034306430744064407420442054299
:1035F200064607460646054604460146004404447C
:103602000545064000E1000000000857DAD75C7269
:1036120046D6DCF34EF34872D6B7DAE92E24D4B795
:103622005A924EBEDAD6DA56D4D74856E6D75A71EF
:103632001CE924B6DEB6D4B6FAB55AB524E54EF680
:10364200DE592EC54EC51CB792F31CF3DEE524F7F6
:10365200DEF792D448454C4C4F00494E5000534D32
:103662004C59005354585400424154540057454554
:0C3672004C00504F4E47000100000000CB
:00000001FF
