:10000000B3C00000CCC00000CAC00000C8C00000DF
:10001000C6C00000C4C00000C2C00000C0C00000D4
:10002000BEC00000BCC000006AC10000A7C1000043
:10003000B6C00000B4C00000B2C00000B0C00000F4
:10004000AEC00000ACC00000AAC00000A8C0000004
:10005000A6C00000A4C00000A2C00000A0C0000014
:100060009EC000009CC000009AC0000098C0000024
:1000700096C0000094C0000092C0000090C0000034
:100080008EC000008CC000008AC0000088C0000044
:1000900086C0000084C0000082C0000080C0000054
:1000A0007EC000007CC000007AC00000000100009B
:1000B000E3001200020000F50022002200001701F8
:1000C0001500210000070109000300002C010401B4
:1000D00003090430011C020309044E011800000149
:1000E000C126001201000200000020C016790400A1
:1000F000010102000109022200010100C0320904CD
:100100000000010300000009211101000122150077
:10011000070583032000010631FF0974A153750808
:10012000150026FF00952009758102C0040309040B
:100130001C034200720061006E0064006F006E00DC
:10014000200046006F006C0074007A000000180365
:1001500042004D004F005F00500072006F006A00C7
:10016000650063007400000011241FBECFEFDAE0C9
:10017000DEBFCDBF11E0A0E0B1E0E6E4F6E002C0F2
:1001800005900D92AA31B107D9F711E0AAE1B1E0CB
:1001900001C01D92AD31B107E1F702D052C230CF9C
:1001A0008FEF90E7A2E081509040A040E1F700C0BF
:1001B00000008EE063D0882319F48BE061E002C078
:1001C0008BE060E001D0ECCF262FE82FF0E0E0508C
:1001D000FF4F80816AE029D2E82FEE0FE80FF0E0B0
:1001E000222339F521E030E002C0220F331F9A9517
:1001F000E2F7A901662757FD6095762F84A195A1A6
:10020000A6A1B7A1842B952BA62BB72B84A395A3CE
:10021000A6A3B7A320953095442737FD4095542FCA
:1002200085A196A1A7A1B0A582239323A423B523DA
:100230001FC021E030E002C0220F331F9A95E2F781
:10024000442737FD4095542F84A195A1A6A1B7A1BD
:10025000822B932BA42BB52B84A395A3A6A3B7A382
:1002600085A196A1A7A1B0A5822B932BA42BB52B7A
:1002700085A396A3A7A3B0A781E00895E82FF0E097
:10028000E050FF4F80816AE0D0D1282F220F280F45
:10029000E3E02E9FF001112421E030E002C0220FA4
:1002A000331F9A95E2F7A90140955095662757FDAF
:1002B0006095762F85A196A1A7A1B0A5842395234B
:1002C000A623B72385A396A3A7A3B0A7442737FDEA
:1002D0004095542F83A194A1A5A1B6A12823392329
:1002E0004A235B2381E0211531054105510509F4BD
:1002F00080E008958091E80080FFFCCF08951F9270
:100300000F920FB60F9211248F939F938091E1006B
:100310001092E10083FF0FC01092E90091E09093EA
:10032000EB001092EC0092E29093ED0098E0909335
:10033000F00010921A0182FF1AC080911A018823DE
:10034000B1F080911B01882391F0815080931B01B3
:10035000882369F483E08093E90002C01092F100E1
:100360008091E80085FDFACF8AE38093E8009F91B1
:100370008F910F900FBE0F901F9018951F920F92A4
:100380000FB60F921124EF92FF920F931F932F93AA
:100390003F934F935F936F937F938F939F93AF930D
:1003A000BF93EF93FF93DF93CF930F92CDB7DEB759
:1003B0001092E9008091E80083FF1CC14091F10098
:1003C0005091F1000091F10010E02091F100922F86
:1003D00080E0082B192B8091F100E82EFF2420915A
:1003E000F100922F80E0E82AF92A2091F10030E014
:1003F0006091F100962F80E0282B392B82EF8093BB
:10040000E800563009F053C083EB90E0AC01455052
:100410005040FC0137976591749160177107C9F4DA
:10042000FA01659174916E157F0599F44E5F5F4FE7
:10043000FA01859194914E5F5F4FFA0144912F3FED
:10044000310519F010F02FEF30E0241750F4422F4F
:1004500008C00796495F5F4FF0E0843E9F07C9F6EA
:10046000C9C0AEEF2091E80030E0B901657070704E
:1004700061157105B9F322FDC0C0542F413208F057
:1004800050E29C01652F07C0F9012F5F3F4FE491B7
:10049000E093F10061506623B9F7850F911D451B6C
:1004A000A093E8004423F1F65032E1F2A6C05530A3
:1004B00041F48EEF8093E8001DDF00680093E300B5
:1004C0009CC0593031F5442309F094C000931A01BF
:1004D0008EEF8093E80041E08DED90E04093E900DD
:1004E000FC010196E491E093EB00EE2369F09C019E
:1004F0002F5F3F4FFC0184918093EC00C90101966E
:10050000F90124912093ED004F5F453039F78EE1DA
:1005100046C0583049F4403809F06CC0EBDE809199
:100520001A018093F10016C05523C1F44983E2DE1D
:100530004981423851F4E092E9009091EB0081E06A
:1005400095FF80E01092E90001C080E08093F10007
:100550001092F1008EEF8093E8004FC0513019F0F7
:10056000533009F047C04230F9F401151105E1F4A8
:100570006E2D6F77862F81508430B0F48EEF80938C
:10058000E8006093E9005330A9F189E18093EB0022
:1005900081E090E002C0880F991F6A95E2F780938E
:1005A000EA001092EA0029C0513021F5413A11F5D4
:1005B000E114F104F9F43EEF8091E80090E0AC0121
:1005C0004570507041155105B9F382FD16C0822F58
:1005D000213208F080E2982F03C01092F100915070
:1005E0009923D9F7281B3093E800222329F780327A
:1005F00019F303C081E28093EB000F90CF91DF915C
:10060000FF91EF91BF91AF919F918F917F916F91EA
:100610005F914F913F912F911F910F91FF90EF901C
:100620000F900FBE0F901F901895991B79E004C092
:10063000991F961708F0961B881F7A95C9F7809521
:060640000895F894FFCFBD
:1006460000010203071415161710111A1B040506DC
:0A0656002F2E2D2C292818192440FE
:00000001FF
