:10000000EEC0000008C1000006C1000004C10000ED
:1000100002C1000000C10000FEC00000FCC00000E2
:10002000FAC00000F8C00000F4C700000C944808B3
:10003000F2C00000F0C00000EEC00000ECC0000004
:10004000EAC00000E8C00000E6C00000E4C0000014
:10005000E2C00000E0C00000DEC00000A6C6000054
:10006000DAC00000D8C00000D6C00000D4C0000034
:10007000D2C00000D0C00000CEC00000CCC0000044
:10008000CAC00000C8C00000C6C00000C4C0000054
:10009000C2C00000C0C00000BEC00000BCC0000064
:1000A000BAC00000B8C00000B6C000000A000A4193
:1000B0006464726573732066726F6D205465737427
:1000C0003A20005072696E74696E672066726F6EB6
:1000D0007442756666657220636F6E74656E7473C4
:1000E0000A000A000A0053697A65206F662066726A
:1000F000616D65627566666572206C696E65206902
:10010000733A20000A005374617274696E67207438
:100110006573742E2E2E0A000A00000100005101A2
:100120001200020000630122002200008501150078
:10013000210000750109000300009A010401030970
:10014000049E011C02030904BC0118000001C12621
:10015000001201000200000020C016790400010115
:1001600002000109022200010100C032090400005E
:1001700001030000000921110100012215000705FB
:1001800083032000010631FF0974A153750815008F
:1001900026FF00952009758102C0040309041C0391
:1001A0004200720061006E0064006F006E0020006B
:1001B00046006F006C0074007A00000018034200D3
:1001C0004D004F005F00500072006F006A00650034
:1001D0006300740000003000310030003100112451
:1001E0001FBECFEFDAE0DEBFCDBF11E0A0E0B1E08F
:1001F000E0E6F6E102C005900D92AA34B107D9F706
:1002000011E0AAE4B1E001C01D92AD38B107E1F7F9
:1002100009D00C942E0BF4CEE0918B01F0918C015F
:1002200009950895CF92DF92EF92FF920F931F935B
:1002300063D492D68FEF93EDA0E381509040A0401D
:10024000E1F700C0000086E091E00E949F09AFE95D
:10025000BFE01197F1F700C0000084E091E00E9438
:100260009F0986EE90E00E949F0988E090E00E943E
:10027000C40984EE90E00E949F098BE061E035D5CF
:100280008FEF93ECA9E081509040A040E1F700C0CF
:1002900000008BE060E029D58FEF93ECA9E081505E
:1002A0009040A040E1F700C00000BBD388E062E3CB
:1002B0000ED380E091E063E043E020E001E07BD2F8
:1002C00082EE90E00E949F0983EC90E00E949F09DB
:1002D0008FEF91EEA4E081509040A040E1F700C084
:1002E00000007DD0EDD38FEF91EEA4E081509040DF
:1002F000A040E1F700C00000AFE3BCE91197F1F7BF
:1003000000C0000080E091E063E043E021E000E015
:100310001CD2992787FD90950E94B3098FE99FE031
:100320000197F1F700C000008EEA90E00E949F095B
:10033000AFE9BFE01197F1F700C0000080E091E065
:100340000E94C4098FE99FE00197F1F700C0000007
:100350008CEA90E0F4D780E095D480E0A1D284E0EC
:1003600091E063E045E020E026D280E061E0AFD29A
:1003700036D042D46B017C018AEF90E0A0E0B0E07F
:10038000C80ED91EEA1EFB1E10E036D46C157D0582
:100390008E059F0510F11F5F18300CF010E02CD473
:1003A0006B017C018AEF90E0A0E0B0E0C80ED91E9E
:1003B000EA1EFB1E80E074D284E091E063E045E039
:1003C000212F00E0F8D116303CF0212F285084E096
:1003D00091E063E045E0EFD102D01EDFD6CF8091FF
:1003E000500182FF1CC021E531E040914A0150914B
:1003F0004B01C90109964217530749F490934B01E9
:1004000080934A01509364014093630108953093AF
:100410004B0120934A0190936401809363010895F6
:100420001F93DF93CF930F92CDB7DEB7883008F0DC
:1004300050C0683008F04DC0162F110F110F110F6A
:10044000180F612F66956695669570E080E090E0E4
:100450004983EFD70E94560AC0D770E0E09163014C
:10046000F0916401109549814423B9F0E60FF71F1C
:10047000177021E030E002C0220F331F1A95E2F717
:10048000442737FD4095542F80819181A281B3810B
:10049000822B932BA42BB52B18C0E60FF71F1770D8
:1004A00021E030E002C0220F331F1A95E2F72095B9
:1004B0003095442737FD4095542F80819181A2814A
:1004C000B38182239323A423B52380839183A283C2
:1004D000B3830F90CF91DF911F9108951F938830C0
:1004E00090F5683080F5162F110F110F110F180FAE
:1004F000612F66956695669570E080E090E099D7EB
:10050000D5D76BD7E0914A01F0914B01E60FF11D71
:100510001095177021E030E002C0220F331F1A95AA
:10052000E2F7442737FD4095542F80819181A281C5
:10053000B381282339234A235B2381E02115310528
:100540004105510509F480E01F9108959F92AF92F3
:10055000BF92CF92DF92EF92FF920F931F93CF93B0
:10056000DF938091500190915101A0915201B0917F
:10057000530181FD76C082608093500190935101B8
:10058000A0935201B0935301F1D27B018C0186E01C
:10059000A82E81E0B82E9924E9D26E157F05800738
:1005A0009107D0F3E3D27B018C0180914C019091B3
:1005B0004D01A0914E01B0914F01E80EF91E0A1FA6
:1005C0001B1F992011F489E003C0F5013197808148
:1005D00060E08BD3CEE0D1E0CC24DD248C2D692DDE
:1005E0007DDF882319F0888160E002C0888161E0A6
:1005F0007CD30894C11CD11C219688E0C816D10474
:1006000069F7F50181915F0161E06FD39394F92D52
:10061000F83009F0C1CFAAD27B018C0180914C0146
:1006200090914D01A0914E01B0914F01E80EF91E3D
:100630000A1F1B1F9BD2E616F70608071907D0F7FB
:100640008091500190915101A0915201B0915301BC
:100650008D7F8093500190935101A0935201B093EC
:100660005301DF91CF911F910F91FF90EF90DF9099
:10067000CF90BF90AF909F9008950F931F93CF930B
:10068000DF9374D29B01AC0180916501909166016A
:10069000A0916701B0916801281739074A075B07E5
:1006A00008F44EC0E0916901EE2311F489E006C020
:1006B000FF27E7FDF095EB5FFE4F808160E015D3EB
:1006C0000EE011E0C0E0D0E08C2F6091690106DF00
:1006D000882321F0F801808160E003C0F801808167
:1006E00061E003D321960F5F1F4FC830D10561F73A
:1006F000E0916901FF27E7FDF095EA5FFE4F8081F9
:1007000061E0F3D2809169018F5F80936901883045
:1007100014F0109269012AD220914C0130914D01C0
:1007200040914E0150914F01620F731F841F951F1E
:1007300060936501709366018093670190936801EF
:10074000DF91CF911F910F9108950F93CF93DF9376
:10075000EC01069F002D1124020F602F669566950F
:10076000669570E0882777FD8095982F64D69ED691
:1007700034D6C60FD11D0095077021E030E002C0CD
:10078000220F331F0A95E2F7442737FD4095542F77
:1007900088819981AA81BB81282339234A235B233D
:1007A00081E0211531054105510509F480E0DF9113
:1007B000CF910F9108952F923F924F925F926F9237
:1007C0007F928F929F92AF92BF92CF92DF92EF92E1
:1007D000FF920F931F93CF93DF933C01A62EC42E5D
:1007E000D22E102F8091500180FD07C0EE24FF24EF
:1007F000442E5524262E332436C0EE24FF24442EC6
:100800005524262E332412C0C3016A2D4C2D2C2FC3
:100810000B2D9BDF482F8C2F8D0D692D01DE21962E
:10082000C215D3058CF30894E11CF11CE414F50403
:100830001CF5C0E0D0E0BE2C9E2C910EF1CFC30180
:100840006A2D4C2D2C2F0B2D80DF482F882321F073
:100850008C2F8D0D692DE4DD2196C215D3057CF317
:100860000894E11CF11CE414F50434F4C0E0D0E079
:10087000BE2C9E2C910EF1CF81E0DF91CF911F9184
:100880000F91FF90EF90DF90CF90BF90AF909F902F
:100890008F907F906F905F904F903F902F90089532
:1008A0004091630150916401FA0120E030E09FEF34
:1008B000882311F4108204C0DA01A20FB31F9C93A5
:1008C0002F5F3F4F31962930310591F708958330DE
:1008D00041F1843038F4882309F448C0823009F0AB
:1008E0009AC060C0883021F0893009F094C07FC080
:1008F000262F30E093E0220F331F9A95E1F744272B
:1009000037FD4095542F60E472E48FE090E069D6A3
:1009100020934C0130934D0140934E0150934F0171
:100920007CC0613081F486EA92E090938C018093E0
:100930008B018091500190915101A0915201B09191
:10094000530188605FC0662309F067C08DE393E0C0
:1009500090938C0180938B01809150019091510173
:10096000A0915201B0915301877F4CC0662369F476
:10097000E0915001F0E080819181A281B3818E7F6E
:1009800080839183A283B38348C0613009F045C05E
:100990008091500190915101A0915201B091530169
:1009A000816030C06623B9F4E0915001F0E08081AD
:1009B0009181A281B3818B7F80839183A283B38352
:1009C00081E591E0909364018093630190934B01E2
:1009D00080934A0122C0613011F5809150019091BD
:1009E0005101A0915201B091530184600BC06093FA
:1009F00050018091500190915101A0915201B0910C
:100A000053018C7F8093500190935101A093520128
:100A1000B093530102C080E0089581E0089581E021
:100A2000089581E591E010925101109252011092C7
:100A300053011092540110925501109256011092D8
:100A40005701109258019C01275F3F4F10925A01A5
:100A500010925B0110925C0110925D0110925E0198
:100A600010925F01109260011092610190934B010E
:100A700080934A01309364012093630110926901CD
:100A80001092650110926601109267011092680140
:100A900083E298E0A0E0B0E080934C0190934D0198
:100AA000A0934E01B0934F0183E060E010DF80E03F
:100AB00061E00DDF82E061E00ADF81E090E008950F
:100AC000CF93DF93C0E0D0E0E0914A01F0914B0179
:100AD000EC0FFD1F808160D488E191E030D48FE37A
:100AE0009CE90197F1F700C000002196C930D105BB
:100AF00059F7DF91CF910895E8D081E0809372019A
:100B0000E0918901F0918A010995609377017093D2
:100B100078018093790190937A01E0918701F091B7
:100B20008801099560936E0170936F018093700145
:100B300090937101E0918901F0918A010995609388
:100B40007301709374018093750190937601E09125
:100B50008701F0918801099560936A0170936B0198
:100B600080936C0190936D0181E00895EF92FF9264
:100B70000F931F93E0918901F0918A0109957B0100
:100B80008C018091770190917801A0917901B091C9
:100B90007A01A8019701281B390B4A0B5B0BCA018C
:100BA000B9012091720130E040E050E0FBD49B019C
:100BB000AC018091730190917401A0917501B09185
:100BC0007601280F391F4A1F5B1F20937301309352
:100BD00074014093750150937601E0927701F09291
:100BE00078010093790110937A01B901CA011F912C
:100BF0000F91FF90EF900895EF92FF920F931F9344
:100C0000E0918701F091880109957B018C01809129
:100C10006E0190916F01A0917001B0917101A801D6
:100C20009701281B390B4A0B5B0BCA01B9012091B4
:100C3000720130E040E050E0B5D49B01AC018091FE
:100C40006A0190916B01A0916C01B0916D01280F28
:100C5000391F4A1F5B1F20936A0130936B01409339
:100C60006C0150936D01E0926E01F0926F01009360
:100C7000700110937101B901CA011F910F91FF908A
:100C8000EF9008951F93182F882311F481E00FC06F
:100C9000813011F482E00BC0823011F484E007C08F
:100CA000833011F488E003C0843019F480E180932C
:100CB00072015CDFA1DFF89480E8809361001093FB
:100CC00061007894812F1F910895EBD08BE297E01B
:100CD00090938A01809389018DE197E09093880138
:100CE0008093870181E090E00895A82FB0E066230B
:100CF00079F5AA0FBB1FAA5EBE4FEC91F0E021E090
:100D000030E011960C9002C0220F331F0A94E2F7D4
:100D1000A901662757FD6095762F84A195A1A6A10C
:100D2000B7A1842B952BA62BB72B84A395A3A6A3A1
:100D3000B7A320953095442737FD4095542F85A1C2
:100D400096A1A7A1B0A582239323A423B52327C0EE
:100D5000AA0FBB1FAA5EBE4FEC91F0E021E030E08D
:100D600011960C9002C0220F331F0A94E2F7442719
:100D700037FD4095542F84A195A1A6A1B7A1822B40
:100D8000932BA42BB52B84A395A3A6A3B7A385A1CE
:100D900096A1A7A1B0A5822B932BA42BB52B85A33D
:100DA00096A3A7A3B0A781E008951F920F920FB654
:100DB0000F9211242F933F938F939F93AF93BF93E1
:100DC00080917F0190918001A0918101B091820179
:100DD000309183010196A11DB11D232F2D5F2D3769
:100DE00020F02D570196A11DB11D20938301809302
:100DF0007F0190938001A0938101B0938201809143
:100E00007B0190917C01A0917D01B0917E010196C2
:100E1000A11DB11D80937B0190937C01A0937D0166
:100E2000B0937E01BF91AF919F918F913F912F9190
:100E30000F900FBE0F901F9018958FB7F8942091C8
:100E40007F013091800140918101509182018FBFDB
:100E5000B901CA0108959FB7F89420917B013091A0
:100E60007C0140917D0150917E0186B5A89B06C012
:100E70008F3F21F02F5F3F4F4F4F5F4F9FBF542F4A
:100E8000432F322F2227280F311D411D511D82E093
:100E9000220F331F441F551F8A95D1F7B901CA018C
:100EA0000895789484B5826084BD84B5816084BDE2
:100EB00085B5826085BD85B5816085BDEEE6F0E0D3
:100EC000808181608083E1E8F0E01082808182602F
:100ED0008083808181608083E0E8F0E080818160B0
:100EE0008083E1E9F0E0808182608083808181609D
:100EF0008083E0E9F0E0808181608083E1ECF0E0D4
:100F00008081846080838081826080838081816031
:100F10008083E3ECF0E0808181608083E0ECF0E0AE
:100F2000808182608083E2ECF0E080818160808358
:100F3000EAE7F0E080818460808380818260808342
:100F40008081816080838081806880830895809122
:100F5000E80080FFFCCF089581E08093D70080EA0D
:100F60008093D80082E189BD09B400FEFDCF80E9FD
:100F70008093D8001092E000109284018CE080935E
:100F8000E2007894089590918401992309F43DC07A
:100F90009FB7F89423E02093E90020918601222353
:100FA00041F02091E80025FD02C09FBF2EC01092A5
:100FB00086012091E4002C5F33E04091E80045FD7C
:100FC00012C09FBF9091E400921721F481E08093BA
:100FD00086011BC0909184019923C9F09FB7F894B2
:100FE0003093E900EACF8093F1008091E80085FD1D
:100FF00006C08AE38093E8001092850103C082E076
:10100000809385019FBF80E008958FEF08958FEF53
:1010100008951F920F920FB60F9211248F939F93F2
:101020008091E1001092E10083FF0FC01092E9006F
:1010300091E09093EB001092EC0092E29093ED001F
:1010400098E09093F0001092840182FF1AC0809182
:1010500084018823B1F080918501882391F081502B
:1010600080938501882369F483E08093E90002C0BE
:101070001092F1008091E80085FDFACF8AE3809319
:10108000E8009F918F910F900FBE0F901F901895C1
:101090001F920F920FB60F921124EF92FF920F93AF
:1010A0001F932F933F934F935F936F937F938F93F0
:1010B0009F93AF93BF93EF93FF93DF93CF930F92E1
:1010C000CDB7DEB71092E9008091E80083FF1CC124
:1010D0004091F1005091F1000091F10010E0209159
:1010E000F100922F80E0082B192B8091F100E82E5F
:1010F000FF242091F100922F80E0E82AF92A209124
:10110000F10030E06091F100962F80E0282B392B20
:1011100082EF8093E800563009F053C081E291E0FD
:10112000AC0145505040FC013797659174916017B0
:101130007107C9F4FA01659174916E157F0599F4F0
:101140004E5F5F4FFA01859194914E5F5F4FFA01B8
:1011500044912F3F310519F010F02FEF30E02417A4
:1011600050F4422F08C00796495F5F4FF1E0823587
:101170009F07C9F6C9C0AEEF2091E80030E0B90181
:101180006570707061157105B9F322FDC0C0542FF0
:10119000413208F050E29C01652F07C0F9012F5F32
:1011A0003F4FE491E093F10061506623B9F7850F5A
:1011B000911D451BA093E8004423F1F65032E1F263
:1011C000A6C0553041F48EEF8093E800C0DE006881
:1011D0000093E3009CC0593031F5442309F094C0DA
:1011E000009384018EEF8093E80041E08BE491E06E
:1011F0004093E900FC010196E491E093EB00EE23BB
:1012000069F09C012F5F3F4FFC0184918093EC00BB
:10121000C9010196F90124912093ED004F5F4530FB
:1012200039F78EE146C0583049F4403809F06CC0B7
:101230008EDE809184018093F10016C05523C1F4A5
:10124000498385DE4981423851F4E092E90090916A
:10125000EB0081E095FF80E01092E90001C080E0A2
:101260008093F1001092F1008EEF8093E8004FC060
:10127000513019F0533009F047C04230F9F40115EC
:101280001105E1F46E2D6F77862F81508430B0F414
:101290008EEF8093E8006093E9005330A9F189E173
:1012A0008093EB0081E090E002C0880F991F6A955F
:1012B000E2F78093EA001092EA0029C0513021F54C
:1012C000413A11F5E114F104F9F43EEF8091E800A0
:1012D00090E0AC014570507041155105B9F382FDA5
:1012E00016C0822F213208F080E2982F03C010929E
:1012F000F10091509923D9F7281B3093E80022235D
:1013000029F7803219F303C081E28093EB000F903C
:10131000CF91DF91FF91EF91BF91AF919F918F910D
:101320007F916F915F914F913F912F911F910F91FD
:10133000FF90EF900F900FBE0F901F9018951F9386
:10134000CF93DF93EC01FE0121961491112339F024
:101350001A3011F48DE017DE812F15DEF4CFDF9106
:10136000CF911F9108958A3010F490E301C097E364
:10137000890F09CE1F93182F82958F70F4DF812F6C
:101380008F70F1DF1F9108951F93182F892FF2DFBF
:10139000812FF0DF1F9108950F931F93CF93DF9359
:1013A000C7E0D0E0082F10E0C8010C2E02C09595D0
:1013B00087950A94E2F780FF03C088ED91E002C0B0
:1013C00086ED91E0BCDF21973FEFCF3FD30761F778
:1013D000DF91CF911F910F910895ACD088F09F5766
:1013E00090F0B92F9927B751A0F0D1F0660F771F71
:1013F000881F991F1AF0BA95C9F712C0B13081F051
:10140000CAD0B1E00895C7C0672F782F8827B85F8A
:1014100039F0B93FCCF3869577956795B395D9F7B1
:101420003EF490958095709561957F4F8F4F9F4FBB
:101430000895E89409C097FB3EF4909580957095C7
:1014400061957F4F8F4F9F4F9923A9F0F92F96E910
:10145000BB279395F695879577956795B795F11185
:10146000F8CFFAF4BB0F11F460FF1BC06F5F7F4F22
:101470008F4F9F4F16C0882311F096E911C0772334
:1014800021F09EE8872F762F05C0662371F096E83D
:10149000862F70E060E02AF09A95660F771F881F0C
:1014A000DAF7880F9695879597F908955DD080F0C3
:1014B0009F3740F491110EF06FC060E070E080E85B
:1014C0009FEB089526F41B16611D711D811D01C03F
:1014D0001BC0882371F4772321F09850872B762F37
:1014E00007C0662311F499270DC09051862B70E038
:1014F00060E02AF09A95660F771F881FDAF7880F49
:101500009695879597F908959F3F31F0915020F473
:10151000879577956795B795880F911D96958795CF
:1015200097F9089557FD9058440F551F59F05F3FA4
:1015300071F04795880F97FB991F61F09F3F79F0F5
:1015400087950895121613061406551FF2CF469577
:10155000F1DF08C0161617061806991FF1CF8695F9
:101560007105610508940895E5DFA0F0BEE7B9179D
:1015700088F4BB279F3860F41616B11D672F782FAB
:101580008827985FF7CF869577956795B11D9395D6
:101590009639C8F30895E894BB2766277727CB01CF
:1015A00097F90895629FD001739FF001829FE00D2B
:1015B000F11D649FE00DF11D929FF00D839FF00DD2
:1015C000749FF00D659FF00D9927729FB00DE11D7E
:1015D000F91F639FB00DE11DF91FBD01CF0111245B
:1015E000089597FB092E05260ED057FD04D014D080
:1015F0000AD0001C38F450954095309521953F4F06
:101600004F4F5F4F0895F6F79095809570956195CF
:101610007F4F8F4F9F4F0895A1E21A2EAA1BBB1B2D
:10162000FD010DC0AA1FBB1FEE1FFF1FA217B307AE
:10163000E407F50720F0A21BB30BE40BF50B661FC4
:10164000771F881F991F1A9469F760957095809588
:1016500090959B01AC01BD01CF010895F894FFCF97
:1016600057802F2057DA1014081102070409030BC2
:101670000C060D0501000000000100020003000738
:101680000600060106020603030603070606060710
:101690000004000500060C070C060C050C040C01E8
:0A16A0000C000604060509064000D0
:00000001FF
