:10000000F8C0000012C1000010C100000EC10000C5
:100010000CC100000AC1000008C1000006C10000B8
:1000200004C1000002C1000055C7000092C70000D3
:10003000FCC00000FAC00000F8C00000F6C00000DC
:10004000F4C00000F2C00000F0C00000EEC00000EC
:10005000ECC00000EAC00000E8C0000007C60000D5
:10006000E4C00000E2C00000E0C00000DEC000000C
:10007000DCC00000DAC00000D8C00000D6C000001C
:10008000D4C00000D2C00000D0C00000CEC000002C
:10009000CCC00000CAC00000C8C00000C6C000003C
:1000A000C4C00000C2C00000C0C000005069786534
:1000B0006C20322C37204953204E4F5420736574E6
:1000C0000A00506978656C20322C37204953207320
:1000D00065740A000A005072696E74696E67206662
:1000E000726F6E7442756666657220636F6E7465BA
:1000F0006E74730A000A000A0053697A65206F66FD
:10010000206672616D65627566666572206C696EE7
:10011000652069733A20000A005374617274696E35
:100120006720746573742E2E2E0A000A00000100E9
:1001300000640112000200007601220022000098F3
:1001400001150021000088010900030000AD010431
:1001500001030904B1011C02030904CF01180000C6
:1001600001C126001201000200000020C01679041F
:1001700000010102000109022200010100C0320950
:1001800004000001030000000921110100012215F3
:1001900000070583032000010631FF0974A1537590
:1001A00008150026FF00952009758102C004030987
:1001B000041C034200720061006E0064006F006E58
:1001C00000200046006F006C0074007A00000018E8
:1001D0000342004D004F005F00500072006F006A44
:1001E0000065006300740000003000310030003111
:1001F000000011241FBECFEFDAE0DEBFCDBF11E05B
:10020000A0E0B1E0E2E2F5E102C005900D92AA3370
:10021000B107D9F711E0AAE3B1E001C01D92AD37F3
:10022000B107E1F709D00C948F0AEACEE0917B0187
:10023000F0917C0109950895CF92DF92EF92FF92A1
:100240000F931F9380E88093610010926100F2D3B6
:10025000E4D58FEF93EDA0E381509040A040E1F70B
:1002600000C0000089E191E0CBD7AFE9BFE0119772
:10027000F1F700C0000087E191E0C2D789EF90E07C
:10028000BFD788E090E0E1D787EF90E0B9D78BE067
:1002900061E096D48FEF93ECA9E081509040A040AC
:1002A000E1F700C000008BE060E08AD48FEF93ECB0
:1002B000A9E081509040A040E1F700C000004BD37E
:1002C00088E062E39ED280E091E063E043E020E0DA
:1002D00001E00BD285EF90E093D786ED90E090D7C8
:1002E0008FEF91EEA4E081509040A040E1F700C074
:1002F0000000B1D083D38FEF91EEA4E08150904005
:10030000A040E1F700C00000AFE3BCE91197F1F7AE
:1003100000C000008FE99FE00197F1F700C00000E6
:10032000AFE9BFE01197F1F700C000008FE99FE04F
:100330000197F1F700C0000084ED90E061D782E002
:1003400067E007D1882319F082EC90E002C08CEAC4
:1003500090E056D780E03ED284E091E063E045E053
:1003600020E000E0C2D180E061E04BD274D0E2D363
:100370006B017C018AEF90E0A0E0B0E0C80ED91ECE
:10038000EA1EFB1E10E0D6D36C157D058E059F0579
:1003900010F11F5F18300CF010E0CCD36B017C0122
:1003A0008AEF90E0A0E0B0E0C80ED91EEA1EFB1E66
:1003B00080E010D284E091E063E045E0212F00E08E
:1003C00094D116303CF0212F285084E091E063E076
:1003D00045E08BD140D02ADFD6CF0895813009F592
:1003E0008CE061E0EDD38091400190914101A091BA
:1003F0004201B091430180688D7F809340019093CA
:100400004101A0934201B09343011092590110920F
:10041000550110925601109257011092580181E037
:1004200008958823B1F48CE060E0CAD38091400144
:1004300090914101A0914201B09143018D77809349
:10044000400190934101A0934201B093430180E0A9
:1004500008958FEF08958091400182FF1CC021E430
:1004600031E040913A0150913B01C9010996421790
:10047000530749F490933B0180933A015093540100
:1004800040935301089530933B0120933A01909398
:1004900054018093530108951F93DF93CF930F92DC
:1004A000CDB7DEB7883008F04FC0683008F04CC0D8
:1004B000162F110F110F110F180F612F66956695EA
:1004C000669570E080E090E0498314D750D7E6D677
:1004D00070E0E0915301F09154011095498144235B
:1004E000B9F0E60FF71F177021E030E002C0220FCD
:1004F000331F1A95E2F7442737FD4095542F80812A
:100500009181A281B381822B932BA42BB52B18C090
:10051000E60FF71F177021E030E002C0220F331FF3
:100520001A95E2F720953095442737FD4095542FD2
:1005300080819181A281B38182239323A423B52357
:1005400080839183A283B3830F90CF91DF911F911A
:1005500008951F93883090F5683080F5162F110F9D
:10056000110F110F180F612F66956695669570E053
:1005700080E090E0BFD6FBD691D6E0913A01F091B1
:100580003B01E60FF11D1095177021E030E002C02D
:10059000220F331F1A95E2F7442737FD4095542F59
:1005A00080819181A281B381282339234A235B234F
:1005B00081E0211531054105510509F480E01F91C5
:1005C00008951F9371D29B01AC01809155019091C8
:1005D0005601A0915701B0915801281739074A07D1
:1005E0005B0708F44AC082E061E0EAD280915901D9
:1005F000882359F481E061E0E3D284E02ED383E0E4
:100600002CD381E060E0DCD204C084E026D383E018
:1006100024D317E0812F609159019BDF882319F0C3
:1006200080E160E002C080E161E0CAD28EE015D3D3
:10063000115080F781E111D382E060E0C1D2809156
:1006400059018F5F80935901883014F0109259013D
:100650002BD220913C0130913D0140913E015091BF
:100660003F01620F731F841F951F609355017093A4
:10067000560180935701909358011F9108950F934D
:10068000CF93DF93EC01069F002D1124020F602F02
:1006900066956695669570E0882777FD8095982F1A
:1006A0002BD665D6FBD5C60FD11D0095077021E06E
:1006B00030E002C0220F331F0A95E2F7442737FDCE
:1006C0004095542F88819981AA81BB8128233923A1
:1006D0004A235B2381E0211531054105510509F4C9
:1006E00080E0DF91CF910F9108952F923F924F922A
:1006F0005F926F927F928F929F92AF92BF92CF92B2
:10070000DF92EF92FF920F931F93CF93DF933C0101
:10071000A62EC42ED22E102F8091400180FD07C03E
:10072000EE24FF24442E5524262E332436C0EE24F6
:10073000FF24442E5524262E332412C0C3016A2DD3
:100740004C2D2C2F0B2D9BDF482F8C2F8D0D692DC1
:10075000A3DE2196C215D3058CF30894E11CF11C8D
:10076000E414F5041CF5C0E0D0E0BE2C9E2C910EE4
:10077000F1CFC3016A2D4C2D2C2F0B2D80DF482F7C
:10078000882321F08C2F8D0D692D86DE2196C215D0
:10079000D3057CF30894E11CF11CE414F50434F453
:1007A000C0E0D0E0BE2C9E2C910EF1CF81E0DF9115
:1007B000CF911F910F91FF90EF90DF90CF90BF905E
:1007C000AF909F908F907F906F905F904F903F90F1
:1007D0002F9008954091530150915401FA0120E067
:1007E00030E09FEF882311F4108204C0DA01A20FD9
:1007F000B31F9C932F5F3F4F31962930310591F7FE
:100800000895833041F1843038F4882309F448C0D6
:10081000823009F09AC060C0883021F0893009F038
:1008200094C07FC0262F30E083E0220F331F8A95CB
:10083000E1F7442737FD4095542F60E472E48FE0E0
:1008400090E030D620933C0130933D0140933E012F
:1008500050933F017CC0613081F48DEE91E0909324
:100860007C0180937B018091400190914101A09196
:100870004201B091430188605FC0662309F067C000
:1008800081EE92E090937C0180937B018091400106
:1008900090914101A0914201B0914301877F4CC0EA
:1008A000662369F4E0914001F0E080819181A281AA
:1008B000B3818E7F80839183A283B38348C06130EC
:1008C00009F045C08091400190914101A091420101
:1008D000B0914301816030C06623B9F4E0914001DA
:1008E000F0E080819181A281B3818B7F80839183AD
:1008F000A283B38381E491E09093540180935301E8
:1009000090933B0180933A0122C0613011F58091B0
:10091000400190914101A0914201B0914301846056
:100920000BC0609340018091400190914101A091E2
:100930004201B09143018C7F80934001909341012B
:10094000A0934201B093430102C080E0089581E08A
:10095000089581E008952AE431E080E090E00BC042
:100960001192E217F307E1F701969F01275F3F4FCE
:100970008230910559F0FC0143E0EE0FFF1F4A95CC
:10098000E1F7E80FF91FEF5BFE4FEACF81E491E05A
:1009900090933B0180933A01099690935401809380
:1009A0005301109259011092550110925601109264
:1009B00057011092580183E298E0A0E0B0E08093E4
:1009C0003C0190933D01A0933E01B0933F0183E031
:1009D00060E017DF80E061E014DF82E061E011DFBA
:1009E00081E0FCDC85E061E0EBD08DE061E0E8D007
:1009F0008FE060E0E5D081E090E00895CF93DF9351
:100A0000C0E0D0E0E0913A01F0913B01EC0FFD1F16
:100A1000808123D48BE291E0F3D38FE39CE90197AB
:100A2000F1F700C000002196C930D10559F7DF91D8
:100A3000CF910895F9D081E080936201E09179012E
:100A4000F0917A0109956093670170936801809332
:100A5000690190936A01E0917701F091780109951D
:100A600060935E0170935F018093600190936101D8
:100A7000E0917901F0917A01099560936301709397
:100A800064018093650190936601E0917701F09194
:100A90007801099560935A0170935B0180935C0122
:100AA00090935D0181E00895EF92FF920F931F9361
:100AB000E0917901F0917A0109957B018C01809197
:100AC000670190916801A0916901B0916A01A80144
:100AD0009701281B390B4A0B5B0BCA01B901209106
:100AE000620130E040E050E0BED49B01AC01809157
:100AF000630190916401A0916501B0916601280F96
:100B0000391F4A1F5B1F2093630130936401409398
:100B1000650150936601E0926701F09268010093CD
:100B2000690110936A01B901CA011F910F91FF90E9
:100B3000EF900895EF92FF920F931F93E09177014A
:100B4000F091780109957B018C0180915E01909173
:100B50005F01A0916001B0916101A8019701281B7C
:100B6000390B4A0B5B0BCA01B9012091620130E0DD
:100B700040E050E078D49B01AC0180915A01909103
:100B80005B01A0915C01B0915D01280F391F4A1FE4
:100B90005B1F20935A0130935B0140935C0150939B
:100BA0005D01E0925E01F0925F010093600110939D
:100BB0006101B901CA011F910F91FF90EF90089553
:100BC000893180F5E82FF0E0EE0FFF1FEA5FFE4F5E
:100BD000808181542181662391F4E3E08E9FF001AE
:100BE000112481E090E002C0880F991F2A95E2F756
:100BF00021A1282B21A3809592A1982310C0E3E086
:100C00008E9FF001112481E090E002C0880F991FAF
:100C10002A95E2F791A1982B91A392A1982B92A3E8
:100C200081E0089580E008951F939CD08CE896E0C1
:100C300090937A01809379018EE796E09093780102
:100C40008093770110E0812F60E0BADF1F5F1931D8
:100C5000D1F781E090E01F9108951F93182F61E074
:100C6000AFDF812F60E0ACDF1F9108951F920F92DC
:100C70000FB60F9211242F933F938F939F93AF93AF
:100C8000BF9380916F0190917001A0917101B0911B
:100C90007201309173010196A11DB11D232F2D5FAB
:100CA0002D3720F02D570196A11DB11D2093730102
:100CB00080936F0190937001A0937101B0937201C2
:100CC00080916B0190916C01A0916D01B0916E01CA
:100CD0000196A11DB11D80936B0190936C01A093AF
:100CE0006D01B0936E01BF91AF919F918F913F9134
:100CF0002F910F900FBE0F901F9018958FB7F894FB
:100D000020916F01309170014091710150917201F9
:100D10008FBFB901CA0108959FB7F89420916B0164
:100D200030916C0140916D0150916E0186B5A89B88
:100D300006C08F3F21F02F5F3F4F4F4F5F4F9FBF48
:100D4000542F432F322F2227280F311D411D511DB3
:100D500082E0220F331F441F551F8A95D1F7B90136
:100D6000CA010895789484B5826084BD84B5816099
:100D700084BD85B5826085BD85B5816085BDEEE6A3
:100D8000F0E0808181608083E1E8F0E01082808182
:100D900082608083808181608083E0E8F0E08081F0
:100DA00081608083E1E9F0E08081826080838081DE
:100DB00081608083E0E9F0E0808181608083E1EC04
:100DC000F0E0808184608083808182608083808184
:100DD00081608083E3ECF0E0808181608083E0ECDF
:100DE000F0E0808182608083E2ECF0E080818160CD
:100DF0008083EAE7F0E08081846080838081826084
:100E00008083808181608083808180688083089571
:100E10008091E80080FFFCCF089581E08093D700A7
:100E200080EA8093D80082E189BD09B400FEFDCF3D
:100E300080E98093D8001092E000109274018CE059
:100E40008093E2007894089590917401992309F4B5
:100E50003DC09FB7F89423E02093E90020917601EC
:100E6000222341F02091E80025FD02C09FBF2EC043
:100E7000109276012091E4002C5F33E04091E8006D
:100E800045FD12C09FBF9091E400921721F481E0CC
:100E9000809376011BC0909174019923C9F09FB78C
:100EA000F8943093E900EACF8093F1008091E80054
:100EB00085FD06C08AE38093E8001092750103C0A7
:100EC00082E0809375019FBF80E008958FEF0895C1
:100ED0008FEF08951F920F920FB60F9211248F93E8
:100EE0009F938091E1001092E10083FF0FC0109268
:100EF000E90091E09093EB001092EC0092E2909365
:100F0000ED0098E09093F0001092740182FF1AC0F7
:100F1000809174018823B1F080917501882391F04C
:100F2000815080937501882369F483E08093E90000
:100F300002C01092F1008091E80085FDFACF8AE3AB
:100F40008093E8009F918F910F900FBE0F901F909C
:100F500018951F920F920FB60F921124EF92FF92E5
:100F60000F931F932F933F934F935F936F937F93B1
:100F70008F939F93AF93BF93EF93FF93DF93CF93A1
:100F80000F92CDB7DEB71092E9008091E80083FFA1
:100F90001CC14091F1005091F1000091F10010E06E
:100FA0002091F100922F80E0082B192B8091F10005
:100FB000E82EFF242091F100922F80E0E82AF92A00
:100FC0002091F10030E06091F100962F80E0282B15
:100FD000392B82EF8093E800563009F053C084E348
:100FE00091E0AC0145505040FC01379765917491F8
:100FF00060177107C9F4FA01659174916E157F0548
:1010000099F44E5F5F4FFA01859194914E5F5F4F67
:10101000FA0144912F3F310519F010F02FEF30E025
:10102000241750F4422F08C00796495F5F4FF1E044
:1010300085369F07C9F6C9C0AEEF2091E80030E0C1
:10104000B9016570707061157105B9F322FDC0C0FA
:10105000542F413208F050E29C01652F07C0F9017E
:101060002F5F3F4FE491E093F10061506623B9F7A1
:10107000850F911D451BA093E8004423F1F65032E3
:10108000E1F2A6C0553041F48EEF8093E800C0DE57
:1010900000680093E3009CC0593031F5442309F007
:1010A00094C0009374018EEF8093E80041E08EE5D8
:1010B00091E04093E900FC010196E491E093EB009C
:1010C000EE2369F09C012F5F3F4FFC0184918093D8
:1010D000EC00C9010196F90124912093ED004F5FC6
:1010E000453039F78EE146C0583049F4403809F0B0
:1010F0006CC08EDE809174018093F10016C0552380
:10110000C1F4498385DE4981423851F4E092E90017
:101110009091EB0081E095FF80E01092E90001C022
:1011200080E08093F1001092F1008EEF8093E80050
:101130004FC0513019F0533009F047C04230F9F434
:1011400001151105E1F46E2D6F77862F81508430E3
:10115000B0F48EEF8093E8006093E9005330A9F17A
:1011600089E18093EB0081E090E002C0880F991F35
:101170006A95E2F78093EA001092EA0029C05130A4
:1011800021F5413A11F5E114F104F9F43EEF8091B3
:10119000E80090E0AC014570507041155105B9F37D
:1011A00082FD16C0822F213208F080E2982F03C002
:1011B0001092F10091509923D9F7281B3093E80041
:1011C000222329F7803219F303C081E28093EB00D8
:1011D0000F90CF91DF91FF91EF91BF91AF919F91D0
:1011E0008F917F916F915F914F913F912F911F91BF
:1011F0000F91FF90EF900F900FBE0F901F901895DA
:101200001F93CF93DF93EC01FE01219614911123DC
:1012100039F01A3011F48DE017DE812F15DEF4CF8E
:10122000DF91CF911F9108958A3010F490E301C0AF
:1012300097E3890F09CE1F93182F82958F70F4DFE3
:10124000812F8F70F1DF1F9108951F93182F892F21
:10125000F2DF812FF0DF1F9108950F931F93CF933B
:10126000DF93C7E0D0E0082F10E0C8010C2E02C0C9
:10127000959587950A94E2F780FF03C08BEE91E085
:1012800002C089EE91E0BCDF21973FEFCF3FD3074B
:1012900061F7DF91CF911F910F910895ACD088F045
:1012A0009F5790F0B92F9927B751A0F0D1F0660F52
:1012B000771F881F991F1AF0BA95C9F712C0B1306D
:1012C00081F0CAD0B1E00895C7C0672F782F882772
:1012D000B85F39F0B93FCCF3869577956795B395AC
:1012E000D9F73EF490958095709561957F4F8F4F1B
:1012F0009F4F0895E89409C097FB3EF49095809520
:10130000709561957F4F8F4F9F4F9923A9F0F92FCB
:1013100096E9BB279395F695879577956795B79549
:10132000F111F8CFFAF4BB0F11F460FF1BC06F5F2F
:101330007F4F8F4F9F4F16C0882311F096E911C041
:10134000772321F09EE8872F762F05C0662371F062
:1013500096E8862F70E060E02AF09A95660F771F76
:10136000881FDAF7880F9695879597F908955DD0CD
:1013700080F09F3740F491110EF06FC060E070E094
:1013800080E89FEB089526F41B16611D711D811DD9
:1013900001C01BC0882371F4772321F09850872B5C
:1013A000762F07C0662311F499270DC09051862B24
:1013B00070E060E02AF09A95660F771F881FDAF7D1
:1013C000880F9695879597F908959F3F31F0915032
:1013D00020F4879577956795B795880F911D969519
:1013E000879597F9089557FD9058440F551F59F068
:1013F0005F3F71F04795880F97FB991F61F09F3F02
:1014000079F087950895121613061406551FF2CF2A
:101410004695F1DF08C0161617061806991FF1CF7A
:1014200086957105610508940895E5DFA0F0BEE793
:10143000B91788F4BB279F3860F41616B11D672FC3
:10144000782F8827985FF7CF869577956795B11D98
:1014500093959639C8F30895E894BB2766277727B4
:10146000CB0197F90895629FD001739FF001829F8D
:10147000E00DF11D649FE00DF11D929FF00D839F23
:10148000F00D749FF00D659FF00D9927729FB00DC0
:10149000E11DF91F639FB00DE11DF91FBD01CF01D3
:1014A0001124089597FB092E05260ED057FD04D070
:1014B00014D00AD0001C38F45095409530952195F1
:1014C0003F4F4F4F5F4F0895F6F790958095709579
:1014D00061957F4F8F4F9F4F0895A1E21A2EAA1B4F
:1014E000BB1BFD010DC0AA1FBB1FEE1FFF1FA217D4
:1014F000B307E407F50720F0A21BB30BE40BF50BD1
:10150000661F771F881F991F1A9469F76095709559
:10151000809590959B01AC01BD01CF010895F89491
:02152000FFCFFB
:1015220057802F2057DA420042014202420342070B
:10153200440044014402440343064307440644076B
:10154200420442054206460746064605460446014F
:0A155200460044044405450640002D
:00000001FF
